{
  "_format": "hh-sol-artifact-1",
  "contractName": "Products",
  "sourceName": "contracts/Products.sol",
  "abi": [
    {
      "inputs": [],
      "stateMutability": "nonpayable",
      "type": "constructor"
    },
    {
      "anonymous": false,
      "inputs": [
        {
          "indexed": true,
          "internalType": "address",
          "name": "account",
          "type": "address"
        },
        {
          "indexed": true,
          "internalType": "address",
          "name": "operator",
          "type": "address"
        },
        {
          "indexed": false,
          "internalType": "bool",
          "name": "approved",
          "type": "bool"
        }
      ],
      "name": "ApprovalForAll",
      "type": "event"
    },
    {
      "anonymous": false,
      "inputs": [
        {
          "indexed": false,
          "internalType": "uint256",
          "name": "orderId",
          "type": "uint256"
        },
        {
          "indexed": false,
          "internalType": "address",
          "name": "buyer",
          "type": "address"
        },
        {
          "indexed": false,
          "internalType": "address",
          "name": "seller",
          "type": "address"
        },
        {
          "indexed": false,
          "internalType": "uint256",
          "name": "price",
          "type": "uint256"
        }
      ],
      "name": "OrderCreated",
      "type": "event"
    },
    {
      "anonymous": false,
      "inputs": [
        {
          "indexed": false,
          "internalType": "uint256",
          "name": "orderId",
          "type": "uint256"
        }
      ],
      "name": "OrderDelivered",
      "type": "event"
    },
    {
      "anonymous": false,
      "inputs": [
        {
          "indexed": false,
          "internalType": "uint256",
          "name": "orderId",
          "type": "uint256"
        }
      ],
      "name": "OrderRefunded",
      "type": "event"
    },
    {
      "anonymous": false,
      "inputs": [
        {
          "indexed": true,
          "internalType": "address",
          "name": "operator",
          "type": "address"
        },
        {
          "indexed": true,
          "internalType": "address",
          "name": "from",
          "type": "address"
        },
        {
          "indexed": true,
          "internalType": "address",
          "name": "to",
          "type": "address"
        },
        {
          "indexed": false,
          "internalType": "uint256[]",
          "name": "ids",
          "type": "uint256[]"
        },
        {
          "indexed": false,
          "internalType": "uint256[]",
          "name": "values",
          "type": "uint256[]"
        }
      ],
      "name": "TransferBatch",
      "type": "event"
    },
    {
      "anonymous": false,
      "inputs": [
        {
          "indexed": true,
          "internalType": "address",
          "name": "operator",
          "type": "address"
        },
        {
          "indexed": true,
          "internalType": "address",
          "name": "from",
          "type": "address"
        },
        {
          "indexed": true,
          "internalType": "address",
          "name": "to",
          "type": "address"
        },
        {
          "indexed": false,
          "internalType": "uint256",
          "name": "id",
          "type": "uint256"
        },
        {
          "indexed": false,
          "internalType": "uint256",
          "name": "value",
          "type": "uint256"
        }
      ],
      "name": "TransferSingle",
      "type": "event"
    },
    {
      "anonymous": false,
      "inputs": [
        {
          "indexed": false,
          "internalType": "string",
          "name": "value",
          "type": "string"
        },
        {
          "indexed": true,
          "internalType": "uint256",
          "name": "id",
          "type": "uint256"
        }
      ],
      "name": "URI",
      "type": "event"
    },
    {
      "inputs": [
        {
          "internalType": "string",
          "name": "_name",
          "type": "string"
        },
        {
          "internalType": "string",
          "name": "_category",
          "type": "string"
        },
        {
          "internalType": "string[]",
          "name": "_imageLink",
          "type": "string[]"
        },
        {
          "internalType": "string",
          "name": "_descLink",
          "type": "string"
        },
        {
          "internalType": "uint256",
          "name": "_price",
          "type": "uint256"
        },
        {
          "internalType": "string",
          "name": "_location",
          "type": "string"
        },
        {
          "internalType": "uint256",
          "name": "_maxQuantity",
          "type": "uint256"
        },
        {
          "internalType": "uint256",
          "name": "_refundTimeLimit",
          "type": "uint256"
        }
      ],
      "name": "addProduct",
      "outputs": [
        {
          "internalType": "uint256",
          "name": "",
          "type": "uint256"
        }
      ],
      "stateMutability": "nonpayable",
      "type": "function"
    },
    {
      "inputs": [
        {
          "internalType": "address",
          "name": "",
          "type": "address"
        }
      ],
      "name": "addressToSingleProduct",
      "outputs": [
        {
          "internalType": "string",
          "name": "name",
          "type": "string"
        },
        {
          "internalType": "string",
          "name": "category",
          "type": "string"
        },
        {
          "internalType": "string",
          "name": "descLink",
          "type": "string"
        },
        {
          "internalType": "uint256",
          "name": "price",
          "type": "uint256"
        },
        {
          "internalType": "uint256",
          "name": "index",
          "type": "uint256"
        },
        {
          "internalType": "enum Products.OrderStatus",
          "name": "status",
          "type": "uint8"
        },
        {
          "internalType": "string",
          "name": "location",
          "type": "string"
        },
        {
          "internalType": "uint256",
          "name": "maxQuantity",
          "type": "uint256"
        },
        {
          "internalType": "address payable",
          "name": "owner",
          "type": "address"
        },
        {
          "internalType": "uint256",
          "name": "shippingFee",
          "type": "uint256"
        },
        {
          "internalType": "address",
          "name": "nftAddress",
          "type": "address"
        }
      ],
      "stateMutability": "view",
      "type": "function"
    },
    {
      "inputs": [
        {
          "internalType": "address",
          "name": "account",
          "type": "address"
        },
        {
          "internalType": "uint256",
          "name": "id",
          "type": "uint256"
        }
      ],
      "name": "balanceOf",
      "outputs": [
        {
          "internalType": "uint256",
          "name": "",
          "type": "uint256"
        }
      ],
      "stateMutability": "view",
      "type": "function"
    },
    {
      "inputs": [
        {
          "internalType": "address[]",
          "name": "accounts",
          "type": "address[]"
        },
        {
          "internalType": "uint256[]",
          "name": "ids",
          "type": "uint256[]"
        }
      ],
      "name": "balanceOfBatch",
      "outputs": [
        {
          "internalType": "uint256[]",
          "name": "",
          "type": "uint256[]"
        }
      ],
      "stateMutability": "view",
      "type": "function"
    },
    {
      "inputs": [
        {
          "internalType": "uint256",
          "name": "_orderId",
          "type": "uint256"
        }
      ],
      "name": "confirmDelivery",
      "outputs": [],
      "stateMutability": "nonpayable",
      "type": "function"
    },
    {
      "inputs": [
        {
          "internalType": "uint256",
          "name": "id",
          "type": "uint256"
        }
      ],
      "name": "exists",
      "outputs": [
        {
          "internalType": "bool",
          "name": "",
          "type": "bool"
        }
      ],
      "stateMutability": "view",
      "type": "function"
    },
    {
      "inputs": [],
      "name": "getAllOrder",
      "outputs": [
        {
          "components": [
            {
              "internalType": "uint256",
              "name": "orderId",
              "type": "uint256"
            },
            {
              "internalType": "address",
              "name": "buyer",
              "type": "address"
            },
            {
              "internalType": "address",
              "name": "seller",
              "type": "address"
            },
            {
              "internalType": "uint256",
              "name": "price",
              "type": "uint256"
            },
            {
              "internalType": "enum Products.OrderStatus",
              "name": "status",
              "type": "uint8"
            },
            {
              "internalType": "bool",
              "name": "isPaid",
              "type": "bool"
            },
            {
              "internalType": "bool",
              "name": "isFulfilled",
              "type": "bool"
            },
            {
              "internalType": "bool",
              "name": "isRefunded",
              "type": "bool"
            },
            {
              "internalType": "contract RefundEscrow",
              "name": "escrow",
              "type": "address"
            },
            {
              "internalType": "uint256",
              "name": "amount",
              "type": "uint256"
            },
            {
              "internalType": "address",
              "name": "nftAddress",
              "type": "address"
            }
          ],
          "internalType": "struct Products.Order[]",
          "name": "",
          "type": "tuple[]"
        }
      ],
      "stateMutability": "view",
      "type": "function"
    },
    {
      "inputs": [
        {
          "internalType": "address",
          "name": "_owner",
          "type": "address"
        }
      ],
      "name": "getProductByAddress",
      "outputs": [
        {
          "components": [
            {
              "internalType": "string",
              "name": "name",
              "type": "string"
            },
            {
              "internalType": "string",
              "name": "category",
              "type": "string"
            },
            {
              "internalType": "string[]",
              "name": "imageLink",
              "type": "string[]"
            },
            {
              "internalType": "string",
              "name": "descLink",
              "type": "string"
            },
            {
              "internalType": "uint256",
              "name": "price",
              "type": "uint256"
            },
            {
              "internalType": "uint256",
              "name": "index",
              "type": "uint256"
            },
            {
              "internalType": "enum Products.OrderStatus",
              "name": "status",
              "type": "uint8"
            },
            {
              "internalType": "string",
              "name": "location",
              "type": "string"
            },
            {
              "internalType": "uint256",
              "name": "maxQuantity",
              "type": "uint256"
            },
            {
              "internalType": "address payable",
              "name": "owner",
              "type": "address"
            },
            {
              "internalType": "uint256",
              "name": "shippingFee",
              "type": "uint256"
            },
            {
              "internalType": "address",
              "name": "nftAddress",
              "type": "address"
            }
          ],
          "internalType": "struct Products.Product[]",
          "name": "",
          "type": "tuple[]"
        }
      ],
      "stateMutability": "view",
      "type": "function"
    },
    {
      "inputs": [],
      "name": "getProductDetails",
      "outputs": [
        {
          "components": [
            {
              "internalType": "string",
              "name": "name",
              "type": "string"
            },
            {
              "internalType": "string",
              "name": "category",
              "type": "string"
            },
            {
              "internalType": "string[]",
              "name": "imageLink",
              "type": "string[]"
            },
            {
              "internalType": "string",
              "name": "descLink",
              "type": "string"
            },
            {
              "internalType": "uint256",
              "name": "price",
              "type": "uint256"
            },
            {
              "internalType": "uint256",
              "name": "index",
              "type": "uint256"
            },
            {
              "internalType": "enum Products.OrderStatus",
              "name": "status",
              "type": "uint8"
            },
            {
              "internalType": "string",
              "name": "location",
              "type": "string"
            },
            {
              "internalType": "uint256",
              "name": "maxQuantity",
              "type": "uint256"
            },
            {
              "internalType": "address payable",
              "name": "owner",
              "type": "address"
            },
            {
              "internalType": "uint256",
              "name": "shippingFee",
              "type": "uint256"
            },
            {
              "internalType": "address",
              "name": "nftAddress",
              "type": "address"
            }
          ],
          "internalType": "struct Products.Product[]",
          "name": "",
          "type": "tuple[]"
        }
      ],
      "stateMutability": "view",
      "type": "function"
    },
    {
      "inputs": [
        {
          "internalType": "address",
          "name": "seller",
          "type": "address"
        },
        {
          "internalType": "uint256",
          "name": "productId",
          "type": "uint256"
        }
      ],
      "name": "getSellerNFTBalance",
      "outputs": [
        {
          "internalType": "uint256",
          "name": "",
          "type": "uint256"
        }
      ],
      "stateMutability": "view",
      "type": "function"
    },
    {
      "inputs": [
        {
          "internalType": "address",
          "name": "account",
          "type": "address"
        },
        {
          "internalType": "address",
          "name": "operator",
          "type": "address"
        }
      ],
      "name": "isApprovedForAll",
      "outputs": [
        {
          "internalType": "bool",
          "name": "",
          "type": "bool"
        }
      ],
      "stateMutability": "view",
      "type": "function"
    },
    {
      "inputs": [
        {
          "internalType": "uint256",
          "name": "",
          "type": "uint256"
        }
      ],
      "name": "orders",
      "outputs": [
        {
          "internalType": "uint256",
          "name": "orderId",
          "type": "uint256"
        },
        {
          "internalType": "address",
          "name": "buyer",
          "type": "address"
        },
        {
          "internalType": "address",
          "name": "seller",
          "type": "address"
        },
        {
          "internalType": "uint256",
          "name": "price",
          "type": "uint256"
        },
        {
          "internalType": "enum Products.OrderStatus",
          "name": "status",
          "type": "uint8"
        },
        {
          "internalType": "bool",
          "name": "isPaid",
          "type": "bool"
        },
        {
          "internalType": "bool",
          "name": "isFulfilled",
          "type": "bool"
        },
        {
          "internalType": "bool",
          "name": "isRefunded",
          "type": "bool"
        },
        {
          "internalType": "contract RefundEscrow",
          "name": "escrow",
          "type": "address"
        },
        {
          "internalType": "uint256",
          "name": "amount",
          "type": "uint256"
        },
        {
          "internalType": "address",
          "name": "nftAddress",
          "type": "address"
        }
      ],
      "stateMutability": "view",
      "type": "function"
    },
    {
      "inputs": [
        {
          "internalType": "uint256",
          "name": "id",
          "type": "uint256"
        },
        {
          "internalType": "uint256",
          "name": "quantity",
          "type": "uint256"
        }
      ],
      "name": "placeOrder",
      "outputs": [],
      "stateMutability": "payable",
      "type": "function"
    },
    {
      "inputs": [
        {
          "internalType": "uint256",
          "name": "",
          "type": "uint256"
        }
      ],
      "name": "products",
      "outputs": [
        {
          "internalType": "string",
          "name": "name",
          "type": "string"
        },
        {
          "internalType": "string",
          "name": "category",
          "type": "string"
        },
        {
          "internalType": "string",
          "name": "descLink",
          "type": "string"
        },
        {
          "internalType": "uint256",
          "name": "price",
          "type": "uint256"
        },
        {
          "internalType": "uint256",
          "name": "index",
          "type": "uint256"
        },
        {
          "internalType": "enum Products.OrderStatus",
          "name": "status",
          "type": "uint8"
        },
        {
          "internalType": "string",
          "name": "location",
          "type": "string"
        },
        {
          "internalType": "uint256",
          "name": "maxQuantity",
          "type": "uint256"
        },
        {
          "internalType": "address payable",
          "name": "owner",
          "type": "address"
        },
        {
          "internalType": "uint256",
          "name": "shippingFee",
          "type": "uint256"
        },
        {
          "internalType": "address",
          "name": "nftAddress",
          "type": "address"
        }
      ],
      "stateMutability": "view",
      "type": "function"
    },
    {
      "inputs": [
        {
          "internalType": "uint256",
          "name": "_orderId",
          "type": "uint256"
        }
      ],
      "name": "refundOrder",
      "outputs": [],
      "stateMutability": "nonpayable",
      "type": "function"
    },
    {
      "inputs": [
        {
          "internalType": "address",
          "name": "from",
          "type": "address"
        },
        {
          "internalType": "address",
          "name": "to",
          "type": "address"
        },
        {
          "internalType": "uint256[]",
          "name": "ids",
          "type": "uint256[]"
        },
        {
          "internalType": "uint256[]",
          "name": "amounts",
          "type": "uint256[]"
        },
        {
          "internalType": "bytes",
          "name": "data",
          "type": "bytes"
        }
      ],
      "name": "safeBatchTransferFrom",
      "outputs": [],
      "stateMutability": "nonpayable",
      "type": "function"
    },
    {
      "inputs": [
        {
          "internalType": "address",
          "name": "from",
          "type": "address"
        },
        {
          "internalType": "address",
          "name": "to",
          "type": "address"
        },
        {
          "internalType": "uint256",
          "name": "id",
          "type": "uint256"
        },
        {
          "internalType": "uint256",
          "name": "amount",
          "type": "uint256"
        },
        {
          "internalType": "bytes",
          "name": "data",
          "type": "bytes"
        }
      ],
      "name": "safeTransferFrom",
      "outputs": [],
      "stateMutability": "nonpayable",
      "type": "function"
    },
    {
      "inputs": [
        {
          "internalType": "address",
          "name": "operator",
          "type": "address"
        },
        {
          "internalType": "bool",
          "name": "approved",
          "type": "bool"
        }
      ],
      "name": "setApprovalForAll",
      "outputs": [],
      "stateMutability": "nonpayable",
      "type": "function"
    },
    {
      "inputs": [
        {
          "internalType": "bytes4",
          "name": "interfaceId",
          "type": "bytes4"
        }
      ],
      "name": "supportsInterface",
      "outputs": [
        {
          "internalType": "bool",
          "name": "",
          "type": "bool"
        }
      ],
      "stateMutability": "view",
      "type": "function"
    },
    {
      "inputs": [
        {
          "internalType": "uint256",
          "name": "id",
          "type": "uint256"
        }
      ],
      "name": "totalSupply",
      "outputs": [
        {
          "internalType": "uint256",
          "name": "",
          "type": "uint256"
        }
      ],
      "stateMutability": "view",
      "type": "function"
    },
    {
      "inputs": [
        {
          "internalType": "uint256",
          "name": "",
          "type": "uint256"
        }
      ],
      "name": "uri",
      "outputs": [
        {
          "internalType": "string",
          "name": "",
          "type": "string"
        }
      ],
      "stateMutability": "view",
      "type": "function"
    }
  ],
  "bytecode": "0x60806040523480156200001157600080fd5b506040518060200160405280600081525060016000819055506200003b816200004260201b60201c565b50620003b8565b8060039081620000539190620002d1565b5050565b600081519050919050565b7f4e487b7100000000000000000000000000000000000000000000000000000000600052604160045260246000fd5b7f4e487b7100000000000000000000000000000000000000000000000000000000600052602260045260246000fd5b60006002820490506001821680620000d957607f821691505b602082108103620000ef57620000ee62000091565b5b50919050565b60008190508160005260206000209050919050565b60006020601f8301049050919050565b600082821b905092915050565b600060088302620001597fffffffffffffffffffffffffffffffffffffffffffffffffffffffffffffffff826200011a565b6200016586836200011a565b95508019841693508086168417925050509392505050565b6000819050919050565b6000819050919050565b6000620001b2620001ac620001a6846200017d565b62000187565b6200017d565b9050919050565b6000819050919050565b620001ce8362000191565b620001e6620001dd82620001b9565b84845462000127565b825550505050565b600090565b620001fd620001ee565b6200020a818484620001c3565b505050565b5b81811015620002325762000226600082620001f3565b60018101905062000210565b5050565b601f82111562000281576200024b81620000f5565b62000256846200010a565b8101602085101562000266578190505b6200027e62000275856200010a565b8301826200020f565b50505b505050565b600082821c905092915050565b6000620002a66000198460080262000286565b1980831691505092915050565b6000620002c1838362000293565b9150826002028217905092915050565b620002dc8262000057565b67ffffffffffffffff811115620002f857620002f762000062565b5b620003048254620000c0565b6200031182828562000236565b600060209050601f83116001811462000349576000841562000334578287015190505b620003408582620002b3565b865550620003b0565b601f1984166200035986620000f5565b60005b8281101562000383578489015182556001820191506020850194506020810190506200035c565b86831015620003a357848901516200039f601f89168262000293565b8355505b6001600288020188555050505b505050505050565b61851080620003c86000396000f3fe608060405260043610620001455760003560e01c80635f0d382a11620000bb578063a85c38ef1162000079578063a85c38ef14620004e2578063bd85b0391462000530578063c018c4571462000574578063e985e9c514620005a2578063f242432a14620005e6578063fd84cb9714620006145762000145565b80635f0d382a14620003be5780637acc0b201462000402578063843f61e21462000450578063a22cb4651462000470578063a3fa140e146200049e5762000145565b806323bc839b116200010957806323bc839b14620002a85780632eb2c2d614620002d85780633dfbbad414620003065780634e1273f414620003365780634f558e79146200037a5762000145565b8062fdd58e146200014a57806301ffc9a7146200018e5780630249c30f14620001d257806304316aff14620002205780630e89341c1462000264575b600080fd5b3480156200015757600080fd5b5062000176600480360381019062000170919062004502565b62000642565b6040516200018591906200455a565b60405180910390f35b3480156200019b57600080fd5b50620001ba6004803603810190620001b49190620045d4565b6200070e565b604051620001c9919062004623565b60405180910390f35b348015620001df57600080fd5b50620001fe6004803603810190620001f8919062004640565b620007f4565b604051620002179b9a99989796959493929190620047c2565b60405180910390f35b3480156200022d57600080fd5b506200024c600480360381019062000246919062004502565b62000adb565b6040516200025b91906200455a565b60405180910390f35b3480156200027157600080fd5b506200029060048036038101906200028a91906200489f565b62000b36565b6040516200029f9190620048d1565b60405180910390f35b348015620002b557600080fd5b50620002c062000bd2565b604051620002cf919062004c63565b60405180910390f35b348015620002e557600080fd5b50620003046004803603810190620002fe919062004eb3565b62001135565b005b3480156200031357600080fd5b506200031e620011e2565b6040516200032d9190620051c9565b60405180910390f35b3480156200034357600080fd5b506200036260048036038101906200035c9190620052c3565b6200144c565b60405162000371919062005405565b60405180910390f35b3480156200038757600080fd5b50620003a66004803603810190620003a091906200489f565b6200157b565b604051620003b5919062004623565b60405180910390f35b348015620003cb57600080fd5b50620003ea6004803603810190620003e4919062004640565b62001591565b604051620003f9919062004c63565b60405180910390f35b3480156200040f57600080fd5b506200042e60048036038101906200042891906200489f565b62001a92565b604051620004479b9a99989796959493929190620047c2565b60405180910390f35b6200046e600480360381019062000468919062005429565b62001d79565b005b3480156200047d57600080fd5b506200049c6004803603810190620004969190620054a1565b620025f5565b005b348015620004ab57600080fd5b50620004ca6004803603810190620004c4919062005693565b6200260f565b604051620004d991906200455a565b60405180910390f35b348015620004ef57600080fd5b506200050e60048036038101906200050891906200489f565b62002a13565b604051620005279b9a9998979695949392919062005808565b60405180910390f35b3480156200053d57600080fd5b506200055c60048036038101906200055691906200489f565b62002b21565b6040516200056b91906200455a565b60405180910390f35b3480156200058157600080fd5b50620005a060048036038101906200059a91906200489f565b62002b3e565b005b348015620005af57600080fd5b50620005ce6004803603810190620005c89190620058c9565b62002e51565b604051620005dd919062004623565b60405180910390f35b348015620005f357600080fd5b506200061260048036038101906200060c919062005910565b62002ee5565b005b3480156200062157600080fd5b506200064060048036038101906200063a91906200489f565b62002f92565b005b60008073ffffffffffffffffffffffffffffffffffffffff168373ffffffffffffffffffffffffffffffffffffffff1603620006b5576040517f08c379a0000000000000000000000000000000000000000000000000000000008152600401620006ac9062005a2d565b60405180910390fd5b6001600083815260200190815260200160002060008473ffffffffffffffffffffffffffffffffffffffff1673ffffffffffffffffffffffffffffffffffffffff16815260200190815260200160002054905092915050565b60007fd9b67a26000000000000000000000000000000000000000000000000000000007bffffffffffffffffffffffffffffffffffffffffffffffffffffffff1916827bffffffffffffffffffffffffffffffffffffffffffffffffffffffff19161480620007da57507f0e89341c000000000000000000000000000000000000000000000000000000007bffffffffffffffffffffffffffffffffffffffffffffffffffffffff1916827bffffffffffffffffffffffffffffffffffffffffffffffffffffffff1916145b80620007ed5750620007ec826200319a565b5b9050919050565b600a602052806000526040600020600091509050806000018054620008199062005a7e565b80601f0160208091040260200160405190810160405280929190818152602001828054620008479062005a7e565b8015620008985780601f106200086c5761010080835404028352916020019162000898565b820191906000526020600020905b8154815290600101906020018083116200087a57829003601f168201915b505050505090806001018054620008af9062005a7e565b80601f0160208091040260200160405190810160405280929190818152602001828054620008dd9062005a7e565b80156200092e5780601f1062000902576101008083540402835291602001916200092e565b820191906000526020600020905b8154815290600101906020018083116200091057829003601f168201915b505050505090806003018054620009459062005a7e565b80601f0160208091040260200160405190810160405280929190818152602001828054620009739062005a7e565b8015620009c45780601f106200099857610100808354040283529160200191620009c4565b820191906000526020600020905b815481529060010190602001808311620009a657829003601f168201915b5050505050908060040154908060050154908060060160009054906101000a900460ff1690806007018054620009fa9062005a7e565b80601f016020809104026020016040519081016040528092919081815260200182805462000a289062005a7e565b801562000a795780601f1062000a4d5761010080835404028352916020019162000a79565b820191906000526020600020905b81548152906001019060200180831162000a5b57829003601f168201915b5050505050908060080154908060090160009054906101000a900473ffffffffffffffffffffffffffffffffffffffff169080600a01549080600b0160009054906101000a900473ffffffffffffffffffffffffffffffffffffffff1690508b565b6000600b60008473ffffffffffffffffffffffffffffffffffffffff1673ffffffffffffffffffffffffffffffffffffffff168152602001908152602001600020600083815260200190815260200160002054905092915050565b60606003805462000b479062005a7e565b80601f016020809104026020016040519081016040528092919081815260200182805462000b759062005a7e565b801562000bc65780601f1062000b9a5761010080835404028352916020019162000bc6565b820191906000526020600020905b81548152906001019060200180831162000ba857829003601f168201915b50505050509050919050565b60606000600c80549050905060008167ffffffffffffffff81111562000bfd5762000bfc62004c8c565b5b60405190808252806020026020018201604052801562000c3a57816020015b62000c266200424d565b81526020019060019003908162000c1c5790505b50905060005b828110156200112c57600c8160018562000c5b919062005ae2565b62000c67919062005ae2565b8154811062000c7b5762000c7a62005b1d565b5b90600052602060002090600c02016040518061018001604052908160008201805462000ca79062005a7e565b80601f016020809104026020016040519081016040528092919081815260200182805462000cd59062005a7e565b801562000d265780601f1062000cfa5761010080835404028352916020019162000d26565b820191906000526020600020905b81548152906001019060200180831162000d0857829003601f168201915b5050505050815260200160018201805462000d419062005a7e565b80601f016020809104026020016040519081016040528092919081815260200182805462000d6f9062005a7e565b801562000dc05780601f1062000d945761010080835404028352916020019162000dc0565b820191906000526020600020905b81548152906001019060200180831162000da257829003601f168201915b5050505050815260200160028201805480602002602001604051908101604052809291908181526020016000905b8282101562000ea457838290600052602060002001805462000e109062005a7e565b80601f016020809104026020016040519081016040528092919081815260200182805462000e3e9062005a7e565b801562000e8f5780601f1062000e635761010080835404028352916020019162000e8f565b820191906000526020600020905b81548152906001019060200180831162000e7157829003601f168201915b50505050508152602001906001019062000dee565b50505050815260200160038201805462000ebe9062005a7e565b80601f016020809104026020016040519081016040528092919081815260200182805462000eec9062005a7e565b801562000f3d5780601f1062000f115761010080835404028352916020019162000f3d565b820191906000526020600020905b81548152906001019060200180831162000f1f57829003601f168201915b5050505050815260200160048201548152602001600582015481526020016006820160009054906101000a900460ff16600481111562000f825762000f816200470c565b5b600481111562000f975762000f966200470c565b5b815260200160078201805462000fad9062005a7e565b80601f016020809104026020016040519081016040528092919081815260200182805462000fdb9062005a7e565b80156200102c5780601f1062001000576101008083540402835291602001916200102c565b820191906000526020600020905b8154815290600101906020018083116200100e57829003601f168201915b50505050508152602001600882015481526020016009820160009054906101000a900473ffffffffffffffffffffffffffffffffffffffff1673ffffffffffffffffffffffffffffffffffffffff1673ffffffffffffffffffffffffffffffffffffffff168152602001600a8201548152602001600b820160009054906101000a900473ffffffffffffffffffffffffffffffffffffffff1673ffffffffffffffffffffffffffffffffffffffff1673ffffffffffffffffffffffffffffffffffffffff16815250508282815181106200110b576200110a62005b1d565b5b60200260200101819052508080620011239062005b4c565b91505062000c40565b50809250505090565b6200113f62003204565b73ffffffffffffffffffffffffffffffffffffffff168573ffffffffffffffffffffffffffffffffffffffff1614806200118a575062001189856200118362003204565b62002e51565b5b620011cc576040517f08c379a0000000000000000000000000000000000000000000000000000000008152600401620011c39062005c0f565b60405180910390fd5b620011db85858585856200320c565b5050505050565b6060600d805480602002602001604051908101604052809291908181526020016000905b8282101562001443578382906000526020600020906007020160405180610160016040529081600082015481526020016001820160009054906101000a900473ffffffffffffffffffffffffffffffffffffffff1673ffffffffffffffffffffffffffffffffffffffff1673ffffffffffffffffffffffffffffffffffffffff1681526020016002820160009054906101000a900473ffffffffffffffffffffffffffffffffffffffff1673ffffffffffffffffffffffffffffffffffffffff1673ffffffffffffffffffffffffffffffffffffffff168152602001600382015481526020016004820160009054906101000a900460ff1660048111156200131357620013126200470c565b5b60048111156200132857620013276200470c565b5b81526020016004820160019054906101000a900460ff161515151581526020016004820160029054906101000a900460ff161515151581526020016004820160039054906101000a900460ff161515151581526020016004820160049054906101000a900473ffffffffffffffffffffffffffffffffffffffff1673ffffffffffffffffffffffffffffffffffffffff1673ffffffffffffffffffffffffffffffffffffffff168152602001600582015481526020016006820160009054906101000a900473ffffffffffffffffffffffffffffffffffffffff1673ffffffffffffffffffffffffffffffffffffffff1673ffffffffffffffffffffffffffffffffffffffff16815250508152602001906001019062001206565b50505050905090565b6060815183511462001495576040517f08c379a00000000000000000000000000000000000000000000000000000000081526004016200148c9062005ca7565b60405180910390fd5b6000835167ffffffffffffffff811115620014b557620014b462004c8c565b5b604051908082528060200260200182016040528015620014e45781602001602082028036833780820191505090505b50905060005b845181101562001570576200153a8582815181106200150e576200150d62005b1d565b5b60200260200101518583815181106200152c576200152b62005b1d565b5b602002602001015162000642565b82828151811062001550576200154f62005b1d565b5b60200260200101818152505080620015689062005b4c565b9050620014ea565b508091505092915050565b600080620015898362002b21565b119050919050565b6060600960008373ffffffffffffffffffffffffffffffffffffffff1673ffffffffffffffffffffffffffffffffffffffff168152602001908152602001600020805480602002602001604051908101604052809291908181526020016000905b8282101562001a8757838290600052602060002090600c020160405180610180016040529081600082018054620016299062005a7e565b80601f0160208091040260200160405190810160405280929190818152602001828054620016579062005a7e565b8015620016a85780601f106200167c57610100808354040283529160200191620016a8565b820191906000526020600020905b8154815290600101906020018083116200168a57829003601f168201915b50505050508152602001600182018054620016c39062005a7e565b80601f0160208091040260200160405190810160405280929190818152602001828054620016f19062005a7e565b8015620017425780601f10620017165761010080835404028352916020019162001742565b820191906000526020600020905b8154815290600101906020018083116200172457829003601f168201915b5050505050815260200160028201805480602002602001604051908101604052809291908181526020016000905b8282101562001826578382906000526020600020018054620017929062005a7e565b80601f0160208091040260200160405190810160405280929190818152602001828054620017c09062005a7e565b8015620018115780601f10620017e55761010080835404028352916020019162001811565b820191906000526020600020905b815481529060010190602001808311620017f357829003601f168201915b50505050508152602001906001019062001770565b505050508152602001600382018054620018409062005a7e565b80601f01602080910402602001604051908101604052809291908181526020018280546200186e9062005a7e565b8015620018bf5780601f106200189357610100808354040283529160200191620018bf565b820191906000526020600020905b815481529060010190602001808311620018a157829003601f168201915b5050505050815260200160048201548152602001600582015481526020016006820160009054906101000a900460ff1660048111156200190457620019036200470c565b5b60048111156200191957620019186200470c565b5b81526020016007820180546200192f9062005a7e565b80601f01602080910402602001604051908101604052809291908181526020018280546200195d9062005a7e565b8015620019ae5780601f106200198257610100808354040283529160200191620019ae565b820191906000526020600020905b8154815290600101906020018083116200199057829003601f168201915b50505050508152602001600882015481526020016009820160009054906101000a900473ffffffffffffffffffffffffffffffffffffffff1673ffffffffffffffffffffffffffffffffffffffff1673ffffffffffffffffffffffffffffffffffffffff168152602001600a8201548152602001600b820160009054906101000a900473ffffffffffffffffffffffffffffffffffffffff1673ffffffffffffffffffffffffffffffffffffffff1673ffffffffffffffffffffffffffffffffffffffff168152505081526020019060010190620015f2565b505050509050919050565b600860205280600052604060002060009150905080600001805462001ab79062005a7e565b80601f016020809104026020016040519081016040528092919081815260200182805462001ae59062005a7e565b801562001b365780601f1062001b0a5761010080835404028352916020019162001b36565b820191906000526020600020905b81548152906001019060200180831162001b1857829003601f168201915b50505050509080600101805462001b4d9062005a7e565b80601f016020809104026020016040519081016040528092919081815260200182805462001b7b9062005a7e565b801562001bcc5780601f1062001ba05761010080835404028352916020019162001bcc565b820191906000526020600020905b81548152906001019060200180831162001bae57829003601f168201915b50505050509080600301805462001be39062005a7e565b80601f016020809104026020016040519081016040528092919081815260200182805462001c119062005a7e565b801562001c625780601f1062001c365761010080835404028352916020019162001c62565b820191906000526020600020905b81548152906001019060200180831162001c4457829003601f168201915b5050505050908060040154908060050154908060060160009054906101000a900460ff169080600701805462001c989062005a7e565b80601f016020809104026020016040519081016040528092919081815260200182805462001cc69062005a7e565b801562001d175780601f1062001ceb5761010080835404028352916020019162001d17565b820191906000526020600020905b81548152906001019060200180831162001cf957829003601f168201915b5050505050908060080154908060090160009054906101000a900473ffffffffffffffffffffffffffffffffffffffff169080600a01549080600b0160009054906101000a900473ffffffffffffffffffffffffffffffffffffffff1690508b565b62001d836200354f565b600062001d916006620035a1565b90506000600760008381526020019081526020016000209050600060086000868152602001908152602001600020600a015484600860008881526020019081526020016000206004015462001de7919062005cc9565b62001df3919062005cc9565b90506000841162001e3b576040517f08c379a000000000000000000000000000000000000000000000000000000000815260040162001e329062005d54565b60405180910390fd5b836008600087815260200190815260200160002060080154101562001e97576040517f08c379a000000000000000000000000000000000000000000000000000000000815260040162001e8e9062005dc6565b60405180910390fd5b8034101562001edd576040517f08c379a000000000000000000000000000000000000000000000000000000000815260040162001ed49062005e38565b60405180910390fd5b8160040160019054906101000a900460ff161562001f32576040517f08c379a000000000000000000000000000000000000000000000000000000000815260040162001f299062005eaa565b60405180910390fd5b6000600481111562001f495762001f486200470c565b5b6008600087815260200190815260200160002060060160009054906101000a900460ff16600481111562001f825762001f816200470c565b5b1462001fc5576040517f08c379a000000000000000000000000000000000000000000000000000000000815260040162001fbc9062005f1c565b60405180910390fd5b60006008600087815260200190815260200160002060090160009054906101000a900473ffffffffffffffffffffffffffffffffffffffff1690506000816040516200201190620042ef565b6200201d919062005f3e565b604051809103906000f0801580156200203a573d6000803e3d6000fd5b5090508073ffffffffffffffffffffffffffffffffffffffff1663f340fa0184336040518363ffffffff1660e01b815260040162002079919062005f80565b6000604051808303818588803b1580156200209357600080fd5b505af1158015620020a8573d6000803e3d6000fd5b5050505050848460000181905550338460010160006101000a81548173ffffffffffffffffffffffffffffffffffffffff021916908373ffffffffffffffffffffffffffffffffffffffff160217905550818460020160006101000a81548173ffffffffffffffffffffffffffffffffffffffff021916908373ffffffffffffffffffffffffffffffffffffffff16021790555082846003018190555060018460040160006101000a81548160ff0219169083600481111562002170576200216f6200470c565b5b021790555060018460040160016101000a81548160ff02191690831515021790555060008460040160026101000a81548160ff02191690831515021790555060008460040160036101000a81548160ff021916908315150217905550808460040160046101000a81548173ffffffffffffffffffffffffffffffffffffffff021916908373ffffffffffffffffffffffffffffffffffffffff16021790555085846005018190555060086000888152602001908152602001600020600b0160009054906101000a900473ffffffffffffffffffffffffffffffffffffffff168460060160006101000a81548173ffffffffffffffffffffffffffffffffffffffff021916908373ffffffffffffffffffffffffffffffffffffffff160217905550620022af823389896040518060200160405280600081525062002ee5565b85600860008981526020019081526020016000206008016000828254620022d7919062005ae2565b92505081905550600d849080600181540180825580915050600190039060005260206000209060070201600090919091909150600082015481600001556001820160009054906101000a900473ffffffffffffffffffffffffffffffffffffffff168160010160006101000a81548173ffffffffffffffffffffffffffffffffffffffff021916908373ffffffffffffffffffffffffffffffffffffffff1602179055506002820160009054906101000a900473ffffffffffffffffffffffffffffffffffffffff168160020160006101000a81548173ffffffffffffffffffffffffffffffffffffffff021916908373ffffffffffffffffffffffffffffffffffffffff160217905550600382015481600301556004820160009054906101000a900460ff168160040160006101000a81548160ff021916908360048111156200242757620024266200470c565b5b02179055506004820160019054906101000a900460ff168160040160016101000a81548160ff0219169083151502179055506004820160029054906101000a900460ff168160040160026101000a81548160ff0219169083151502179055506004820160039054906101000a900460ff168160040160036101000a81548160ff0219169083151502179055506004820160049054906101000a900473ffffffffffffffffffffffffffffffffffffffff168160040160046101000a81548173ffffffffffffffffffffffffffffffffffffffff021916908373ffffffffffffffffffffffffffffffffffffffff160217905550600582015481600501556006820160009054906101000a900473ffffffffffffffffffffffffffffffffffffffff168160060160006101000a81548173ffffffffffffffffffffffffffffffffffffffff021916908373ffffffffffffffffffffffffffffffffffffffff16021790555050507ff9e17940e547201709f9aaacdec8ab3566601c60d8f5affb54f74b79b0b50b13853384600860008c815260200190815260200160002060040154604051620025da949392919062005f9d565b60405180910390a15050505050620025f1620035af565b5050565b6200260b6200260362003204565b8383620035b9565b5050565b60008073ffffffffffffffffffffffffffffffffffffffff163373ffffffffffffffffffffffffffffffffffffffff160362002682576040517f08c379a000000000000000000000000000000000000000000000000000000000815260040162002679906200603a565b60405180910390fd5b6000620026906005620035a1565b905060006008600083815260200190815260200160002090508a816000019081620026bc919062006224565b50338160090160006101000a81548173ffffffffffffffffffffffffffffffffffffffff021916908373ffffffffffffffffffffffffffffffffffffffff1602179055508981600101908162002713919062006224565b508781600301908162002727919062006224565b508881600201908051906020019062002742929190620042fd565b50818160050181905550858160070190816200275f919062006224565b5084816008018190555086816004018190555060008160060160006101000a81548160ff021916908360048111156200279d576200279c6200470c565b5b02179055508381600a0181905550600c8190806001815401808255809150506001900390600052602060002090600c020160009091909190915060008201816000019081620027ed919062006323565b506001820181600101908162002804919062006323565b5060028201816002019080546200281d9291906200435d565b506003820181600301908162002834919062006323565b5060048201548160040155600582015481600501556006820160009054906101000a900460ff168160060160006101000a81548160ff021916908360048111156200288457620028836200470c565b5b0217905550600782018160070190816200289f919062006323565b50600882015481600801556009820160009054906101000a900473ffffffffffffffffffffffffffffffffffffffff168160090160006101000a81548173ffffffffffffffffffffffffffffffffffffffff021916908373ffffffffffffffffffffffffffffffffffffffff160217905550600a82015481600a0155600b820160009054906101000a900473ffffffffffffffffffffffffffffffffffffffff1681600b0160006101000a81548173ffffffffffffffffffffffffffffffffffffffff021916908373ffffffffffffffffffffffffffffffffffffffff16021790555050506200299060056200372a565b620029ad3383876040518060200160405280600081525062003740565b84600b60003373ffffffffffffffffffffffffffffffffffffffff1673ffffffffffffffffffffffffffffffffffffffff168152602001908152602001600020600084815260200190815260200160002081905550819250505098975050505050505050565b60076020528060005260406000206000915090508060000154908060010160009054906101000a900473ffffffffffffffffffffffffffffffffffffffff16908060020160009054906101000a900473ffffffffffffffffffffffffffffffffffffffff16908060030154908060040160009054906101000a900460ff16908060040160019054906101000a900460ff16908060040160029054906101000a900460ff16908060040160039054906101000a900460ff16908060040160049054906101000a900473ffffffffffffffffffffffffffffffffffffffff16908060050154908060060160009054906101000a900473ffffffffffffffffffffffffffffffffffffffff1690508b565b600060046000838152602001908152602001600020549050919050565b806007600082815260200190815260200160002060020160009054906101000a900473ffffffffffffffffffffffffffffffffffffffff1673ffffffffffffffffffffffffffffffffffffffff163373ffffffffffffffffffffffffffffffffffffffff161462002be6576040517f08c379a000000000000000000000000000000000000000000000000000000000815260040162002bdd906200649a565b60405180910390fd5b62002bf06200354f565b60006007600084815260200190815260200160002090508060040160019054906101000a900460ff1662002c5b576040517f08c379a000000000000000000000000000000000000000000000000000000000815260040162002c52906200650c565b60405180910390fd5b8060040160029054906101000a900460ff161562002cb0576040517f08c379a000000000000000000000000000000000000000000000000000000000815260040162002ca790620065a4565b60405180910390fd5b8060040160049054906101000a900473ffffffffffffffffffffffffffffffffffffffff1673ffffffffffffffffffffffffffffffffffffffff16638c52dc416040518163ffffffff1660e01b8152600401600060405180830381600087803b15801562002d1d57600080fd5b505af115801562002d32573d6000803e3d6000fd5b5050505060048160040160006101000a81548160ff0219169083600481111562002d615762002d606200470c565b5b021790555060018160040160036101000a81548160ff0219169083151502179055508060040160049054906101000a900473ffffffffffffffffffffffffffffffffffffffff1673ffffffffffffffffffffffffffffffffffffffff16639af6549a6040518163ffffffff1660e01b8152600401600060405180830381600087803b15801562002df057600080fd5b505af115801562002e05573d6000803e3d6000fd5b505050507f303a31648d19f17852cf82657162c4bdd4a06ab3f36f1e7ae1118f4ca6473e118360405162002e3a91906200455a565b60405180910390a15062002e4d620035af565b5050565b6000600260008473ffffffffffffffffffffffffffffffffffffffff1673ffffffffffffffffffffffffffffffffffffffff16815260200190815260200160002060008373ffffffffffffffffffffffffffffffffffffffff1673ffffffffffffffffffffffffffffffffffffffff16815260200190815260200160002060009054906101000a900460ff16905092915050565b62002eef62003204565b73ffffffffffffffffffffffffffffffffffffffff168573ffffffffffffffffffffffffffffffffffffffff16148062002f3a575062002f398562002f3362003204565b62002e51565b5b62002f7c576040517f08c379a000000000000000000000000000000000000000000000000000000000815260040162002f739062005c0f565b60405180910390fd5b62002f8b858585858562003904565b5050505050565b806007600082815260200190815260200160002060010160009054906101000a900473ffffffffffffffffffffffffffffffffffffffff1673ffffffffffffffffffffffffffffffffffffffff163373ffffffffffffffffffffffffffffffffffffffff16146200303a576040517f08c379a000000000000000000000000000000000000000000000000000000000815260040162003031906200663c565b60405180910390fd5b620030446200354f565b60006007600084815260200190815260200160002090508060040160019054906101000a900460ff16620030af576040517f08c379a0000000000000000000000000000000000000000000000000000000008152600401620030a6906200650c565b60405180910390fd5b8060040160049054906101000a900473ffffffffffffffffffffffffffffffffffffffff1673ffffffffffffffffffffffffffffffffffffffff166343d726d66040518163ffffffff1660e01b8152600401600060405180830381600087803b1580156200311c57600080fd5b505af115801562003131573d6000803e3d6000fd5b5050505060018160040160026101000a81548160ff0219169083151502179055507fe21fe02c1589242b30be2057f54fd54b7ddc463695d19ffdb54f9ebb0584f24a836040516200318391906200455a565b60405180910390a15062003196620035af565b5050565b60007f01ffc9a7000000000000000000000000000000000000000000000000000000007bffffffffffffffffffffffffffffffffffffffffffffffffffffffff1916827bffffffffffffffffffffffffffffffffffffffffffffffffffffffff1916149050919050565b600033905090565b815183511462003253576040517f08c379a00000000000000000000000000000000000000000000000000000000081526004016200324a90620066d4565b60405180910390fd5b600073ffffffffffffffffffffffffffffffffffffffff168473ffffffffffffffffffffffffffffffffffffffff1603620032c5576040517f08c379a0000000000000000000000000000000000000000000000000000000008152600401620032bc906200676c565b60405180910390fd5b6000620032d162003204565b9050620032e381878787878762003bb8565b60005b8451811015620034a657600085828151811062003308576200330762005b1d565b5b6020026020010151905060008583815181106200332a576200332962005b1d565b5b6020026020010151905060006001600084815260200190815260200160002060008b73ffffffffffffffffffffffffffffffffffffffff1673ffffffffffffffffffffffffffffffffffffffff16815260200190815260200160002054905081811015620033cf576040517f08c379a0000000000000000000000000000000000000000000000000000000008152600401620033c69062006804565b60405180910390fd5b8181036001600085815260200190815260200160002060008c73ffffffffffffffffffffffffffffffffffffffff1673ffffffffffffffffffffffffffffffffffffffff16815260200190815260200160002081905550816001600085815260200190815260200160002060008b73ffffffffffffffffffffffffffffffffffffffff1673ffffffffffffffffffffffffffffffffffffffff168152602001908152602001600020600082825462003488919062005cc9565b92505081905550505050806200349e9062005b4c565b9050620032e6565b508473ffffffffffffffffffffffffffffffffffffffff168673ffffffffffffffffffffffffffffffffffffffff168273ffffffffffffffffffffffffffffffffffffffff167f4a39dc06d4c0dbc64b70af90fd698a233a518aa5d07e595d983b8c0526c8f7fb87876040516200351f92919062006826565b60405180910390a46200353781878787878762003bd0565b6200354781878787878762003bd8565b505050505050565b60026000540362003597576040517f08c379a00000000000000000000000000000000000000000000000000000000081526004016200358e90620068b1565b60405180910390fd5b6002600081905550565b600081600001549050919050565b6001600081905550565b8173ffffffffffffffffffffffffffffffffffffffff168373ffffffffffffffffffffffffffffffffffffffff16036200362a576040517f08c379a0000000000000000000000000000000000000000000000000000000008152600401620036219062006949565b60405180910390fd5b80600260008573ffffffffffffffffffffffffffffffffffffffff1673ffffffffffffffffffffffffffffffffffffffff16815260200190815260200160002060008473ffffffffffffffffffffffffffffffffffffffff1673ffffffffffffffffffffffffffffffffffffffff16815260200190815260200160002060006101000a81548160ff0219169083151502179055508173ffffffffffffffffffffffffffffffffffffffff168373ffffffffffffffffffffffffffffffffffffffff167f17307eab39ab6107e8899845ad3d59bd9653f200f220920489ca2b5937696c31836040516200371d919062004623565b60405180910390a3505050565b6001816000016000828254019250508190555050565b600073ffffffffffffffffffffffffffffffffffffffff168473ffffffffffffffffffffffffffffffffffffffff1603620037b2576040517f08c379a0000000000000000000000000000000000000000000000000000000008152600401620037a990620069e1565b60405180910390fd5b6000620037be62003204565b90506000620037cd8562003dc6565b90506000620037dc8562003dc6565b9050620037ef8360008985858962003bb8565b846001600088815260200190815260200160002060008973ffffffffffffffffffffffffffffffffffffffff1673ffffffffffffffffffffffffffffffffffffffff168152602001908152602001600020600082825462003851919062005cc9565b925050819055508673ffffffffffffffffffffffffffffffffffffffff16600073ffffffffffffffffffffffffffffffffffffffff168473ffffffffffffffffffffffffffffffffffffffff167fc3d58168c5ae7397731d063d5bbf3d657854427343f4c083240f7aacaa2d0f628989604051620038d192919062006a03565b60405180910390a4620038ea8360008985858962003bd0565b620038fb8360008989898962003e47565b50505050505050565b600073ffffffffffffffffffffffffffffffffffffffff168473ffffffffffffffffffffffffffffffffffffffff160362003976576040517f08c379a00000000000000000000000000000000000000000000000000000000081526004016200396d906200676c565b60405180910390fd5b60006200398262003204565b90506000620039918562003dc6565b90506000620039a08562003dc6565b9050620039b283898985858962003bb8565b60006001600088815260200190815260200160002060008a73ffffffffffffffffffffffffffffffffffffffff1673ffffffffffffffffffffffffffffffffffffffff1681526020019081526020016000205490508581101562003a4d576040517f08c379a000000000000000000000000000000000000000000000000000000000815260040162003a449062006804565b60405180910390fd5b8581036001600089815260200190815260200160002060008b73ffffffffffffffffffffffffffffffffffffffff1673ffffffffffffffffffffffffffffffffffffffff16815260200190815260200160002081905550856001600089815260200190815260200160002060008a73ffffffffffffffffffffffffffffffffffffffff1673ffffffffffffffffffffffffffffffffffffffff168152602001908152602001600020600082825462003b06919062005cc9565b925050819055508773ffffffffffffffffffffffffffffffffffffffff168973ffffffffffffffffffffffffffffffffffffffff168573ffffffffffffffffffffffffffffffffffffffff167fc3d58168c5ae7397731d063d5bbf3d657854427343f4c083240f7aacaa2d0f628a8a60405162003b8592919062006a03565b60405180910390a462003b9d848a8a86868a62003bd0565b62003bad848a8a8a8a8a62003e47565b505050505050505050565b62003bc886868686868662004035565b505050505050565b505050505050565b62003bf98473ffffffffffffffffffffffffffffffffffffffff1662004222565b1562003dbe578373ffffffffffffffffffffffffffffffffffffffff1663bc197c8187878686866040518663ffffffff1660e01b815260040162003c4295949392919062006a8d565b6020604051808303816000875af192505050801562003c8157506040513d601f19601f8201168201806040525081019062003c7e919062006b16565b60015b62003d325762003c9062006b55565b806308c379a00362003cf3575062003ca762006b7a565b8062003cb4575062003cf5565b806040517f08c379a000000000000000000000000000000000000000000000000000000000815260040162003cea9190620048d1565b60405180910390fd5b505b6040517f08c379a000000000000000000000000000000000000000000000000000000000815260040162003d299062006c8b565b60405180910390fd5b63bc197c8160e01b7bffffffffffffffffffffffffffffffffffffffffffffffffffffffff1916817bffffffffffffffffffffffffffffffffffffffffffffffffffffffff19161462003dbc576040517f08c379a000000000000000000000000000000000000000000000000000000000815260040162003db39062006d23565b60405180910390fd5b505b505050505050565b60606000600167ffffffffffffffff81111562003de85762003de762004c8c565b5b60405190808252806020026020018201604052801562003e175781602001602082028036833780820191505090505b509050828160008151811062003e325762003e3162005b1d565b5b60200260200101818152505080915050919050565b62003e688473ffffffffffffffffffffffffffffffffffffffff1662004222565b156200402d578373ffffffffffffffffffffffffffffffffffffffff1663f23a6e6187878686866040518663ffffffff1660e01b815260040162003eb195949392919062006d45565b6020604051808303816000875af192505050801562003ef057506040513d601f19601f8201168201806040525081019062003eed919062006b16565b60015b62003fa15762003eff62006b55565b806308c379a00362003f62575062003f1662006b7a565b8062003f23575062003f64565b806040517f08c379a000000000000000000000000000000000000000000000000000000000815260040162003f599190620048d1565b60405180910390fd5b505b6040517f08c379a000000000000000000000000000000000000000000000000000000000815260040162003f989062006c8b565b60405180910390fd5b63f23a6e6160e01b7bffffffffffffffffffffffffffffffffffffffffffffffffffffffff1916817bffffffffffffffffffffffffffffffffffffffffffffffffffffffff1916146200402b576040517f08c379a0000000000000000000000000000000000000000000000000000000008152600401620040229062006d23565b60405180910390fd5b505b505050505050565b6200404586868686868662004245565b600073ffffffffffffffffffffffffffffffffffffffff168573ffffffffffffffffffffffffffffffffffffffff1603620041035760005b835181101562004101578281815181106200409d576200409c62005b1d565b5b602002602001015160046000868481518110620040bf57620040be62005b1d565b5b602002602001015181526020019081526020016000206000828254620040e6919062005cc9565b9250508190555080620040f99062005b4c565b90506200407d565b505b600073ffffffffffffffffffffffffffffffffffffffff168473ffffffffffffffffffffffffffffffffffffffff16036200421a5760005b8351811015620042185760008482815181106200415d576200415c62005b1d565b5b6020026020010151905060008483815181106200417f576200417e62005b1d565b5b6020026020010151905060006004600084815260200190815260200160002054905081811015620041e7576040517f08c379a0000000000000000000000000000000000000000000000000000000008152600401620041de9062006e1f565b60405180910390fd5b818103600460008581526020019081526020016000208190555050505080620042109062005b4c565b90506200413b565b505b505050505050565b6000808273ffffffffffffffffffffffffffffffffffffffff163b119050919050565b505050505050565b604051806101800160405280606081526020016060815260200160608152602001606081526020016000815260200160008152602001600060048111156200429a57620042996200470c565b5b81526020016060815260200160008152602001600073ffffffffffffffffffffffffffffffffffffffff16815260200160008152602001600073ffffffffffffffffffffffffffffffffffffffff1681525090565b6116998062006e4283390190565b8280548282559060005260206000209081019282156200434a579160200282015b828111156200434957825182908162004338919062006224565b50916020019190600101906200431e565b5b509050620043599190620043c1565b5090565b828054828255906000526020600020908101928215620043ae5760005260206000209182015b82811115620043ad57828290816200439c919062006323565b509160010191906001019062004383565b5b509050620043bd9190620043c1565b5090565b5b80821115620043e55760008181620043db9190620043e9565b50600101620043c2565b5090565b508054620043f79062005a7e565b6000825580601f106200440b57506200442c565b601f0160209004906000526020600020908101906200442b91906200442f565b5b50565b5b808211156200444a57600081600090555060010162004430565b5090565b6000604051905090565b600080fd5b600080fd5b600073ffffffffffffffffffffffffffffffffffffffff82169050919050565b60006200448f8262004462565b9050919050565b620044a18162004482565b8114620044ad57600080fd5b50565b600081359050620044c18162004496565b92915050565b6000819050919050565b620044dc81620044c7565b8114620044e857600080fd5b50565b600081359050620044fc81620044d1565b92915050565b600080604083850312156200451c576200451b62004458565b5b60006200452c85828601620044b0565b92505060206200453f85828601620044eb565b9150509250929050565b6200455481620044c7565b82525050565b600060208201905062004571600083018462004549565b92915050565b60007fffffffff0000000000000000000000000000000000000000000000000000000082169050919050565b620045ae8162004577565b8114620045ba57600080fd5b50565b600081359050620045ce81620045a3565b92915050565b600060208284031215620045ed57620045ec62004458565b5b6000620045fd84828501620045bd565b91505092915050565b60008115159050919050565b6200461d8162004606565b82525050565b60006020820190506200463a600083018462004612565b92915050565b60006020828403121562004659576200465862004458565b5b60006200466984828501620044b0565b91505092915050565b600081519050919050565b600082825260208201905092915050565b60005b83811015620046ae57808201518184015260208101905062004691565b60008484015250505050565b6000601f19601f8301169050919050565b6000620046d88262004672565b620046e481856200467d565b9350620046f68185602086016200468e565b6200470181620046ba565b840191505092915050565b7f4e487b7100000000000000000000000000000000000000000000000000000000600052602160045260246000fd5b600581106200474f576200474e6200470c565b5b50565b600081905062004762826200473b565b919050565b6000620047748262004752565b9050919050565b620047868162004767565b82525050565b6000620047998262004462565b9050919050565b620047ab816200478c565b82525050565b620047bc8162004482565b82525050565b6000610160820190508181036000830152620047df818e620046cb565b90508181036020830152620047f5818d620046cb565b905081810360408301526200480b818c620046cb565b90506200481c606083018b62004549565b6200482b608083018a62004549565b6200483a60a08301896200477b565b81810360c08301526200484e8188620046cb565b90506200485f60e083018762004549565b6200486f610100830186620047a0565b6200487f61012083018562004549565b6200488f610140830184620047b1565b9c9b505050505050505050505050565b600060208284031215620048b857620048b762004458565b5b6000620048c884828501620044eb565b91505092915050565b60006020820190508181036000830152620048ed8184620046cb565b905092915050565b600081519050919050565b600082825260208201905092915050565b6000819050602082019050919050565b600082825260208201905092915050565b60006200493f8262004672565b6200494b818562004921565b93506200495d8185602086016200468e565b6200496881620046ba565b840191505092915050565b600081519050919050565b600082825260208201905092915050565b6000819050602082019050919050565b6000620049ad838362004932565b905092915050565b6000602082019050919050565b6000620049cf8262004973565b620049db81856200497e565b935083602082028501620049ef856200498f565b8060005b8581101562004a31578484038952815162004a0f85826200499f565b945062004a1c83620049b5565b925060208a01995050600181019050620049f3565b50829750879550505050505092915050565b62004a4e81620044c7565b82525050565b62004a5f8162004767565b82525050565b62004a70816200478c565b82525050565b62004a818162004482565b82525050565b600061018083016000830151848203600086015262004aa7828262004932565b9150506020830151848203602086015262004ac3828262004932565b9150506040830151848203604086015262004adf8282620049c2565b9150506060830151848203606086015262004afb828262004932565b915050608083015162004b12608086018262004a43565b5060a083015162004b2760a086018262004a43565b5060c083015162004b3c60c086018262004a54565b5060e083015184820360e086015262004b56828262004932565b91505061010083015162004b6f61010086018262004a43565b5061012083015162004b8661012086018262004a65565b5061014083015162004b9d61014086018262004a43565b5061016083015162004bb461016086018262004a76565b508091505092915050565b600062004bcd838362004a87565b905092915050565b6000602082019050919050565b600062004bef82620048f5565b62004bfb818562004900565b93508360208202850162004c0f8562004911565b8060005b8581101562004c51578484038952815162004c2f858262004bbf565b945062004c3c8362004bd5565b925060208a0199505060018101905062004c13565b50829750879550505050505092915050565b6000602082019050818103600083015262004c7f818462004be2565b905092915050565b600080fd5b7f4e487b7100000000000000000000000000000000000000000000000000000000600052604160045260246000fd5b62004cc682620046ba565b810181811067ffffffffffffffff8211171562004ce85762004ce762004c8c565b5b80604052505050565b600062004cfd6200444e565b905062004d0b828262004cbb565b919050565b600067ffffffffffffffff82111562004d2e5762004d2d62004c8c565b5b602082029050602081019050919050565b600080fd5b600062004d5b62004d558462004d10565b62004cf1565b9050808382526020820190506020840283018581111562004d815762004d8062004d3f565b5b835b8181101562004dae578062004d998882620044eb565b84526020840193505060208101905062004d83565b5050509392505050565b600082601f83011262004dd05762004dcf62004c87565b5b813562004de284826020860162004d44565b91505092915050565b600080fd5b600067ffffffffffffffff82111562004e0e5762004e0d62004c8c565b5b62004e1982620046ba565b9050602081019050919050565b82818337600083830152505050565b600062004e4c62004e468462004df0565b62004cf1565b90508281526020810184848401111562004e6b5762004e6a62004deb565b5b62004e7884828562004e26565b509392505050565b600082601f83011262004e985762004e9762004c87565b5b813562004eaa84826020860162004e35565b91505092915050565b600080600080600060a0868803121562004ed25762004ed162004458565b5b600062004ee288828901620044b0565b955050602062004ef588828901620044b0565b945050604086013567ffffffffffffffff81111562004f195762004f186200445d565b5b62004f278882890162004db8565b935050606086013567ffffffffffffffff81111562004f4b5762004f4a6200445d565b5b62004f598882890162004db8565b925050608086013567ffffffffffffffff81111562004f7d5762004f7c6200445d565b5b62004f8b8882890162004e80565b9150509295509295909350565b600081519050919050565b600082825260208201905092915050565b6000819050602082019050919050565b62004fcf8162004606565b82525050565b6000819050919050565b60006200500062004ffa62004ff48462004462565b62004fd5565b62004462565b9050919050565b6000620050148262004fdf565b9050919050565b6000620050288262005007565b9050919050565b6200503a816200501b565b82525050565b6101608201600082015162005059600085018262004a43565b5060208201516200506e602085018262004a76565b50604082015162005083604085018262004a76565b50606082015162005098606085018262004a43565b506080820151620050ad608085018262004a54565b5060a0820151620050c260a085018262004fc4565b5060c0820151620050d760c085018262004fc4565b5060e0820151620050ec60e085018262004fc4565b50610100820151620051036101008501826200502f565b506101208201516200511a61012085018262004a43565b506101408201516200513161014085018262004a76565b50505050565b600062005145838362005040565b6101608301905092915050565b6000602082019050919050565b60006200516c8262004f98565b62005178818562004fa3565b9350620051858362004fb4565b8060005b83811015620051bc578151620051a0888262005137565b9750620051ad8362005152565b92505060018101905062005189565b5085935050505092915050565b60006020820190508181036000830152620051e581846200515f565b905092915050565b600067ffffffffffffffff8211156200520b576200520a62004c8c565b5b602082029050602081019050919050565b6000620052336200522d84620051ed565b62004cf1565b9050808382526020820190506020840283018581111562005259576200525862004d3f565b5b835b81811015620052865780620052718882620044b0565b8452602084019350506020810190506200525b565b5050509392505050565b600082601f830112620052a857620052a762004c87565b5b8135620052ba8482602086016200521c565b91505092915050565b60008060408385031215620052dd57620052dc62004458565b5b600083013567ffffffffffffffff811115620052fe57620052fd6200445d565b5b6200530c8582860162005290565b925050602083013567ffffffffffffffff81111562005330576200532f6200445d565b5b6200533e8582860162004db8565b9150509250929050565b600081519050919050565b600082825260208201905092915050565b6000819050602082019050919050565b600062005382838362004a43565b60208301905092915050565b6000602082019050919050565b6000620053a88262005348565b620053b4818562005353565b9350620053c18362005364565b8060005b83811015620053f8578151620053dc888262005374565b9750620053e9836200538e565b925050600181019050620053c5565b5085935050505092915050565b600060208201905081810360008301526200542181846200539b565b905092915050565b6000806040838503121562005443576200544262004458565b5b60006200545385828601620044eb565b92505060206200546685828601620044eb565b9150509250929050565b6200547b8162004606565b81146200548757600080fd5b50565b6000813590506200549b8162005470565b92915050565b60008060408385031215620054bb57620054ba62004458565b5b6000620054cb85828601620044b0565b9250506020620054de858286016200548a565b9150509250929050565b600067ffffffffffffffff82111562005506576200550562004c8c565b5b6200551182620046ba565b9050602081019050919050565b6000620055356200552f84620054e8565b62004cf1565b90508281526020810184848401111562005554576200555362004deb565b5b6200556184828562004e26565b509392505050565b600082601f83011262005581576200558062004c87565b5b8135620055938482602086016200551e565b91505092915050565b600067ffffffffffffffff821115620055ba57620055b962004c8c565b5b602082029050602081019050919050565b6000620055e2620055dc846200559c565b62004cf1565b9050808382526020820190506020840283018581111562005608576200560762004d3f565b5b835b818110156200565657803567ffffffffffffffff81111562005631576200563062004c87565b5b80860162005640898262005569565b855260208501945050506020810190506200560a565b5050509392505050565b600082601f83011262005678576200567762004c87565b5b81356200568a848260208601620055cb565b91505092915050565b600080600080600080600080610100898b031215620056b757620056b662004458565b5b600089013567ffffffffffffffff811115620056d857620056d76200445d565b5b620056e68b828c0162005569565b985050602089013567ffffffffffffffff8111156200570a57620057096200445d565b5b620057188b828c0162005569565b975050604089013567ffffffffffffffff8111156200573c576200573b6200445d565b5b6200574a8b828c0162005660565b965050606089013567ffffffffffffffff8111156200576e576200576d6200445d565b5b6200577c8b828c0162005569565b95505060806200578f8b828c01620044eb565b94505060a089013567ffffffffffffffff811115620057b357620057b26200445d565b5b620057c18b828c0162005569565b93505060c0620057d48b828c01620044eb565b92505060e0620057e78b828c01620044eb565b9150509295985092959890939650565b62005802816200501b565b82525050565b60006101608201905062005820600083018e62004549565b6200582f602083018d620047b1565b6200583e604083018c620047b1565b6200584d606083018b62004549565b6200585c608083018a6200477b565b6200586b60a083018962004612565b6200587a60c083018862004612565b6200588960e083018762004612565b62005899610100830186620057f7565b620058a961012083018562004549565b620058b9610140830184620047b1565b9c9b505050505050505050505050565b60008060408385031215620058e357620058e262004458565b5b6000620058f385828601620044b0565b92505060206200590685828601620044b0565b9150509250929050565b600080600080600060a086880312156200592f576200592e62004458565b5b60006200593f88828901620044b0565b95505060206200595288828901620044b0565b94505060406200596588828901620044eb565b93505060606200597888828901620044eb565b925050608086013567ffffffffffffffff8111156200599c576200599b6200445d565b5b620059aa8882890162004e80565b9150509295509295909350565b7f455243313135353a2061646472657373207a65726f206973206e6f742061207660008201527f616c6964206f776e657200000000000000000000000000000000000000000000602082015250565b600062005a15602a836200467d565b915062005a2282620059b7565b604082019050919050565b6000602082019050818103600083015262005a488162005a06565b9050919050565b7f4e487b7100000000000000000000000000000000000000000000000000000000600052602260045260246000fd5b6000600282049050600182168062005a9757607f821691505b60208210810362005aad5762005aac62005a4f565b5b50919050565b7f4e487b7100000000000000000000000000000000000000000000000000000000600052601160045260246000fd5b600062005aef82620044c7565b915062005afc83620044c7565b925082820390508181111562005b175762005b1662005ab3565b5b92915050565b7f4e487b7100000000000000000000000000000000000000000000000000000000600052603260045260246000fd5b600062005b5982620044c7565b91507fffffffffffffffffffffffffffffffffffffffffffffffffffffffffffffffff820362005b8e5762005b8d62005ab3565b5b600182019050919050565b7f455243313135353a2063616c6c6572206973206e6f7420746f6b656e206f776e60008201527f6572206f7220617070726f766564000000000000000000000000000000000000602082015250565b600062005bf7602e836200467d565b915062005c048262005b99565b604082019050919050565b6000602082019050818103600083015262005c2a8162005be8565b9050919050565b7f455243313135353a206163636f756e747320616e6420696473206c656e67746860008201527f206d69736d617463680000000000000000000000000000000000000000000000602082015250565b600062005c8f6029836200467d565b915062005c9c8262005c31565b604082019050919050565b6000602082019050818103600083015262005cc28162005c80565b9050919050565b600062005cd682620044c7565b915062005ce383620044c7565b925082820190508082111562005cfe5762005cfd62005ab3565b5b92915050565b7f7175616e746974792063616e74206265207a65726f0000000000000000000000600082015250565b600062005d3c6015836200467d565b915062005d498262005d04565b602082019050919050565b6000602082019050818103600083015262005d6f8162005d2d565b9050919050565b7f6f7574206f662073746f636b0000000000000000000000000000000000000000600082015250565b600062005dae600c836200467d565b915062005dbb8262005d76565b602082019050919050565b6000602082019050818103600083015262005de18162005d9f565b9050919050565b7f496e73756666696369656e74207061796d656e742e0000000000000000000000600082015250565b600062005e206015836200467d565b915062005e2d8262005de8565b602082019050919050565b6000602082019050818103600083015262005e538162005e11565b9050919050565b7f5061796d656e742068617320616c7265616479206265656e206d6164652e0000600082015250565b600062005e92601e836200467d565b915062005e9f8262005e5a565b602082019050919050565b6000602082019050818103600083015262005ec58162005e83565b9050919050565b7f50726f64756374206973206e6f7420617661696c61626c652e00000000000000600082015250565b600062005f046019836200467d565b915062005f118262005ecc565b602082019050919050565b6000602082019050818103600083015262005f378162005ef5565b9050919050565b600060208201905062005f556000830184620047a0565b92915050565b600062005f688262005007565b9050919050565b62005f7a8162005f5b565b82525050565b600060208201905062005f97600083018462005f6f565b92915050565b600060808201905062005fb4600083018762004549565b62005fc36020830186620047b1565b62005fd2604083018562005f6f565b62005fe1606083018462004549565b95945050505050565b7f496e76616c69642073656e64657220616464726573732e000000000000000000600082015250565b6000620060226017836200467d565b91506200602f8262005fea565b602082019050919050565b60006020820190508181036000830152620060558162006013565b9050919050565b60008190508160005260206000209050919050565b60006020601f8301049050919050565b600082821b905092915050565b600060088302620060c07fffffffffffffffffffffffffffffffffffffffffffffffffffffffffffffffff8262006081565b620060cc868362006081565b95508019841693508086168417925050509392505050565b600062006105620060ff620060f984620044c7565b62004fd5565b620044c7565b9050919050565b6000819050919050565b6200612183620060e4565b6200613962006130826200610c565b8484546200608e565b825550505050565b600090565b6200615062006141565b6200615d81848462006116565b505050565b5b8181101562006185576200617960008262006146565b60018101905062006163565b5050565b601f821115620061d4576200619e816200605c565b620061a98462006071565b81016020851015620061b9578190505b620061d1620061c88562006071565b83018262006162565b50505b505050565b600082821c905092915050565b6000620061f960001984600802620061d9565b1980831691505092915050565b6000620062148383620061e6565b9150826002028217905092915050565b6200622f8262004672565b67ffffffffffffffff8111156200624b576200624a62004c8c565b5b62006257825462005a7e565b6200626482828562006189565b600060209050601f8311600181146200629c576000841562006287578287015190505b62006293858262006206565b86555062006303565b601f198416620062ac866200605c565b60005b82811015620062d657848901518255600182019150602085019450602081019050620062af565b86831015620062f65784890151620062f2601f891682620061e6565b8355505b6001600288020188555050505b505050505050565b6000815490506200631c8162005a7e565b9050919050565b8181036200633357505062006422565b6200633e826200630b565b67ffffffffffffffff8111156200635a576200635962004c8c565b5b62006366825462005a7e565b6200637382828562006189565b6000601f831160018114620063a7576000841562006392578287015490505b6200639e858262006206565b8655506200641b565b601f198416620063b7876200605c565b9650620063c4866200605c565b60005b82811015620063ee57848901548255600182019150600185019450602081019050620063c7565b868310156200640e57848901546200640a601f891682620061e6565b8355505b6001600288020188555050505b5050505050505b565b7f4f6e6c79207468652073656c6c65722063616e2063616c6c207468697320667560008201527f6e6374696f6e2e00000000000000000000000000000000000000000000000000602082015250565b6000620064826027836200467d565b91506200648f8262006424565b604082019050919050565b60006020820190508181036000830152620064b58162006473565b9050919050565b7f5061796d656e7420686173206e6f74206265656e206d6164652e000000000000600082015250565b6000620064f4601a836200467d565b91506200650182620064bc565b602082019050919050565b600060208201905081810360008301526200652781620064e5565b9050919050565b7f4f726465722068617320616c7265616479206265656e2066756c66696c6c656460008201527f2e00000000000000000000000000000000000000000000000000000000000000602082015250565b60006200658c6021836200467d565b915062006599826200652e565b604082019050919050565b60006020820190508181036000830152620065bf816200657d565b9050919050565b7f4f6e6c79207468652062757965722063616e2063616c6c20746869732066756e60008201527f6374696f6e2e0000000000000000000000000000000000000000000000000000602082015250565b6000620066246026836200467d565b91506200663182620065c6565b604082019050919050565b60006020820190508181036000830152620066578162006615565b9050919050565b7f455243313135353a2069647320616e6420616d6f756e7473206c656e6774682060008201527f6d69736d61746368000000000000000000000000000000000000000000000000602082015250565b6000620066bc6028836200467d565b9150620066c9826200665e565b604082019050919050565b60006020820190508181036000830152620066ef81620066ad565b9050919050565b7f455243313135353a207472616e7366657220746f20746865207a65726f20616460008201527f6472657373000000000000000000000000000000000000000000000000000000602082015250565b6000620067546025836200467d565b91506200676182620066f6565b604082019050919050565b60006020820190508181036000830152620067878162006745565b9050919050565b7f455243313135353a20696e73756666696369656e742062616c616e636520666f60008201527f72207472616e7366657200000000000000000000000000000000000000000000602082015250565b6000620067ec602a836200467d565b9150620067f9826200678e565b604082019050919050565b600060208201905081810360008301526200681f81620067dd565b9050919050565b600060408201905081810360008301526200684281856200539b565b905081810360208301526200685881846200539b565b90509392505050565b7f5265656e7472616e637947756172643a207265656e7472616e742063616c6c00600082015250565b600062006899601f836200467d565b9150620068a68262006861565b602082019050919050565b60006020820190508181036000830152620068cc816200688a565b9050919050565b7f455243313135353a2073657474696e6720617070726f76616c2073746174757360008201527f20666f722073656c660000000000000000000000000000000000000000000000602082015250565b6000620069316029836200467d565b91506200693e82620068d3565b604082019050919050565b60006020820190508181036000830152620069648162006922565b9050919050565b7f455243313135353a206d696e7420746f20746865207a65726f2061646472657360008201527f7300000000000000000000000000000000000000000000000000000000000000602082015250565b6000620069c96021836200467d565b9150620069d6826200696b565b604082019050919050565b60006020820190508181036000830152620069fc81620069ba565b9050919050565b600060408201905062006a1a600083018562004549565b62006a29602083018462004549565b9392505050565b600081519050919050565b600082825260208201905092915050565b600062006a598262006a30565b62006a65818562006a3b565b935062006a778185602086016200468e565b62006a8281620046ba565b840191505092915050565b600060a08201905062006aa46000830188620047b1565b62006ab36020830187620047b1565b818103604083015262006ac781866200539b565b9050818103606083015262006add81856200539b565b9050818103608083015262006af3818462006a4c565b90509695505050505050565b60008151905062006b1081620045a3565b92915050565b60006020828403121562006b2f5762006b2e62004458565b5b600062006b3f8482850162006aff565b91505092915050565b60008160e01c9050919050565b600060033d111562006b775760046000803e62006b7460005162006b48565b90505b90565b600060443d1062006c125762006b8f6200444e565b60043d036004823e80513d602482011167ffffffffffffffff8211171562006bb957505062006c12565b808201805167ffffffffffffffff81111562006bd9575050505062006c12565b80602083010160043d03850181111562006bf857505050505062006c12565b62006c098260200185018662004cbb565b82955050505050505b90565b7f455243313135353a207472616e7366657220746f206e6f6e2d4552433131353560008201527f526563656976657220696d706c656d656e746572000000000000000000000000602082015250565b600062006c736034836200467d565b915062006c808262006c15565b604082019050919050565b6000602082019050818103600083015262006ca68162006c64565b9050919050565b7f455243313135353a204552433131353552656365697665722072656a6563746560008201527f6420746f6b656e73000000000000000000000000000000000000000000000000602082015250565b600062006d0b6028836200467d565b915062006d188262006cad565b604082019050919050565b6000602082019050818103600083015262006d3e8162006cfc565b9050919050565b600060a08201905062006d5c6000830188620047b1565b62006d6b6020830187620047b1565b62006d7a604083018662004549565b62006d89606083018562004549565b818103608083015262006d9d818462006a4c565b90509695505050505050565b7f455243313135353a206275726e20616d6f756e74206578636565647320746f7460008201527f616c537570706c79000000000000000000000000000000000000000000000000602082015250565b600062006e076028836200467d565b915062006e148262006da9565b604082019050919050565b6000602082019050818103600083015262006e3a8162006df8565b905091905056fe60a06040523480156200001157600080fd5b506040516200169938038062001699833981810160405281019062000037919062000268565b620000576200004b6200013260201b60201c565b6200013a60201b60201c565b600073ffffffffffffffffffffffffffffffffffffffff168173ffffffffffffffffffffffffffffffffffffffff1603620000c9576040517f08c379a0000000000000000000000000000000000000000000000000000000008152600401620000c09062000321565b60405180910390fd5b8073ffffffffffffffffffffffffffffffffffffffff1660808173ffffffffffffffffffffffffffffffffffffffff16815250506000600260006101000a81548160ff0219169083600281111562000126576200012562000343565b5b02179055505062000372565b600033905090565b60008060009054906101000a900473ffffffffffffffffffffffffffffffffffffffff169050816000806101000a81548173ffffffffffffffffffffffffffffffffffffffff021916908373ffffffffffffffffffffffffffffffffffffffff1602179055508173ffffffffffffffffffffffffffffffffffffffff168173ffffffffffffffffffffffffffffffffffffffff167f8be0079c531659141344cd1fd0a4f28419497f9722a3daafe3b4186f6b6457e060405160405180910390a35050565b600080fd5b600073ffffffffffffffffffffffffffffffffffffffff82169050919050565b6000620002308262000203565b9050919050565b620002428162000223565b81146200024e57600080fd5b50565b600081519050620002628162000237565b92915050565b600060208284031215620002815762000280620001fe565b5b6000620002918482850162000251565b91505092915050565b600082825260208201905092915050565b7f526566756e64457363726f773a2062656e65666963696172792069732074686560008201527f207a65726f206164647265737300000000000000000000000000000000000000602082015250565b600062000309602d836200029a565b91506200031682620002ab565b604082019050919050565b600060208201905081810360008301526200033c81620002fa565b9050919050565b7f4e487b7100000000000000000000000000000000000000000000000000000000600052602160045260246000fd5b60805161130b6200038e6000396000610275015261130b6000f3fe6080604052600436106100a75760003560e01c80638da5cb5b116100645780638da5cb5b146101825780639af6549a146101ad578063c19d93fb146101c4578063e3a9db1a146101ef578063f2fde38b1461022c578063f340fa0114610255576100a7565b806338af3eed146100ac57806343d726d6146100d757806351cff8d9146100ee578063685ca19414610117578063715018a6146101545780638c52dc411461016b575b600080fd5b3480156100b857600080fd5b506100c1610271565b6040516100ce9190610b3b565b60405180910390f35b3480156100e357600080fd5b506100ec610299565b005b3480156100fa57600080fd5b5061011560048036038101906101109190610b87565b610367565b005b34801561012357600080fd5b5061013e60048036038101906101399190610bf2565b6103bb565b60405161014b9190610c3a565b60405180910390f35b34801561016057600080fd5b506101696103f3565b005b34801561017757600080fd5b50610180610407565b005b34801561018e57600080fd5b506101976104d6565b6040516101a49190610c64565b60405180910390f35b3480156101b957600080fd5b506101c26104ff565b005b3480156101d057600080fd5b506101d961059e565b6040516101e69190610cf6565b60405180910390f35b3480156101fb57600080fd5b5061021660048036038101906102119190610bf2565b6105b5565b6040516102239190610d2a565b60405180910390f35b34801561023857600080fd5b50610253600480360381019061024e9190610bf2565b6105fe565b005b61026f600480360381019061026a9190610bf2565b610681565b005b60007f0000000000000000000000000000000000000000000000000000000000000000905090565b6102a16106fb565b600060028111156102b5576102b4610c7f565b5b6102bd61059e565b60028111156102cf576102ce610c7f565b5b1461030f576040517f08c379a000000000000000000000000000000000000000000000000000000000815260040161030690610dc8565b60405180910390fd5b60028060006101000a81548160ff0219169083600281111561033457610333610c7f565b5b02179055507f088672c3a6e342f7cd94a65ba63b79df24a8973927b4d05d803c44bbf787d12f60405160405180910390a1565b610370816103bb565b6103af576040517f08c379a00000000000000000000000000000000000000000000000000000000081526004016103a690610e5a565b60405180910390fd5b6103b881610779565b50565b6000600160028111156103d1576103d0610c7f565b5b6103d961059e565b60028111156103eb576103ea610c7f565b5b149050919050565b6103fb6106fb565b6104056000610885565b565b61040f6106fb565b6000600281111561042357610422610c7f565b5b61042b61059e565b600281111561043d5761043c610c7f565b5b1461047d576040517f08c379a000000000000000000000000000000000000000000000000000000000815260040161047490610eec565b60405180910390fd5b6001600260006101000a81548160ff021916908360028111156104a3576104a2610c7f565b5b02179055507f599d8e5a83cffb867d051598c4d70e805d59802d8081c1c7d6dffc5b6aca2b8960405160405180910390a1565b60008060009054906101000a900473ffffffffffffffffffffffffffffffffffffffff16905090565b60028081111561051257610511610c7f565b5b61051a61059e565b600281111561052c5761052b610c7f565b5b1461056c576040517f08c379a000000000000000000000000000000000000000000000000000000000815260040161056390610f7e565b60405180910390fd5b61059c47610578610271565b73ffffffffffffffffffffffffffffffffffffffff1661094990919063ffffffff16565b565b6000600260009054906101000a900460ff16905090565b6000600160008373ffffffffffffffffffffffffffffffffffffffff1673ffffffffffffffffffffffffffffffffffffffff168152602001908152602001600020549050919050565b6106066106fb565b600073ffffffffffffffffffffffffffffffffffffffff168173ffffffffffffffffffffffffffffffffffffffff1603610675576040517f08c379a000000000000000000000000000000000000000000000000000000000815260040161066c90611010565b60405180910390fd5b61067e81610885565b50565b6000600281111561069557610694610c7f565b5b61069d61059e565b60028111156106af576106ae610c7f565b5b146106ef576040517f08c379a00000000000000000000000000000000000000000000000000000000081526004016106e6906110a2565b60405180910390fd5b6106f881610a3d565b50565b610703610af2565b73ffffffffffffffffffffffffffffffffffffffff166107216104d6565b73ffffffffffffffffffffffffffffffffffffffff1614610777576040517f08c379a000000000000000000000000000000000000000000000000000000000815260040161076e9061110e565b60405180910390fd5b565b6107816106fb565b6000600160008373ffffffffffffffffffffffffffffffffffffffff1673ffffffffffffffffffffffffffffffffffffffff1681526020019081526020016000205490506000600160008473ffffffffffffffffffffffffffffffffffffffff1673ffffffffffffffffffffffffffffffffffffffff16815260200190815260200160002081905550610833818373ffffffffffffffffffffffffffffffffffffffff1661094990919063ffffffff16565b8173ffffffffffffffffffffffffffffffffffffffff167f7084f5476618d8e60b11ef0d7d3f06914655adb8793e28ff7f018d4c76d505d5826040516108799190610d2a565b60405180910390a25050565b60008060009054906101000a900473ffffffffffffffffffffffffffffffffffffffff169050816000806101000a81548173ffffffffffffffffffffffffffffffffffffffff021916908373ffffffffffffffffffffffffffffffffffffffff1602179055508173ffffffffffffffffffffffffffffffffffffffff168173ffffffffffffffffffffffffffffffffffffffff167f8be0079c531659141344cd1fd0a4f28419497f9722a3daafe3b4186f6b6457e060405160405180910390a35050565b8047101561098c576040517f08c379a00000000000000000000000000000000000000000000000000000000081526004016109839061117a565b60405180910390fd5b60008273ffffffffffffffffffffffffffffffffffffffff16826040516109b2906111cb565b60006040518083038185875af1925050503d80600081146109ef576040519150601f19603f3d011682016040523d82523d6000602084013e6109f4565b606091505b5050905080610a38576040517f08c379a0000000000000000000000000000000000000000000000000000000008152600401610a2f90611252565b60405180910390fd5b505050565b610a456106fb565b600034905080600160008473ffffffffffffffffffffffffffffffffffffffff1673ffffffffffffffffffffffffffffffffffffffff1681526020019081526020016000206000828254610a9991906112a1565b925050819055508173ffffffffffffffffffffffffffffffffffffffff167f2da466a7b24304f47e87fa2e1e5a81b9831ce54fec19055ce277ca2f39ba42c482604051610ae69190610d2a565b60405180910390a25050565b600033905090565b600073ffffffffffffffffffffffffffffffffffffffff82169050919050565b6000610b2582610afa565b9050919050565b610b3581610b1a565b82525050565b6000602082019050610b506000830184610b2c565b92915050565b600080fd5b610b6481610b1a565b8114610b6f57600080fd5b50565b600081359050610b8181610b5b565b92915050565b600060208284031215610b9d57610b9c610b56565b5b6000610bab84828501610b72565b91505092915050565b6000610bbf82610afa565b9050919050565b610bcf81610bb4565b8114610bda57600080fd5b50565b600081359050610bec81610bc6565b92915050565b600060208284031215610c0857610c07610b56565b5b6000610c1684828501610bdd565b91505092915050565b60008115159050919050565b610c3481610c1f565b82525050565b6000602082019050610c4f6000830184610c2b565b92915050565b610c5e81610bb4565b82525050565b6000602082019050610c796000830184610c55565b92915050565b7f4e487b7100000000000000000000000000000000000000000000000000000000600052602160045260246000fd5b60038110610cbf57610cbe610c7f565b5b50565b6000819050610cd082610cae565b919050565b6000610ce082610cc2565b9050919050565b610cf081610cd5565b82525050565b6000602082019050610d0b6000830184610ce7565b92915050565b6000819050919050565b610d2481610d11565b82525050565b6000602082019050610d3f6000830184610d1b565b92915050565b600082825260208201905092915050565b7f526566756e64457363726f773a2063616e206f6e6c7920636c6f73652077686960008201527f6c65206163746976650000000000000000000000000000000000000000000000602082015250565b6000610db2602983610d45565b9150610dbd82610d56565b604082019050919050565b60006020820190508181036000830152610de181610da5565b9050919050565b7f436f6e646974696f6e616c457363726f773a207061796565206973206e6f742060008201527f616c6c6f77656420746f20776974686472617700000000000000000000000000602082015250565b6000610e44603383610d45565b9150610e4f82610de8565b604082019050919050565b60006020820190508181036000830152610e7381610e37565b9050919050565b7f526566756e64457363726f773a2063616e206f6e6c7920656e61626c6520726560008201527f66756e6473207768696c65206163746976650000000000000000000000000000602082015250565b6000610ed6603283610d45565b9150610ee182610e7a565b604082019050919050565b60006020820190508181036000830152610f0581610ec9565b9050919050565b7f526566756e64457363726f773a2062656e65666963696172792063616e206f6e60008201527f6c79207769746864726177207768696c6520636c6f7365640000000000000000602082015250565b6000610f68603883610d45565b9150610f7382610f0c565b604082019050919050565b60006020820190508181036000830152610f9781610f5b565b9050919050565b7f4f776e61626c653a206e6577206f776e657220697320746865207a65726f206160008201527f6464726573730000000000000000000000000000000000000000000000000000602082015250565b6000610ffa602683610d45565b915061100582610f9e565b604082019050919050565b6000602082019050818103600083015261102981610fed565b9050919050565b7f526566756e64457363726f773a2063616e206f6e6c79206465706f736974207760008201527f68696c6520616374697665000000000000000000000000000000000000000000602082015250565b600061108c602b83610d45565b915061109782611030565b604082019050919050565b600060208201905081810360008301526110bb8161107f565b9050919050565b7f4f776e61626c653a2063616c6c6572206973206e6f7420746865206f776e6572600082015250565b60006110f8602083610d45565b9150611103826110c2565b602082019050919050565b60006020820190508181036000830152611127816110eb565b9050919050565b7f416464726573733a20696e73756666696369656e742062616c616e6365000000600082015250565b6000611164601d83610d45565b915061116f8261112e565b602082019050919050565b6000602082019050818103600083015261119381611157565b9050919050565b600081905092915050565b50565b60006111b560008361119a565b91506111c0826111a5565b600082019050919050565b60006111d6826111a8565b9150819050919050565b7f416464726573733a20756e61626c6520746f2073656e642076616c75652c207260008201527f6563697069656e74206d61792068617665207265766572746564000000000000602082015250565b600061123c603a83610d45565b9150611247826111e0565b604082019050919050565b6000602082019050818103600083015261126b8161122f565b9050919050565b7f4e487b7100000000000000000000000000000000000000000000000000000000600052601160045260246000fd5b60006112ac82610d11565b91506112b783610d11565b92508282019050808211156112cf576112ce611272565b5b9291505056fea264697066735822122096a00e245e5af2ce4aae68743b503252f0fe4ec2f16160aeab78dcc9e440dc5064736f6c63430008120033a26469706673582212209c2c51416cb5331a418d58b78a0198cbb25bddfc894b1d1a013eae9669dcbf0464736f6c63430008120033",
  "linkReferences": {},
  "deployedLinkReferences": {}
}