{
  "_format": "hh-sol-artifact-1",
  "contractName": "Products",
  "sourceName": "contracts/Products.sol",
  "abi": [
    {
      "anonymous": false,
      "inputs": [
        {
          "indexed": false,
          "internalType": "uint256",
          "name": "orderId",
          "type": "uint256"
        },
        {
          "indexed": false,
          "internalType": "address",
          "name": "buyer",
          "type": "address"
        },
        {
          "indexed": false,
          "internalType": "address",
          "name": "seller",
          "type": "address"
        },
        {
          "indexed": false,
          "internalType": "uint256",
          "name": "price",
          "type": "uint256"
        }
      ],
      "name": "OrderCreated",
      "type": "event"
    },
    {
      "anonymous": false,
      "inputs": [
        {
          "indexed": false,
          "internalType": "uint256",
          "name": "orderId",
          "type": "uint256"
        }
      ],
      "name": "OrderDelivered",
      "type": "event"
    },
    {
      "anonymous": false,
      "inputs": [
        {
          "indexed": false,
          "internalType": "uint256",
          "name": "orderId",
          "type": "uint256"
        }
      ],
      "name": "OrderRefunded",
      "type": "event"
    },
    {
      "inputs": [
        {
          "internalType": "string",
          "name": "_name",
          "type": "string"
        },
        {
          "internalType": "string",
          "name": "_category",
          "type": "string"
        },
        {
          "internalType": "string[]",
          "name": "_imageLink",
          "type": "string[]"
        },
        {
          "internalType": "string",
          "name": "_descLink",
          "type": "string"
        },
        {
          "internalType": "uint256",
          "name": "_price",
          "type": "uint256"
        },
        {
          "internalType": "string",
          "name": "_location",
          "type": "string"
        },
        {
          "internalType": "uint256",
          "name": "_maxQuantity",
          "type": "uint256"
        },
        {
          "internalType": "uint256",
          "name": "_refundTimeLimit",
          "type": "uint256"
        }
      ],
      "name": "addProduct",
      "outputs": [
        {
          "internalType": "uint256",
          "name": "",
          "type": "uint256"
        }
      ],
      "stateMutability": "nonpayable",
      "type": "function"
    },
    {
      "inputs": [
        {
          "internalType": "address",
          "name": "",
          "type": "address"
        }
      ],
      "name": "addressToSingleProduct",
      "outputs": [
        {
          "internalType": "string",
          "name": "name",
          "type": "string"
        },
        {
          "internalType": "string",
          "name": "category",
          "type": "string"
        },
        {
          "internalType": "string",
          "name": "descLink",
          "type": "string"
        },
        {
          "internalType": "uint256",
          "name": "price",
          "type": "uint256"
        },
        {
          "internalType": "uint256",
          "name": "index",
          "type": "uint256"
        },
        {
          "internalType": "enum Products.OrderStatus",
          "name": "status",
          "type": "uint8"
        },
        {
          "internalType": "string",
          "name": "location",
          "type": "string"
        },
        {
          "internalType": "uint256",
          "name": "maxQuantity",
          "type": "uint256"
        },
        {
          "internalType": "address payable",
          "name": "owner",
          "type": "address"
        },
        {
          "internalType": "uint256",
          "name": "shippingFee",
          "type": "uint256"
        },
        {
          "internalType": "address",
          "name": "nftAddress",
          "type": "address"
        }
      ],
      "stateMutability": "view",
      "type": "function"
    },
    {
      "inputs": [
        {
          "internalType": "uint256",
          "name": "_orderId",
          "type": "uint256"
        }
      ],
      "name": "confirmDelivery",
      "outputs": [],
      "stateMutability": "nonpayable",
      "type": "function"
    },
    {
      "inputs": [],
      "name": "getAllOrder",
      "outputs": [
        {
          "components": [
            {
              "internalType": "uint256",
              "name": "orderId",
              "type": "uint256"
            },
            {
              "internalType": "address",
              "name": "buyer",
              "type": "address"
            },
            {
              "internalType": "address",
              "name": "seller",
              "type": "address"
            },
            {
              "internalType": "uint256",
              "name": "price",
              "type": "uint256"
            },
            {
              "internalType": "enum Products.OrderStatus",
              "name": "status",
              "type": "uint8"
            },
            {
              "internalType": "bool",
              "name": "isPaid",
              "type": "bool"
            },
            {
              "internalType": "bool",
              "name": "isFulfilled",
              "type": "bool"
            },
            {
              "internalType": "bool",
              "name": "isRefunded",
              "type": "bool"
            },
            {
              "internalType": "contract RefundEscrow",
              "name": "escrow",
              "type": "address"
            },
            {
              "internalType": "uint256",
              "name": "amount",
              "type": "uint256"
            },
            {
              "internalType": "address",
              "name": "nftAddress",
              "type": "address"
            }
          ],
          "internalType": "struct Products.Order[]",
          "name": "",
          "type": "tuple[]"
        }
      ],
      "stateMutability": "view",
      "type": "function"
    },
    {
      "inputs": [
        {
          "internalType": "address",
          "name": "_owner",
          "type": "address"
        }
      ],
      "name": "getProductByAddress",
      "outputs": [
        {
          "components": [
            {
              "internalType": "string",
              "name": "name",
              "type": "string"
            },
            {
              "internalType": "string",
              "name": "category",
              "type": "string"
            },
            {
              "internalType": "string[]",
              "name": "imageLink",
              "type": "string[]"
            },
            {
              "internalType": "string",
              "name": "descLink",
              "type": "string"
            },
            {
              "internalType": "uint256",
              "name": "price",
              "type": "uint256"
            },
            {
              "internalType": "uint256",
              "name": "index",
              "type": "uint256"
            },
            {
              "internalType": "enum Products.OrderStatus",
              "name": "status",
              "type": "uint8"
            },
            {
              "internalType": "string",
              "name": "location",
              "type": "string"
            },
            {
              "internalType": "uint256",
              "name": "maxQuantity",
              "type": "uint256"
            },
            {
              "internalType": "address payable",
              "name": "owner",
              "type": "address"
            },
            {
              "internalType": "uint256",
              "name": "shippingFee",
              "type": "uint256"
            },
            {
              "internalType": "address",
              "name": "nftAddress",
              "type": "address"
            }
          ],
          "internalType": "struct Products.Product[]",
          "name": "",
          "type": "tuple[]"
        }
      ],
      "stateMutability": "view",
      "type": "function"
    },
    {
      "inputs": [],
      "name": "getProductDetails",
      "outputs": [
        {
          "components": [
            {
              "internalType": "string",
              "name": "name",
              "type": "string"
            },
            {
              "internalType": "string",
              "name": "category",
              "type": "string"
            },
            {
              "internalType": "string[]",
              "name": "imageLink",
              "type": "string[]"
            },
            {
              "internalType": "string",
              "name": "descLink",
              "type": "string"
            },
            {
              "internalType": "uint256",
              "name": "price",
              "type": "uint256"
            },
            {
              "internalType": "uint256",
              "name": "index",
              "type": "uint256"
            },
            {
              "internalType": "enum Products.OrderStatus",
              "name": "status",
              "type": "uint8"
            },
            {
              "internalType": "string",
              "name": "location",
              "type": "string"
            },
            {
              "internalType": "uint256",
              "name": "maxQuantity",
              "type": "uint256"
            },
            {
              "internalType": "address payable",
              "name": "owner",
              "type": "address"
            },
            {
              "internalType": "uint256",
              "name": "shippingFee",
              "type": "uint256"
            },
            {
              "internalType": "address",
              "name": "nftAddress",
              "type": "address"
            }
          ],
          "internalType": "struct Products.Product[]",
          "name": "",
          "type": "tuple[]"
        }
      ],
      "stateMutability": "view",
      "type": "function"
    },
    {
      "inputs": [
        {
          "internalType": "uint256",
          "name": "",
          "type": "uint256"
        }
      ],
      "name": "orders",
      "outputs": [
        {
          "internalType": "uint256",
          "name": "orderId",
          "type": "uint256"
        },
        {
          "internalType": "address",
          "name": "buyer",
          "type": "address"
        },
        {
          "internalType": "address",
          "name": "seller",
          "type": "address"
        },
        {
          "internalType": "uint256",
          "name": "price",
          "type": "uint256"
        },
        {
          "internalType": "enum Products.OrderStatus",
          "name": "status",
          "type": "uint8"
        },
        {
          "internalType": "bool",
          "name": "isPaid",
          "type": "bool"
        },
        {
          "internalType": "bool",
          "name": "isFulfilled",
          "type": "bool"
        },
        {
          "internalType": "bool",
          "name": "isRefunded",
          "type": "bool"
        },
        {
          "internalType": "contract RefundEscrow",
          "name": "escrow",
          "type": "address"
        },
        {
          "internalType": "uint256",
          "name": "amount",
          "type": "uint256"
        },
        {
          "internalType": "address",
          "name": "nftAddress",
          "type": "address"
        }
      ],
      "stateMutability": "view",
      "type": "function"
    },
    {
      "inputs": [
        {
          "internalType": "uint256",
          "name": "id",
          "type": "uint256"
        },
        {
          "internalType": "uint256",
          "name": "quantity",
          "type": "uint256"
        }
      ],
      "name": "placeOrder",
      "outputs": [],
      "stateMutability": "payable",
      "type": "function"
    },
    {
      "inputs": [
        {
          "internalType": "uint256",
          "name": "",
          "type": "uint256"
        }
      ],
      "name": "products",
      "outputs": [
        {
          "internalType": "string",
          "name": "name",
          "type": "string"
        },
        {
          "internalType": "string",
          "name": "category",
          "type": "string"
        },
        {
          "internalType": "string",
          "name": "descLink",
          "type": "string"
        },
        {
          "internalType": "uint256",
          "name": "price",
          "type": "uint256"
        },
        {
          "internalType": "uint256",
          "name": "index",
          "type": "uint256"
        },
        {
          "internalType": "enum Products.OrderStatus",
          "name": "status",
          "type": "uint8"
        },
        {
          "internalType": "string",
          "name": "location",
          "type": "string"
        },
        {
          "internalType": "uint256",
          "name": "maxQuantity",
          "type": "uint256"
        },
        {
          "internalType": "address payable",
          "name": "owner",
          "type": "address"
        },
        {
          "internalType": "uint256",
          "name": "shippingFee",
          "type": "uint256"
        },
        {
          "internalType": "address",
          "name": "nftAddress",
          "type": "address"
        }
      ],
      "stateMutability": "view",
      "type": "function"
    },
    {
      "inputs": [
        {
          "internalType": "uint256",
          "name": "_orderId",
          "type": "uint256"
        }
      ],
      "name": "refundOrder",
      "outputs": [],
      "stateMutability": "nonpayable",
      "type": "function"
    }
  ],
  "bytecode": "0x608060405234801561001057600080fd5b50600160008190555061587f806100286000396000f3fe6080604052600436106200009e5760003560e01c8063843f61e21162000061578063843f61e214620001e3578063a3fa140e1462000203578063a85c38ef1462000247578063c018c4571462000295578063fd84cb9714620002c3576200009e565b80630249c30f14620000a357806323bc839b14620000f15780633dfbbad414620001215780635f0d382a14620001515780637acc0b201462000195575b600080fd5b348015620000b057600080fd5b50620000cf6004803603810190620000c99190620029b6565b620002f1565b604051620000e89b9a9998979695949392919062002b53565b60405180910390f35b348015620000fe57600080fd5b5062000109620005d8565b60405162000118919062002f9e565b60405180910390f35b3480156200012e57600080fd5b506200013962000b3b565b604051620001489190620031ff565b60405180910390f35b3480156200015e57600080fd5b506200017d6004803603810190620001779190620029b6565b62000da5565b6040516200018c919062002f9e565b60405180910390f35b348015620001a257600080fd5b50620001c16004803603810190620001bb919062003254565b620012a6565b604051620001da9b9a9998979695949392919062002b53565b60405180910390f35b620002016004803603810190620001fb919062003286565b6200158d565b005b3480156200021057600080fd5b506200022f60048036038101906200022991906200351a565b62001d01565b6040516200023e91906200367e565b60405180910390f35b3480156200025457600080fd5b506200027360048036038101906200026d919062003254565b62002093565b6040516200028c9b9a99989796959493929190620036bd565b60405180910390f35b348015620002a257600080fd5b50620002c16004803603810190620002bb919062003254565b620021a1565b005b348015620002d057600080fd5b50620002ef6004803603810190620002e9919062003254565b620024b4565b005b60066020528060005260406000206000915090508060000180546200031690620037ad565b80601f01602080910402602001604051908101604052809291908181526020018280546200034490620037ad565b8015620003955780601f10620003695761010080835404028352916020019162000395565b820191906000526020600020905b8154815290600101906020018083116200037757829003601f168201915b505050505090806001018054620003ac90620037ad565b80601f0160208091040260200160405190810160405280929190818152602001828054620003da90620037ad565b80156200042b5780601f10620003ff576101008083540402835291602001916200042b565b820191906000526020600020905b8154815290600101906020018083116200040d57829003601f168201915b5050505050908060030180546200044290620037ad565b80601f01602080910402602001604051908101604052809291908181526020018280546200047090620037ad565b8015620004c15780601f106200049557610100808354040283529160200191620004c1565b820191906000526020600020905b815481529060010190602001808311620004a357829003601f168201915b5050505050908060040154908060050154908060060160009054906101000a900460ff1690806007018054620004f790620037ad565b80601f01602080910402602001604051908101604052809291908181526020018280546200052590620037ad565b8015620005765780601f106200054a5761010080835404028352916020019162000576565b820191906000526020600020905b8154815290600101906020018083116200055857829003601f168201915b5050505050908060080154908060090160009054906101000a900473ffffffffffffffffffffffffffffffffffffffff169080600a01549080600b0160009054906101000a900473ffffffffffffffffffffffffffffffffffffffff1690508b565b60606000600780549050905060008167ffffffffffffffff811115620006035762000602620032d7565b5b6040519080825280602002602001820160405280156200064057816020015b6200062c6200273c565b815260200190600190039081620006225790505b50905060005b8281101562000b325760078160018562000661919062003811565b6200066d919062003811565b815481106200068157620006806200384c565b5b90600052602060002090600c020160405180610180016040529081600082018054620006ad90620037ad565b80601f0160208091040260200160405190810160405280929190818152602001828054620006db90620037ad565b80156200072c5780601f1062000700576101008083540402835291602001916200072c565b820191906000526020600020905b8154815290600101906020018083116200070e57829003601f168201915b505050505081526020016001820180546200074790620037ad565b80601f01602080910402602001604051908101604052809291908181526020018280546200077590620037ad565b8015620007c65780601f106200079a57610100808354040283529160200191620007c6565b820191906000526020600020905b815481529060010190602001808311620007a857829003601f168201915b5050505050815260200160028201805480602002602001604051908101604052809291908181526020016000905b82821015620008aa5783829060005260206000200180546200081690620037ad565b80601f01602080910402602001604051908101604052809291908181526020018280546200084490620037ad565b8015620008955780601f10620008695761010080835404028352916020019162000895565b820191906000526020600020905b8154815290600101906020018083116200087757829003601f168201915b505050505081526020019060010190620007f4565b505050508152602001600382018054620008c490620037ad565b80601f0160208091040260200160405190810160405280929190818152602001828054620008f290620037ad565b8015620009435780601f10620009175761010080835404028352916020019162000943565b820191906000526020600020905b8154815290600101906020018083116200092557829003601f168201915b5050505050815260200160048201548152602001600582015481526020016006820160009054906101000a900460ff16600481111562000988576200098762002a9d565b5b60048111156200099d576200099c62002a9d565b5b8152602001600782018054620009b390620037ad565b80601f0160208091040260200160405190810160405280929190818152602001828054620009e190620037ad565b801562000a325780601f1062000a065761010080835404028352916020019162000a32565b820191906000526020600020905b81548152906001019060200180831162000a1457829003601f168201915b50505050508152602001600882015481526020016009820160009054906101000a900473ffffffffffffffffffffffffffffffffffffffff1673ffffffffffffffffffffffffffffffffffffffff1673ffffffffffffffffffffffffffffffffffffffff168152602001600a8201548152602001600b820160009054906101000a900473ffffffffffffffffffffffffffffffffffffffff1673ffffffffffffffffffffffffffffffffffffffff1673ffffffffffffffffffffffffffffffffffffffff168152505082828151811062000b115762000b106200384c565b5b6020026020010181905250808062000b29906200387b565b91505062000646565b50809250505090565b60606008805480602002602001604051908101604052809291908181526020016000905b8282101562000d9c578382906000526020600020906007020160405180610160016040529081600082015481526020016001820160009054906101000a900473ffffffffffffffffffffffffffffffffffffffff1673ffffffffffffffffffffffffffffffffffffffff1673ffffffffffffffffffffffffffffffffffffffff1681526020016002820160009054906101000a900473ffffffffffffffffffffffffffffffffffffffff1673ffffffffffffffffffffffffffffffffffffffff1673ffffffffffffffffffffffffffffffffffffffff168152602001600382015481526020016004820160009054906101000a900460ff16600481111562000c6c5762000c6b62002a9d565b5b600481111562000c815762000c8062002a9d565b5b81526020016004820160019054906101000a900460ff161515151581526020016004820160029054906101000a900460ff161515151581526020016004820160039054906101000a900460ff161515151581526020016004820160049054906101000a900473ffffffffffffffffffffffffffffffffffffffff1673ffffffffffffffffffffffffffffffffffffffff1673ffffffffffffffffffffffffffffffffffffffff168152602001600582015481526020016006820160009054906101000a900473ffffffffffffffffffffffffffffffffffffffff1673ffffffffffffffffffffffffffffffffffffffff1673ffffffffffffffffffffffffffffffffffffffff16815250508152602001906001019062000b5f565b50505050905090565b6060600560008373ffffffffffffffffffffffffffffffffffffffff1673ffffffffffffffffffffffffffffffffffffffff168152602001908152602001600020805480602002602001604051908101604052809291908181526020016000905b828210156200129b57838290600052602060002090600c02016040518061018001604052908160008201805462000e3d90620037ad565b80601f016020809104026020016040519081016040528092919081815260200182805462000e6b90620037ad565b801562000ebc5780601f1062000e905761010080835404028352916020019162000ebc565b820191906000526020600020905b81548152906001019060200180831162000e9e57829003601f168201915b5050505050815260200160018201805462000ed790620037ad565b80601f016020809104026020016040519081016040528092919081815260200182805462000f0590620037ad565b801562000f565780601f1062000f2a5761010080835404028352916020019162000f56565b820191906000526020600020905b81548152906001019060200180831162000f3857829003601f168201915b5050505050815260200160028201805480602002602001604051908101604052809291908181526020016000905b828210156200103a57838290600052602060002001805462000fa690620037ad565b80601f016020809104026020016040519081016040528092919081815260200182805462000fd490620037ad565b8015620010255780601f1062000ff95761010080835404028352916020019162001025565b820191906000526020600020905b8154815290600101906020018083116200100757829003601f168201915b50505050508152602001906001019062000f84565b5050505081526020016003820180546200105490620037ad565b80601f01602080910402602001604051908101604052809291908181526020018280546200108290620037ad565b8015620010d35780601f10620010a757610100808354040283529160200191620010d3565b820191906000526020600020905b815481529060010190602001808311620010b557829003601f168201915b5050505050815260200160048201548152602001600582015481526020016006820160009054906101000a900460ff16600481111562001118576200111762002a9d565b5b60048111156200112d576200112c62002a9d565b5b81526020016007820180546200114390620037ad565b80601f01602080910402602001604051908101604052809291908181526020018280546200117190620037ad565b8015620011c25780601f106200119657610100808354040283529160200191620011c2565b820191906000526020600020905b815481529060010190602001808311620011a457829003601f168201915b50505050508152602001600882015481526020016009820160009054906101000a900473ffffffffffffffffffffffffffffffffffffffff1673ffffffffffffffffffffffffffffffffffffffff1673ffffffffffffffffffffffffffffffffffffffff168152602001600a8201548152602001600b820160009054906101000a900473ffffffffffffffffffffffffffffffffffffffff1673ffffffffffffffffffffffffffffffffffffffff1673ffffffffffffffffffffffffffffffffffffffff16815250508152602001906001019062000e06565b505050509050919050565b6004602052806000526040600020600091509050806000018054620012cb90620037ad565b80601f0160208091040260200160405190810160405280929190818152602001828054620012f990620037ad565b80156200134a5780601f106200131e576101008083540402835291602001916200134a565b820191906000526020600020905b8154815290600101906020018083116200132c57829003601f168201915b5050505050908060010180546200136190620037ad565b80601f01602080910402602001604051908101604052809291908181526020018280546200138f90620037ad565b8015620013e05780601f10620013b457610100808354040283529160200191620013e0565b820191906000526020600020905b815481529060010190602001808311620013c257829003601f168201915b505050505090806003018054620013f790620037ad565b80601f01602080910402602001604051908101604052809291908181526020018280546200142590620037ad565b8015620014765780601f106200144a5761010080835404028352916020019162001476565b820191906000526020600020905b8154815290600101906020018083116200145857829003601f168201915b5050505050908060040154908060050154908060060160009054906101000a900460ff1690806007018054620014ac90620037ad565b80601f0160208091040260200160405190810160405280929190818152602001828054620014da90620037ad565b80156200152b5780601f10620014ff576101008083540402835291602001916200152b565b820191906000526020600020905b8154815290600101906020018083116200150d57829003601f168201915b5050505050908060080154908060090160009054906101000a900473ffffffffffffffffffffffffffffffffffffffff169080600a01549080600b0160009054906101000a900473ffffffffffffffffffffffffffffffffffffffff1690508b565b62001597620026bc565b6000620015a560026200270e565b9050600060036000838152602001908152602001600020905082600460008681526020019081526020016000206008015410156200161a576040517f08c379a0000000000000000000000000000000000000000000000000000000008152600401620016119062003918565b60405180910390fd5b600460008581526020019081526020016000206004015434101562001676576040517f08c379a00000000000000000000000000000000000000000000000000000000081526004016200166d906200398a565b60405180910390fd5b600060048111156200168d576200168c62002a9d565b5b6004600086815260200190815260200160002060060160009054906101000a900460ff166004811115620016c657620016c562002a9d565b5b1462001709576040517f08c379a00000000000000000000000000000000000000000000000000000000081526004016200170090620039fc565b60405180910390fd5b60006004600086815260200190815260200160002060090160009054906101000a900473ffffffffffffffffffffffffffffffffffffffff1690506000816040516200175590620027de565b62001761919062003a1e565b604051809103906000f0801580156200177e573d6000803e3d6000fd5b5090508073ffffffffffffffffffffffffffffffffffffffff1663f340fa0134336040518363ffffffff1660e01b8152600401620017bd919062003a60565b6000604051808303818588803b158015620017d757600080fd5b505af1158015620017ec573d6000803e3d6000fd5b5050505050838360000181905550338360010160006101000a81548173ffffffffffffffffffffffffffffffffffffffff021916908373ffffffffffffffffffffffffffffffffffffffff160217905550818360020160006101000a81548173ffffffffffffffffffffffffffffffffffffffff021916908373ffffffffffffffffffffffffffffffffffffffff1602179055506004600087815260200190815260200160002060040154836003018190555060018360040160006101000a81548160ff02191690836004811115620018ca57620018c962002a9d565b5b021790555060018360040160016101000a81548160ff02191690831515021790555060008360040160026101000a81548160ff02191690831515021790555060008360040160036101000a81548160ff021916908315150217905550808360040160046101000a81548173ffffffffffffffffffffffffffffffffffffffff021916908373ffffffffffffffffffffffffffffffffffffffff16021790555084836005018190555060046000878152602001908152602001600020600b0160009054906101000a900473ffffffffffffffffffffffffffffffffffffffff168360060160006101000a81548173ffffffffffffffffffffffffffffffffffffffff021916908373ffffffffffffffffffffffffffffffffffffffff1602179055506008839080600181540180825580915050600190039060005260206000209060070201600090919091909150600082015481600001556001820160009054906101000a900473ffffffffffffffffffffffffffffffffffffffff168160010160006101000a81548173ffffffffffffffffffffffffffffffffffffffff021916908373ffffffffffffffffffffffffffffffffffffffff1602179055506002820160009054906101000a900473ffffffffffffffffffffffffffffffffffffffff168160020160006101000a81548173ffffffffffffffffffffffffffffffffffffffff021916908373ffffffffffffffffffffffffffffffffffffffff160217905550600382015481600301556004820160009054906101000a900460ff168160040160006101000a81548160ff0219169083600481111562001b345762001b3362002a9d565b5b02179055506004820160019054906101000a900460ff168160040160016101000a81548160ff0219169083151502179055506004820160029054906101000a900460ff168160040160026101000a81548160ff0219169083151502179055506004820160039054906101000a900460ff168160040160036101000a81548160ff0219169083151502179055506004820160049054906101000a900473ffffffffffffffffffffffffffffffffffffffff168160040160046101000a81548173ffffffffffffffffffffffffffffffffffffffff021916908373ffffffffffffffffffffffffffffffffffffffff160217905550600582015481600501556006820160009054906101000a900473ffffffffffffffffffffffffffffffffffffffff168160060160006101000a81548173ffffffffffffffffffffffffffffffffffffffff021916908373ffffffffffffffffffffffffffffffffffffffff16021790555050507ff9e17940e547201709f9aaacdec8ab3566601c60d8f5affb54f74b79b0b50b13843384600460008b81526020019081526020016000206004015460405162001ce7949392919062003a7d565b60405180910390a15050505062001cfd6200271c565b5050565b60008073ffffffffffffffffffffffffffffffffffffffff163373ffffffffffffffffffffffffffffffffffffffff160362001d74576040517f08c379a000000000000000000000000000000000000000000000000000000000815260040162001d6b9062003b1a565b60405180910390fd5b600062001d8260016200270e565b905060006004600083815260200190815260200160002090508a81600001908162001dae919062003d04565b50338160090160006101000a81548173ffffffffffffffffffffffffffffffffffffffff021916908373ffffffffffffffffffffffffffffffffffffffff1602179055508981600101908162001e05919062003d04565b508781600301908162001e19919062003d04565b508881600201908051906020019062001e34929190620027ec565b508181600501819055508581600701908162001e51919062003d04565b5084816008018190555086816004018190555060008160060160006101000a81548160ff0219169083600481111562001e8f5762001e8e62002a9d565b5b02179055508381600a018190555060078190806001815401808255809150506001900390600052602060002090600c02016000909190919091506000820181600001908162001edf919062003e03565b506001820181600101908162001ef6919062003e03565b50600282018160020190805462001f0f9291906200284c565b506003820181600301908162001f26919062003e03565b5060048201548160040155600582015481600501556006820160009054906101000a900460ff168160060160006101000a81548160ff0219169083600481111562001f765762001f7562002a9d565b5b02179055506007820181600701908162001f91919062003e03565b50600882015481600801556009820160009054906101000a900473ffffffffffffffffffffffffffffffffffffffff168160090160006101000a81548173ffffffffffffffffffffffffffffffffffffffff021916908373ffffffffffffffffffffffffffffffffffffffff160217905550600a82015481600a0155600b820160009054906101000a900473ffffffffffffffffffffffffffffffffffffffff1681600b0160006101000a81548173ffffffffffffffffffffffffffffffffffffffff021916908373ffffffffffffffffffffffffffffffffffffffff160217905550505062002082600162002726565b819250505098975050505050505050565b60036020528060005260406000206000915090508060000154908060010160009054906101000a900473ffffffffffffffffffffffffffffffffffffffff16908060020160009054906101000a900473ffffffffffffffffffffffffffffffffffffffff16908060030154908060040160009054906101000a900460ff16908060040160019054906101000a900460ff16908060040160029054906101000a900460ff16908060040160039054906101000a900460ff16908060040160049054906101000a900473ffffffffffffffffffffffffffffffffffffffff16908060050154908060060160009054906101000a900473ffffffffffffffffffffffffffffffffffffffff1690508b565b806003600082815260200190815260200160002060020160009054906101000a900473ffffffffffffffffffffffffffffffffffffffff1673ffffffffffffffffffffffffffffffffffffffff163373ffffffffffffffffffffffffffffffffffffffff161462002249576040517f08c379a0000000000000000000000000000000000000000000000000000000008152600401620022409062003f7a565b60405180910390fd5b62002253620026bc565b60006003600084815260200190815260200160002090508060040160019054906101000a900460ff16620022be576040517f08c379a0000000000000000000000000000000000000000000000000000000008152600401620022b59062003fec565b60405180910390fd5b8060040160029054906101000a900460ff161562002313576040517f08c379a00000000000000000000000000000000000000000000000000000000081526004016200230a9062004084565b60405180910390fd5b8060040160049054906101000a900473ffffffffffffffffffffffffffffffffffffffff1673ffffffffffffffffffffffffffffffffffffffff16638c52dc416040518163ffffffff1660e01b8152600401600060405180830381600087803b1580156200238057600080fd5b505af115801562002395573d6000803e3d6000fd5b5050505060048160040160006101000a81548160ff02191690836004811115620023c457620023c362002a9d565b5b021790555060018160040160036101000a81548160ff0219169083151502179055508060040160049054906101000a900473ffffffffffffffffffffffffffffffffffffffff1673ffffffffffffffffffffffffffffffffffffffff16639af6549a6040518163ffffffff1660e01b8152600401600060405180830381600087803b1580156200245357600080fd5b505af115801562002468573d6000803e3d6000fd5b505050507f303a31648d19f17852cf82657162c4bdd4a06ab3f36f1e7ae1118f4ca6473e11836040516200249d91906200367e565b60405180910390a150620024b06200271c565b5050565b806003600082815260200190815260200160002060010160009054906101000a900473ffffffffffffffffffffffffffffffffffffffff1673ffffffffffffffffffffffffffffffffffffffff163373ffffffffffffffffffffffffffffffffffffffff16146200255c576040517f08c379a000000000000000000000000000000000000000000000000000000000815260040162002553906200411c565b60405180910390fd5b62002566620026bc565b60006003600084815260200190815260200160002090508060040160019054906101000a900460ff16620025d1576040517f08c379a0000000000000000000000000000000000000000000000000000000008152600401620025c89062003fec565b60405180910390fd5b8060040160049054906101000a900473ffffffffffffffffffffffffffffffffffffffff1673ffffffffffffffffffffffffffffffffffffffff166343d726d66040518163ffffffff1660e01b8152600401600060405180830381600087803b1580156200263e57600080fd5b505af115801562002653573d6000803e3d6000fd5b5050505060018160040160026101000a81548160ff0219169083151502179055507fe21fe02c1589242b30be2057f54fd54b7ddc463695d19ffdb54f9ebb0584f24a83604051620026a591906200367e565b60405180910390a150620026b86200271c565b5050565b60026000540362002704576040517f08c379a0000000000000000000000000000000000000000000000000000000008152600401620026fb906200418e565b60405180910390fd5b6002600081905550565b600081600001549050919050565b6001600081905550565b6001816000016000828254019250508190555050565b6040518061018001604052806060815260200160608152602001606081526020016060815260200160008152602001600081526020016000600481111562002789576200278862002a9d565b5b81526020016060815260200160008152602001600073ffffffffffffffffffffffffffffffffffffffff16815260200160008152602001600073ffffffffffffffffffffffffffffffffffffffff1681525090565b61169980620041b183390190565b82805482825590600052602060002090810192821562002839579160200282015b828111156200283857825182908162002827919062003d04565b50916020019190600101906200280d565b5b509050620028489190620028b0565b5090565b8280548282559060005260206000209081019282156200289d5760005260206000209182015b828111156200289c57828290816200288b919062003e03565b509160010191906001019062002872565b5b509050620028ac9190620028b0565b5090565b5b80821115620028d45760008181620028ca9190620028d8565b50600101620028b1565b5090565b508054620028e690620037ad565b6000825580601f10620028fa57506200291b565b601f0160209004906000526020600020908101906200291a91906200291e565b5b50565b5b80821115620029395760008160009055506001016200291f565b5090565b6000604051905090565b600080fd5b600080fd5b600073ffffffffffffffffffffffffffffffffffffffff82169050919050565b60006200297e8262002951565b9050919050565b620029908162002971565b81146200299c57600080fd5b50565b600081359050620029b08162002985565b92915050565b600060208284031215620029cf57620029ce62002947565b5b6000620029df848285016200299f565b91505092915050565b600081519050919050565b600082825260208201905092915050565b60005b8381101562002a2457808201518184015260208101905062002a07565b60008484015250505050565b6000601f19601f8301169050919050565b600062002a4e82620029e8565b62002a5a8185620029f3565b935062002a6c81856020860162002a04565b62002a778162002a30565b840191505092915050565b6000819050919050565b62002a978162002a82565b82525050565b7f4e487b7100000000000000000000000000000000000000000000000000000000600052602160045260246000fd5b6005811062002ae05762002adf62002a9d565b5b50565b600081905062002af38262002acc565b919050565b600062002b058262002ae3565b9050919050565b62002b178162002af8565b82525050565b600062002b2a8262002951565b9050919050565b62002b3c8162002b1d565b82525050565b62002b4d8162002971565b82525050565b600061016082019050818103600083015262002b70818e62002a41565b9050818103602083015262002b86818d62002a41565b9050818103604083015262002b9c818c62002a41565b905062002bad606083018b62002a8c565b62002bbc608083018a62002a8c565b62002bcb60a083018962002b0c565b81810360c083015262002bdf818862002a41565b905062002bf060e083018762002a8c565b62002c0061010083018662002b31565b62002c1061012083018562002a8c565b62002c2061014083018462002b42565b9c9b505050505050505050505050565b600081519050919050565b600082825260208201905092915050565b6000819050602082019050919050565b600082825260208201905092915050565b600062002c7a82620029e8565b62002c86818562002c5c565b935062002c9881856020860162002a04565b62002ca38162002a30565b840191505092915050565b600081519050919050565b600082825260208201905092915050565b6000819050602082019050919050565b600062002ce8838362002c6d565b905092915050565b6000602082019050919050565b600062002d0a8262002cae565b62002d16818562002cb9565b93508360208202850162002d2a8562002cca565b8060005b8581101562002d6c578484038952815162002d4a858262002cda565b945062002d578362002cf0565b925060208a0199505060018101905062002d2e565b50829750879550505050505092915050565b62002d898162002a82565b82525050565b62002d9a8162002af8565b82525050565b62002dab8162002b1d565b82525050565b62002dbc8162002971565b82525050565b600061018083016000830151848203600086015262002de2828262002c6d565b9150506020830151848203602086015262002dfe828262002c6d565b9150506040830151848203604086015262002e1a828262002cfd565b9150506060830151848203606086015262002e36828262002c6d565b915050608083015162002e4d608086018262002d7e565b5060a083015162002e6260a086018262002d7e565b5060c083015162002e7760c086018262002d8f565b5060e083015184820360e086015262002e91828262002c6d565b91505061010083015162002eaa61010086018262002d7e565b5061012083015162002ec161012086018262002da0565b5061014083015162002ed861014086018262002d7e565b5061016083015162002eef61016086018262002db1565b508091505092915050565b600062002f08838362002dc2565b905092915050565b6000602082019050919050565b600062002f2a8262002c30565b62002f36818562002c3b565b93508360208202850162002f4a8562002c4c565b8060005b8581101562002f8c578484038952815162002f6a858262002efa565b945062002f778362002f10565b925060208a0199505060018101905062002f4e565b50829750879550505050505092915050565b6000602082019050818103600083015262002fba818462002f1d565b905092915050565b600081519050919050565b600082825260208201905092915050565b6000819050602082019050919050565b60008115159050919050565b620030058162002fee565b82525050565b6000819050919050565b600062003036620030306200302a8462002951565b6200300b565b62002951565b9050919050565b60006200304a8262003015565b9050919050565b60006200305e826200303d565b9050919050565b620030708162003051565b82525050565b610160820160008201516200308f600085018262002d7e565b506020820151620030a4602085018262002db1565b506040820151620030b9604085018262002db1565b506060820151620030ce606085018262002d7e565b506080820151620030e3608085018262002d8f565b5060a0820151620030f860a085018262002ffa565b5060c08201516200310d60c085018262002ffa565b5060e08201516200312260e085018262002ffa565b506101008201516200313961010085018262003065565b506101208201516200315061012085018262002d7e565b506101408201516200316761014085018262002db1565b50505050565b60006200317b838362003076565b6101608301905092915050565b6000602082019050919050565b6000620031a28262002fc2565b620031ae818562002fcd565b9350620031bb8362002fde565b8060005b83811015620031f2578151620031d688826200316d565b9750620031e38362003188565b925050600181019050620031bf565b5085935050505092915050565b600060208201905081810360008301526200321b818462003195565b905092915050565b6200322e8162002a82565b81146200323a57600080fd5b50565b6000813590506200324e8162003223565b92915050565b6000602082840312156200326d576200326c62002947565b5b60006200327d848285016200323d565b91505092915050565b60008060408385031215620032a0576200329f62002947565b5b6000620032b0858286016200323d565b9250506020620032c3858286016200323d565b9150509250929050565b600080fd5b600080fd5b7f4e487b7100000000000000000000000000000000000000000000000000000000600052604160045260246000fd5b620033118262002a30565b810181811067ffffffffffffffff82111715620033335762003332620032d7565b5b80604052505050565b6000620033486200293d565b905062003356828262003306565b919050565b600067ffffffffffffffff821115620033795762003378620032d7565b5b620033848262002a30565b9050602081019050919050565b82818337600083830152505050565b6000620033b7620033b1846200335b565b6200333c565b905082815260208101848484011115620033d657620033d5620032d2565b5b620033e384828562003391565b509392505050565b600082601f830112620034035762003402620032cd565b5b813562003415848260208601620033a0565b91505092915050565b600067ffffffffffffffff8211156200343c576200343b620032d7565b5b602082029050602081019050919050565b600080fd5b60006200346962003463846200341e565b6200333c565b905080838252602082019050602084028301858111156200348f576200348e6200344d565b5b835b81811015620034dd57803567ffffffffffffffff811115620034b857620034b7620032cd565b5b808601620034c78982620033eb565b8552602085019450505060208101905062003491565b5050509392505050565b600082601f830112620034ff57620034fe620032cd565b5b81356200351184826020860162003452565b91505092915050565b600080600080600080600080610100898b0312156200353e576200353d62002947565b5b600089013567ffffffffffffffff8111156200355f576200355e6200294c565b5b6200356d8b828c01620033eb565b985050602089013567ffffffffffffffff8111156200359157620035906200294c565b5b6200359f8b828c01620033eb565b975050604089013567ffffffffffffffff811115620035c357620035c26200294c565b5b620035d18b828c01620034e7565b965050606089013567ffffffffffffffff811115620035f557620035f46200294c565b5b620036038b828c01620033eb565b9550506080620036168b828c016200323d565b94505060a089013567ffffffffffffffff8111156200363a57620036396200294c565b5b620036488b828c01620033eb565b93505060c06200365b8b828c016200323d565b92505060e06200366e8b828c016200323d565b9150509295985092959890939650565b600060208201905062003695600083018462002a8c565b92915050565b620036a68162002fee565b82525050565b620036b78162003051565b82525050565b600061016082019050620036d5600083018e62002a8c565b620036e4602083018d62002b42565b620036f3604083018c62002b42565b62003702606083018b62002a8c565b62003711608083018a62002b0c565b6200372060a08301896200369b565b6200372f60c08301886200369b565b6200373e60e08301876200369b565b6200374e610100830186620036ac565b6200375e61012083018562002a8c565b6200376e61014083018462002b42565b9c9b505050505050505050505050565b7f4e487b7100000000000000000000000000000000000000000000000000000000600052602260045260246000fd5b60006002820490506001821680620037c657607f821691505b602082108103620037dc57620037db6200377e565b5b50919050565b7f4e487b7100000000000000000000000000000000000000000000000000000000600052601160045260246000fd5b60006200381e8262002a82565b91506200382b8362002a82565b9250828203905081811115620038465762003845620037e2565b5b92915050565b7f4e487b7100000000000000000000000000000000000000000000000000000000600052603260045260246000fd5b6000620038888262002a82565b91507fffffffffffffffffffffffffffffffffffffffffffffffffffffffffffffffff8203620038bd57620038bc620037e2565b5b600182019050919050565b7f6f7574206f662073746f636b0000000000000000000000000000000000000000600082015250565b600062003900600c83620029f3565b91506200390d82620038c8565b602082019050919050565b600060208201905081810360008301526200393381620038f1565b9050919050565b7f496e73756666696369656e74207061796d656e742e0000000000000000000000600082015250565b600062003972601583620029f3565b91506200397f826200393a565b602082019050919050565b60006020820190508181036000830152620039a58162003963565b9050919050565b7f50726f64756374206973206e6f7420617661696c61626c652e00000000000000600082015250565b6000620039e4601983620029f3565b9150620039f182620039ac565b602082019050919050565b6000602082019050818103600083015262003a1781620039d5565b9050919050565b600060208201905062003a35600083018462002b31565b92915050565b600062003a48826200303d565b9050919050565b62003a5a8162003a3b565b82525050565b600060208201905062003a77600083018462003a4f565b92915050565b600060808201905062003a94600083018762002a8c565b62003aa3602083018662002b42565b62003ab2604083018562003a4f565b62003ac1606083018462002a8c565b95945050505050565b7f496e76616c69642073656e64657220616464726573732e000000000000000000600082015250565b600062003b02601783620029f3565b915062003b0f8262003aca565b602082019050919050565b6000602082019050818103600083015262003b358162003af3565b9050919050565b60008190508160005260206000209050919050565b60006020601f8301049050919050565b600082821b905092915050565b60006008830262003ba07fffffffffffffffffffffffffffffffffffffffffffffffffffffffffffffffff8262003b61565b62003bac868362003b61565b95508019841693508086168417925050509392505050565b600062003be562003bdf62003bd98462002a82565b6200300b565b62002a82565b9050919050565b6000819050919050565b62003c018362003bc4565b62003c1962003c108262003bec565b84845462003b6e565b825550505050565b600090565b62003c3062003c21565b62003c3d81848462003bf6565b505050565b5b8181101562003c655762003c5960008262003c26565b60018101905062003c43565b5050565b601f82111562003cb45762003c7e8162003b3c565b62003c898462003b51565b8101602085101562003c99578190505b62003cb162003ca88562003b51565b83018262003c42565b50505b505050565b600082821c905092915050565b600062003cd96000198460080262003cb9565b1980831691505092915050565b600062003cf4838362003cc6565b9150826002028217905092915050565b62003d0f82620029e8565b67ffffffffffffffff81111562003d2b5762003d2a620032d7565b5b62003d378254620037ad565b62003d4482828562003c69565b600060209050601f83116001811462003d7c576000841562003d67578287015190505b62003d73858262003ce6565b86555062003de3565b601f19841662003d8c8662003b3c565b60005b8281101562003db65784890151825560018201915060208501945060208101905062003d8f565b8683101562003dd6578489015162003dd2601f89168262003cc6565b8355505b6001600288020188555050505b505050505050565b60008154905062003dfc81620037ad565b9050919050565b81810362003e1357505062003f02565b62003e1e8262003deb565b67ffffffffffffffff81111562003e3a5762003e39620032d7565b5b62003e468254620037ad565b62003e5382828562003c69565b6000601f83116001811462003e87576000841562003e72578287015490505b62003e7e858262003ce6565b86555062003efb565b601f19841662003e978762003b3c565b965062003ea48662003b3c565b60005b8281101562003ece5784890154825560018201915060018501945060208101905062003ea7565b8683101562003eee578489015462003eea601f89168262003cc6565b8355505b6001600288020188555050505b5050505050505b565b7f4f6e6c79207468652073656c6c65722063616e2063616c6c207468697320667560008201527f6e6374696f6e2e00000000000000000000000000000000000000000000000000602082015250565b600062003f62602783620029f3565b915062003f6f8262003f04565b604082019050919050565b6000602082019050818103600083015262003f958162003f53565b9050919050565b7f5061796d656e7420686173206e6f74206265656e206d6164652e000000000000600082015250565b600062003fd4601a83620029f3565b915062003fe18262003f9c565b602082019050919050565b60006020820190508181036000830152620040078162003fc5565b9050919050565b7f4f726465722068617320616c7265616479206265656e2066756c66696c6c656460008201527f2e00000000000000000000000000000000000000000000000000000000000000602082015250565b60006200406c602183620029f3565b915062004079826200400e565b604082019050919050565b600060208201905081810360008301526200409f816200405d565b9050919050565b7f4f6e6c79207468652062757965722063616e2063616c6c20746869732066756e60008201527f6374696f6e2e0000000000000000000000000000000000000000000000000000602082015250565b600062004104602683620029f3565b91506200411182620040a6565b604082019050919050565b600060208201905081810360008301526200413781620040f5565b9050919050565b7f5265656e7472616e637947756172643a207265656e7472616e742063616c6c00600082015250565b600062004176601f83620029f3565b915062004183826200413e565b602082019050919050565b60006020820190508181036000830152620041a98162004167565b905091905056fe60a06040523480156200001157600080fd5b506040516200169938038062001699833981810160405281019062000037919062000268565b620000576200004b6200013260201b60201c565b6200013a60201b60201c565b600073ffffffffffffffffffffffffffffffffffffffff168173ffffffffffffffffffffffffffffffffffffffff1603620000c9576040517f08c379a0000000000000000000000000000000000000000000000000000000008152600401620000c09062000321565b60405180910390fd5b8073ffffffffffffffffffffffffffffffffffffffff1660808173ffffffffffffffffffffffffffffffffffffffff16815250506000600260006101000a81548160ff0219169083600281111562000126576200012562000343565b5b02179055505062000372565b600033905090565b60008060009054906101000a900473ffffffffffffffffffffffffffffffffffffffff169050816000806101000a81548173ffffffffffffffffffffffffffffffffffffffff021916908373ffffffffffffffffffffffffffffffffffffffff1602179055508173ffffffffffffffffffffffffffffffffffffffff168173ffffffffffffffffffffffffffffffffffffffff167f8be0079c531659141344cd1fd0a4f28419497f9722a3daafe3b4186f6b6457e060405160405180910390a35050565b600080fd5b600073ffffffffffffffffffffffffffffffffffffffff82169050919050565b6000620002308262000203565b9050919050565b620002428162000223565b81146200024e57600080fd5b50565b600081519050620002628162000237565b92915050565b600060208284031215620002815762000280620001fe565b5b6000620002918482850162000251565b91505092915050565b600082825260208201905092915050565b7f526566756e64457363726f773a2062656e65666963696172792069732074686560008201527f207a65726f206164647265737300000000000000000000000000000000000000602082015250565b600062000309602d836200029a565b91506200031682620002ab565b604082019050919050565b600060208201905081810360008301526200033c81620002fa565b9050919050565b7f4e487b7100000000000000000000000000000000000000000000000000000000600052602160045260246000fd5b60805161130b6200038e6000396000610275015261130b6000f3fe6080604052600436106100a75760003560e01c80638da5cb5b116100645780638da5cb5b146101825780639af6549a146101ad578063c19d93fb146101c4578063e3a9db1a146101ef578063f2fde38b1461022c578063f340fa0114610255576100a7565b806338af3eed146100ac57806343d726d6146100d757806351cff8d9146100ee578063685ca19414610117578063715018a6146101545780638c52dc411461016b575b600080fd5b3480156100b857600080fd5b506100c1610271565b6040516100ce9190610b3b565b60405180910390f35b3480156100e357600080fd5b506100ec610299565b005b3480156100fa57600080fd5b5061011560048036038101906101109190610b87565b610367565b005b34801561012357600080fd5b5061013e60048036038101906101399190610bf2565b6103bb565b60405161014b9190610c3a565b60405180910390f35b34801561016057600080fd5b506101696103f3565b005b34801561017757600080fd5b50610180610407565b005b34801561018e57600080fd5b506101976104d6565b6040516101a49190610c64565b60405180910390f35b3480156101b957600080fd5b506101c26104ff565b005b3480156101d057600080fd5b506101d961059e565b6040516101e69190610cf6565b60405180910390f35b3480156101fb57600080fd5b5061021660048036038101906102119190610bf2565b6105b5565b6040516102239190610d2a565b60405180910390f35b34801561023857600080fd5b50610253600480360381019061024e9190610bf2565b6105fe565b005b61026f600480360381019061026a9190610bf2565b610681565b005b60007f0000000000000000000000000000000000000000000000000000000000000000905090565b6102a16106fb565b600060028111156102b5576102b4610c7f565b5b6102bd61059e565b60028111156102cf576102ce610c7f565b5b1461030f576040517f08c379a000000000000000000000000000000000000000000000000000000000815260040161030690610dc8565b60405180910390fd5b60028060006101000a81548160ff0219169083600281111561033457610333610c7f565b5b02179055507f088672c3a6e342f7cd94a65ba63b79df24a8973927b4d05d803c44bbf787d12f60405160405180910390a1565b610370816103bb565b6103af576040517f08c379a00000000000000000000000000000000000000000000000000000000081526004016103a690610e5a565b60405180910390fd5b6103b881610779565b50565b6000600160028111156103d1576103d0610c7f565b5b6103d961059e565b60028111156103eb576103ea610c7f565b5b149050919050565b6103fb6106fb565b6104056000610885565b565b61040f6106fb565b6000600281111561042357610422610c7f565b5b61042b61059e565b600281111561043d5761043c610c7f565b5b1461047d576040517f08c379a000000000000000000000000000000000000000000000000000000000815260040161047490610eec565b60405180910390fd5b6001600260006101000a81548160ff021916908360028111156104a3576104a2610c7f565b5b02179055507f599d8e5a83cffb867d051598c4d70e805d59802d8081c1c7d6dffc5b6aca2b8960405160405180910390a1565b60008060009054906101000a900473ffffffffffffffffffffffffffffffffffffffff16905090565b60028081111561051257610511610c7f565b5b61051a61059e565b600281111561052c5761052b610c7f565b5b1461056c576040517f08c379a000000000000000000000000000000000000000000000000000000000815260040161056390610f7e565b60405180910390fd5b61059c47610578610271565b73ffffffffffffffffffffffffffffffffffffffff1661094990919063ffffffff16565b565b6000600260009054906101000a900460ff16905090565b6000600160008373ffffffffffffffffffffffffffffffffffffffff1673ffffffffffffffffffffffffffffffffffffffff168152602001908152602001600020549050919050565b6106066106fb565b600073ffffffffffffffffffffffffffffffffffffffff168173ffffffffffffffffffffffffffffffffffffffff1603610675576040517f08c379a000000000000000000000000000000000000000000000000000000000815260040161066c90611010565b60405180910390fd5b61067e81610885565b50565b6000600281111561069557610694610c7f565b5b61069d61059e565b60028111156106af576106ae610c7f565b5b146106ef576040517f08c379a00000000000000000000000000000000000000000000000000000000081526004016106e6906110a2565b60405180910390fd5b6106f881610a3d565b50565b610703610af2565b73ffffffffffffffffffffffffffffffffffffffff166107216104d6565b73ffffffffffffffffffffffffffffffffffffffff1614610777576040517f08c379a000000000000000000000000000000000000000000000000000000000815260040161076e9061110e565b60405180910390fd5b565b6107816106fb565b6000600160008373ffffffffffffffffffffffffffffffffffffffff1673ffffffffffffffffffffffffffffffffffffffff1681526020019081526020016000205490506000600160008473ffffffffffffffffffffffffffffffffffffffff1673ffffffffffffffffffffffffffffffffffffffff16815260200190815260200160002081905550610833818373ffffffffffffffffffffffffffffffffffffffff1661094990919063ffffffff16565b8173ffffffffffffffffffffffffffffffffffffffff167f7084f5476618d8e60b11ef0d7d3f06914655adb8793e28ff7f018d4c76d505d5826040516108799190610d2a565b60405180910390a25050565b60008060009054906101000a900473ffffffffffffffffffffffffffffffffffffffff169050816000806101000a81548173ffffffffffffffffffffffffffffffffffffffff021916908373ffffffffffffffffffffffffffffffffffffffff1602179055508173ffffffffffffffffffffffffffffffffffffffff168173ffffffffffffffffffffffffffffffffffffffff167f8be0079c531659141344cd1fd0a4f28419497f9722a3daafe3b4186f6b6457e060405160405180910390a35050565b8047101561098c576040517f08c379a00000000000000000000000000000000000000000000000000000000081526004016109839061117a565b60405180910390fd5b60008273ffffffffffffffffffffffffffffffffffffffff16826040516109b2906111cb565b60006040518083038185875af1925050503d80600081146109ef576040519150601f19603f3d011682016040523d82523d6000602084013e6109f4565b606091505b5050905080610a38576040517f08c379a0000000000000000000000000000000000000000000000000000000008152600401610a2f90611252565b60405180910390fd5b505050565b610a456106fb565b600034905080600160008473ffffffffffffffffffffffffffffffffffffffff1673ffffffffffffffffffffffffffffffffffffffff1681526020019081526020016000206000828254610a9991906112a1565b925050819055508173ffffffffffffffffffffffffffffffffffffffff167f2da466a7b24304f47e87fa2e1e5a81b9831ce54fec19055ce277ca2f39ba42c482604051610ae69190610d2a565b60405180910390a25050565b600033905090565b600073ffffffffffffffffffffffffffffffffffffffff82169050919050565b6000610b2582610afa565b9050919050565b610b3581610b1a565b82525050565b6000602082019050610b506000830184610b2c565b92915050565b600080fd5b610b6481610b1a565b8114610b6f57600080fd5b50565b600081359050610b8181610b5b565b92915050565b600060208284031215610b9d57610b9c610b56565b5b6000610bab84828501610b72565b91505092915050565b6000610bbf82610afa565b9050919050565b610bcf81610bb4565b8114610bda57600080fd5b50565b600081359050610bec81610bc6565b92915050565b600060208284031215610c0857610c07610b56565b5b6000610c1684828501610bdd565b91505092915050565b60008115159050919050565b610c3481610c1f565b82525050565b6000602082019050610c4f6000830184610c2b565b92915050565b610c5e81610bb4565b82525050565b6000602082019050610c796000830184610c55565b92915050565b7f4e487b7100000000000000000000000000000000000000000000000000000000600052602160045260246000fd5b60038110610cbf57610cbe610c7f565b5b50565b6000819050610cd082610cae565b919050565b6000610ce082610cc2565b9050919050565b610cf081610cd5565b82525050565b6000602082019050610d0b6000830184610ce7565b92915050565b6000819050919050565b610d2481610d11565b82525050565b6000602082019050610d3f6000830184610d1b565b92915050565b600082825260208201905092915050565b7f526566756e64457363726f773a2063616e206f6e6c7920636c6f73652077686960008201527f6c65206163746976650000000000000000000000000000000000000000000000602082015250565b6000610db2602983610d45565b9150610dbd82610d56565b604082019050919050565b60006020820190508181036000830152610de181610da5565b9050919050565b7f436f6e646974696f6e616c457363726f773a207061796565206973206e6f742060008201527f616c6c6f77656420746f20776974686472617700000000000000000000000000602082015250565b6000610e44603383610d45565b9150610e4f82610de8565b604082019050919050565b60006020820190508181036000830152610e7381610e37565b9050919050565b7f526566756e64457363726f773a2063616e206f6e6c7920656e61626c6520726560008201527f66756e6473207768696c65206163746976650000000000000000000000000000602082015250565b6000610ed6603283610d45565b9150610ee182610e7a565b604082019050919050565b60006020820190508181036000830152610f0581610ec9565b9050919050565b7f526566756e64457363726f773a2062656e65666963696172792063616e206f6e60008201527f6c79207769746864726177207768696c6520636c6f7365640000000000000000602082015250565b6000610f68603883610d45565b9150610f7382610f0c565b604082019050919050565b60006020820190508181036000830152610f9781610f5b565b9050919050565b7f4f776e61626c653a206e6577206f776e657220697320746865207a65726f206160008201527f6464726573730000000000000000000000000000000000000000000000000000602082015250565b6000610ffa602683610d45565b915061100582610f9e565b604082019050919050565b6000602082019050818103600083015261102981610fed565b9050919050565b7f526566756e64457363726f773a2063616e206f6e6c79206465706f736974207760008201527f68696c6520616374697665000000000000000000000000000000000000000000602082015250565b600061108c602b83610d45565b915061109782611030565b604082019050919050565b600060208201905081810360008301526110bb8161107f565b9050919050565b7f4f776e61626c653a2063616c6c6572206973206e6f7420746865206f776e6572600082015250565b60006110f8602083610d45565b9150611103826110c2565b602082019050919050565b60006020820190508181036000830152611127816110eb565b9050919050565b7f416464726573733a20696e73756666696369656e742062616c616e6365000000600082015250565b6000611164601d83610d45565b915061116f8261112e565b602082019050919050565b6000602082019050818103600083015261119381611157565b9050919050565b600081905092915050565b50565b60006111b560008361119a565b91506111c0826111a5565b600082019050919050565b60006111d6826111a8565b9150819050919050565b7f416464726573733a20756e61626c6520746f2073656e642076616c75652c207260008201527f6563697069656e74206d61792068617665207265766572746564000000000000602082015250565b600061123c603a83610d45565b9150611247826111e0565b604082019050919050565b6000602082019050818103600083015261126b8161122f565b9050919050565b7f4e487b7100000000000000000000000000000000000000000000000000000000600052601160045260246000fd5b60006112ac82610d11565b91506112b783610d11565b92508282019050808211156112cf576112ce611272565b5b9291505056fea264697066735822122096a00e245e5af2ce4aae68743b503252f0fe4ec2f16160aeab78dcc9e440dc5064736f6c63430008120033a26469706673582212202ed432350e957273cdffd3dcf2d57859af24fd0d78142f883d2c576b506cb86664736f6c63430008120033",
  "linkReferences": {},
  "deployedLinkReferences": {}
}