{
  "_format": "hh-sol-artifact-1",
  "contractName": "Stores",
  "sourceName": "contracts/Stores.sol",
  "abi": [
    {
      "inputs": [
        {
          "internalType": "address",
          "name": "",
          "type": "address"
        }
      ],
      "name": "addressToStore",
      "outputs": [
        {
          "internalType": "address",
          "name": "owner",
          "type": "address"
        },
        {
          "internalType": "string",
          "name": "storeName",
          "type": "string"
        },
        {
          "internalType": "bool",
          "name": "isSellerActive",
          "type": "bool"
        },
        {
          "internalType": "string",
          "name": "category",
          "type": "string"
        },
        {
          "internalType": "string",
          "name": "name",
          "type": "string"
        },
        {
          "internalType": "string",
          "name": "lastName",
          "type": "string"
        },
        {
          "internalType": "string",
          "name": "description",
          "type": "string"
        },
        {
          "internalType": "string",
          "name": "location",
          "type": "string"
        },
        {
          "internalType": "string",
          "name": "profileImg",
          "type": "string"
        },
        {
          "internalType": "string",
          "name": "coverImage",
          "type": "string"
        },
        {
          "internalType": "uint256",
          "name": "id",
          "type": "uint256"
        }
      ],
      "stateMutability": "view",
      "type": "function"
    },
    {
      "inputs": [
        {
          "internalType": "address",
          "name": "",
          "type": "address"
        }
      ],
      "name": "addressToStream",
      "outputs": [
        {
          "internalType": "uint256",
          "name": "id",
          "type": "uint256"
        },
        {
          "internalType": "string",
          "name": "streamId",
          "type": "string"
        },
        {
          "internalType": "string",
          "name": "storeName",
          "type": "string"
        },
        {
          "internalType": "address",
          "name": "owner",
          "type": "address"
        },
        {
          "internalType": "bool",
          "name": "isActive",
          "type": "bool"
        }
      ],
      "stateMutability": "view",
      "type": "function"
    },
    {
      "inputs": [
        {
          "internalType": "address",
          "name": "",
          "type": "address"
        },
        {
          "internalType": "uint256",
          "name": "",
          "type": "uint256"
        }
      ],
      "name": "addressToUintStream",
      "outputs": [
        {
          "internalType": "uint256",
          "name": "id",
          "type": "uint256"
        },
        {
          "internalType": "string",
          "name": "streamId",
          "type": "string"
        },
        {
          "internalType": "string",
          "name": "storeName",
          "type": "string"
        },
        {
          "internalType": "address",
          "name": "owner",
          "type": "address"
        },
        {
          "internalType": "bool",
          "name": "isActive",
          "type": "bool"
        }
      ],
      "stateMutability": "view",
      "type": "function"
    },
    {
      "inputs": [
        {
          "internalType": "uint256",
          "name": "id",
          "type": "uint256"
        }
      ],
      "name": "cancelStream",
      "outputs": [],
      "stateMutability": "nonpayable",
      "type": "function"
    },
    {
      "inputs": [
        {
          "internalType": "string",
          "name": "_storeName",
          "type": "string"
        },
        {
          "internalType": "string",
          "name": "_category",
          "type": "string"
        },
        {
          "internalType": "string",
          "name": "_name",
          "type": "string"
        },
        {
          "internalType": "string",
          "name": "_lastName",
          "type": "string"
        },
        {
          "internalType": "string",
          "name": "_description",
          "type": "string"
        },
        {
          "internalType": "string",
          "name": "_location",
          "type": "string"
        }
      ],
      "name": "createAStore",
      "outputs": [],
      "stateMutability": "nonpayable",
      "type": "function"
    },
    {
      "inputs": [],
      "name": "getAllStore",
      "outputs": [
        {
          "components": [
            {
              "internalType": "address",
              "name": "owner",
              "type": "address"
            },
            {
              "internalType": "string",
              "name": "storeName",
              "type": "string"
            },
            {
              "internalType": "bool",
              "name": "isSellerActive",
              "type": "bool"
            },
            {
              "internalType": "string",
              "name": "category",
              "type": "string"
            },
            {
              "internalType": "string",
              "name": "name",
              "type": "string"
            },
            {
              "internalType": "string",
              "name": "lastName",
              "type": "string"
            },
            {
              "internalType": "string",
              "name": "description",
              "type": "string"
            },
            {
              "internalType": "string",
              "name": "location",
              "type": "string"
            },
            {
              "internalType": "string",
              "name": "profileImg",
              "type": "string"
            },
            {
              "internalType": "string",
              "name": "coverImage",
              "type": "string"
            },
            {
              "internalType": "uint256",
              "name": "id",
              "type": "uint256"
            }
          ],
          "internalType": "struct Stores.Store[]",
          "name": "",
          "type": "tuple[]"
        }
      ],
      "stateMutability": "view",
      "type": "function"
    },
    {
      "inputs": [],
      "name": "getAllStream",
      "outputs": [
        {
          "components": [
            {
              "internalType": "uint256",
              "name": "id",
              "type": "uint256"
            },
            {
              "internalType": "string",
              "name": "streamId",
              "type": "string"
            },
            {
              "internalType": "string",
              "name": "storeName",
              "type": "string"
            },
            {
              "internalType": "address",
              "name": "owner",
              "type": "address"
            },
            {
              "internalType": "bool",
              "name": "isActive",
              "type": "bool"
            }
          ],
          "internalType": "struct Stores.Stream[]",
          "name": "",
          "type": "tuple[]"
        }
      ],
      "stateMutability": "view",
      "type": "function"
    },
    {
      "inputs": [
        {
          "internalType": "address",
          "name": "_owner",
          "type": "address"
        }
      ],
      "name": "getStoreByAddress",
      "outputs": [
        {
          "components": [
            {
              "internalType": "address",
              "name": "owner",
              "type": "address"
            },
            {
              "internalType": "string",
              "name": "storeName",
              "type": "string"
            },
            {
              "internalType": "bool",
              "name": "isSellerActive",
              "type": "bool"
            },
            {
              "internalType": "string",
              "name": "category",
              "type": "string"
            },
            {
              "internalType": "string",
              "name": "name",
              "type": "string"
            },
            {
              "internalType": "string",
              "name": "lastName",
              "type": "string"
            },
            {
              "internalType": "string",
              "name": "description",
              "type": "string"
            },
            {
              "internalType": "string",
              "name": "location",
              "type": "string"
            },
            {
              "internalType": "string",
              "name": "profileImg",
              "type": "string"
            },
            {
              "internalType": "string",
              "name": "coverImage",
              "type": "string"
            },
            {
              "internalType": "uint256",
              "name": "id",
              "type": "uint256"
            }
          ],
          "internalType": "struct Stores.Store",
          "name": "",
          "type": "tuple"
        }
      ],
      "stateMutability": "view",
      "type": "function"
    },
    {
      "inputs": [
        {
          "internalType": "address",
          "name": "_owner",
          "type": "address"
        }
      ],
      "name": "retriveStreamInfo",
      "outputs": [
        {
          "internalType": "bool",
          "name": "",
          "type": "bool"
        },
        {
          "internalType": "string",
          "name": "",
          "type": "string"
        },
        {
          "internalType": "string",
          "name": "",
          "type": "string"
        }
      ],
      "stateMutability": "view",
      "type": "function"
    },
    {
      "inputs": [
        {
          "internalType": "string",
          "name": "_callId",
          "type": "string"
        }
      ],
      "name": "startStream",
      "outputs": [],
      "stateMutability": "nonpayable",
      "type": "function"
    }
  ],
  "bytecode": "0x608060405234801561001057600080fd5b50613170806100206000396000f3fe608060405234801561001057600080fd5b506004361061009e5760003560e01c80636db9241b116100665780636db9241b1461017b578063732e924f1461019757806393cd5a1f146101cb578063b979b5fe146101e7578063ff1d5f8a146102055761009e565b806343254636146100a35780635d39c071146100dd5780635e9dc533146100f95780636592f99a1461012d57806366ee57911461014b575b600080fd5b6100bd60048036038101906100b89190612080565b610237565b6040516100d49b9a99989796959493929190612180565b60405180910390f35b6100f760048036038101906100f29190612398565b6106fe565b005b610113600480360381019061010e919061240d565b6109fb565b60405161012495949392919061244d565b60405180910390f35b610135610b7b565b6040516101429190612707565b60405180910390f35b61016560048036038101906101609190612080565b6110e6565b6040516101729190612849565b60405180910390f35b6101956004803603810190610190919061286b565b61164b565b005b6101b160048036038101906101ac9190612080565b611704565b6040516101c295949392919061244d565b60405180910390f35b6101e560048036038101906101e09190612898565b611877565b005b6101ef611b1f565b6040516101fc9190612b0c565b60405180910390f35b61021f600480360381019061021a9190612080565b611d1d565b60405161022e93929190612b2e565b60405180910390f35b60046020528060005260406000206000915090508060000160009054906101000a900473ffffffffffffffffffffffffffffffffffffffff169080600101805461028090612ba2565b80601f01602080910402602001604051908101604052809291908181526020018280546102ac90612ba2565b80156102f95780601f106102ce576101008083540402835291602001916102f9565b820191906000526020600020905b8154815290600101906020018083116102dc57829003601f168201915b5050505050908060020160009054906101000a900460ff169080600301805461032190612ba2565b80601f016020809104026020016040519081016040528092919081815260200182805461034d90612ba2565b801561039a5780601f1061036f5761010080835404028352916020019161039a565b820191906000526020600020905b81548152906001019060200180831161037d57829003601f168201915b5050505050908060040180546103af90612ba2565b80601f01602080910402602001604051908101604052809291908181526020018280546103db90612ba2565b80156104285780601f106103fd57610100808354040283529160200191610428565b820191906000526020600020905b81548152906001019060200180831161040b57829003601f168201915b50505050509080600501805461043d90612ba2565b80601f016020809104026020016040519081016040528092919081815260200182805461046990612ba2565b80156104b65780601f1061048b576101008083540402835291602001916104b6565b820191906000526020600020905b81548152906001019060200180831161049957829003601f168201915b5050505050908060060180546104cb90612ba2565b80601f01602080910402602001604051908101604052809291908181526020018280546104f790612ba2565b80156105445780601f1061051957610100808354040283529160200191610544565b820191906000526020600020905b81548152906001019060200180831161052757829003601f168201915b50505050509080600701805461055990612ba2565b80601f016020809104026020016040519081016040528092919081815260200182805461058590612ba2565b80156105d25780601f106105a7576101008083540402835291602001916105d2565b820191906000526020600020905b8154815290600101906020018083116105b557829003601f168201915b5050505050908060080180546105e790612ba2565b80601f016020809104026020016040519081016040528092919081815260200182805461061390612ba2565b80156106605780601f1061063557610100808354040283529160200191610660565b820191906000526020600020905b81548152906001019060200180831161064357829003601f168201915b50505050509080600901805461067590612ba2565b80601f01602080910402602001604051908101604052809291908181526020018280546106a190612ba2565b80156106ee5780601f106106c3576101008083540402835291602001916106ee565b820191906000526020600020905b8154815290600101906020018083116106d157829003601f168201915b50505050509080600a015490508b565b600460003373ffffffffffffffffffffffffffffffffffffffff1673ffffffffffffffffffffffffffffffffffffffff16815260200190815260200160002060020160009054906101000a900460ff161561078e576040517f08c379a000000000000000000000000000000000000000000000000000000000815260040161078590612c1f565b60405180910390fd5b600073ffffffffffffffffffffffffffffffffffffffff163373ffffffffffffffffffffffffffffffffffffffff16036107fd576040517f08c379a00000000000000000000000000000000000000000000000000000000081526004016107f490612c8b565b60405180910390fd5b6108076001611f1b565b6108116001611f31565b600560003373ffffffffffffffffffffffffffffffffffffffff1673ffffffffffffffffffffffffffffffffffffffff168152602001908152602001600020600001819055506001600460003373ffffffffffffffffffffffffffffffffffffffff1673ffffffffffffffffffffffffffffffffffffffff16815260200190815260200160002060020160006101000a81548160ff02191690831515021790555080600560003373ffffffffffffffffffffffffffffffffffffffff1673ffffffffffffffffffffffffffffffffffffffff16815260200190815260200160002060010190816109019190612e57565b506001600560003373ffffffffffffffffffffffffffffffffffffffff1673ffffffffffffffffffffffffffffffffffffffff16815260200190815260200160002060030160146101000a81548160ff021916908315150217905550600460003373ffffffffffffffffffffffffffffffffffffffff1673ffffffffffffffffffffffffffffffffffffffff168152602001908152602001600020600101600560003373ffffffffffffffffffffffffffffffffffffffff1673ffffffffffffffffffffffffffffffffffffffff16815260200190815260200160002060020190816109ed9190612f54565b506109f86001611f1b565b50565b600660205281600052604060002060205280600052604060002060009150915050806000015490806001018054610a3190612ba2565b80601f0160208091040260200160405190810160405280929190818152602001828054610a5d90612ba2565b8015610aaa5780601f10610a7f57610100808354040283529160200191610aaa565b820191906000526020600020905b815481529060010190602001808311610a8d57829003601f168201915b505050505090806002018054610abf90612ba2565b80601f0160208091040260200160405190810160405280929190818152602001828054610aeb90612ba2565b8015610b385780601f10610b0d57610100808354040283529160200191610b38565b820191906000526020600020905b815481529060010190602001808311610b1b57829003601f168201915b5050505050908060030160009054906101000a900473ffffffffffffffffffffffffffffffffffffffff16908060030160149054906101000a900460ff16905085565b60606002805480602002602001604051908101604052809291908181526020016000905b828210156110dd57838290600052602060002090600b0201604051806101600160405290816000820160009054906101000a900473ffffffffffffffffffffffffffffffffffffffff1673ffffffffffffffffffffffffffffffffffffffff1673ffffffffffffffffffffffffffffffffffffffff168152602001600182018054610c2990612ba2565b80601f0160208091040260200160405190810160405280929190818152602001828054610c5590612ba2565b8015610ca25780601f10610c7757610100808354040283529160200191610ca2565b820191906000526020600020905b815481529060010190602001808311610c8557829003601f168201915b505050505081526020016002820160009054906101000a900460ff16151515158152602001600382018054610cd690612ba2565b80601f0160208091040260200160405190810160405280929190818152602001828054610d0290612ba2565b8015610d4f5780601f10610d2457610100808354040283529160200191610d4f565b820191906000526020600020905b815481529060010190602001808311610d3257829003601f168201915b50505050508152602001600482018054610d6890612ba2565b80601f0160208091040260200160405190810160405280929190818152602001828054610d9490612ba2565b8015610de15780601f10610db657610100808354040283529160200191610de1565b820191906000526020600020905b815481529060010190602001808311610dc457829003601f168201915b50505050508152602001600582018054610dfa90612ba2565b80601f0160208091040260200160405190810160405280929190818152602001828054610e2690612ba2565b8015610e735780601f10610e4857610100808354040283529160200191610e73565b820191906000526020600020905b815481529060010190602001808311610e5657829003601f168201915b50505050508152602001600682018054610e8c90612ba2565b80601f0160208091040260200160405190810160405280929190818152602001828054610eb890612ba2565b8015610f055780601f10610eda57610100808354040283529160200191610f05565b820191906000526020600020905b815481529060010190602001808311610ee857829003601f168201915b50505050508152602001600782018054610f1e90612ba2565b80601f0160208091040260200160405190810160405280929190818152602001828054610f4a90612ba2565b8015610f975780601f10610f6c57610100808354040283529160200191610f97565b820191906000526020600020905b815481529060010190602001808311610f7a57829003601f168201915b50505050508152602001600882018054610fb090612ba2565b80601f0160208091040260200160405190810160405280929190818152602001828054610fdc90612ba2565b80156110295780601f10610ffe57610100808354040283529160200191611029565b820191906000526020600020905b81548152906001019060200180831161100c57829003601f168201915b5050505050815260200160098201805461104290612ba2565b80601f016020809104026020016040519081016040528092919081815260200182805461106e90612ba2565b80156110bb5780601f10611090576101008083540402835291602001916110bb565b820191906000526020600020905b81548152906001019060200180831161109e57829003601f168201915b50505050508152602001600a8201548152505081526020019060010190610b9f565b50505050905090565b6110ee611f3f565b600460008373ffffffffffffffffffffffffffffffffffffffff1673ffffffffffffffffffffffffffffffffffffffff168152602001908152602001600020604051806101600160405290816000820160009054906101000a900473ffffffffffffffffffffffffffffffffffffffff1673ffffffffffffffffffffffffffffffffffffffff1673ffffffffffffffffffffffffffffffffffffffff16815260200160018201805461119f90612ba2565b80601f01602080910402602001604051908101604052809291908181526020018280546111cb90612ba2565b80156112185780601f106111ed57610100808354040283529160200191611218565b820191906000526020600020905b8154815290600101906020018083116111fb57829003601f168201915b505050505081526020016002820160009054906101000a900460ff1615151515815260200160038201805461124c90612ba2565b80601f016020809104026020016040519081016040528092919081815260200182805461127890612ba2565b80156112c55780601f1061129a576101008083540402835291602001916112c5565b820191906000526020600020905b8154815290600101906020018083116112a857829003601f168201915b505050505081526020016004820180546112de90612ba2565b80601f016020809104026020016040519081016040528092919081815260200182805461130a90612ba2565b80156113575780601f1061132c57610100808354040283529160200191611357565b820191906000526020600020905b81548152906001019060200180831161133a57829003601f168201915b5050505050815260200160058201805461137090612ba2565b80601f016020809104026020016040519081016040528092919081815260200182805461139c90612ba2565b80156113e95780601f106113be576101008083540402835291602001916113e9565b820191906000526020600020905b8154815290600101906020018083116113cc57829003601f168201915b5050505050815260200160068201805461140290612ba2565b80601f016020809104026020016040519081016040528092919081815260200182805461142e90612ba2565b801561147b5780601f106114505761010080835404028352916020019161147b565b820191906000526020600020905b81548152906001019060200180831161145e57829003601f168201915b5050505050815260200160078201805461149490612ba2565b80601f01602080910402602001604051908101604052809291908181526020018280546114c090612ba2565b801561150d5780601f106114e25761010080835404028352916020019161150d565b820191906000526020600020905b8154815290600101906020018083116114f057829003601f168201915b5050505050815260200160088201805461152690612ba2565b80601f016020809104026020016040519081016040528092919081815260200182805461155290612ba2565b801561159f5780601f106115745761010080835404028352916020019161159f565b820191906000526020600020905b81548152906001019060200180831161158257829003601f168201915b505050505081526020016009820180546115b890612ba2565b80601f01602080910402602001604051908101604052809291908181526020018280546115e490612ba2565b80156116315780601f1061160657610100808354040283529160200191611631565b820191906000526020600020905b81548152906001019060200180831161161457829003601f168201915b50505050508152602001600a820154815250509050919050565b600660003373ffffffffffffffffffffffffffffffffffffffff1673ffffffffffffffffffffffffffffffffffffffff16815260200190815260200160002060008281526020019081526020016000206000808201600090556001820160006116b49190611fb1565b6002820160006116c49190611fb1565b6003820160006101000a81549073ffffffffffffffffffffffffffffffffffffffff02191690556003820160146101000a81549060ff0219169055505050565b600560205280600052604060002060009150905080600001549080600101805461172d90612ba2565b80601f016020809104026020016040519081016040528092919081815260200182805461175990612ba2565b80156117a65780601f1061177b576101008083540402835291602001916117a6565b820191906000526020600020905b81548152906001019060200180831161178957829003601f168201915b5050505050908060020180546117bb90612ba2565b80601f01602080910402602001604051908101604052809291908181526020018280546117e790612ba2565b80156118345780601f1061180957610100808354040283529160200191611834565b820191906000526020600020905b81548152906001019060200180831161181757829003601f168201915b5050505050908060030160009054906101000a900473ffffffffffffffffffffffffffffffffffffffff16908060030160149054906101000a900460ff16905085565b6000600460003373ffffffffffffffffffffffffffffffffffffffff1673ffffffffffffffffffffffffffffffffffffffff16815260200190815260200160002090506118c46000611f1b565b868160010190816118d59190612e57565b50338160000160006101000a81548173ffffffffffffffffffffffffffffffffffffffff021916908373ffffffffffffffffffffffffffffffffffffffff1602179055508481600401908161192a9190612e57565b508581600301908161193c9190612e57565b508381600501908161194e9190612e57565b50828160060190816119609190612e57565b5060008160020160006101000a81548160ff0219169083151502179055508181600701908161198f9190612e57565b5061199a6000611f31565b81600a018190555060028190806001815401808255809150506001900390600052602060002090600b02016000909190919091506000820160009054906101000a900473ffffffffffffffffffffffffffffffffffffffff168160000160006101000a81548173ffffffffffffffffffffffffffffffffffffffff021916908373ffffffffffffffffffffffffffffffffffffffff16021790555060018201816001019081611a499190613052565b506002820160009054906101000a900460ff168160020160006101000a81548160ff02191690831515021790555060038201816003019081611a8b9190613052565b5060048201816004019081611aa09190613052565b5060058201816005019081611ab59190613052565b5060068201816006019081611aca9190613052565b5060078201816007019081611adf9190613052565b5060088201816008019081611af49190613052565b5060098201816009019081611b099190613052565b50600a82015481600a0155505050505050505050565b60606003805480602002602001604051908101604052809291908181526020016000905b82821015611d1457838290600052602060002090600402016040518060a001604052908160008201548152602001600182018054611b8090612ba2565b80601f0160208091040260200160405190810160405280929190818152602001828054611bac90612ba2565b8015611bf95780601f10611bce57610100808354040283529160200191611bf9565b820191906000526020600020905b815481529060010190602001808311611bdc57829003601f168201915b50505050508152602001600282018054611c1290612ba2565b80601f0160208091040260200160405190810160405280929190818152602001828054611c3e90612ba2565b8015611c8b5780601f10611c6057610100808354040283529160200191611c8b565b820191906000526020600020905b815481529060010190602001808311611c6e57829003601f168201915b505050505081526020016003820160009054906101000a900473ffffffffffffffffffffffffffffffffffffffff1673ffffffffffffffffffffffffffffffffffffffff1673ffffffffffffffffffffffffffffffffffffffff1681526020016003820160149054906101000a900460ff16151515158152505081526020019060010190611b43565b50505050905090565b6000606080600560008573ffffffffffffffffffffffffffffffffffffffff1673ffffffffffffffffffffffffffffffffffffffff16815260200190815260200160002060030160149054906101000a900460ff16600560008673ffffffffffffffffffffffffffffffffffffffff1673ffffffffffffffffffffffffffffffffffffffff168152602001908152602001600020600101600560008773ffffffffffffffffffffffffffffffffffffffff1673ffffffffffffffffffffffffffffffffffffffff168152602001908152602001600020600201818054611e0290612ba2565b80601f0160208091040260200160405190810160405280929190818152602001828054611e2e90612ba2565b8015611e7b5780601f10611e5057610100808354040283529160200191611e7b565b820191906000526020600020905b815481529060010190602001808311611e5e57829003601f168201915b50505050509150808054611e8e90612ba2565b80601f0160208091040260200160405190810160405280929190818152602001828054611eba90612ba2565b8015611f075780601f10611edc57610100808354040283529160200191611f07565b820191906000526020600020905b815481529060010190602001808311611eea57829003601f168201915b505050505090509250925092509193909250565b6001816000016000828254019250508190555050565b600081600001549050919050565b604051806101600160405280600073ffffffffffffffffffffffffffffffffffffffff1681526020016060815260200160001515815260200160608152602001606081526020016060815260200160608152602001606081526020016060815260200160608152602001600081525090565b508054611fbd90612ba2565b6000825580601f10611fcf5750611fee565b601f016020900490600052602060002090810190611fed9190611ff1565b5b50565b5b8082111561200a576000816000905550600101611ff2565b5090565b6000604051905090565b600080fd5b600080fd5b600073ffffffffffffffffffffffffffffffffffffffff82169050919050565b600061204d82612022565b9050919050565b61205d81612042565b811461206857600080fd5b50565b60008135905061207a81612054565b92915050565b60006020828403121561209657612095612018565b5b60006120a48482850161206b565b91505092915050565b6120b681612042565b82525050565b600081519050919050565b600082825260208201905092915050565b60005b838110156120f65780820151818401526020810190506120db565b60008484015250505050565b6000601f19601f8301169050919050565b600061211e826120bc565b61212881856120c7565b93506121388185602086016120d8565b61214181612102565b840191505092915050565b60008115159050919050565b6121618161214c565b82525050565b6000819050919050565b61217a81612167565b82525050565b600061016082019050612196600083018e6120ad565b81810360208301526121a8818d612113565b90506121b7604083018c612158565b81810360608301526121c9818b612113565b905081810360808301526121dd818a612113565b905081810360a08301526121f18189612113565b905081810360c08301526122058188612113565b905081810360e08301526122198187612113565b905081810361010083015261222e8186612113565b90508181036101208301526122438185612113565b9050612253610140830184612171565b9c9b505050505050505050505050565b600080fd5b600080fd5b7f4e487b7100000000000000000000000000000000000000000000000000000000600052604160045260246000fd5b6122a582612102565b810181811067ffffffffffffffff821117156122c4576122c361226d565b5b80604052505050565b60006122d761200e565b90506122e3828261229c565b919050565b600067ffffffffffffffff8211156123035761230261226d565b5b61230c82612102565b9050602081019050919050565b82818337600083830152505050565b600061233b612336846122e8565b6122cd565b90508281526020810184848401111561235757612356612268565b5b612362848285612319565b509392505050565b600082601f83011261237f5761237e612263565b5b813561238f848260208601612328565b91505092915050565b6000602082840312156123ae576123ad612018565b5b600082013567ffffffffffffffff8111156123cc576123cb61201d565b5b6123d88482850161236a565b91505092915050565b6123ea81612167565b81146123f557600080fd5b50565b600081359050612407816123e1565b92915050565b6000806040838503121561242457612423612018565b5b60006124328582860161206b565b9250506020612443858286016123f8565b9150509250929050565b600060a0820190506124626000830188612171565b81810360208301526124748187612113565b905081810360408301526124888186612113565b905061249760608301856120ad565b6124a46080830184612158565b9695505050505050565b600081519050919050565b600082825260208201905092915050565b6000819050602082019050919050565b6124e381612042565b82525050565b600082825260208201905092915050565b6000612505826120bc565b61250f81856124e9565b935061251f8185602086016120d8565b61252881612102565b840191505092915050565b61253c8161214c565b82525050565b61254b81612167565b82525050565b60006101608301600083015161256a60008601826124da565b506020830151848203602086015261258282826124fa565b91505060408301516125976040860182612533565b50606083015184820360608601526125af82826124fa565b915050608083015184820360808601526125c982826124fa565b91505060a083015184820360a08601526125e382826124fa565b91505060c083015184820360c08601526125fd82826124fa565b91505060e083015184820360e086015261261782826124fa565b91505061010083015184820361010086015261263382826124fa565b91505061012083015184820361012086015261264f82826124fa565b915050610140830151612666610140860182612542565b508091505092915050565b600061267d8383612551565b905092915050565b6000602082019050919050565b600061269d826124ae565b6126a781856124b9565b9350836020820285016126b9856124ca565b8060005b858110156126f557848403895281516126d68582612671565b94506126e183612685565b925060208a019950506001810190506126bd565b50829750879550505050505092915050565b600060208201905081810360008301526127218184612692565b905092915050565b60006101608301600083015161274260008601826124da565b506020830151848203602086015261275a82826124fa565b915050604083015161276f6040860182612533565b506060830151848203606086015261278782826124fa565b915050608083015184820360808601526127a182826124fa565b91505060a083015184820360a08601526127bb82826124fa565b91505060c083015184820360c08601526127d582826124fa565b91505060e083015184820360e08601526127ef82826124fa565b91505061010083015184820361010086015261280b82826124fa565b91505061012083015184820361012086015261282782826124fa565b91505061014083015161283e610140860182612542565b508091505092915050565b600060208201905081810360008301526128638184612729565b905092915050565b60006020828403121561288157612880612018565b5b600061288f848285016123f8565b91505092915050565b60008060008060008060c087890312156128b5576128b4612018565b5b600087013567ffffffffffffffff8111156128d3576128d261201d565b5b6128df89828a0161236a565b965050602087013567ffffffffffffffff811115612900576128ff61201d565b5b61290c89828a0161236a565b955050604087013567ffffffffffffffff81111561292d5761292c61201d565b5b61293989828a0161236a565b945050606087013567ffffffffffffffff81111561295a5761295961201d565b5b61296689828a0161236a565b935050608087013567ffffffffffffffff8111156129875761298661201d565b5b61299389828a0161236a565b92505060a087013567ffffffffffffffff8111156129b4576129b361201d565b5b6129c089828a0161236a565b9150509295509295509295565b600081519050919050565b600082825260208201905092915050565b6000819050602082019050919050565b600060a083016000830151612a116000860182612542565b5060208301518482036020860152612a2982826124fa565b91505060408301518482036040860152612a4382826124fa565b9150506060830151612a5860608601826124da565b506080830151612a6b6080860182612533565b508091505092915050565b6000612a8283836129f9565b905092915050565b6000602082019050919050565b6000612aa2826129cd565b612aac81856129d8565b935083602082028501612abe856129e9565b8060005b85811015612afa5784840389528151612adb8582612a76565b9450612ae683612a8a565b925060208a01995050600181019050612ac2565b50829750879550505050505092915050565b60006020820190508181036000830152612b268184612a97565b905092915050565b6000606082019050612b436000830186612158565b8181036020830152612b558185612113565b90508181036040830152612b698184612113565b9050949350505050565b7f4e487b7100000000000000000000000000000000000000000000000000000000600052602260045260246000fd5b60006002820490506001821680612bba57607f821691505b602082108103612bcd57612bcc612b73565b5b50919050565b7f596f752041637469766500000000000000000000000000000000000000000000600082015250565b6000612c09600a836120c7565b9150612c1482612bd3565b602082019050919050565b60006020820190508181036000830152612c3881612bfc565b9050919050565b7f616464726573732063616e74206265207a65726f000000000000000000000000600082015250565b6000612c756014836120c7565b9150612c8082612c3f565b602082019050919050565b60006020820190508181036000830152612ca481612c68565b9050919050565b60008190508160005260206000209050919050565b60006020601f8301049050919050565b600082821b905092915050565b600060088302612d0d7fffffffffffffffffffffffffffffffffffffffffffffffffffffffffffffffff82612cd0565b612d178683612cd0565b95508019841693508086168417925050509392505050565b6000819050919050565b6000612d54612d4f612d4a84612167565b612d2f565b612167565b9050919050565b6000819050919050565b612d6e83612d39565b612d82612d7a82612d5b565b848454612cdd565b825550505050565b600090565b612d97612d8a565b612da2818484612d65565b505050565b5b81811015612dc657612dbb600082612d8f565b600181019050612da8565b5050565b601f821115612e0b57612ddc81612cab565b612de584612cc0565b81016020851015612df4578190505b612e08612e0085612cc0565b830182612da7565b50505b505050565b600082821c905092915050565b6000612e2e60001984600802612e10565b1980831691505092915050565b6000612e478383612e1d565b9150826002028217905092915050565b612e60826120bc565b67ffffffffffffffff811115612e7957612e7861226d565b5b612e838254612ba2565b612e8e828285612dca565b600060209050601f831160018114612ec15760008415612eaf578287015190505b612eb98582612e3b565b865550612f21565b601f198416612ecf86612cab565b60005b82811015612ef757848901518255600182019150602085019450602081019050612ed2565b86831015612f145784890151612f10601f891682612e1d565b8355505b6001600288020188555050505b505050505050565b600081549050612f3881612ba2565b9050919050565b60008190508160005260206000209050919050565b818103612f6257505061303a565b612f6b82612f29565b67ffffffffffffffff811115612f8457612f8361226d565b5b612f8e8254612ba2565b612f99828285612dca565b6000601f831160018114612fc85760008415612fb6578287015490505b612fc08582612e3b565b865550613033565b601f198416612fd687612f3f565b9650612fe186612cab565b60005b8281101561300957848901548255600182019150600185019450602081019050612fe4565b868310156130265784890154613022601f891682612e1d565b8355505b6001600288020188555050505b5050505050505b565b60008154905061304b81612ba2565b9050919050565b818103613060575050613138565b6130698261303c565b67ffffffffffffffff8111156130825761308161226d565b5b61308c8254612ba2565b613097828285612dca565b6000601f8311600181146130c657600084156130b4578287015490505b6130be8582612e3b565b865550613131565b601f1984166130d487612cab565b96506130df86612cab565b60005b82811015613107578489015482556001820191506001850194506020810190506130e2565b868310156131245784890154613120601f891682612e1d565b8355505b6001600288020188555050505b5050505050505b56fea2646970667358221220a0e73ccd582efec768a5517ead83b7de12cd4a8644fe5d1e61c4ead13d6fb50264736f6c63430008120033",
  "linkReferences": {},
  "deployedLinkReferences": {}
}