{
  "_format": "hh-sol-artifact-1",
  "contractName": "Store",
  "sourceName": "contracts/Store.sol",
  "abi": [
    {
      "inputs": [
        {
          "internalType": "string",
          "name": "_cover",
          "type": "string"
        }
      ],
      "name": "addCoverImage",
      "outputs": [],
      "stateMutability": "nonpayable",
      "type": "function"
    },
    {
      "inputs": [
        {
          "internalType": "string",
          "name": "_profile",
          "type": "string"
        }
      ],
      "name": "addProfileImage",
      "outputs": [],
      "stateMutability": "nonpayable",
      "type": "function"
    },
    {
      "inputs": [
        {
          "internalType": "address",
          "name": "",
          "type": "address"
        }
      ],
      "name": "addressToStore",
      "outputs": [
        {
          "internalType": "address",
          "name": "owner",
          "type": "address"
        },
        {
          "internalType": "string",
          "name": "storeName",
          "type": "string"
        },
        {
          "internalType": "string",
          "name": "category",
          "type": "string"
        },
        {
          "internalType": "string",
          "name": "name",
          "type": "string"
        },
        {
          "internalType": "string",
          "name": "lastName",
          "type": "string"
        },
        {
          "internalType": "string",
          "name": "description",
          "type": "string"
        },
        {
          "internalType": "string",
          "name": "location",
          "type": "string"
        },
        {
          "internalType": "string",
          "name": "profileImg",
          "type": "string"
        },
        {
          "internalType": "string",
          "name": "coverImage",
          "type": "string"
        },
        {
          "internalType": "uint256",
          "name": "id",
          "type": "uint256"
        }
      ],
      "stateMutability": "view",
      "type": "function"
    },
    {
      "inputs": [
        {
          "internalType": "address",
          "name": "",
          "type": "address"
        }
      ],
      "name": "addressToStream",
      "outputs": [
        {
          "internalType": "uint256",
          "name": "id",
          "type": "uint256"
        },
        {
          "internalType": "string",
          "name": "streamId",
          "type": "string"
        },
        {
          "internalType": "string",
          "name": "storeName",
          "type": "string"
        },
        {
          "internalType": "address",
          "name": "owner",
          "type": "address"
        },
        {
          "internalType": "bool",
          "name": "isActive",
          "type": "bool"
        }
      ],
      "stateMutability": "view",
      "type": "function"
    },
    {
      "inputs": [
        {
          "internalType": "address",
          "name": "",
          "type": "address"
        },
        {
          "internalType": "uint256",
          "name": "",
          "type": "uint256"
        }
      ],
      "name": "addressToUintStream",
      "outputs": [
        {
          "internalType": "uint256",
          "name": "id",
          "type": "uint256"
        },
        {
          "internalType": "string",
          "name": "streamId",
          "type": "string"
        },
        {
          "internalType": "string",
          "name": "storeName",
          "type": "string"
        },
        {
          "internalType": "address",
          "name": "owner",
          "type": "address"
        },
        {
          "internalType": "bool",
          "name": "isActive",
          "type": "bool"
        }
      ],
      "stateMutability": "view",
      "type": "function"
    },
    {
      "inputs": [
        {
          "internalType": "uint256",
          "name": "",
          "type": "uint256"
        }
      ],
      "name": "arrayStore",
      "outputs": [
        {
          "internalType": "address",
          "name": "owner",
          "type": "address"
        },
        {
          "internalType": "string",
          "name": "storeName",
          "type": "string"
        },
        {
          "internalType": "string",
          "name": "category",
          "type": "string"
        },
        {
          "internalType": "string",
          "name": "name",
          "type": "string"
        },
        {
          "internalType": "string",
          "name": "lastName",
          "type": "string"
        },
        {
          "internalType": "string",
          "name": "description",
          "type": "string"
        },
        {
          "internalType": "string",
          "name": "location",
          "type": "string"
        },
        {
          "internalType": "string",
          "name": "profileImg",
          "type": "string"
        },
        {
          "internalType": "string",
          "name": "coverImage",
          "type": "string"
        },
        {
          "internalType": "uint256",
          "name": "id",
          "type": "uint256"
        }
      ],
      "stateMutability": "view",
      "type": "function"
    },
    {
      "inputs": [
        {
          "internalType": "uint256",
          "name": "",
          "type": "uint256"
        }
      ],
      "name": "arrayStream",
      "outputs": [
        {
          "internalType": "uint256",
          "name": "id",
          "type": "uint256"
        },
        {
          "internalType": "string",
          "name": "streamId",
          "type": "string"
        },
        {
          "internalType": "string",
          "name": "storeName",
          "type": "string"
        },
        {
          "internalType": "address",
          "name": "owner",
          "type": "address"
        },
        {
          "internalType": "bool",
          "name": "isActive",
          "type": "bool"
        }
      ],
      "stateMutability": "view",
      "type": "function"
    },
    {
      "inputs": [],
      "name": "cancelStream",
      "outputs": [],
      "stateMutability": "nonpayable",
      "type": "function"
    },
    {
      "inputs": [
        {
          "internalType": "string",
          "name": "_storeName",
          "type": "string"
        },
        {
          "internalType": "string",
          "name": "_category",
          "type": "string"
        },
        {
          "internalType": "string",
          "name": "_name",
          "type": "string"
        },
        {
          "internalType": "string",
          "name": "_lastName",
          "type": "string"
        },
        {
          "internalType": "string",
          "name": "_description",
          "type": "string"
        },
        {
          "internalType": "string",
          "name": "_location",
          "type": "string"
        }
      ],
      "name": "createAStore",
      "outputs": [],
      "stateMutability": "nonpayable",
      "type": "function"
    },
    {
      "inputs": [],
      "name": "getAllStore",
      "outputs": [
        {
          "components": [
            {
              "internalType": "address",
              "name": "owner",
              "type": "address"
            },
            {
              "internalType": "string",
              "name": "storeName",
              "type": "string"
            },
            {
              "internalType": "string",
              "name": "category",
              "type": "string"
            },
            {
              "internalType": "string",
              "name": "name",
              "type": "string"
            },
            {
              "internalType": "string",
              "name": "lastName",
              "type": "string"
            },
            {
              "internalType": "string",
              "name": "description",
              "type": "string"
            },
            {
              "internalType": "string",
              "name": "location",
              "type": "string"
            },
            {
              "internalType": "string",
              "name": "profileImg",
              "type": "string"
            },
            {
              "internalType": "string",
              "name": "coverImage",
              "type": "string"
            },
            {
              "internalType": "uint256",
              "name": "id",
              "type": "uint256"
            }
          ],
          "internalType": "struct Store.StoreData[]",
          "name": "",
          "type": "tuple[]"
        }
      ],
      "stateMutability": "view",
      "type": "function"
    },
    {
      "inputs": [],
      "name": "getAllStream",
      "outputs": [
        {
          "components": [
            {
              "internalType": "uint256",
              "name": "id",
              "type": "uint256"
            },
            {
              "internalType": "string",
              "name": "streamId",
              "type": "string"
            },
            {
              "internalType": "string",
              "name": "storeName",
              "type": "string"
            },
            {
              "internalType": "address",
              "name": "owner",
              "type": "address"
            },
            {
              "internalType": "bool",
              "name": "isActive",
              "type": "bool"
            }
          ],
          "internalType": "struct Store.Stream[]",
          "name": "",
          "type": "tuple[]"
        }
      ],
      "stateMutability": "view",
      "type": "function"
    },
    {
      "inputs": [
        {
          "internalType": "address",
          "name": "_owner",
          "type": "address"
        }
      ],
      "name": "getStoreByAddress",
      "outputs": [
        {
          "components": [
            {
              "internalType": "address",
              "name": "owner",
              "type": "address"
            },
            {
              "internalType": "string",
              "name": "storeName",
              "type": "string"
            },
            {
              "internalType": "string",
              "name": "category",
              "type": "string"
            },
            {
              "internalType": "string",
              "name": "name",
              "type": "string"
            },
            {
              "internalType": "string",
              "name": "lastName",
              "type": "string"
            },
            {
              "internalType": "string",
              "name": "description",
              "type": "string"
            },
            {
              "internalType": "string",
              "name": "location",
              "type": "string"
            },
            {
              "internalType": "string",
              "name": "profileImg",
              "type": "string"
            },
            {
              "internalType": "string",
              "name": "coverImage",
              "type": "string"
            },
            {
              "internalType": "uint256",
              "name": "id",
              "type": "uint256"
            }
          ],
          "internalType": "struct Store.StoreData",
          "name": "",
          "type": "tuple"
        }
      ],
      "stateMutability": "view",
      "type": "function"
    },
    {
      "inputs": [
        {
          "internalType": "address",
          "name": "_owner",
          "type": "address"
        }
      ],
      "name": "retrieveStreamInfo",
      "outputs": [
        {
          "internalType": "bool",
          "name": "",
          "type": "bool"
        },
        {
          "internalType": "string",
          "name": "",
          "type": "string"
        },
        {
          "internalType": "string",
          "name": "",
          "type": "string"
        }
      ],
      "stateMutability": "view",
      "type": "function"
    },
    {
      "inputs": [
        {
          "internalType": "string",
          "name": "_callId",
          "type": "string"
        }
      ],
      "name": "startStream",
      "outputs": [],
      "stateMutability": "nonpayable",
      "type": "function"
    }
  ],
  "bytecode": "0x608060405234801561001057600080fd5b50613bb8806100206000396000f3fe608060405234801561001057600080fd5b50600436106100e95760003560e01c8063870c2fcb1161008c578063bc0c8f6c11610066578063bc0c8f6c1461026b578063e9a9e144146102a4578063f3bae8d0146102ae578063ff5c0217146102e0576100e9565b8063870c2fcb1461021557806393cd5a1f14610231578063b979b5fe1461024d576100e9565b80635e9dc533116100c85780635e9dc5331461015f5780636592f99a1461019357806366ee5791146101b1578063732e924f146101e1576100e9565b8062f7f731146100ee578063432546361461010a5780635d39c07114610143575b600080fd5b61010860048036038101906101039190612be9565b610314565b005b610124600480360381019061011f9190612c90565b61036d565b60405161013a9a99989796959493929190612d64565b60405180910390f35b61015d60048036038101906101589190612be9565b610821565b005b61017960048036038101906101749190612e64565b610c78565b60405161018a959493929190612ebf565b60405180910390f35b61019b610df8565b6040516101a89190613155565b60405180910390f35b6101cb60048036038101906101c69190612c90565b611348565b6040516101d89190613282565b60405180910390f35b6101fb60048036038101906101f69190612c90565b611892565b60405161020c959493929190612ebf565b60405180910390f35b61022f600480360381019061022a9190612be9565b611a05565b005b61024b600480360381019061024691906132a4565b611a5e565b005b610255611cbc565b6040516102629190613527565b60405180910390f35b61028560048036038101906102809190613549565b611eba565b60405161029b9a99989796959493929190612d64565b60405180910390f35b6102ac61237e565b005b6102c860048036038101906102c39190612c90565b612613565b6040516102d793929190613576565b60405180910390f35b6102fa60048036038101906102f59190613549565b612822565b60405161030b959493929190612ebf565b60405180910390f35b6000600260003373ffffffffffffffffffffffffffffffffffffffff1673ffffffffffffffffffffffffffffffffffffffff16815260200190815260200160002090508181600701908161036891906137c7565b505050565b60026020528060005260406000206000915090508060000160009054906101000a900473ffffffffffffffffffffffffffffffffffffffff16908060010180546103b6906135ea565b80601f01602080910402602001604051908101604052809291908181526020018280546103e2906135ea565b801561042f5780601f106104045761010080835404028352916020019161042f565b820191906000526020600020905b81548152906001019060200180831161041257829003601f168201915b505050505090806002018054610444906135ea565b80601f0160208091040260200160405190810160405280929190818152602001828054610470906135ea565b80156104bd5780601f10610492576101008083540402835291602001916104bd565b820191906000526020600020905b8154815290600101906020018083116104a057829003601f168201915b5050505050908060030180546104d2906135ea565b80601f01602080910402602001604051908101604052809291908181526020018280546104fe906135ea565b801561054b5780601f106105205761010080835404028352916020019161054b565b820191906000526020600020905b81548152906001019060200180831161052e57829003601f168201915b505050505090806004018054610560906135ea565b80601f016020809104026020016040519081016040528092919081815260200182805461058c906135ea565b80156105d95780601f106105ae576101008083540402835291602001916105d9565b820191906000526020600020905b8154815290600101906020018083116105bc57829003601f168201915b5050505050908060050180546105ee906135ea565b80601f016020809104026020016040519081016040528092919081815260200182805461061a906135ea565b80156106675780601f1061063c57610100808354040283529160200191610667565b820191906000526020600020905b81548152906001019060200180831161064a57829003601f168201915b50505050509080600601805461067c906135ea565b80601f01602080910402602001604051908101604052809291908181526020018280546106a8906135ea565b80156106f55780601f106106ca576101008083540402835291602001916106f5565b820191906000526020600020905b8154815290600101906020018083116106d857829003601f168201915b50505050509080600701805461070a906135ea565b80601f0160208091040260200160405190810160405280929190818152602001828054610736906135ea565b80156107835780601f1061075857610100808354040283529160200191610783565b820191906000526020600020905b81548152906001019060200180831161076657829003601f168201915b505050505090806008018054610798906135ea565b80601f01602080910402602001604051908101604052809291908181526020018280546107c4906135ea565b80156108115780601f106107e657610100808354040283529160200191610811565b820191906000526020600020905b8154815290600101906020018083116107f457829003601f168201915b505050505090806009015490508a565b600360003373ffffffffffffffffffffffffffffffffffffffff1673ffffffffffffffffffffffffffffffffffffffff16815260200190815260200160002060030160149054906101000a900460ff16156108b1576040517f08c379a00000000000000000000000000000000000000000000000000000000081526004016108a8906138e5565b60405180910390fd5b600073ffffffffffffffffffffffffffffffffffffffff163373ffffffffffffffffffffffffffffffffffffffff1603610920576040517f08c379a000000000000000000000000000000000000000000000000000000000815260040161091790613951565b60405180910390fd5b61092a60016129a5565b61093460016129bb565b600360003373ffffffffffffffffffffffffffffffffffffffff1673ffffffffffffffffffffffffffffffffffffffff1681526020019081526020016000206000018190555080600360003373ffffffffffffffffffffffffffffffffffffffff1673ffffffffffffffffffffffffffffffffffffffff16815260200190815260200160002060010190816109c991906137c7565b506001600360003373ffffffffffffffffffffffffffffffffffffffff1673ffffffffffffffffffffffffffffffffffffffff16815260200190815260200160002060030160146101000a81548160ff021916908315150217905550600260003373ffffffffffffffffffffffffffffffffffffffff1673ffffffffffffffffffffffffffffffffffffffff168152602001908152602001600020600101600360003373ffffffffffffffffffffffffffffffffffffffff1673ffffffffffffffffffffffffffffffffffffffff1681526020019081526020016000206002019081610ab5919061399c565b5033600360003373ffffffffffffffffffffffffffffffffffffffff1673ffffffffffffffffffffffffffffffffffffffff16815260200190815260200160002060030160006101000a81548173ffffffffffffffffffffffffffffffffffffffff021916908373ffffffffffffffffffffffffffffffffffffffff1602179055506006600360003373ffffffffffffffffffffffffffffffffffffffff1673ffffffffffffffffffffffffffffffffffffffff16815260200190815260200160002090806001815401808255809150506001900390600052602060002090600402016000909190919091506000820154816000015560018201816001019081610bbf9190613a9a565b5060028201816002019081610bd49190613a9a565b506003820160009054906101000a900473ffffffffffffffffffffffffffffffffffffffff168160030160006101000a81548173ffffffffffffffffffffffffffffffffffffffff021916908373ffffffffffffffffffffffffffffffffffffffff1602179055506003820160149054906101000a900460ff168160030160146101000a81548160ff0219169083151502179055505050610c7560016129a5565b50565b600460205281600052604060002060205280600052604060002060009150915050806000015490806001018054610cae906135ea565b80601f0160208091040260200160405190810160405280929190818152602001828054610cda906135ea565b8015610d275780601f10610cfc57610100808354040283529160200191610d27565b820191906000526020600020905b815481529060010190602001808311610d0a57829003601f168201915b505050505090806002018054610d3c906135ea565b80601f0160208091040260200160405190810160405280929190818152602001828054610d68906135ea565b8015610db55780601f10610d8a57610100808354040283529160200191610db5565b820191906000526020600020905b815481529060010190602001808311610d9857829003601f168201915b5050505050908060030160009054906101000a900473ffffffffffffffffffffffffffffffffffffffff16908060030160149054906101000a900460ff16905085565b60606005805480602002602001604051908101604052809291908181526020016000905b8282101561133f57838290600052602060002090600a0201604051806101400160405290816000820160009054906101000a900473ffffffffffffffffffffffffffffffffffffffff1673ffffffffffffffffffffffffffffffffffffffff1673ffffffffffffffffffffffffffffffffffffffff168152602001600182018054610ea6906135ea565b80601f0160208091040260200160405190810160405280929190818152602001828054610ed2906135ea565b8015610f1f5780601f10610ef457610100808354040283529160200191610f1f565b820191906000526020600020905b815481529060010190602001808311610f0257829003601f168201915b50505050508152602001600282018054610f38906135ea565b80601f0160208091040260200160405190810160405280929190818152602001828054610f64906135ea565b8015610fb15780601f10610f8657610100808354040283529160200191610fb1565b820191906000526020600020905b815481529060010190602001808311610f9457829003601f168201915b50505050508152602001600382018054610fca906135ea565b80601f0160208091040260200160405190810160405280929190818152602001828054610ff6906135ea565b80156110435780601f1061101857610100808354040283529160200191611043565b820191906000526020600020905b81548152906001019060200180831161102657829003601f168201915b5050505050815260200160048201805461105c906135ea565b80601f0160208091040260200160405190810160405280929190818152602001828054611088906135ea565b80156110d55780601f106110aa576101008083540402835291602001916110d5565b820191906000526020600020905b8154815290600101906020018083116110b857829003601f168201915b505050505081526020016005820180546110ee906135ea565b80601f016020809104026020016040519081016040528092919081815260200182805461111a906135ea565b80156111675780601f1061113c57610100808354040283529160200191611167565b820191906000526020600020905b81548152906001019060200180831161114a57829003601f168201915b50505050508152602001600682018054611180906135ea565b80601f01602080910402602001604051908101604052809291908181526020018280546111ac906135ea565b80156111f95780601f106111ce576101008083540402835291602001916111f9565b820191906000526020600020905b8154815290600101906020018083116111dc57829003601f168201915b50505050508152602001600782018054611212906135ea565b80601f016020809104026020016040519081016040528092919081815260200182805461123e906135ea565b801561128b5780601f106112605761010080835404028352916020019161128b565b820191906000526020600020905b81548152906001019060200180831161126e57829003601f168201915b505050505081526020016008820180546112a4906135ea565b80601f01602080910402602001604051908101604052809291908181526020018280546112d0906135ea565b801561131d5780601f106112f25761010080835404028352916020019161131d565b820191906000526020600020905b81548152906001019060200180831161130057829003601f168201915b5050505050815260200160098201548152505081526020019060010190610e1c565b50505050905090565b6113506129c9565b600260008373ffffffffffffffffffffffffffffffffffffffff1673ffffffffffffffffffffffffffffffffffffffff168152602001908152602001600020604051806101400160405290816000820160009054906101000a900473ffffffffffffffffffffffffffffffffffffffff1673ffffffffffffffffffffffffffffffffffffffff1673ffffffffffffffffffffffffffffffffffffffff168152602001600182018054611401906135ea565b80601f016020809104026020016040519081016040528092919081815260200182805461142d906135ea565b801561147a5780601f1061144f5761010080835404028352916020019161147a565b820191906000526020600020905b81548152906001019060200180831161145d57829003601f168201915b50505050508152602001600282018054611493906135ea565b80601f01602080910402602001604051908101604052809291908181526020018280546114bf906135ea565b801561150c5780601f106114e15761010080835404028352916020019161150c565b820191906000526020600020905b8154815290600101906020018083116114ef57829003601f168201915b50505050508152602001600382018054611525906135ea565b80601f0160208091040260200160405190810160405280929190818152602001828054611551906135ea565b801561159e5780601f106115735761010080835404028352916020019161159e565b820191906000526020600020905b81548152906001019060200180831161158157829003601f168201915b505050505081526020016004820180546115b7906135ea565b80601f01602080910402602001604051908101604052809291908181526020018280546115e3906135ea565b80156116305780601f1061160557610100808354040283529160200191611630565b820191906000526020600020905b81548152906001019060200180831161161357829003601f168201915b50505050508152602001600582018054611649906135ea565b80601f0160208091040260200160405190810160405280929190818152602001828054611675906135ea565b80156116c25780601f10611697576101008083540402835291602001916116c2565b820191906000526020600020905b8154815290600101906020018083116116a557829003601f168201915b505050505081526020016006820180546116db906135ea565b80601f0160208091040260200160405190810160405280929190818152602001828054611707906135ea565b80156117545780601f1061172957610100808354040283529160200191611754565b820191906000526020600020905b81548152906001019060200180831161173757829003601f168201915b5050505050815260200160078201805461176d906135ea565b80601f0160208091040260200160405190810160405280929190818152602001828054611799906135ea565b80156117e65780601f106117bb576101008083540402835291602001916117e6565b820191906000526020600020905b8154815290600101906020018083116117c957829003601f168201915b505050505081526020016008820180546117ff906135ea565b80601f016020809104026020016040519081016040528092919081815260200182805461182b906135ea565b80156118785780601f1061184d57610100808354040283529160200191611878565b820191906000526020600020905b81548152906001019060200180831161185b57829003601f168201915b505050505081526020016009820154815250509050919050565b60036020528060005260406000206000915090508060000154908060010180546118bb906135ea565b80601f01602080910402602001604051908101604052809291908181526020018280546118e7906135ea565b80156119345780601f1061190957610100808354040283529160200191611934565b820191906000526020600020905b81548152906001019060200180831161191757829003601f168201915b505050505090806002018054611949906135ea565b80601f0160208091040260200160405190810160405280929190818152602001828054611975906135ea565b80156119c25780601f10611997576101008083540402835291602001916119c2565b820191906000526020600020905b8154815290600101906020018083116119a557829003601f168201915b5050505050908060030160009054906101000a900473ffffffffffffffffffffffffffffffffffffffff16908060030160149054906101000a900460ff16905085565b6000600260003373ffffffffffffffffffffffffffffffffffffffff1673ffffffffffffffffffffffffffffffffffffffff168152602001908152602001600020905081816008019081611a5991906137c7565b505050565b611a6860006129a5565b6000600260003373ffffffffffffffffffffffffffffffffffffffff1673ffffffffffffffffffffffffffffffffffffffff168152602001908152602001600020905086816001019081611abc91906137c7565b50338160000160006101000a81548173ffffffffffffffffffffffffffffffffffffffff021916908373ffffffffffffffffffffffffffffffffffffffff16021790555084816003019081611b1191906137c7565b5085816002019081611b2391906137c7565b5083816004019081611b3591906137c7565b5082816005019081611b4791906137c7565b5081816006019081611b5991906137c7565b50611b6460006129bb565b816009018190555060058190806001815401808255809150506001900390600052602060002090600a02016000909190919091506000820160009054906101000a900473ffffffffffffffffffffffffffffffffffffffff168160000160006101000a81548173ffffffffffffffffffffffffffffffffffffffff021916908373ffffffffffffffffffffffffffffffffffffffff16021790555060018201816001019081611c139190613a9a565b5060028201816002019081611c289190613a9a565b5060038201816003019081611c3d9190613a9a565b5060048201816004019081611c529190613a9a565b5060058201816005019081611c679190613a9a565b5060068201816006019081611c7c9190613a9a565b5060078201816007019081611c919190613a9a565b5060088201816008019081611ca69190613a9a565b5060098201548160090155505050505050505050565b60606006805480602002602001604051908101604052809291908181526020016000905b82821015611eb157838290600052602060002090600402016040518060a001604052908160008201548152602001600182018054611d1d906135ea565b80601f0160208091040260200160405190810160405280929190818152602001828054611d49906135ea565b8015611d965780601f10611d6b57610100808354040283529160200191611d96565b820191906000526020600020905b815481529060010190602001808311611d7957829003601f168201915b50505050508152602001600282018054611daf906135ea565b80601f0160208091040260200160405190810160405280929190818152602001828054611ddb906135ea565b8015611e285780601f10611dfd57610100808354040283529160200191611e28565b820191906000526020600020905b815481529060010190602001808311611e0b57829003601f168201915b505050505081526020016003820160009054906101000a900473ffffffffffffffffffffffffffffffffffffffff1673ffffffffffffffffffffffffffffffffffffffff1673ffffffffffffffffffffffffffffffffffffffff1681526020016003820160149054906101000a900460ff16151515158152505081526020019060010190611ce0565b50505050905090565b60058181548110611eca57600080fd5b90600052602060002090600a02016000915090508060000160009054906101000a900473ffffffffffffffffffffffffffffffffffffffff1690806001018054611f13906135ea565b80601f0160208091040260200160405190810160405280929190818152602001828054611f3f906135ea565b8015611f8c5780601f10611f6157610100808354040283529160200191611f8c565b820191906000526020600020905b815481529060010190602001808311611f6f57829003601f168201915b505050505090806002018054611fa1906135ea565b80601f0160208091040260200160405190810160405280929190818152602001828054611fcd906135ea565b801561201a5780601f10611fef5761010080835404028352916020019161201a565b820191906000526020600020905b815481529060010190602001808311611ffd57829003601f168201915b50505050509080600301805461202f906135ea565b80601f016020809104026020016040519081016040528092919081815260200182805461205b906135ea565b80156120a85780601f1061207d576101008083540402835291602001916120a8565b820191906000526020600020905b81548152906001019060200180831161208b57829003601f168201915b5050505050908060040180546120bd906135ea565b80601f01602080910402602001604051908101604052809291908181526020018280546120e9906135ea565b80156121365780601f1061210b57610100808354040283529160200191612136565b820191906000526020600020905b81548152906001019060200180831161211957829003601f168201915b50505050509080600501805461214b906135ea565b80601f0160208091040260200160405190810160405280929190818152602001828054612177906135ea565b80156121c45780601f10612199576101008083540402835291602001916121c4565b820191906000526020600020905b8154815290600101906020018083116121a757829003601f168201915b5050505050908060060180546121d9906135ea565b80601f0160208091040260200160405190810160405280929190818152602001828054612205906135ea565b80156122525780601f1061222757610100808354040283529160200191612252565b820191906000526020600020905b81548152906001019060200180831161223557829003601f168201915b505050505090806007018054612267906135ea565b80601f0160208091040260200160405190810160405280929190818152602001828054612293906135ea565b80156122e05780601f106122b5576101008083540402835291602001916122e0565b820191906000526020600020905b8154815290600101906020018083116122c357829003601f168201915b5050505050908060080180546122f5906135ea565b80601f0160208091040260200160405190810160405280929190818152602001828054612321906135ea565b801561236e5780601f106123435761010080835404028352916020019161236e565b820191906000526020600020905b81548152906001019060200180831161235157829003601f168201915b505050505090806009015490508a565b600360003373ffffffffffffffffffffffffffffffffffffffff1673ffffffffffffffffffffffffffffffffffffffff1681526020019081526020016000206000808201600090556001820160006123d69190612a32565b6002820160006123e69190612a32565b6003820160006101000a81549073ffffffffffffffffffffffffffffffffffffffff02191690556003820160146101000a81549060ff021916905550506000600360003373ffffffffffffffffffffffffffffffffffffffff1673ffffffffffffffffffffffffffffffffffffffff16815260200190815260200160002060030160146101000a81548160ff02191690831515021790555060405180602001604052806000815250600360003373ffffffffffffffffffffffffffffffffffffffff1673ffffffffffffffffffffffffffffffffffffffff16815260200190815260200160002060010190816124dc91906137c7565b506006600360003373ffffffffffffffffffffffffffffffffffffffff1673ffffffffffffffffffffffffffffffffffffffff168152602001908152602001600020908060018154018082558091505060019003906000526020600020906004020160009091909190915060008201548160000155600182018160010190816125659190613a9a565b506002820181600201908161257a9190613a9a565b506003820160009054906101000a900473ffffffffffffffffffffffffffffffffffffffff168160030160006101000a81548173ffffffffffffffffffffffffffffffffffffffff021916908373ffffffffffffffffffffffffffffffffffffffff1602179055506003820160149054906101000a900460ff168160030160146101000a81548160ff0219169083151502179055505050565b60006060806000600360008673ffffffffffffffffffffffffffffffffffffffff1673ffffffffffffffffffffffffffffffffffffffff1681526020019081526020016000206040518060a00160405290816000820154815260200160018201805461267e906135ea565b80601f01602080910402602001604051908101604052809291908181526020018280546126aa906135ea565b80156126f75780601f106126cc576101008083540402835291602001916126f7565b820191906000526020600020905b8154815290600101906020018083116126da57829003601f168201915b50505050508152602001600282018054612710906135ea565b80601f016020809104026020016040519081016040528092919081815260200182805461273c906135ea565b80156127895780601f1061275e57610100808354040283529160200191612789565b820191906000526020600020905b81548152906001019060200180831161276c57829003601f168201915b505050505081526020016003820160009054906101000a900473ffffffffffffffffffffffffffffffffffffffff1673ffffffffffffffffffffffffffffffffffffffff1673ffffffffffffffffffffffffffffffffffffffff1681526020016003820160149054906101000a900460ff1615151515815250509050806080015181602001518260400151935093509350509193909250565b6006818154811061283257600080fd5b906000526020600020906004020160009150905080600001549080600101805461285b906135ea565b80601f0160208091040260200160405190810160405280929190818152602001828054612887906135ea565b80156128d45780601f106128a9576101008083540402835291602001916128d4565b820191906000526020600020905b8154815290600101906020018083116128b757829003601f168201915b5050505050908060020180546128e9906135ea565b80601f0160208091040260200160405190810160405280929190818152602001828054612915906135ea565b80156129625780601f1061293757610100808354040283529160200191612962565b820191906000526020600020905b81548152906001019060200180831161294557829003601f168201915b5050505050908060030160009054906101000a900473ffffffffffffffffffffffffffffffffffffffff16908060030160149054906101000a900460ff16905085565b6001816000016000828254019250508190555050565b600081600001549050919050565b604051806101400160405280600073ffffffffffffffffffffffffffffffffffffffff1681526020016060815260200160608152602001606081526020016060815260200160608152602001606081526020016060815260200160608152602001600081525090565b508054612a3e906135ea565b6000825580601f10612a505750612a6f565b601f016020900490600052602060002090810190612a6e9190612a72565b5b50565b5b80821115612a8b576000816000905550600101612a73565b5090565b6000604051905090565b600080fd5b600080fd5b600080fd5b600080fd5b6000601f19601f8301169050919050565b7f4e487b7100000000000000000000000000000000000000000000000000000000600052604160045260246000fd5b612af682612aad565b810181811067ffffffffffffffff82111715612b1557612b14612abe565b5b80604052505050565b6000612b28612a8f565b9050612b348282612aed565b919050565b600067ffffffffffffffff821115612b5457612b53612abe565b5b612b5d82612aad565b9050602081019050919050565b82818337600083830152505050565b6000612b8c612b8784612b39565b612b1e565b905082815260208101848484011115612ba857612ba7612aa8565b5b612bb3848285612b6a565b509392505050565b600082601f830112612bd057612bcf612aa3565b5b8135612be0848260208601612b79565b91505092915050565b600060208284031215612bff57612bfe612a99565b5b600082013567ffffffffffffffff811115612c1d57612c1c612a9e565b5b612c2984828501612bbb565b91505092915050565b600073ffffffffffffffffffffffffffffffffffffffff82169050919050565b6000612c5d82612c32565b9050919050565b612c6d81612c52565b8114612c7857600080fd5b50565b600081359050612c8a81612c64565b92915050565b600060208284031215612ca657612ca5612a99565b5b6000612cb484828501612c7b565b91505092915050565b612cc681612c52565b82525050565b600081519050919050565b600082825260208201905092915050565b60005b83811015612d06578082015181840152602081019050612ceb565b60008484015250505050565b6000612d1d82612ccc565b612d278185612cd7565b9350612d37818560208601612ce8565b612d4081612aad565b840191505092915050565b6000819050919050565b612d5e81612d4b565b82525050565b600061014082019050612d7a600083018d612cbd565b8181036020830152612d8c818c612d12565b90508181036040830152612da0818b612d12565b90508181036060830152612db4818a612d12565b90508181036080830152612dc88189612d12565b905081810360a0830152612ddc8188612d12565b905081810360c0830152612df08187612d12565b905081810360e0830152612e048186612d12565b9050818103610100830152612e198185612d12565b9050612e29610120830184612d55565b9b9a5050505050505050505050565b612e4181612d4b565b8114612e4c57600080fd5b50565b600081359050612e5e81612e38565b92915050565b60008060408385031215612e7b57612e7a612a99565b5b6000612e8985828601612c7b565b9250506020612e9a85828601612e4f565b9150509250929050565b60008115159050919050565b612eb981612ea4565b82525050565b600060a082019050612ed46000830188612d55565b8181036020830152612ee68187612d12565b90508181036040830152612efa8186612d12565b9050612f096060830185612cbd565b612f166080830184612eb0565b9695505050505050565b600081519050919050565b600082825260208201905092915050565b6000819050602082019050919050565b612f5581612c52565b82525050565b600082825260208201905092915050565b6000612f7782612ccc565b612f818185612f5b565b9350612f91818560208601612ce8565b612f9a81612aad565b840191505092915050565b612fae81612d4b565b82525050565b600061014083016000830151612fcd6000860182612f4c565b5060208301518482036020860152612fe58282612f6c565b91505060408301518482036040860152612fff8282612f6c565b915050606083015184820360608601526130198282612f6c565b915050608083015184820360808601526130338282612f6c565b91505060a083015184820360a086015261304d8282612f6c565b91505060c083015184820360c08601526130678282612f6c565b91505060e083015184820360e08601526130818282612f6c565b91505061010083015184820361010086015261309d8282612f6c565b9150506101208301516130b4610120860182612fa5565b508091505092915050565b60006130cb8383612fb4565b905092915050565b6000602082019050919050565b60006130eb82612f20565b6130f58185612f2b565b93508360208202850161310785612f3c565b8060005b85811015613143578484038952815161312485826130bf565b945061312f836130d3565b925060208a0199505060018101905061310b565b50829750879550505050505092915050565b6000602082019050818103600083015261316f81846130e0565b905092915050565b6000610140830160008301516131906000860182612f4c565b50602083015184820360208601526131a88282612f6c565b915050604083015184820360408601526131c28282612f6c565b915050606083015184820360608601526131dc8282612f6c565b915050608083015184820360808601526131f68282612f6c565b91505060a083015184820360a08601526132108282612f6c565b91505060c083015184820360c086015261322a8282612f6c565b91505060e083015184820360e08601526132448282612f6c565b9150506101008301518482036101008601526132608282612f6c565b915050610120830151613277610120860182612fa5565b508091505092915050565b6000602082019050818103600083015261329c8184613177565b905092915050565b60008060008060008060c087890312156132c1576132c0612a99565b5b600087013567ffffffffffffffff8111156132df576132de612a9e565b5b6132eb89828a01612bbb565b965050602087013567ffffffffffffffff81111561330c5761330b612a9e565b5b61331889828a01612bbb565b955050604087013567ffffffffffffffff81111561333957613338612a9e565b5b61334589828a01612bbb565b945050606087013567ffffffffffffffff81111561336657613365612a9e565b5b61337289828a01612bbb565b935050608087013567ffffffffffffffff81111561339357613392612a9e565b5b61339f89828a01612bbb565b92505060a087013567ffffffffffffffff8111156133c0576133bf612a9e565b5b6133cc89828a01612bbb565b9150509295509295509295565b600081519050919050565b600082825260208201905092915050565b6000819050602082019050919050565b61340e81612ea4565b82525050565b600060a08301600083015161342c6000860182612fa5565b50602083015184820360208601526134448282612f6c565b9150506040830151848203604086015261345e8282612f6c565b91505060608301516134736060860182612f4c565b5060808301516134866080860182613405565b508091505092915050565b600061349d8383613414565b905092915050565b6000602082019050919050565b60006134bd826133d9565b6134c781856133e4565b9350836020820285016134d9856133f5565b8060005b8581101561351557848403895281516134f68582613491565b9450613501836134a5565b925060208a019950506001810190506134dd565b50829750879550505050505092915050565b6000602082019050818103600083015261354181846134b2565b905092915050565b60006020828403121561355f5761355e612a99565b5b600061356d84828501612e4f565b91505092915050565b600060608201905061358b6000830186612eb0565b818103602083015261359d8185612d12565b905081810360408301526135b18184612d12565b9050949350505050565b7f4e487b7100000000000000000000000000000000000000000000000000000000600052602260045260246000fd5b6000600282049050600182168061360257607f821691505b602082108103613615576136146135bb565b5b50919050565b60008190508160005260206000209050919050565b60006020601f8301049050919050565b600082821b905092915050565b60006008830261367d7fffffffffffffffffffffffffffffffffffffffffffffffffffffffffffffffff82613640565b6136878683613640565b95508019841693508086168417925050509392505050565b6000819050919050565b60006136c46136bf6136ba84612d4b565b61369f565b612d4b565b9050919050565b6000819050919050565b6136de836136a9565b6136f26136ea826136cb565b84845461364d565b825550505050565b600090565b6137076136fa565b6137128184846136d5565b505050565b5b818110156137365761372b6000826136ff565b600181019050613718565b5050565b601f82111561377b5761374c8161361b565b61375584613630565b81016020851015613764578190505b61377861377085613630565b830182613717565b50505b505050565b600082821c905092915050565b600061379e60001984600802613780565b1980831691505092915050565b60006137b7838361378d565b9150826002028217905092915050565b6137d082612ccc565b67ffffffffffffffff8111156137e9576137e8612abe565b5b6137f382546135ea565b6137fe82828561373a565b600060209050601f831160018114613831576000841561381f578287015190505b61382985826137ab565b865550613891565b601f19841661383f8661361b565b60005b8281101561386757848901518255600182019150602085019450602081019050613842565b868310156138845784890151613880601f89168261378d565b8355505b6001600288020188555050505b505050505050565b7f596f752061726520616c72656164792061637469766500000000000000000000600082015250565b60006138cf601683612cd7565b91506138da82613899565b602082019050919050565b600060208201905081810360008301526138fe816138c2565b9050919050565b7f416464726573732063616e6e6f74206265207a65726f00000000000000000000600082015250565b600061393b601683612cd7565b915061394682613905565b602082019050919050565b6000602082019050818103600083015261396a8161392e565b9050919050565b600081549050613980816135ea565b9050919050565b60008190508160005260206000209050919050565b8181036139aa575050613a82565b6139b382613971565b67ffffffffffffffff8111156139cc576139cb612abe565b5b6139d682546135ea565b6139e182828561373a565b6000601f831160018114613a1057600084156139fe578287015490505b613a0885826137ab565b865550613a7b565b601f198416613a1e87613987565b9650613a298661361b565b60005b82811015613a5157848901548255600182019150600185019450602081019050613a2c565b86831015613a6e5784890154613a6a601f89168261378d565b8355505b6001600288020188555050505b5050505050505b565b600081549050613a93816135ea565b9050919050565b818103613aa8575050613b80565b613ab182613a84565b67ffffffffffffffff811115613aca57613ac9612abe565b5b613ad482546135ea565b613adf82828561373a565b6000601f831160018114613b0e5760008415613afc578287015490505b613b0685826137ab565b865550613b79565b601f198416613b1c8761361b565b9650613b278661361b565b60005b82811015613b4f57848901548255600182019150600185019450602081019050613b2a565b86831015613b6c5784890154613b68601f89168261378d565b8355505b6001600288020188555050505b5050505050505b56fea26469706673582212202ed000781512e7c87f0352f5b9f069028eb8e660c9d9ef7a58c8b2a6ee510aab64736f6c63430008120033",
  "linkReferences": {},
  "deployedLinkReferences": {}
}