{
  "_format": "hh-sol-artifact-1",
  "contractName": "TradeVerse_Product",
  "sourceName": "contracts/TradeVerse_Product.sol",
  "abi": [
    {
      "anonymous": false,
      "inputs": [
        {
          "indexed": false,
          "internalType": "uint256",
          "name": "orderId",
          "type": "uint256"
        },
        {
          "indexed": false,
          "internalType": "address",
          "name": "buyer",
          "type": "address"
        },
        {
          "indexed": false,
          "internalType": "address",
          "name": "seller",
          "type": "address"
        },
        {
          "indexed": false,
          "internalType": "uint256",
          "name": "price",
          "type": "uint256"
        }
      ],
      "name": "OrderCreated",
      "type": "event"
    },
    {
      "anonymous": false,
      "inputs": [
        {
          "indexed": false,
          "internalType": "uint256",
          "name": "orderId",
          "type": "uint256"
        }
      ],
      "name": "OrderDelivered",
      "type": "event"
    },
    {
      "anonymous": false,
      "inputs": [
        {
          "indexed": false,
          "internalType": "uint256",
          "name": "orderId",
          "type": "uint256"
        }
      ],
      "name": "OrderRefunded",
      "type": "event"
    },
    {
      "inputs": [
        {
          "internalType": "string",
          "name": "_name",
          "type": "string"
        },
        {
          "internalType": "string",
          "name": "_category",
          "type": "string"
        },
        {
          "internalType": "string[]",
          "name": "_imageLink",
          "type": "string[]"
        },
        {
          "internalType": "string",
          "name": "_descLink",
          "type": "string"
        },
        {
          "internalType": "uint256",
          "name": "_price",
          "type": "uint256"
        },
        {
          "internalType": "string",
          "name": "_location",
          "type": "string"
        },
        {
          "internalType": "uint256",
          "name": "_maxQuantity",
          "type": "uint256"
        },
        {
          "internalType": "uint256",
          "name": "_refundTimeLimit",
          "type": "uint256"
        }
      ],
      "name": "addProduct",
      "outputs": [
        {
          "internalType": "uint256",
          "name": "",
          "type": "uint256"
        }
      ],
      "stateMutability": "nonpayable",
      "type": "function"
    },
    {
      "inputs": [
        {
          "internalType": "address",
          "name": "",
          "type": "address"
        }
      ],
      "name": "addressToSingleProduct",
      "outputs": [
        {
          "internalType": "string",
          "name": "name",
          "type": "string"
        },
        {
          "internalType": "string",
          "name": "category",
          "type": "string"
        },
        {
          "internalType": "string",
          "name": "descLink",
          "type": "string"
        },
        {
          "internalType": "uint256",
          "name": "price",
          "type": "uint256"
        },
        {
          "internalType": "uint256",
          "name": "index",
          "type": "uint256"
        },
        {
          "internalType": "enum TradeVerse_Product.OrderStatus",
          "name": "status",
          "type": "uint8"
        },
        {
          "internalType": "string",
          "name": "location",
          "type": "string"
        },
        {
          "internalType": "uint256",
          "name": "maxQuantity",
          "type": "uint256"
        },
        {
          "internalType": "address payable",
          "name": "owner",
          "type": "address"
        },
        {
          "internalType": "uint256",
          "name": "shippingFee",
          "type": "uint256"
        }
      ],
      "stateMutability": "view",
      "type": "function"
    },
    {
      "inputs": [
        {
          "internalType": "uint256",
          "name": "_orderId",
          "type": "uint256"
        }
      ],
      "name": "confirmDelivery",
      "outputs": [],
      "stateMutability": "nonpayable",
      "type": "function"
    },
    {
      "inputs": [],
      "name": "getAllOrder",
      "outputs": [
        {
          "components": [
            {
              "internalType": "uint256",
              "name": "orderId",
              "type": "uint256"
            },
            {
              "internalType": "address",
              "name": "buyer",
              "type": "address"
            },
            {
              "internalType": "address",
              "name": "seller",
              "type": "address"
            },
            {
              "internalType": "uint256",
              "name": "price",
              "type": "uint256"
            },
            {
              "internalType": "enum TradeVerse_Product.OrderStatus",
              "name": "status",
              "type": "uint8"
            },
            {
              "internalType": "bool",
              "name": "isPaid",
              "type": "bool"
            },
            {
              "internalType": "bool",
              "name": "isFulfilled",
              "type": "bool"
            },
            {
              "internalType": "bool",
              "name": "isRefunded",
              "type": "bool"
            },
            {
              "internalType": "contract RefundEscrow",
              "name": "escrow",
              "type": "address"
            }
          ],
          "internalType": "struct TradeVerse_Product.Order[]",
          "name": "",
          "type": "tuple[]"
        }
      ],
      "stateMutability": "view",
      "type": "function"
    },
    {
      "inputs": [
        {
          "internalType": "address",
          "name": "_owner",
          "type": "address"
        }
      ],
      "name": "getProductByAddress",
      "outputs": [
        {
          "components": [
            {
              "internalType": "string",
              "name": "name",
              "type": "string"
            },
            {
              "internalType": "string",
              "name": "category",
              "type": "string"
            },
            {
              "internalType": "string[]",
              "name": "imageLink",
              "type": "string[]"
            },
            {
              "internalType": "string",
              "name": "descLink",
              "type": "string"
            },
            {
              "internalType": "uint256",
              "name": "price",
              "type": "uint256"
            },
            {
              "internalType": "uint256",
              "name": "index",
              "type": "uint256"
            },
            {
              "internalType": "enum TradeVerse_Product.OrderStatus",
              "name": "status",
              "type": "uint8"
            },
            {
              "internalType": "string",
              "name": "location",
              "type": "string"
            },
            {
              "internalType": "uint256",
              "name": "maxQuantity",
              "type": "uint256"
            },
            {
              "internalType": "address payable",
              "name": "owner",
              "type": "address"
            },
            {
              "internalType": "uint256",
              "name": "shippingFee",
              "type": "uint256"
            }
          ],
          "internalType": "struct TradeVerse_Product.Product[]",
          "name": "",
          "type": "tuple[]"
        }
      ],
      "stateMutability": "view",
      "type": "function"
    },
    {
      "inputs": [],
      "name": "getProductDetails",
      "outputs": [
        {
          "components": [
            {
              "internalType": "string",
              "name": "name",
              "type": "string"
            },
            {
              "internalType": "string",
              "name": "category",
              "type": "string"
            },
            {
              "internalType": "string[]",
              "name": "imageLink",
              "type": "string[]"
            },
            {
              "internalType": "string",
              "name": "descLink",
              "type": "string"
            },
            {
              "internalType": "uint256",
              "name": "price",
              "type": "uint256"
            },
            {
              "internalType": "uint256",
              "name": "index",
              "type": "uint256"
            },
            {
              "internalType": "enum TradeVerse_Product.OrderStatus",
              "name": "status",
              "type": "uint8"
            },
            {
              "internalType": "string",
              "name": "location",
              "type": "string"
            },
            {
              "internalType": "uint256",
              "name": "maxQuantity",
              "type": "uint256"
            },
            {
              "internalType": "address payable",
              "name": "owner",
              "type": "address"
            },
            {
              "internalType": "uint256",
              "name": "shippingFee",
              "type": "uint256"
            }
          ],
          "internalType": "struct TradeVerse_Product.Product[]",
          "name": "",
          "type": "tuple[]"
        }
      ],
      "stateMutability": "view",
      "type": "function"
    },
    {
      "inputs": [
        {
          "internalType": "uint256",
          "name": "",
          "type": "uint256"
        }
      ],
      "name": "orders",
      "outputs": [
        {
          "internalType": "uint256",
          "name": "orderId",
          "type": "uint256"
        },
        {
          "internalType": "address",
          "name": "buyer",
          "type": "address"
        },
        {
          "internalType": "address",
          "name": "seller",
          "type": "address"
        },
        {
          "internalType": "uint256",
          "name": "price",
          "type": "uint256"
        },
        {
          "internalType": "enum TradeVerse_Product.OrderStatus",
          "name": "status",
          "type": "uint8"
        },
        {
          "internalType": "bool",
          "name": "isPaid",
          "type": "bool"
        },
        {
          "internalType": "bool",
          "name": "isFulfilled",
          "type": "bool"
        },
        {
          "internalType": "bool",
          "name": "isRefunded",
          "type": "bool"
        },
        {
          "internalType": "contract RefundEscrow",
          "name": "escrow",
          "type": "address"
        }
      ],
      "stateMutability": "view",
      "type": "function"
    },
    {
      "inputs": [
        {
          "internalType": "uint256",
          "name": "id",
          "type": "uint256"
        },
        {
          "internalType": "uint256",
          "name": "_price",
          "type": "uint256"
        }
      ],
      "name": "placeOrder",
      "outputs": [],
      "stateMutability": "payable",
      "type": "function"
    },
    {
      "inputs": [
        {
          "internalType": "uint256",
          "name": "",
          "type": "uint256"
        }
      ],
      "name": "products",
      "outputs": [
        {
          "internalType": "string",
          "name": "name",
          "type": "string"
        },
        {
          "internalType": "string",
          "name": "category",
          "type": "string"
        },
        {
          "internalType": "string",
          "name": "descLink",
          "type": "string"
        },
        {
          "internalType": "uint256",
          "name": "price",
          "type": "uint256"
        },
        {
          "internalType": "uint256",
          "name": "index",
          "type": "uint256"
        },
        {
          "internalType": "enum TradeVerse_Product.OrderStatus",
          "name": "status",
          "type": "uint8"
        },
        {
          "internalType": "string",
          "name": "location",
          "type": "string"
        },
        {
          "internalType": "uint256",
          "name": "maxQuantity",
          "type": "uint256"
        },
        {
          "internalType": "address payable",
          "name": "owner",
          "type": "address"
        },
        {
          "internalType": "uint256",
          "name": "shippingFee",
          "type": "uint256"
        }
      ],
      "stateMutability": "view",
      "type": "function"
    },
    {
      "inputs": [
        {
          "internalType": "uint256",
          "name": "_orderId",
          "type": "uint256"
        }
      ],
      "name": "refundOrder",
      "outputs": [],
      "stateMutability": "nonpayable",
      "type": "function"
    }
  ],
  "bytecode": "0x608060405234801561001057600080fd5b5060016000819055506155ff806100286000396000f3fe6080604052600436106200009e5760003560e01c8063843f61e21162000061578063843f61e214620001e1578063a3fa140e1462000201578063a85c38ef1462000245578063c018c4571462000291578063fd84cb9714620002bf576200009e565b80630249c30f14620000a357806323bc839b14620000f05780633dfbbad414620001205780635f0d382a14620001505780637acc0b201462000194575b600080fd5b348015620000b057600080fd5b50620000cf6004803603810190620000c991906200270e565b620002ed565b604051620000e79a999897969594939291906200289a565b60405180910390f35b348015620000fd57600080fd5b5062000108620005ae565b60405162000117919062002cac565b60405180910390f35b3480156200012d57600080fd5b506200013862000abb565b60405162000147919062002ef0565b60405180910390f35b3480156200015d57600080fd5b506200017c60048036038101906200017691906200270e565b62000cc5565b6040516200018b919062002cac565b60405180910390f35b348015620001a157600080fd5b50620001c06004803603810190620001ba919062002f45565b62001170565b604051620001d89a999897969594939291906200289a565b60405180910390f35b620001ff6004803603810190620001f9919062002f77565b62001431565b005b3480156200020e57600080fd5b506200022d60048036038101906200022791906200320b565b62001b09565b6040516200023c91906200336f565b60405180910390f35b3480156200025257600080fd5b506200027160048036038101906200026b919062002f45565b62001e34565b6040516200028899989796959493929190620033bf565b60405180910390f35b3480156200029e57600080fd5b50620002bd6004803603810190620002b7919062002f45565b62001f16565b005b348015620002cc57600080fd5b50620002eb6004803603810190620002e5919062002f45565b62002229565b005b600660205280600052604060002060009150905080600001805462000312906200348d565b80601f016020809104026020016040519081016040528092919081815260200182805462000340906200348d565b8015620003915780601f10620003655761010080835404028352916020019162000391565b820191906000526020600020905b8154815290600101906020018083116200037357829003601f168201915b505050505090806001018054620003a8906200348d565b80601f0160208091040260200160405190810160405280929190818152602001828054620003d6906200348d565b8015620004275780601f10620003fb5761010080835404028352916020019162000427565b820191906000526020600020905b8154815290600101906020018083116200040957829003601f168201915b5050505050908060030180546200043e906200348d565b80601f01602080910402602001604051908101604052809291908181526020018280546200046c906200348d565b8015620004bd5780601f106200049157610100808354040283529160200191620004bd565b820191906000526020600020905b8154815290600101906020018083116200049f57829003601f168201915b5050505050908060040154908060050154908060060160009054906101000a900460ff1690806007018054620004f3906200348d565b80601f016020809104026020016040519081016040528092919081815260200182805462000521906200348d565b8015620005725780601f10620005465761010080835404028352916020019162000572565b820191906000526020600020905b8154815290600101906020018083116200055457829003601f168201915b5050505050908060080154908060090160009054906101000a900473ffffffffffffffffffffffffffffffffffffffff169080600a015490508a565b60606000600780549050905060008167ffffffffffffffff811115620005d957620005d862002fc8565b5b6040519080825280602002602001820160405280156200061657816020015b62000602620024b1565b815260200190600190039081620005f85790505b50905060005b8281101562000ab257600781600185620006379190620034f1565b620006439190620034f1565b815481106200065757620006566200352c565b5b90600052602060002090600b02016040518061016001604052908160008201805462000683906200348d565b80601f0160208091040260200160405190810160405280929190818152602001828054620006b1906200348d565b8015620007025780601f10620006d65761010080835404028352916020019162000702565b820191906000526020600020905b815481529060010190602001808311620006e457829003601f168201915b505050505081526020016001820180546200071d906200348d565b80601f01602080910402602001604051908101604052809291908181526020018280546200074b906200348d565b80156200079c5780601f1062000770576101008083540402835291602001916200079c565b820191906000526020600020905b8154815290600101906020018083116200077e57829003601f168201915b5050505050815260200160028201805480602002602001604051908101604052809291908181526020016000905b8282101562000880578382906000526020600020018054620007ec906200348d565b80601f01602080910402602001604051908101604052809291908181526020018280546200081a906200348d565b80156200086b5780601f106200083f576101008083540402835291602001916200086b565b820191906000526020600020905b8154815290600101906020018083116200084d57829003601f168201915b505050505081526020019060010190620007ca565b5050505081526020016003820180546200089a906200348d565b80601f0160208091040260200160405190810160405280929190818152602001828054620008c8906200348d565b8015620009195780601f10620008ed5761010080835404028352916020019162000919565b820191906000526020600020905b815481529060010190602001808311620008fb57829003601f168201915b5050505050815260200160048201548152602001600582015481526020016006820160009054906101000a900460ff1660048111156200095e576200095d620027f5565b5b6004811115620009735762000972620027f5565b5b815260200160078201805462000989906200348d565b80601f0160208091040260200160405190810160405280929190818152602001828054620009b7906200348d565b801562000a085780601f10620009dc5761010080835404028352916020019162000a08565b820191906000526020600020905b815481529060010190602001808311620009ea57829003601f168201915b50505050508152602001600882015481526020016009820160009054906101000a900473ffffffffffffffffffffffffffffffffffffffff1673ffffffffffffffffffffffffffffffffffffffff1673ffffffffffffffffffffffffffffffffffffffff168152602001600a8201548152505082828151811062000a915762000a906200352c565b5b6020026020010181905250808062000aa9906200355b565b9150506200061c565b50809250505090565b60606008805480602002602001604051908101604052809291908181526020016000905b8282101562000cbc578382906000526020600020906005020160405180610120016040529081600082015481526020016001820160009054906101000a900473ffffffffffffffffffffffffffffffffffffffff1673ffffffffffffffffffffffffffffffffffffffff1673ffffffffffffffffffffffffffffffffffffffff1681526020016002820160009054906101000a900473ffffffffffffffffffffffffffffffffffffffff1673ffffffffffffffffffffffffffffffffffffffff1673ffffffffffffffffffffffffffffffffffffffff168152602001600382015481526020016004820160009054906101000a900460ff16600481111562000bec5762000beb620027f5565b5b600481111562000c015762000c00620027f5565b5b81526020016004820160019054906101000a900460ff161515151581526020016004820160029054906101000a900460ff161515151581526020016004820160039054906101000a900460ff161515151581526020016004820160049054906101000a900473ffffffffffffffffffffffffffffffffffffffff1673ffffffffffffffffffffffffffffffffffffffff1673ffffffffffffffffffffffffffffffffffffffff16815250508152602001906001019062000adf565b50505050905090565b6060600560008373ffffffffffffffffffffffffffffffffffffffff1673ffffffffffffffffffffffffffffffffffffffff168152602001908152602001600020805480602002602001604051908101604052809291908181526020016000905b828210156200116557838290600052602060002090600b02016040518061016001604052908160008201805462000d5d906200348d565b80601f016020809104026020016040519081016040528092919081815260200182805462000d8b906200348d565b801562000ddc5780601f1062000db05761010080835404028352916020019162000ddc565b820191906000526020600020905b81548152906001019060200180831162000dbe57829003601f168201915b5050505050815260200160018201805462000df7906200348d565b80601f016020809104026020016040519081016040528092919081815260200182805462000e25906200348d565b801562000e765780601f1062000e4a5761010080835404028352916020019162000e76565b820191906000526020600020905b81548152906001019060200180831162000e5857829003601f168201915b5050505050815260200160028201805480602002602001604051908101604052809291908181526020016000905b8282101562000f5a57838290600052602060002001805462000ec6906200348d565b80601f016020809104026020016040519081016040528092919081815260200182805462000ef4906200348d565b801562000f455780601f1062000f195761010080835404028352916020019162000f45565b820191906000526020600020905b81548152906001019060200180831162000f2757829003601f168201915b50505050508152602001906001019062000ea4565b50505050815260200160038201805462000f74906200348d565b80601f016020809104026020016040519081016040528092919081815260200182805462000fa2906200348d565b801562000ff35780601f1062000fc75761010080835404028352916020019162000ff3565b820191906000526020600020905b81548152906001019060200180831162000fd557829003601f168201915b5050505050815260200160048201548152602001600582015481526020016006820160009054906101000a900460ff166004811115620010385762001037620027f5565b5b60048111156200104d576200104c620027f5565b5b815260200160078201805462001063906200348d565b80601f016020809104026020016040519081016040528092919081815260200182805462001091906200348d565b8015620010e25780601f10620010b657610100808354040283529160200191620010e2565b820191906000526020600020905b815481529060010190602001808311620010c457829003601f168201915b50505050508152602001600882015481526020016009820160009054906101000a900473ffffffffffffffffffffffffffffffffffffffff1673ffffffffffffffffffffffffffffffffffffffff1673ffffffffffffffffffffffffffffffffffffffff168152602001600a820154815250508152602001906001019062000d26565b505050509050919050565b600460205280600052604060002060009150905080600001805462001195906200348d565b80601f0160208091040260200160405190810160405280929190818152602001828054620011c3906200348d565b8015620012145780601f10620011e85761010080835404028352916020019162001214565b820191906000526020600020905b815481529060010190602001808311620011f657829003601f168201915b5050505050908060010180546200122b906200348d565b80601f016020809104026020016040519081016040528092919081815260200182805462001259906200348d565b8015620012aa5780601f106200127e57610100808354040283529160200191620012aa565b820191906000526020600020905b8154815290600101906020018083116200128c57829003601f168201915b505050505090806003018054620012c1906200348d565b80601f0160208091040260200160405190810160405280929190818152602001828054620012ef906200348d565b8015620013405780601f10620013145761010080835404028352916020019162001340565b820191906000526020600020905b8154815290600101906020018083116200132257829003601f168201915b5050505050908060040154908060050154908060060160009054906101000a900460ff169080600701805462001376906200348d565b80601f0160208091040260200160405190810160405280929190818152602001828054620013a4906200348d565b8015620013f55780601f10620013c957610100808354040283529160200191620013f5565b820191906000526020600020905b815481529060010190602001808311620013d757829003601f168201915b5050505050908060080154908060090160009054906101000a900473ffffffffffffffffffffffffffffffffffffffff169080600a015490508a565b6200143b62002431565b600062001449600262002483565b905060006003600083815260200190815260200160002090506000600460008681526020019081526020016000206008015411620014be576040517f08c379a0000000000000000000000000000000000000000000000000000000008152600401620014b590620035f8565b60405180910390fd5b60046000858152602001908152602001600020600401543410156200151a576040517f08c379a000000000000000000000000000000000000000000000000000000000815260040162001511906200366a565b60405180910390fd5b8060040160019054906101000a900460ff16156200156f576040517f08c379a00000000000000000000000000000000000000000000000000000000081526004016200156690620036dc565b60405180910390fd5b60006004811115620015865762001585620027f5565b5b6004600086815260200190815260200160002060060160009054906101000a900460ff166004811115620015bf57620015be620027f5565b5b1462001602576040517f08c379a0000000000000000000000000000000000000000000000000000000008152600401620015f9906200374e565b60405180910390fd5b60006004600086815260200190815260200160002060090160009054906101000a900473ffffffffffffffffffffffffffffffffffffffff1690506000816040516200164e9062002536565b6200165a919062003770565b604051809103906000f08015801562001677573d6000803e3d6000fd5b5090508073ffffffffffffffffffffffffffffffffffffffff1663f340fa0134336040518363ffffffff1660e01b8152600401620016b69190620037b2565b6000604051808303818588803b158015620016d057600080fd5b505af1158015620016e5573d6000803e3d6000fd5b5050505050838360000181905550338360010160006101000a81548173ffffffffffffffffffffffffffffffffffffffff021916908373ffffffffffffffffffffffffffffffffffffffff160217905550818360020160006101000a81548173ffffffffffffffffffffffffffffffffffffffff021916908373ffffffffffffffffffffffffffffffffffffffff16021790555084836003018190555060018360040160006101000a81548160ff02191690836004811115620017ad57620017ac620027f5565b5b021790555060018360040160016101000a81548160ff02191690831515021790555060008360040160026101000a81548160ff02191690831515021790555060008360040160036101000a81548160ff021916908315150217905550808360040160046101000a81548173ffffffffffffffffffffffffffffffffffffffff021916908373ffffffffffffffffffffffffffffffffffffffff1602179055506004600087815260200190815260200160002060080160008154809291906200187590620037cf565b91905055506008839080600181540180825580915050600190039060005260206000209060050201600090919091909150600082015481600001556001820160009054906101000a900473ffffffffffffffffffffffffffffffffffffffff168160010160006101000a81548173ffffffffffffffffffffffffffffffffffffffff021916908373ffffffffffffffffffffffffffffffffffffffff1602179055506002820160009054906101000a900473ffffffffffffffffffffffffffffffffffffffff168160020160006101000a81548173ffffffffffffffffffffffffffffffffffffffff021916908373ffffffffffffffffffffffffffffffffffffffff160217905550600382015481600301556004820160009054906101000a900460ff168160040160006101000a81548160ff02191690836004811115620019c357620019c2620027f5565b5b02179055506004820160019054906101000a900460ff168160040160016101000a81548160ff0219169083151502179055506004820160029054906101000a900460ff168160040160026101000a81548160ff0219169083151502179055506004820160039054906101000a900460ff168160040160036101000a81548160ff0219169083151502179055506004820160049054906101000a900473ffffffffffffffffffffffffffffffffffffffff168160040160046101000a81548173ffffffffffffffffffffffffffffffffffffffff021916908373ffffffffffffffffffffffffffffffffffffffff16021790555050507ff9e17940e547201709f9aaacdec8ab3566601c60d8f5affb54f74b79b0b50b138433848860405162001aef9493929190620037fd565b60405180910390a15050505062001b0562002491565b5050565b60008073ffffffffffffffffffffffffffffffffffffffff163373ffffffffffffffffffffffffffffffffffffffff160362001b7c576040517f08c379a000000000000000000000000000000000000000000000000000000000815260040162001b73906200389a565b60405180910390fd5b600062001b8a600162002483565b905060006004600083815260200190815260200160002090508a81600001908162001bb6919062003a84565b50338160090160006101000a81548173ffffffffffffffffffffffffffffffffffffffff021916908373ffffffffffffffffffffffffffffffffffffffff1602179055508981600101908162001c0d919062003a84565b508781600301908162001c21919062003a84565b508881600201908051906020019062001c3c92919062002544565b508181600501819055508581600701908162001c59919062003a84565b5084816008018190555086816004018190555060008160060160006101000a81548160ff0219169083600481111562001c975762001c96620027f5565b5b02179055508381600a018190555060078190806001815401808255809150506001900390600052602060002090600b02016000909190919091506000820181600001908162001ce7919062003b83565b506001820181600101908162001cfe919062003b83565b50600282018160020190805462001d17929190620025a4565b506003820181600301908162001d2e919062003b83565b5060048201548160040155600582015481600501556006820160009054906101000a900460ff168160060160006101000a81548160ff0219169083600481111562001d7e5762001d7d620027f5565b5b02179055506007820181600701908162001d99919062003b83565b50600882015481600801556009820160009054906101000a900473ffffffffffffffffffffffffffffffffffffffff168160090160006101000a81548173ffffffffffffffffffffffffffffffffffffffff021916908373ffffffffffffffffffffffffffffffffffffffff160217905550600a82015481600a0155505062001e2360016200249b565b819250505098975050505050505050565b60036020528060005260406000206000915090508060000154908060010160009054906101000a900473ffffffffffffffffffffffffffffffffffffffff16908060020160009054906101000a900473ffffffffffffffffffffffffffffffffffffffff16908060030154908060040160009054906101000a900460ff16908060040160019054906101000a900460ff16908060040160029054906101000a900460ff16908060040160039054906101000a900460ff16908060040160049054906101000a900473ffffffffffffffffffffffffffffffffffffffff16905089565b806003600082815260200190815260200160002060020160009054906101000a900473ffffffffffffffffffffffffffffffffffffffff1673ffffffffffffffffffffffffffffffffffffffff163373ffffffffffffffffffffffffffffffffffffffff161462001fbe576040517f08c379a000000000000000000000000000000000000000000000000000000000815260040162001fb59062003cfa565b60405180910390fd5b62001fc862002431565b60006003600084815260200190815260200160002090508060040160019054906101000a900460ff1662002033576040517f08c379a00000000000000000000000000000000000000000000000000000000081526004016200202a9062003d6c565b60405180910390fd5b8060040160029054906101000a900460ff161562002088576040517f08c379a00000000000000000000000000000000000000000000000000000000081526004016200207f9062003e04565b60405180910390fd5b8060040160049054906101000a900473ffffffffffffffffffffffffffffffffffffffff1673ffffffffffffffffffffffffffffffffffffffff16638c52dc416040518163ffffffff1660e01b8152600401600060405180830381600087803b158015620020f557600080fd5b505af11580156200210a573d6000803e3d6000fd5b5050505060048160040160006101000a81548160ff02191690836004811115620021395762002138620027f5565b5b021790555060018160040160036101000a81548160ff0219169083151502179055508060040160049054906101000a900473ffffffffffffffffffffffffffffffffffffffff1673ffffffffffffffffffffffffffffffffffffffff16639af6549a6040518163ffffffff1660e01b8152600401600060405180830381600087803b158015620021c857600080fd5b505af1158015620021dd573d6000803e3d6000fd5b505050507f303a31648d19f17852cf82657162c4bdd4a06ab3f36f1e7ae1118f4ca6473e11836040516200221291906200336f565b60405180910390a1506200222562002491565b5050565b806003600082815260200190815260200160002060010160009054906101000a900473ffffffffffffffffffffffffffffffffffffffff1673ffffffffffffffffffffffffffffffffffffffff163373ffffffffffffffffffffffffffffffffffffffff1614620022d1576040517f08c379a0000000000000000000000000000000000000000000000000000000008152600401620022c89062003e9c565b60405180910390fd5b620022db62002431565b60006003600084815260200190815260200160002090508060040160019054906101000a900460ff1662002346576040517f08c379a00000000000000000000000000000000000000000000000000000000081526004016200233d9062003d6c565b60405180910390fd5b8060040160049054906101000a900473ffffffffffffffffffffffffffffffffffffffff1673ffffffffffffffffffffffffffffffffffffffff166343d726d66040518163ffffffff1660e01b8152600401600060405180830381600087803b158015620023b357600080fd5b505af1158015620023c8573d6000803e3d6000fd5b5050505060018160040160026101000a81548160ff0219169083151502179055507fe21fe02c1589242b30be2057f54fd54b7ddc463695d19ffdb54f9ebb0584f24a836040516200241a91906200336f565b60405180910390a1506200242d62002491565b5050565b60026000540362002479576040517f08c379a0000000000000000000000000000000000000000000000000000000008152600401620024709062003f0e565b60405180910390fd5b6002600081905550565b600081600001549050919050565b6001600081905550565b6001816000016000828254019250508190555050565b60405180610160016040528060608152602001606081526020016060815260200160608152602001600081526020016000815260200160006004811115620024fe57620024fd620027f5565b5b81526020016060815260200160008152602001600073ffffffffffffffffffffffffffffffffffffffff168152602001600081525090565b6116998062003f3183390190565b82805482825590600052602060002090810192821562002591579160200282015b82811115620025905782518290816200257f919062003a84565b509160200191906001019062002565565b5b509050620025a0919062002608565b5090565b828054828255906000526020600020908101928215620025f55760005260206000209182015b82811115620025f45782829081620025e3919062003b83565b5091600101919060010190620025ca565b5b50905062002604919062002608565b5090565b5b808211156200262c576000818162002622919062002630565b5060010162002609565b5090565b5080546200263e906200348d565b6000825580601f1062002652575062002673565b601f01602090049060005260206000209081019062002672919062002676565b5b50565b5b808211156200269157600081600090555060010162002677565b5090565b6000604051905090565b600080fd5b600080fd5b600073ffffffffffffffffffffffffffffffffffffffff82169050919050565b6000620026d682620026a9565b9050919050565b620026e881620026c9565b8114620026f457600080fd5b50565b6000813590506200270881620026dd565b92915050565b6000602082840312156200272757620027266200269f565b5b60006200273784828501620026f7565b91505092915050565b600081519050919050565b600082825260208201905092915050565b60005b838110156200277c5780820151818401526020810190506200275f565b60008484015250505050565b6000601f19601f8301169050919050565b6000620027a68262002740565b620027b281856200274b565b9350620027c48185602086016200275c565b620027cf8162002788565b840191505092915050565b6000819050919050565b620027ef81620027da565b82525050565b7f4e487b7100000000000000000000000000000000000000000000000000000000600052602160045260246000fd5b60058110620028385762002837620027f5565b5b50565b60008190506200284b8262002824565b919050565b60006200285d826200283b565b9050919050565b6200286f8162002850565b82525050565b60006200288282620026a9565b9050919050565b620028948162002875565b82525050565b6000610140820190508181036000830152620028b7818d62002799565b90508181036020830152620028cd818c62002799565b90508181036040830152620028e3818b62002799565b9050620028f4606083018a620027e4565b620029036080830189620027e4565b6200291260a083018862002864565b81810360c083015262002926818762002799565b90506200293760e0830186620027e4565b6200294761010083018562002889565b62002957610120830184620027e4565b9b9a5050505050505050505050565b600081519050919050565b600082825260208201905092915050565b6000819050602082019050919050565b600082825260208201905092915050565b6000620029b08262002740565b620029bc818562002992565b9350620029ce8185602086016200275c565b620029d98162002788565b840191505092915050565b600081519050919050565b600082825260208201905092915050565b6000819050602082019050919050565b600062002a1e8383620029a3565b905092915050565b6000602082019050919050565b600062002a4082620029e4565b62002a4c8185620029ef565b93508360208202850162002a608562002a00565b8060005b8581101562002aa2578484038952815162002a80858262002a10565b945062002a8d8362002a26565b925060208a0199505060018101905062002a64565b50829750879550505050505092915050565b62002abf81620027da565b82525050565b62002ad08162002850565b82525050565b62002ae18162002875565b82525050565b600061016083016000830151848203600086015262002b078282620029a3565b9150506020830151848203602086015262002b238282620029a3565b9150506040830151848203604086015262002b3f828262002a33565b9150506060830151848203606086015262002b5b8282620029a3565b915050608083015162002b72608086018262002ab4565b5060a083015162002b8760a086018262002ab4565b5060c083015162002b9c60c086018262002ac5565b5060e083015184820360e086015262002bb68282620029a3565b91505061010083015162002bcf61010086018262002ab4565b5061012083015162002be661012086018262002ad6565b5061014083015162002bfd61014086018262002ab4565b508091505092915050565b600062002c16838362002ae7565b905092915050565b6000602082019050919050565b600062002c388262002966565b62002c44818562002971565b93508360208202850162002c588562002982565b8060005b8581101562002c9a578484038952815162002c78858262002c08565b945062002c858362002c1e565b925060208a0199505060018101905062002c5c565b50829750879550505050505092915050565b6000602082019050818103600083015262002cc8818462002c2b565b905092915050565b600081519050919050565b600082825260208201905092915050565b6000819050602082019050919050565b62002d0781620026c9565b82525050565b60008115159050919050565b62002d248162002d0d565b82525050565b6000819050919050565b600062002d5562002d4f62002d4984620026a9565b62002d2a565b620026a9565b9050919050565b600062002d698262002d34565b9050919050565b600062002d7d8262002d5c565b9050919050565b62002d8f8162002d70565b82525050565b6101208201600082015162002dae600085018262002ab4565b50602082015162002dc3602085018262002cfc565b50604082015162002dd8604085018262002cfc565b50606082015162002ded606085018262002ab4565b50608082015162002e02608085018262002ac5565b5060a082015162002e1760a085018262002d19565b5060c082015162002e2c60c085018262002d19565b5060e082015162002e4160e085018262002d19565b5061010082015162002e5861010085018262002d84565b50505050565b600062002e6c838362002d95565b6101208301905092915050565b6000602082019050919050565b600062002e938262002cd0565b62002e9f818562002cdb565b935062002eac8362002cec565b8060005b8381101562002ee357815162002ec7888262002e5e565b975062002ed48362002e79565b92505060018101905062002eb0565b5085935050505092915050565b6000602082019050818103600083015262002f0c818462002e86565b905092915050565b62002f1f81620027da565b811462002f2b57600080fd5b50565b60008135905062002f3f8162002f14565b92915050565b60006020828403121562002f5e5762002f5d6200269f565b5b600062002f6e8482850162002f2e565b91505092915050565b6000806040838503121562002f915762002f906200269f565b5b600062002fa18582860162002f2e565b925050602062002fb48582860162002f2e565b9150509250929050565b600080fd5b600080fd5b7f4e487b7100000000000000000000000000000000000000000000000000000000600052604160045260246000fd5b620030028262002788565b810181811067ffffffffffffffff8211171562003024576200302362002fc8565b5b80604052505050565b60006200303962002695565b905062003047828262002ff7565b919050565b600067ffffffffffffffff8211156200306a576200306962002fc8565b5b620030758262002788565b9050602081019050919050565b82818337600083830152505050565b6000620030a8620030a2846200304c565b6200302d565b905082815260208101848484011115620030c757620030c662002fc3565b5b620030d484828562003082565b509392505050565b600082601f830112620030f457620030f362002fbe565b5b81356200310684826020860162003091565b91505092915050565b600067ffffffffffffffff8211156200312d576200312c62002fc8565b5b602082029050602081019050919050565b600080fd5b60006200315a62003154846200310f565b6200302d565b9050808382526020820190506020840283018581111562003180576200317f6200313e565b5b835b81811015620031ce57803567ffffffffffffffff811115620031a957620031a862002fbe565b5b808601620031b88982620030dc565b8552602085019450505060208101905062003182565b5050509392505050565b600082601f830112620031f057620031ef62002fbe565b5b81356200320284826020860162003143565b91505092915050565b600080600080600080600080610100898b0312156200322f576200322e6200269f565b5b600089013567ffffffffffffffff81111562003250576200324f620026a4565b5b6200325e8b828c01620030dc565b985050602089013567ffffffffffffffff811115620032825762003281620026a4565b5b620032908b828c01620030dc565b975050604089013567ffffffffffffffff811115620032b457620032b3620026a4565b5b620032c28b828c01620031d8565b965050606089013567ffffffffffffffff811115620032e657620032e5620026a4565b5b620032f48b828c01620030dc565b9550506080620033078b828c0162002f2e565b94505060a089013567ffffffffffffffff8111156200332b576200332a620026a4565b5b620033398b828c01620030dc565b93505060c06200334c8b828c0162002f2e565b92505060e06200335f8b828c0162002f2e565b9150509295985092959890939650565b6000602082019050620033866000830184620027e4565b92915050565b6200339781620026c9565b82525050565b620033a88162002d0d565b82525050565b620033b98162002d70565b82525050565b600061012082019050620033d7600083018c620027e4565b620033e6602083018b6200338c565b620033f5604083018a6200338c565b620034046060830189620027e4565b62003413608083018862002864565b6200342260a08301876200339d565b6200343160c08301866200339d565b6200344060e08301856200339d565b62003450610100830184620033ae565b9a9950505050505050505050565b7f4e487b7100000000000000000000000000000000000000000000000000000000600052602260045260246000fd5b60006002820490506001821680620034a657607f821691505b602082108103620034bc57620034bb6200345e565b5b50919050565b7f4e487b7100000000000000000000000000000000000000000000000000000000600052601160045260246000fd5b6000620034fe82620027da565b91506200350b83620027da565b9250828203905081811115620035265762003525620034c2565b5b92915050565b7f4e487b7100000000000000000000000000000000000000000000000000000000600052603260045260246000fd5b60006200356882620027da565b91507fffffffffffffffffffffffffffffffffffffffffffffffffffffffffffffffff82036200359d576200359c620034c2565b5b600182019050919050565b7f6f7574206f662073746f636b0000000000000000000000000000000000000000600082015250565b6000620035e0600c836200274b565b9150620035ed82620035a8565b602082019050919050565b600060208201905081810360008301526200361381620035d1565b9050919050565b7f496e73756666696369656e74207061796d656e742e0000000000000000000000600082015250565b6000620036526015836200274b565b91506200365f826200361a565b602082019050919050565b60006020820190508181036000830152620036858162003643565b9050919050565b7f5061796d656e742068617320616c7265616479206265656e206d6164652e0000600082015250565b6000620036c4601e836200274b565b9150620036d1826200368c565b602082019050919050565b60006020820190508181036000830152620036f781620036b5565b9050919050565b7f50726f64756374206973206e6f7420617661696c61626c652e00000000000000600082015250565b6000620037366019836200274b565b91506200374382620036fe565b602082019050919050565b60006020820190508181036000830152620037698162003727565b9050919050565b600060208201905062003787600083018462002889565b92915050565b60006200379a8262002d5c565b9050919050565b620037ac816200378d565b82525050565b6000602082019050620037c96000830184620037a1565b92915050565b6000620037dc82620027da565b915060008203620037f257620037f1620034c2565b5b600182039050919050565b6000608082019050620038146000830187620027e4565b6200382360208301866200338c565b620038326040830185620037a1565b620038416060830184620027e4565b95945050505050565b7f496e76616c69642073656e64657220616464726573732e000000000000000000600082015250565b6000620038826017836200274b565b91506200388f826200384a565b602082019050919050565b60006020820190508181036000830152620038b58162003873565b9050919050565b60008190508160005260206000209050919050565b60006020601f8301049050919050565b600082821b905092915050565b600060088302620039207fffffffffffffffffffffffffffffffffffffffffffffffffffffffffffffffff82620038e1565b6200392c8683620038e1565b95508019841693508086168417925050509392505050565b6000620039656200395f6200395984620027da565b62002d2a565b620027da565b9050919050565b6000819050919050565b620039818362003944565b6200399962003990826200396c565b848454620038ee565b825550505050565b600090565b620039b0620039a1565b620039bd81848462003976565b505050565b5b81811015620039e557620039d9600082620039a6565b600181019050620039c3565b5050565b601f82111562003a3457620039fe81620038bc565b62003a0984620038d1565b8101602085101562003a19578190505b62003a3162003a2885620038d1565b830182620039c2565b50505b505050565b600082821c905092915050565b600062003a596000198460080262003a39565b1980831691505092915050565b600062003a74838362003a46565b9150826002028217905092915050565b62003a8f8262002740565b67ffffffffffffffff81111562003aab5762003aaa62002fc8565b5b62003ab782546200348d565b62003ac4828285620039e9565b600060209050601f83116001811462003afc576000841562003ae7578287015190505b62003af3858262003a66565b86555062003b63565b601f19841662003b0c86620038bc565b60005b8281101562003b365784890151825560018201915060208501945060208101905062003b0f565b8683101562003b56578489015162003b52601f89168262003a46565b8355505b6001600288020188555050505b505050505050565b60008154905062003b7c816200348d565b9050919050565b81810362003b9357505062003c82565b62003b9e8262003b6b565b67ffffffffffffffff81111562003bba5762003bb962002fc8565b5b62003bc682546200348d565b62003bd3828285620039e9565b6000601f83116001811462003c07576000841562003bf2578287015490505b62003bfe858262003a66565b86555062003c7b565b601f19841662003c1787620038bc565b965062003c2486620038bc565b60005b8281101562003c4e5784890154825560018201915060018501945060208101905062003c27565b8683101562003c6e578489015462003c6a601f89168262003a46565b8355505b6001600288020188555050505b5050505050505b565b7f4f6e6c79207468652073656c6c65722063616e2063616c6c207468697320667560008201527f6e6374696f6e2e00000000000000000000000000000000000000000000000000602082015250565b600062003ce26027836200274b565b915062003cef8262003c84565b604082019050919050565b6000602082019050818103600083015262003d158162003cd3565b9050919050565b7f5061796d656e7420686173206e6f74206265656e206d6164652e000000000000600082015250565b600062003d54601a836200274b565b915062003d618262003d1c565b602082019050919050565b6000602082019050818103600083015262003d878162003d45565b9050919050565b7f4f726465722068617320616c7265616479206265656e2066756c66696c6c656460008201527f2e00000000000000000000000000000000000000000000000000000000000000602082015250565b600062003dec6021836200274b565b915062003df98262003d8e565b604082019050919050565b6000602082019050818103600083015262003e1f8162003ddd565b9050919050565b7f4f6e6c79207468652062757965722063616e2063616c6c20746869732066756e60008201527f6374696f6e2e0000000000000000000000000000000000000000000000000000602082015250565b600062003e846026836200274b565b915062003e918262003e26565b604082019050919050565b6000602082019050818103600083015262003eb78162003e75565b9050919050565b7f5265656e7472616e637947756172643a207265656e7472616e742063616c6c00600082015250565b600062003ef6601f836200274b565b915062003f038262003ebe565b602082019050919050565b6000602082019050818103600083015262003f298162003ee7565b905091905056fe60a06040523480156200001157600080fd5b506040516200169938038062001699833981810160405281019062000037919062000268565b620000576200004b6200013260201b60201c565b6200013a60201b60201c565b600073ffffffffffffffffffffffffffffffffffffffff168173ffffffffffffffffffffffffffffffffffffffff1603620000c9576040517f08c379a0000000000000000000000000000000000000000000000000000000008152600401620000c09062000321565b60405180910390fd5b8073ffffffffffffffffffffffffffffffffffffffff1660808173ffffffffffffffffffffffffffffffffffffffff16815250506000600260006101000a81548160ff0219169083600281111562000126576200012562000343565b5b02179055505062000372565b600033905090565b60008060009054906101000a900473ffffffffffffffffffffffffffffffffffffffff169050816000806101000a81548173ffffffffffffffffffffffffffffffffffffffff021916908373ffffffffffffffffffffffffffffffffffffffff1602179055508173ffffffffffffffffffffffffffffffffffffffff168173ffffffffffffffffffffffffffffffffffffffff167f8be0079c531659141344cd1fd0a4f28419497f9722a3daafe3b4186f6b6457e060405160405180910390a35050565b600080fd5b600073ffffffffffffffffffffffffffffffffffffffff82169050919050565b6000620002308262000203565b9050919050565b620002428162000223565b81146200024e57600080fd5b50565b600081519050620002628162000237565b92915050565b600060208284031215620002815762000280620001fe565b5b6000620002918482850162000251565b91505092915050565b600082825260208201905092915050565b7f526566756e64457363726f773a2062656e65666963696172792069732074686560008201527f207a65726f206164647265737300000000000000000000000000000000000000602082015250565b600062000309602d836200029a565b91506200031682620002ab565b604082019050919050565b600060208201905081810360008301526200033c81620002fa565b9050919050565b7f4e487b7100000000000000000000000000000000000000000000000000000000600052602160045260246000fd5b60805161130b6200038e6000396000610275015261130b6000f3fe6080604052600436106100a75760003560e01c80638da5cb5b116100645780638da5cb5b146101825780639af6549a146101ad578063c19d93fb146101c4578063e3a9db1a146101ef578063f2fde38b1461022c578063f340fa0114610255576100a7565b806338af3eed146100ac57806343d726d6146100d757806351cff8d9146100ee578063685ca19414610117578063715018a6146101545780638c52dc411461016b575b600080fd5b3480156100b857600080fd5b506100c1610271565b6040516100ce9190610b3b565b60405180910390f35b3480156100e357600080fd5b506100ec610299565b005b3480156100fa57600080fd5b5061011560048036038101906101109190610b87565b610367565b005b34801561012357600080fd5b5061013e60048036038101906101399190610bf2565b6103bb565b60405161014b9190610c3a565b60405180910390f35b34801561016057600080fd5b506101696103f3565b005b34801561017757600080fd5b50610180610407565b005b34801561018e57600080fd5b506101976104d6565b6040516101a49190610c64565b60405180910390f35b3480156101b957600080fd5b506101c26104ff565b005b3480156101d057600080fd5b506101d961059e565b6040516101e69190610cf6565b60405180910390f35b3480156101fb57600080fd5b5061021660048036038101906102119190610bf2565b6105b5565b6040516102239190610d2a565b60405180910390f35b34801561023857600080fd5b50610253600480360381019061024e9190610bf2565b6105fe565b005b61026f600480360381019061026a9190610bf2565b610681565b005b60007f0000000000000000000000000000000000000000000000000000000000000000905090565b6102a16106fb565b600060028111156102b5576102b4610c7f565b5b6102bd61059e565b60028111156102cf576102ce610c7f565b5b1461030f576040517f08c379a000000000000000000000000000000000000000000000000000000000815260040161030690610dc8565b60405180910390fd5b60028060006101000a81548160ff0219169083600281111561033457610333610c7f565b5b02179055507f088672c3a6e342f7cd94a65ba63b79df24a8973927b4d05d803c44bbf787d12f60405160405180910390a1565b610370816103bb565b6103af576040517f08c379a00000000000000000000000000000000000000000000000000000000081526004016103a690610e5a565b60405180910390fd5b6103b881610779565b50565b6000600160028111156103d1576103d0610c7f565b5b6103d961059e565b60028111156103eb576103ea610c7f565b5b149050919050565b6103fb6106fb565b6104056000610885565b565b61040f6106fb565b6000600281111561042357610422610c7f565b5b61042b61059e565b600281111561043d5761043c610c7f565b5b1461047d576040517f08c379a000000000000000000000000000000000000000000000000000000000815260040161047490610eec565b60405180910390fd5b6001600260006101000a81548160ff021916908360028111156104a3576104a2610c7f565b5b02179055507f599d8e5a83cffb867d051598c4d70e805d59802d8081c1c7d6dffc5b6aca2b8960405160405180910390a1565b60008060009054906101000a900473ffffffffffffffffffffffffffffffffffffffff16905090565b60028081111561051257610511610c7f565b5b61051a61059e565b600281111561052c5761052b610c7f565b5b1461056c576040517f08c379a000000000000000000000000000000000000000000000000000000000815260040161056390610f7e565b60405180910390fd5b61059c47610578610271565b73ffffffffffffffffffffffffffffffffffffffff1661094990919063ffffffff16565b565b6000600260009054906101000a900460ff16905090565b6000600160008373ffffffffffffffffffffffffffffffffffffffff1673ffffffffffffffffffffffffffffffffffffffff168152602001908152602001600020549050919050565b6106066106fb565b600073ffffffffffffffffffffffffffffffffffffffff168173ffffffffffffffffffffffffffffffffffffffff1603610675576040517f08c379a000000000000000000000000000000000000000000000000000000000815260040161066c90611010565b60405180910390fd5b61067e81610885565b50565b6000600281111561069557610694610c7f565b5b61069d61059e565b60028111156106af576106ae610c7f565b5b146106ef576040517f08c379a00000000000000000000000000000000000000000000000000000000081526004016106e6906110a2565b60405180910390fd5b6106f881610a3d565b50565b610703610af2565b73ffffffffffffffffffffffffffffffffffffffff166107216104d6565b73ffffffffffffffffffffffffffffffffffffffff1614610777576040517f08c379a000000000000000000000000000000000000000000000000000000000815260040161076e9061110e565b60405180910390fd5b565b6107816106fb565b6000600160008373ffffffffffffffffffffffffffffffffffffffff1673ffffffffffffffffffffffffffffffffffffffff1681526020019081526020016000205490506000600160008473ffffffffffffffffffffffffffffffffffffffff1673ffffffffffffffffffffffffffffffffffffffff16815260200190815260200160002081905550610833818373ffffffffffffffffffffffffffffffffffffffff1661094990919063ffffffff16565b8173ffffffffffffffffffffffffffffffffffffffff167f7084f5476618d8e60b11ef0d7d3f06914655adb8793e28ff7f018d4c76d505d5826040516108799190610d2a565b60405180910390a25050565b60008060009054906101000a900473ffffffffffffffffffffffffffffffffffffffff169050816000806101000a81548173ffffffffffffffffffffffffffffffffffffffff021916908373ffffffffffffffffffffffffffffffffffffffff1602179055508173ffffffffffffffffffffffffffffffffffffffff168173ffffffffffffffffffffffffffffffffffffffff167f8be0079c531659141344cd1fd0a4f28419497f9722a3daafe3b4186f6b6457e060405160405180910390a35050565b8047101561098c576040517f08c379a00000000000000000000000000000000000000000000000000000000081526004016109839061117a565b60405180910390fd5b60008273ffffffffffffffffffffffffffffffffffffffff16826040516109b2906111cb565b60006040518083038185875af1925050503d80600081146109ef576040519150601f19603f3d011682016040523d82523d6000602084013e6109f4565b606091505b5050905080610a38576040517f08c379a0000000000000000000000000000000000000000000000000000000008152600401610a2f90611252565b60405180910390fd5b505050565b610a456106fb565b600034905080600160008473ffffffffffffffffffffffffffffffffffffffff1673ffffffffffffffffffffffffffffffffffffffff1681526020019081526020016000206000828254610a9991906112a1565b925050819055508173ffffffffffffffffffffffffffffffffffffffff167f2da466a7b24304f47e87fa2e1e5a81b9831ce54fec19055ce277ca2f39ba42c482604051610ae69190610d2a565b60405180910390a25050565b600033905090565b600073ffffffffffffffffffffffffffffffffffffffff82169050919050565b6000610b2582610afa565b9050919050565b610b3581610b1a565b82525050565b6000602082019050610b506000830184610b2c565b92915050565b600080fd5b610b6481610b1a565b8114610b6f57600080fd5b50565b600081359050610b8181610b5b565b92915050565b600060208284031215610b9d57610b9c610b56565b5b6000610bab84828501610b72565b91505092915050565b6000610bbf82610afa565b9050919050565b610bcf81610bb4565b8114610bda57600080fd5b50565b600081359050610bec81610bc6565b92915050565b600060208284031215610c0857610c07610b56565b5b6000610c1684828501610bdd565b91505092915050565b60008115159050919050565b610c3481610c1f565b82525050565b6000602082019050610c4f6000830184610c2b565b92915050565b610c5e81610bb4565b82525050565b6000602082019050610c796000830184610c55565b92915050565b7f4e487b7100000000000000000000000000000000000000000000000000000000600052602160045260246000fd5b60038110610cbf57610cbe610c7f565b5b50565b6000819050610cd082610cae565b919050565b6000610ce082610cc2565b9050919050565b610cf081610cd5565b82525050565b6000602082019050610d0b6000830184610ce7565b92915050565b6000819050919050565b610d2481610d11565b82525050565b6000602082019050610d3f6000830184610d1b565b92915050565b600082825260208201905092915050565b7f526566756e64457363726f773a2063616e206f6e6c7920636c6f73652077686960008201527f6c65206163746976650000000000000000000000000000000000000000000000602082015250565b6000610db2602983610d45565b9150610dbd82610d56565b604082019050919050565b60006020820190508181036000830152610de181610da5565b9050919050565b7f436f6e646974696f6e616c457363726f773a207061796565206973206e6f742060008201527f616c6c6f77656420746f20776974686472617700000000000000000000000000602082015250565b6000610e44603383610d45565b9150610e4f82610de8565b604082019050919050565b60006020820190508181036000830152610e7381610e37565b9050919050565b7f526566756e64457363726f773a2063616e206f6e6c7920656e61626c6520726560008201527f66756e6473207768696c65206163746976650000000000000000000000000000602082015250565b6000610ed6603283610d45565b9150610ee182610e7a565b604082019050919050565b60006020820190508181036000830152610f0581610ec9565b9050919050565b7f526566756e64457363726f773a2062656e65666963696172792063616e206f6e60008201527f6c79207769746864726177207768696c6520636c6f7365640000000000000000602082015250565b6000610f68603883610d45565b9150610f7382610f0c565b604082019050919050565b60006020820190508181036000830152610f9781610f5b565b9050919050565b7f4f776e61626c653a206e6577206f776e657220697320746865207a65726f206160008201527f6464726573730000000000000000000000000000000000000000000000000000602082015250565b6000610ffa602683610d45565b915061100582610f9e565b604082019050919050565b6000602082019050818103600083015261102981610fed565b9050919050565b7f526566756e64457363726f773a2063616e206f6e6c79206465706f736974207760008201527f68696c6520616374697665000000000000000000000000000000000000000000602082015250565b600061108c602b83610d45565b915061109782611030565b604082019050919050565b600060208201905081810360008301526110bb8161107f565b9050919050565b7f4f776e61626c653a2063616c6c6572206973206e6f7420746865206f776e6572600082015250565b60006110f8602083610d45565b9150611103826110c2565b602082019050919050565b60006020820190508181036000830152611127816110eb565b9050919050565b7f416464726573733a20696e73756666696369656e742062616c616e6365000000600082015250565b6000611164601d83610d45565b915061116f8261112e565b602082019050919050565b6000602082019050818103600083015261119381611157565b9050919050565b600081905092915050565b50565b60006111b560008361119a565b91506111c0826111a5565b600082019050919050565b60006111d6826111a8565b9150819050919050565b7f416464726573733a20756e61626c6520746f2073656e642076616c75652c207260008201527f6563697069656e74206d61792068617665207265766572746564000000000000602082015250565b600061123c603a83610d45565b9150611247826111e0565b604082019050919050565b6000602082019050818103600083015261126b8161122f565b9050919050565b7f4e487b7100000000000000000000000000000000000000000000000000000000600052601160045260246000fd5b60006112ac82610d11565b91506112b783610d11565b92508282019050808211156112cf576112ce611272565b5b9291505056fea264697066735822122096a00e245e5af2ce4aae68743b503252f0fe4ec2f16160aeab78dcc9e440dc5064736f6c63430008120033a2646970667358221220d77fbd282772755369aae33bd36db935b8f56abb05f17113f960f79ec9fa1af664736f6c63430008120033",
  "linkReferences": {},
  "deployedLinkReferences": {}
}