{
  "_format": "hh-sol-artifact-1",
  "contractName": "Products",
  "sourceName": "contracts/Products.sol",
  "abi": [
    {
      "anonymous": false,
      "inputs": [
        {
          "indexed": false,
          "internalType": "uint256",
          "name": "orderId",
          "type": "uint256"
        },
        {
          "indexed": false,
          "internalType": "address",
          "name": "buyer",
          "type": "address"
        },
        {
          "indexed": false,
          "internalType": "address",
          "name": "seller",
          "type": "address"
        },
        {
          "indexed": false,
          "internalType": "uint256",
          "name": "price",
          "type": "uint256"
        }
      ],
      "name": "OrderCreated",
      "type": "event"
    },
    {
      "anonymous": false,
      "inputs": [
        {
          "indexed": false,
          "internalType": "uint256",
          "name": "orderId",
          "type": "uint256"
        }
      ],
      "name": "OrderDelivered",
      "type": "event"
    },
    {
      "anonymous": false,
      "inputs": [
        {
          "indexed": false,
          "internalType": "uint256",
          "name": "orderId",
          "type": "uint256"
        }
      ],
      "name": "OrderRefunded",
      "type": "event"
    },
    {
      "inputs": [
        {
          "internalType": "string",
          "name": "_profile",
          "type": "string"
        }
      ],
      "name": "addCoverImage",
      "outputs": [],
      "stateMutability": "nonpayable",
      "type": "function"
    },
    {
      "inputs": [
        {
          "internalType": "string",
          "name": "_name",
          "type": "string"
        },
        {
          "internalType": "string",
          "name": "_category",
          "type": "string"
        },
        {
          "internalType": "string[]",
          "name": "_imageLink",
          "type": "string[]"
        },
        {
          "internalType": "string",
          "name": "_descLink",
          "type": "string"
        },
        {
          "internalType": "uint256",
          "name": "_price",
          "type": "uint256"
        },
        {
          "internalType": "string",
          "name": "_location",
          "type": "string"
        },
        {
          "internalType": "uint256",
          "name": "_maxQuantity",
          "type": "uint256"
        },
        {
          "internalType": "uint256",
          "name": "_refundTimeLimit",
          "type": "uint256"
        }
      ],
      "name": "addProduct",
      "outputs": [
        {
          "internalType": "uint256",
          "name": "",
          "type": "uint256"
        }
      ],
      "stateMutability": "nonpayable",
      "type": "function"
    },
    {
      "inputs": [
        {
          "internalType": "string",
          "name": "_profile",
          "type": "string"
        }
      ],
      "name": "addProfile",
      "outputs": [],
      "stateMutability": "nonpayable",
      "type": "function"
    },
    {
      "inputs": [
        {
          "internalType": "address",
          "name": "",
          "type": "address"
        }
      ],
      "name": "arbiters",
      "outputs": [
        {
          "internalType": "bool",
          "name": "",
          "type": "bool"
        }
      ],
      "stateMutability": "view",
      "type": "function"
    },
    {
      "inputs": [
        {
          "internalType": "uint256",
          "name": "_id",
          "type": "uint256"
        }
      ],
      "name": "cancelLive",
      "outputs": [
        {
          "internalType": "bool",
          "name": "",
          "type": "bool"
        }
      ],
      "stateMutability": "nonpayable",
      "type": "function"
    },
    {
      "inputs": [
        {
          "internalType": "address",
          "name": "pubkey",
          "type": "address"
        }
      ],
      "name": "checkUserExists",
      "outputs": [
        {
          "internalType": "bool",
          "name": "",
          "type": "bool"
        }
      ],
      "stateMutability": "view",
      "type": "function"
    },
    {
      "inputs": [
        {
          "internalType": "uint256",
          "name": "_orderId",
          "type": "uint256"
        },
        {
          "internalType": "bool",
          "name": "_success",
          "type": "bool"
        }
      ],
      "name": "confirmDelivery",
      "outputs": [],
      "stateMutability": "nonpayable",
      "type": "function"
    },
    {
      "inputs": [
        {
          "internalType": "string",
          "name": "_storeName",
          "type": "string"
        },
        {
          "internalType": "string",
          "name": "_category",
          "type": "string"
        },
        {
          "internalType": "string",
          "name": "_name",
          "type": "string"
        },
        {
          "internalType": "string",
          "name": "_lastName",
          "type": "string"
        },
        {
          "internalType": "string",
          "name": "_description",
          "type": "string"
        },
        {
          "internalType": "string",
          "name": "_location",
          "type": "string"
        }
      ],
      "name": "createAStore",
      "outputs": [],
      "stateMutability": "nonpayable",
      "type": "function"
    },
    {
      "inputs": [],
      "name": "getAllOrder",
      "outputs": [
        {
          "components": [
            {
              "internalType": "uint256",
              "name": "orderId",
              "type": "uint256"
            },
            {
              "internalType": "address",
              "name": "buyer",
              "type": "address"
            },
            {
              "internalType": "address",
              "name": "seller",
              "type": "address"
            },
            {
              "internalType": "uint256",
              "name": "price",
              "type": "uint256"
            },
            {
              "internalType": "enum Products.OrderStatus",
              "name": "status",
              "type": "uint8"
            },
            {
              "internalType": "bool",
              "name": "isPaid",
              "type": "bool"
            },
            {
              "internalType": "bool",
              "name": "isFulfilled",
              "type": "bool"
            },
            {
              "internalType": "bool",
              "name": "isRefunded",
              "type": "bool"
            },
            {
              "internalType": "contract Escrow",
              "name": "escrow",
              "type": "address"
            }
          ],
          "internalType": "struct Products.Order[]",
          "name": "",
          "type": "tuple[]"
        }
      ],
      "stateMutability": "view",
      "type": "function"
    },
    {
      "inputs": [],
      "name": "getLiveDetail",
      "outputs": [
        {
          "components": [
            {
              "internalType": "string",
              "name": "callId",
              "type": "string"
            },
            {
              "internalType": "string",
              "name": "storeName",
              "type": "string"
            },
            {
              "internalType": "address[]",
              "name": "participant",
              "type": "address[]"
            }
          ],
          "internalType": "struct Products.Live[]",
          "name": "",
          "type": "tuple[]"
        }
      ],
      "stateMutability": "view",
      "type": "function"
    },
    {
      "inputs": [
        {
          "internalType": "address",
          "name": "_owner",
          "type": "address"
        }
      ],
      "name": "getProductByAddress",
      "outputs": [
        {
          "components": [
            {
              "internalType": "string",
              "name": "name",
              "type": "string"
            },
            {
              "internalType": "string",
              "name": "category",
              "type": "string"
            },
            {
              "internalType": "string[]",
              "name": "imageLink",
              "type": "string[]"
            },
            {
              "internalType": "string",
              "name": "descLink",
              "type": "string"
            },
            {
              "internalType": "uint256",
              "name": "price",
              "type": "uint256"
            },
            {
              "internalType": "uint256",
              "name": "index",
              "type": "uint256"
            },
            {
              "internalType": "enum Products.OrderStatus",
              "name": "status",
              "type": "uint8"
            },
            {
              "internalType": "string",
              "name": "location",
              "type": "string"
            },
            {
              "internalType": "uint256",
              "name": "maxQuantity",
              "type": "uint256"
            },
            {
              "internalType": "address payable",
              "name": "owner",
              "type": "address"
            },
            {
              "internalType": "uint256",
              "name": "shippingFee",
              "type": "uint256"
            },
            {
              "internalType": "bool",
              "name": "sellerActive",
              "type": "bool"
            },
            {
              "internalType": "string",
              "name": "meetingId",
              "type": "string"
            }
          ],
          "internalType": "struct Products.Product[]",
          "name": "",
          "type": "tuple[]"
        }
      ],
      "stateMutability": "view",
      "type": "function"
    },
    {
      "inputs": [],
      "name": "getProductDetails",
      "outputs": [
        {
          "components": [
            {
              "internalType": "string",
              "name": "name",
              "type": "string"
            },
            {
              "internalType": "string",
              "name": "category",
              "type": "string"
            },
            {
              "internalType": "string[]",
              "name": "imageLink",
              "type": "string[]"
            },
            {
              "internalType": "string",
              "name": "descLink",
              "type": "string"
            },
            {
              "internalType": "uint256",
              "name": "price",
              "type": "uint256"
            },
            {
              "internalType": "uint256",
              "name": "index",
              "type": "uint256"
            },
            {
              "internalType": "enum Products.OrderStatus",
              "name": "status",
              "type": "uint8"
            },
            {
              "internalType": "string",
              "name": "location",
              "type": "string"
            },
            {
              "internalType": "uint256",
              "name": "maxQuantity",
              "type": "uint256"
            },
            {
              "internalType": "address payable",
              "name": "owner",
              "type": "address"
            },
            {
              "internalType": "uint256",
              "name": "shippingFee",
              "type": "uint256"
            },
            {
              "internalType": "bool",
              "name": "sellerActive",
              "type": "bool"
            },
            {
              "internalType": "string",
              "name": "meetingId",
              "type": "string"
            }
          ],
          "internalType": "struct Products.Product[]",
          "name": "",
          "type": "tuple[]"
        }
      ],
      "stateMutability": "view",
      "type": "function"
    },
    {
      "inputs": [],
      "name": "getStoreDetails",
      "outputs": [
        {
          "components": [
            {
              "internalType": "address",
              "name": "owner",
              "type": "address"
            },
            {
              "internalType": "string",
              "name": "storeName",
              "type": "string"
            },
            {
              "internalType": "bool",
              "name": "isSellerActive",
              "type": "bool"
            },
            {
              "internalType": "string",
              "name": "category",
              "type": "string"
            },
            {
              "internalType": "string",
              "name": "name",
              "type": "string"
            },
            {
              "internalType": "string",
              "name": "lastName",
              "type": "string"
            },
            {
              "internalType": "address[]",
              "name": "customer",
              "type": "address[]"
            },
            {
              "internalType": "string",
              "name": "description",
              "type": "string"
            },
            {
              "internalType": "string",
              "name": "meetingId",
              "type": "string"
            },
            {
              "internalType": "string",
              "name": "location",
              "type": "string"
            }
          ],
          "internalType": "struct Products.Store[]",
          "name": "",
          "type": "tuple[]"
        }
      ],
      "stateMutability": "view",
      "type": "function"
    },
    {
      "inputs": [
        {
          "internalType": "address",
          "name": "_owner",
          "type": "address"
        }
      ],
      "name": "isSellerActive",
      "outputs": [
        {
          "internalType": "bool",
          "name": "",
          "type": "bool"
        }
      ],
      "stateMutability": "view",
      "type": "function"
    },
    {
      "inputs": [],
      "name": "orderIdCounter",
      "outputs": [
        {
          "internalType": "uint256",
          "name": "",
          "type": "uint256"
        }
      ],
      "stateMutability": "view",
      "type": "function"
    },
    {
      "inputs": [
        {
          "internalType": "uint256",
          "name": "",
          "type": "uint256"
        }
      ],
      "name": "orders",
      "outputs": [
        {
          "internalType": "uint256",
          "name": "orderId",
          "type": "uint256"
        },
        {
          "internalType": "address",
          "name": "buyer",
          "type": "address"
        },
        {
          "internalType": "address",
          "name": "seller",
          "type": "address"
        },
        {
          "internalType": "uint256",
          "name": "price",
          "type": "uint256"
        },
        {
          "internalType": "enum Products.OrderStatus",
          "name": "status",
          "type": "uint8"
        },
        {
          "internalType": "bool",
          "name": "isPaid",
          "type": "bool"
        },
        {
          "internalType": "bool",
          "name": "isFulfilled",
          "type": "bool"
        },
        {
          "internalType": "bool",
          "name": "isRefunded",
          "type": "bool"
        },
        {
          "internalType": "contract Escrow",
          "name": "escrow",
          "type": "address"
        }
      ],
      "stateMutability": "view",
      "type": "function"
    },
    {
      "inputs": [
        {
          "internalType": "uint256",
          "name": "id",
          "type": "uint256"
        },
        {
          "internalType": "uint256",
          "name": "_price",
          "type": "uint256"
        }
      ],
      "name": "placeOrder",
      "outputs": [],
      "stateMutability": "payable",
      "type": "function"
    },
    {
      "inputs": [
        {
          "internalType": "uint256",
          "name": "_orderId",
          "type": "uint256"
        }
      ],
      "name": "refundOrder",
      "outputs": [],
      "stateMutability": "nonpayable",
      "type": "function"
    },
    {
      "inputs": [
        {
          "internalType": "string",
          "name": "_callId",
          "type": "string"
        }
      ],
      "name": "startStream",
      "outputs": [
        {
          "internalType": "bool",
          "name": "",
          "type": "bool"
        }
      ],
      "stateMutability": "nonpayable",
      "type": "function"
    }
  ],
  "bytecode": "0x608060405234801561001057600080fd5b5061645880620000216000396000f3fe6080604052600436106101145760003560e01c8063843f61e2116100a0578063be37442311610064578063be374423146103e2578063c018c4571461040d578063e35f968014610436578063e57e4a9414610473578063fe04eb2d1461049e57610114565b8063843f61e2146102f2578063870c2fcb1461030e57806393cd5a1f14610337578063a3fa140e14610360578063a85c38ef1461039d57610114565b806323bc839b116100e757806323bc839b146101e55780633dfbbad4146102105780635d39c0711461023b5780635f0d382a146102785780637bf2bb10146102b557610114565b806304ef0781146101195780630c717b9e146101425780630c7d1b391461016b578063133f50f5146101a8575b600080fd5b34801561012557600080fd5b50610140600480360381019061013b9190613489565b6104c9565b005b34801561014e57600080fd5b506101696004803603810190610164919061360f565b6107ba565b005b34801561017757600080fd5b50610192600480360381019061018d91906136b6565b610813565b60405161019f91906136f2565b60405180910390f35b3480156101b457600080fd5b506101cf60048036038101906101ca91906136b6565b61086c565b6040516101dc91906136f2565b60405180910390f35b3480156101f157600080fd5b506101fa6108c6565b6040516102079190613b02565b60405180910390f35b34801561021c57600080fd5b50610225610dad565b6040516102329190613cf9565b60405180910390f35b34801561024757600080fd5b50610262600480360381019061025d919061360f565b610faf565b60405161026f91906136f2565b60405180910390f35b34801561028457600080fd5b5061029f600480360381019061029a91906136b6565b611225565b6040516102ac9190613b02565b60405180910390f35b3480156102c157600080fd5b506102dc60048036038101906102d791906136b6565b61174b565b6040516102e991906136f2565b60405180910390f35b61030c60048036038101906103079190613d1b565b61176b565b005b34801561031a57600080fd5b506103356004803603810190610330919061360f565b611ed8565b005b34801561034357600080fd5b5061035e60048036038101906103599190613d5b565b611f31565b005b34801561036c57600080fd5b5061038760048036038101906103829190613f76565b6121b5565b60405161039491906140c7565b60405180910390f35b3480156103a957600080fd5b506103c460048036038101906103bf91906140e2565b61263c565b6040516103d99998979695949392919061413c565b60405180910390f35b3480156103ee57600080fd5b506103f761271e565b60405161040491906140c7565b60405180910390f35b34801561041957600080fd5b50610434600480360381019061042f91906140e2565b612724565b005b34801561044257600080fd5b5061045d600480360381019061045891906140e2565b61298d565b60405161046a91906136f2565b60405180910390f35b34801561047f57600080fd5b50610488612ae2565b6040516104959190614398565b60405180910390f35b3480156104aa57600080fd5b506104b3612cf3565b6040516104c09190614587565b60405180910390f35b816004600082815260200190815260200160002060010160009054906101000a900473ffffffffffffffffffffffffffffffffffffffff1673ffffffffffffffffffffffffffffffffffffffff163373ffffffffffffffffffffffffffffffffffffffff161461056e576040517f08c379a00000000000000000000000000000000000000000000000000000000081526004016105659061462c565b60405180910390fd5b60006004600085815260200190815260200160002090508060040160019054906101000a900460ff166105d6576040517f08c379a00000000000000000000000000000000000000000000000000000000081526004016105cd90614698565b60405180910390fd5b600260048111156105ea576105e9613889565b5b8160040160009054906101000a900460ff16600481111561060e5761060d613889565b5b1461064e576040517f08c379a000000000000000000000000000000000000000000000000000000000815260040161064590614704565b60405180910390fd5b8060040160049054906101000a900473ffffffffffffffffffffffffffffffffffffffff1673ffffffffffffffffffffffffffffffffffffffff1663fa0af12a846040518263ffffffff1660e01b81526004016106ab91906136f2565b600060405180830381600087803b1580156106c557600080fd5b505af11580156106d9573d6000803e3d6000fd5b5050505082156107155760038160040160006101000a81548160ff0219169083600481111561070b5761070a613889565b5b0217905550610760565b60048160040160006101000a81548160ff0219169083600481111561073d5761073c613889565b5b021790555060018160040160036101000a81548160ff0219169083151502179055505b60018160040160026101000a81548160ff0219169083151502179055507fe21fe02c1589242b30be2057f54fd54b7ddc463695d19ffdb54f9ebb0584f24a846040516107ac91906140c7565b60405180910390a150505050565b6000600260003373ffffffffffffffffffffffffffffffffffffffff1673ffffffffffffffffffffffffffffffffffffffff16815260200190815260200160002090508181600001908161080e9190614926565b505050565b6000600960008373ffffffffffffffffffffffffffffffffffffffff1673ffffffffffffffffffffffffffffffffffffffff16815260200190815260200160002060020160009054906101000a900460ff169050919050565b600080600960008473ffffffffffffffffffffffffffffffffffffffff1673ffffffffffffffffffffffffffffffffffffffff16815260200190815260200160002060010180546108bc90614753565b9050119050919050565b6060600c805480602002602001604051908101604052809291908181526020016000905b82821015610da457838290600052602060002090600d0201604051806101a001604052908160008201805461091e90614753565b80601f016020809104026020016040519081016040528092919081815260200182805461094a90614753565b80156109975780601f1061096c57610100808354040283529160200191610997565b820191906000526020600020905b81548152906001019060200180831161097a57829003601f168201915b505050505081526020016001820180546109b090614753565b80601f01602080910402602001604051908101604052809291908181526020018280546109dc90614753565b8015610a295780601f106109fe57610100808354040283529160200191610a29565b820191906000526020600020905b815481529060010190602001808311610a0c57829003601f168201915b5050505050815260200160028201805480602002602001604051908101604052809291908181526020016000905b82821015610b03578382906000526020600020018054610a7690614753565b80601f0160208091040260200160405190810160405280929190818152602001828054610aa290614753565b8015610aef5780601f10610ac457610100808354040283529160200191610aef565b820191906000526020600020905b815481529060010190602001808311610ad257829003601f168201915b505050505081526020019060010190610a57565b505050508152602001600382018054610b1b90614753565b80601f0160208091040260200160405190810160405280929190818152602001828054610b4790614753565b8015610b945780601f10610b6957610100808354040283529160200191610b94565b820191906000526020600020905b815481529060010190602001808311610b7757829003601f168201915b5050505050815260200160048201548152602001600582015481526020016006820160009054906101000a900460ff166004811115610bd657610bd5613889565b5b6004811115610be857610be7613889565b5b8152602001600782018054610bfc90614753565b80601f0160208091040260200160405190810160405280929190818152602001828054610c2890614753565b8015610c755780601f10610c4a57610100808354040283529160200191610c75565b820191906000526020600020905b815481529060010190602001808311610c5857829003601f168201915b50505050508152602001600882015481526020016009820160009054906101000a900473ffffffffffffffffffffffffffffffffffffffff1673ffffffffffffffffffffffffffffffffffffffff1673ffffffffffffffffffffffffffffffffffffffff168152602001600a8201548152602001600b820160009054906101000a900460ff16151515158152602001600c82018054610d1390614753565b80601f0160208091040260200160405190810160405280929190818152602001828054610d3f90614753565b8015610d8c5780601f10610d6157610100808354040283529160200191610d8c565b820191906000526020600020905b815481529060010190602001808311610d6f57829003601f168201915b505050505081525050815260200190600101906108ea565b50505050905090565b6060600f805480602002602001604051908101604052809291908181526020016000905b82821015610fa6578382906000526020600020906005020160405180610120016040529081600082015481526020016001820160009054906101000a900473ffffffffffffffffffffffffffffffffffffffff1673ffffffffffffffffffffffffffffffffffffffff1673ffffffffffffffffffffffffffffffffffffffff1681526020016002820160009054906101000a900473ffffffffffffffffffffffffffffffffffffffff1673ffffffffffffffffffffffffffffffffffffffff1673ffffffffffffffffffffffffffffffffffffffff168152602001600382015481526020016004820160009054906101000a900460ff166004811115610eda57610ed9613889565b5b6004811115610eec57610eeb613889565b5b81526020016004820160019054906101000a900460ff161515151581526020016004820160029054906101000a900460ff161515151581526020016004820160039054906101000a900460ff161515151581526020016004820160049054906101000a900473ffffffffffffffffffffffffffffffffffffffff1673ffffffffffffffffffffffffffffffffffffffff1673ffffffffffffffffffffffffffffffffffffffff168152505081526020019060010190610dd1565b50505050905090565b6000610fba3361086c565b610ff9576040517f08c379a0000000000000000000000000000000000000000000000000000000008152600401610ff090614a44565b60405180910390fd5b600060036000600b5481526020019081526020016000209050828160000190816110239190614926565b50600960003373ffffffffffffffffffffffffffffffffffffffff1673ffffffffffffffffffffffffffffffffffffffff1681526020019081526020016000206001018160010190816110769190614a8f565b506001600960003373ffffffffffffffffffffffffffffffffffffffff1673ffffffffffffffffffffffffffffffffffffffff16815260200190815260200160002060020160006101000a81548160ff02191690831515021790555082600960003373ffffffffffffffffffffffffffffffffffffffff1673ffffffffffffffffffffffffffffffffffffffff16815260200190815260200160002060080190816111219190614926565b506001600860003373ffffffffffffffffffffffffffffffffffffffff1673ffffffffffffffffffffffffffffffffffffffff168152602001908152602001600020600b0160006101000a81548160ff02191690831515021790555082600860003373ffffffffffffffffffffffffffffffffffffffff1673ffffffffffffffffffffffffffffffffffffffff168152602001908152602001600020600c0190816111cc9190614926565b50600960003373ffffffffffffffffffffffffffffffffffffffff1673ffffffffffffffffffffffffffffffffffffffff16815260200190815260200160002060020160009054906101000a900460ff16915050919050565b6060600760008373ffffffffffffffffffffffffffffffffffffffff1673ffffffffffffffffffffffffffffffffffffffff168152602001908152602001600020805480602002602001604051908101604052809291908181526020016000905b8282101561174057838290600052602060002090600d0201604051806101a00160405290816000820180546112ba90614753565b80601f01602080910402602001604051908101604052809291908181526020018280546112e690614753565b80156113335780601f1061130857610100808354040283529160200191611333565b820191906000526020600020905b81548152906001019060200180831161131657829003601f168201915b5050505050815260200160018201805461134c90614753565b80601f016020809104026020016040519081016040528092919081815260200182805461137890614753565b80156113c55780601f1061139a576101008083540402835291602001916113c5565b820191906000526020600020905b8154815290600101906020018083116113a857829003601f168201915b5050505050815260200160028201805480602002602001604051908101604052809291908181526020016000905b8282101561149f57838290600052602060002001805461141290614753565b80601f016020809104026020016040519081016040528092919081815260200182805461143e90614753565b801561148b5780601f106114605761010080835404028352916020019161148b565b820191906000526020600020905b81548152906001019060200180831161146e57829003601f168201915b5050505050815260200190600101906113f3565b5050505081526020016003820180546114b790614753565b80601f01602080910402602001604051908101604052809291908181526020018280546114e390614753565b80156115305780601f1061150557610100808354040283529160200191611530565b820191906000526020600020905b81548152906001019060200180831161151357829003601f168201915b5050505050815260200160048201548152602001600582015481526020016006820160009054906101000a900460ff16600481111561157257611571613889565b5b600481111561158457611583613889565b5b815260200160078201805461159890614753565b80601f01602080910402602001604051908101604052809291908181526020018280546115c490614753565b80156116115780601f106115e657610100808354040283529160200191611611565b820191906000526020600020905b8154815290600101906020018083116115f457829003601f168201915b50505050508152602001600882015481526020016009820160009054906101000a900473ffffffffffffffffffffffffffffffffffffffff1673ffffffffffffffffffffffffffffffffffffffff1673ffffffffffffffffffffffffffffffffffffffff168152602001600a8201548152602001600b820160009054906101000a900460ff16151515158152602001600c820180546116af90614753565b80601f01602080910402602001604051908101604052809291908181526020018280546116db90614753565b80156117285780601f106116fd57610100808354040283529160200191611728565b820191906000526020600020905b81548152906001019060200180831161170b57829003601f168201915b50505050508152505081526020019060010190611286565b505050509050919050565b60056020528060005260406000206000915054906101000a900460ff1681565b6000600460006001548152602001908152602001600020905060066000848152602001908152602001600020600401543410156117dd576040517f08c379a00000000000000000000000000000000000000000000000000000000081526004016117d490614bc3565b60405180910390fd5b8060040160019054906101000a900460ff161561182f576040517f08c379a000000000000000000000000000000000000000000000000000000000815260040161182690614c2f565b60405180910390fd5b6000600481111561184357611842613889565b5b6006600085815260200190815260200160002060060160009054906101000a900460ff16600481111561187957611878613889565b5b146118b9576040517f08c379a00000000000000000000000000000000000000000000000000000000081526004016118b090614c9b565b60405180910390fd5b60006006600085815260200190815260200160002060090160009054906101000a900473ffffffffffffffffffffffffffffffffffffffff169050600060405161190290613250565b604051809103906000f08015801561191e573d6000803e3d6000fd5b5090508073ffffffffffffffffffffffffffffffffffffffff16631794bb3c83738d45ea72697c5f395ee1509cb39067cb977d9cb6876040518463ffffffff1660e01b815260040161197293929190614cca565b600060405180830381600087803b15801561198c57600080fd5b505af11580156119a0573d6000803e3d6000fd5b505050508073ffffffffffffffffffffffffffffffffffffffff1663d0e30db0346040518263ffffffff1660e01b81526004016000604051808303818588803b1580156119ec57600080fd5b505af1158015611a00573d6000803e3d6000fd5b505050505060016000815480929190611a1890614d30565b91905055506001548360000181905550338360010160006101000a81548173ffffffffffffffffffffffffffffffffffffffff021916908373ffffffffffffffffffffffffffffffffffffffff160217905550818360020160006101000a81548173ffffffffffffffffffffffffffffffffffffffff021916908373ffffffffffffffffffffffffffffffffffffffff16021790555083836003018190555060018360040160006101000a81548160ff02191690836004811115611adf57611ade613889565b5b021790555060008360040160016101000a81548160ff02191690831515021790555060008360040160026101000a81548160ff02191690831515021790555060008360040160036101000a81548160ff021916908315150217905550808360040160046101000a81548173ffffffffffffffffffffffffffffffffffffffff021916908373ffffffffffffffffffffffffffffffffffffffff160217905550600f839080600181540180825580915050600190039060005260206000209060050201600090919091909150600082015481600001556001820160009054906101000a900473ffffffffffffffffffffffffffffffffffffffff168160010160006101000a81548173ffffffffffffffffffffffffffffffffffffffff021916908373ffffffffffffffffffffffffffffffffffffffff1602179055506002820160009054906101000a900473ffffffffffffffffffffffffffffffffffffffff168160020160006101000a81548173ffffffffffffffffffffffffffffffffffffffff021916908373ffffffffffffffffffffffffffffffffffffffff160217905550600382015481600301556004820160009054906101000a900460ff168160040160006101000a81548160ff02191690836004811115611cc457611cc3613889565b5b02179055506004820160019054906101000a900460ff168160040160016101000a81548160ff0219169083151502179055506004820160029054906101000a900460ff168160040160026101000a81548160ff0219169083151502179055506004820160039054906101000a900460ff168160040160036101000a81548160ff0219169083151502179055506004820160049054906101000a900473ffffffffffffffffffffffffffffffffffffffff168160040160046101000a81548173ffffffffffffffffffffffffffffffffffffffff021916908373ffffffffffffffffffffffffffffffffffffffff1602179055505050600960006006600088815260200190815260200160002060090160009054906101000a900473ffffffffffffffffffffffffffffffffffffffff1673ffffffffffffffffffffffffffffffffffffffff1673ffffffffffffffffffffffffffffffffffffffff168152602001908152602001600020600601339080600181540180825580915050600190039060005260206000200160009091909190916101000a81548173ffffffffffffffffffffffffffffffffffffffff021916908373ffffffffffffffffffffffffffffffffffffffff1602179055507ff9e17940e547201709f9aaacdec8ab3566601c60d8f5affb54f74b79b0b50b13600154338487604051611ec99493929190614d99565b60405180910390a15050505050565b6000600260003373ffffffffffffffffffffffffffffffffffffffff1673ffffffffffffffffffffffffffffffffffffffff168152602001908152602001600020905081816000019081611f2c9190614926565b505050565b6000600960003373ffffffffffffffffffffffffffffffffffffffff1673ffffffffffffffffffffffffffffffffffffffff168152602001908152602001600020905086816001019081611f859190614926565b50338160000160006101000a81548173ffffffffffffffffffffffffffffffffffffffff021916908373ffffffffffffffffffffffffffffffffffffffff16021790555084816004019081611fda9190614926565b5085816003019081611fec9190614926565b5083816005019081611ffe9190614926565b50828160070190816120109190614926565b5060008160020160006101000a81548160ff0219169083151502179055508181600901908161203f9190614926565b50600d8190806001815401808255809150506001900390600052602060002090600a02016000909190919091506000820160009054906101000a900473ffffffffffffffffffffffffffffffffffffffff168160000160006101000a81548173ffffffffffffffffffffffffffffffffffffffff021916908373ffffffffffffffffffffffffffffffffffffffff160217905550600182018160010190816120e79190614df4565b506002820160009054906101000a900460ff168160020160006101000a81548160ff021916908315150217905550600382018160030190816121299190614df4565b506004820181600401908161213e9190614df4565b50600582018160050190816121539190614df4565b50600682018160060190805461216a92919061325d565b506007820181600701908161217f9190614df4565b50600882018160080190816121949190614df4565b50600982018160090190816121a99190614df4565b50505050505050505050565b6000600960003373ffffffffffffffffffffffffffffffffffffffff1673ffffffffffffffffffffffffffffffffffffffff16815260200190815260200160002060000160009054906101000a900473ffffffffffffffffffffffffffffffffffffffff1673ffffffffffffffffffffffffffffffffffffffff163373ffffffffffffffffffffffffffffffffffffffff1614612287576040517f08c379a000000000000000000000000000000000000000000000000000000000815260040161227e90614f4e565b60405180910390fd5b6122903361086c565b6122cf576040517f08c379a00000000000000000000000000000000000000000000000000000000081526004016122c690614a44565b60405180910390fd5b600073ffffffffffffffffffffffffffffffffffffffff163373ffffffffffffffffffffffffffffffffffffffff160361233e576040517f08c379a000000000000000000000000000000000000000000000000000000000815260040161233590614fba565b60405180910390fd5b600a600081548092919061235190614d30565b9190505550600060066000600a5481526020019081526020016000209050898160000190816123809190614926565b50338160090160006101000a81548173ffffffffffffffffffffffffffffffffffffffff021916908373ffffffffffffffffffffffffffffffffffffffff160217905550888160010190816123d59190614926565b50868160030190816123e79190614926565b50878160020190805190602001906124009291906132af565b50600a5481600501819055508481600701908161241d9190614926565b5083816008018190555085816004018190555060008160060160006101000a81548160ff0219169083600481111561245857612457613889565b5b02179055508281600a0181905550600081600b0160006101000a81548160ff021916908315150217905550600c8190806001815401808255809150506001900390600052602060002090600d0201600090919091909150600082018160000190816124c39190614df4565b50600182018160010190816124d89190614df4565b5060028201816002019080546124ef929190613308565b50600382018160030190816125049190614df4565b5060048201548160040155600582015481600501556006820160009054906101000a900460ff168160060160006101000a81548160ff0219169083600481111561255157612550613889565b5b02179055506007820181600701908161256a9190614df4565b50600882015481600801556009820160009054906101000a900473ffffffffffffffffffffffffffffffffffffffff168160090160006101000a81548173ffffffffffffffffffffffffffffffffffffffff021916908373ffffffffffffffffffffffffffffffffffffffff160217905550600a82015481600a0155600b820160009054906101000a900460ff1681600b0160006101000a81548160ff021916908315150217905550600c820181600c0190816126279190614df4565b505050600a5491505098975050505050505050565b60046020528060005260406000206000915090508060000154908060010160009054906101000a900473ffffffffffffffffffffffffffffffffffffffff16908060020160009054906101000a900473ffffffffffffffffffffffffffffffffffffffff16908060030154908060040160009054906101000a900460ff16908060040160019054906101000a900460ff16908060040160029054906101000a900460ff16908060040160039054906101000a900460ff16908060040160049054906101000a900473ffffffffffffffffffffffffffffffffffffffff16905089565b60015481565b806004600082815260200190815260200160002060020160009054906101000a900473ffffffffffffffffffffffffffffffffffffffff1673ffffffffffffffffffffffffffffffffffffffff163373ffffffffffffffffffffffffffffffffffffffff16146127c9576040517f08c379a00000000000000000000000000000000000000000000000000000000081526004016127c09061504c565b60405180910390fd5b60006004600084815260200190815260200160002090508060040160019054906101000a900460ff16612831576040517f08c379a000000000000000000000000000000000000000000000000000000000815260040161282890614698565b60405180910390fd5b8060040160029054906101000a900460ff1615612883576040517f08c379a000000000000000000000000000000000000000000000000000000000815260040161287a906150de565b60405180910390fd5b8060040160049054906101000a900473ffffffffffffffffffffffffffffffffffffffff1673ffffffffffffffffffffffffffffffffffffffff1663e8a61cc86040518163ffffffff1660e01b8152600401600060405180830381600087803b1580156128ef57600080fd5b505af1158015612903573d6000803e3d6000fd5b5050505060048160040160006101000a81548160ff0219169083600481111561292f5761292e613889565b5b021790555060018160040160036101000a81548160ff0219169083151502179055507f303a31648d19f17852cf82657162c4bdd4a06ab3f36f1e7ae1118f4ca6473e118360405161298091906140c7565b60405180910390a1505050565b600060036000838152602001908152602001600020600080820160006129b39190613365565b6001820160006129c39190613365565b6002820160006129d391906133a5565b50506000600960003373ffffffffffffffffffffffffffffffffffffffff1673ffffffffffffffffffffffffffffffffffffffff16815260200190815260200160002060020160006101000a81548160ff0219169083151502179055506000600860003373ffffffffffffffffffffffffffffffffffffffff1673ffffffffffffffffffffffffffffffffffffffff168152602001908152602001600020600b0160006101000a81548160ff021916908315150217905550600960003373ffffffffffffffffffffffffffffffffffffffff1673ffffffffffffffffffffffffffffffffffffffff16815260200190815260200160002060020160009054906101000a900460ff169050919050565b6060600e805480602002602001604051908101604052809291908181526020016000905b82821015612cea5783829060005260206000209060030201604051806060016040529081600082018054612b3990614753565b80601f0160208091040260200160405190810160405280929190818152602001828054612b6590614753565b8015612bb25780601f10612b8757610100808354040283529160200191612bb2565b820191906000526020600020905b815481529060010190602001808311612b9557829003601f168201915b50505050508152602001600182018054612bcb90614753565b80601f0160208091040260200160405190810160405280929190818152602001828054612bf790614753565b8015612c445780601f10612c1957610100808354040283529160200191612c44565b820191906000526020600020905b815481529060010190602001808311612c2757829003601f168201915b5050505050815260200160028201805480602002602001604051908101604052809291908181526020018280548015612cd257602002820191906000526020600020905b8160009054906101000a900473ffffffffffffffffffffffffffffffffffffffff1673ffffffffffffffffffffffffffffffffffffffff1681526020019060010190808311612c88575b50505050508152505081526020019060010190612b06565b50505050905090565b6060600d805480602002602001604051908101604052809291908181526020016000905b8282101561324757838290600052602060002090600a0201604051806101400160405290816000820160009054906101000a900473ffffffffffffffffffffffffffffffffffffffff1673ffffffffffffffffffffffffffffffffffffffff1673ffffffffffffffffffffffffffffffffffffffff168152602001600182018054612da190614753565b80601f0160208091040260200160405190810160405280929190818152602001828054612dcd90614753565b8015612e1a5780601f10612def57610100808354040283529160200191612e1a565b820191906000526020600020905b815481529060010190602001808311612dfd57829003601f168201915b505050505081526020016002820160009054906101000a900460ff16151515158152602001600382018054612e4e90614753565b80601f0160208091040260200160405190810160405280929190818152602001828054612e7a90614753565b8015612ec75780601f10612e9c57610100808354040283529160200191612ec7565b820191906000526020600020905b815481529060010190602001808311612eaa57829003601f168201915b50505050508152602001600482018054612ee090614753565b80601f0160208091040260200160405190810160405280929190818152602001828054612f0c90614753565b8015612f595780601f10612f2e57610100808354040283529160200191612f59565b820191906000526020600020905b815481529060010190602001808311612f3c57829003601f168201915b50505050508152602001600582018054612f7290614753565b80601f0160208091040260200160405190810160405280929190818152602001828054612f9e90614753565b8015612feb5780601f10612fc057610100808354040283529160200191612feb565b820191906000526020600020905b815481529060010190602001808311612fce57829003601f168201915b505050505081526020016006820180548060200260200160405190810160405280929190818152602001828054801561307957602002820191906000526020600020905b8160009054906101000a900473ffffffffffffffffffffffffffffffffffffffff1673ffffffffffffffffffffffffffffffffffffffff168152602001906001019080831161302f575b5050505050815260200160078201805461309290614753565b80601f01602080910402602001604051908101604052809291908181526020018280546130be90614753565b801561310b5780601f106130e05761010080835404028352916020019161310b565b820191906000526020600020905b8154815290600101906020018083116130ee57829003601f168201915b5050505050815260200160088201805461312490614753565b80601f016020809104026020016040519081016040528092919081815260200182805461315090614753565b801561319d5780601f106131725761010080835404028352916020019161319d565b820191906000526020600020905b81548152906001019060200180831161318057829003601f168201915b505050505081526020016009820180546131b690614753565b80601f01602080910402602001604051908101604052809291908181526020018280546131e290614753565b801561322f5780601f106132045761010080835404028352916020019161322f565b820191906000526020600020905b81548152906001019060200180831161321257829003601f168201915b50505050508152505081526020019060010190612d17565b50505050905090565b611324806150ff83390190565b82805482825590600052602060002090810192821561329e5760005260206000209182015b8281111561329d578254825591600101919060010190613282565b5b5090506132ab91906133c6565b5090565b8280548282559060005260206000209081019282156132f7579160200282015b828111156132f65782518290816132e69190614926565b50916020019190600101906132cf565b5b50905061330491906133e3565b5090565b8280548282559060005260206000209081019282156133545760005260206000209182015b8281111561335357828290816133439190614df4565b509160010191906001019061332d565b5b50905061336191906133e3565b5090565b50805461337190614753565b6000825580601f1061338357506133a2565b601f0160209004906000526020600020908101906133a191906133c6565b5b50565b50805460008255906000526020600020908101906133c391906133c6565b50565b5b808211156133df5760008160009055506001016133c7565b5090565b5b8082111561340357600081816133fa9190613365565b506001016133e4565b5090565b6000604051905090565b600080fd5b600080fd5b6000819050919050565b61342e8161341b565b811461343957600080fd5b50565b60008135905061344b81613425565b92915050565b60008115159050919050565b61346681613451565b811461347157600080fd5b50565b6000813590506134838161345d565b92915050565b600080604083850312156134a05761349f613411565b5b60006134ae8582860161343c565b92505060206134bf85828601613474565b9150509250929050565b600080fd5b600080fd5b6000601f19601f8301169050919050565b7f4e487b7100000000000000000000000000000000000000000000000000000000600052604160045260246000fd5b61351c826134d3565b810181811067ffffffffffffffff8211171561353b5761353a6134e4565b5b80604052505050565b600061354e613407565b905061355a8282613513565b919050565b600067ffffffffffffffff82111561357a576135796134e4565b5b613583826134d3565b9050602081019050919050565b82818337600083830152505050565b60006135b26135ad8461355f565b613544565b9050828152602081018484840111156135ce576135cd6134ce565b5b6135d9848285613590565b509392505050565b600082601f8301126135f6576135f56134c9565b5b813561360684826020860161359f565b91505092915050565b60006020828403121561362557613624613411565b5b600082013567ffffffffffffffff81111561364357613642613416565b5b61364f848285016135e1565b91505092915050565b600073ffffffffffffffffffffffffffffffffffffffff82169050919050565b600061368382613658565b9050919050565b61369381613678565b811461369e57600080fd5b50565b6000813590506136b08161368a565b92915050565b6000602082840312156136cc576136cb613411565b5b60006136da848285016136a1565b91505092915050565b6136ec81613451565b82525050565b600060208201905061370760008301846136e3565b92915050565b600081519050919050565b600082825260208201905092915050565b6000819050602082019050919050565b600081519050919050565b600082825260208201905092915050565b60005b83811015613773578082015181840152602081019050613758565b60008484015250505050565b600061378a82613739565b6137948185613744565b93506137a4818560208601613755565b6137ad816134d3565b840191505092915050565b600081519050919050565b600082825260208201905092915050565b6000819050602082019050919050565b60006137f0838361377f565b905092915050565b6000602082019050919050565b6000613810826137b8565b61381a81856137c3565b93508360208202850161382c856137d4565b8060005b85811015613868578484038952815161384985826137e4565b9450613854836137f8565b925060208a01995050600181019050613830565b50829750879550505050505092915050565b6138838161341b565b82525050565b7f4e487b7100000000000000000000000000000000000000000000000000000000600052602160045260246000fd5b600581106138c9576138c8613889565b5b50565b60008190506138da826138b8565b919050565b60006138ea826138cc565b9050919050565b6138fa816138df565b82525050565b600061390b82613658565b9050919050565b61391b81613900565b82525050565b61392a81613451565b82525050565b60006101a083016000830151848203600086015261394e828261377f565b91505060208301518482036020860152613968828261377f565b915050604083015184820360408601526139828282613805565b9150506060830151848203606086015261399c828261377f565b91505060808301516139b1608086018261387a565b5060a08301516139c460a086018261387a565b5060c08301516139d760c08601826138f1565b5060e083015184820360e08601526139ef828261377f565b915050610100830151613a0661010086018261387a565b50610120830151613a1b610120860182613912565b50610140830151613a3061014086018261387a565b50610160830151613a45610160860182613921565b50610180830151848203610180860152613a5f828261377f565b9150508091505092915050565b6000613a788383613930565b905092915050565b6000602082019050919050565b6000613a988261370d565b613aa28185613718565b935083602082028501613ab485613729565b8060005b85811015613af05784840389528151613ad18582613a6c565b9450613adc83613a80565b925060208a01995050600181019050613ab8565b50829750879550505050505092915050565b60006020820190508181036000830152613b1c8184613a8d565b905092915050565b600081519050919050565b600082825260208201905092915050565b6000819050602082019050919050565b613b5981613678565b82525050565b6000819050919050565b6000613b84613b7f613b7a84613658565b613b5f565b613658565b9050919050565b6000613b9682613b69565b9050919050565b6000613ba882613b8b565b9050919050565b613bb881613b9d565b82525050565b61012082016000820151613bd5600085018261387a565b506020820151613be86020850182613b50565b506040820151613bfb6040850182613b50565b506060820151613c0e606085018261387a565b506080820151613c2160808501826138f1565b5060a0820151613c3460a0850182613921565b5060c0820151613c4760c0850182613921565b5060e0820151613c5a60e0850182613921565b50610100820151613c6f610100850182613baf565b50505050565b6000613c818383613bbe565b6101208301905092915050565b6000602082019050919050565b6000613ca682613b24565b613cb08185613b2f565b9350613cbb83613b40565b8060005b83811015613cec578151613cd38882613c75565b9750613cde83613c8e565b925050600181019050613cbf565b5085935050505092915050565b60006020820190508181036000830152613d138184613c9b565b905092915050565b60008060408385031215613d3257613d31613411565b5b6000613d408582860161343c565b9250506020613d518582860161343c565b9150509250929050565b60008060008060008060c08789031215613d7857613d77613411565b5b600087013567ffffffffffffffff811115613d9657613d95613416565b5b613da289828a016135e1565b965050602087013567ffffffffffffffff811115613dc357613dc2613416565b5b613dcf89828a016135e1565b955050604087013567ffffffffffffffff811115613df057613def613416565b5b613dfc89828a016135e1565b945050606087013567ffffffffffffffff811115613e1d57613e1c613416565b5b613e2989828a016135e1565b935050608087013567ffffffffffffffff811115613e4a57613e49613416565b5b613e5689828a016135e1565b92505060a087013567ffffffffffffffff811115613e7757613e76613416565b5b613e8389828a016135e1565b9150509295509295509295565b600067ffffffffffffffff821115613eab57613eaa6134e4565b5b602082029050602081019050919050565b600080fd5b6000613ed4613ecf84613e90565b613544565b90508083825260208201905060208402830185811115613ef757613ef6613ebc565b5b835b81811015613f3e57803567ffffffffffffffff811115613f1c57613f1b6134c9565b5b808601613f2989826135e1565b85526020850194505050602081019050613ef9565b5050509392505050565b600082601f830112613f5d57613f5c6134c9565b5b8135613f6d848260208601613ec1565b91505092915050565b600080600080600080600080610100898b031215613f9757613f96613411565b5b600089013567ffffffffffffffff811115613fb557613fb4613416565b5b613fc18b828c016135e1565b985050602089013567ffffffffffffffff811115613fe257613fe1613416565b5b613fee8b828c016135e1565b975050604089013567ffffffffffffffff81111561400f5761400e613416565b5b61401b8b828c01613f48565b965050606089013567ffffffffffffffff81111561403c5761403b613416565b5b6140488b828c016135e1565b95505060806140598b828c0161343c565b94505060a089013567ffffffffffffffff81111561407a57614079613416565b5b6140868b828c016135e1565b93505060c06140978b828c0161343c565b92505060e06140a88b828c0161343c565b9150509295985092959890939650565b6140c18161341b565b82525050565b60006020820190506140dc60008301846140b8565b92915050565b6000602082840312156140f8576140f7613411565b5b60006141068482850161343c565b91505092915050565b61411881613678565b82525050565b614127816138df565b82525050565b61413681613b9d565b82525050565b600061012082019050614152600083018c6140b8565b61415f602083018b61410f565b61416c604083018a61410f565b61417960608301896140b8565b614186608083018861411e565b61419360a08301876136e3565b6141a060c08301866136e3565b6141ad60e08301856136e3565b6141bb61010083018461412d565b9a9950505050505050505050565b600081519050919050565b600082825260208201905092915050565b6000819050602082019050919050565b600081519050919050565b600082825260208201905092915050565b6000819050602082019050919050565b600061422d8383613b50565b60208301905092915050565b6000602082019050919050565b6000614251826141f5565b61425b8185614200565b935061426683614211565b8060005b8381101561429757815161427e8882614221565b975061428983614239565b92505060018101905061426a565b5085935050505092915050565b600060608301600083015184820360008601526142c1828261377f565b915050602083015184820360208601526142db828261377f565b915050604083015184820360408601526142f58282614246565b9150508091505092915050565b600061430e83836142a4565b905092915050565b6000602082019050919050565b600061432e826141c9565b61433881856141d4565b93508360208202850161434a856141e5565b8060005b8581101561438657848403895281516143678582614302565b945061437283614316565b925060208a0199505060018101905061434e565b50829750879550505050505092915050565b600060208201905081810360008301526143b28184614323565b905092915050565b600081519050919050565b600082825260208201905092915050565b6000819050602082019050919050565b6000610140830160008301516143ff6000860182613b50565b5060208301518482036020860152614417828261377f565b915050604083015161442c6040860182613921565b5060608301518482036060860152614444828261377f565b9150506080830151848203608086015261445e828261377f565b91505060a083015184820360a0860152614478828261377f565b91505060c083015184820360c08601526144928282614246565b91505060e083015184820360e08601526144ac828261377f565b9150506101008301518482036101008601526144c8828261377f565b9150506101208301518482036101208601526144e4828261377f565b9150508091505092915050565b60006144fd83836143e6565b905092915050565b6000602082019050919050565b600061451d826143ba565b61452781856143c5565b935083602082028501614539856143d6565b8060005b85811015614575578484038952815161455685826144f1565b945061456183614505565b925060208a0199505060018101905061453d565b50829750879550505050505092915050565b600060208201905081810360008301526145a18184614512565b905092915050565b600082825260208201905092915050565b7f4f6e6c79207468652062757965722063616e2063616c6c20746869732066756e60008201527f6374696f6e2e0000000000000000000000000000000000000000000000000000602082015250565b60006146166026836145a9565b9150614621826145ba565b604082019050919050565b6000602082019050818103600083015261464581614609565b9050919050565b7f5061796d656e7420686173206e6f74206265656e206d6164652e000000000000600082015250565b6000614682601a836145a9565b915061468d8261464c565b602082019050919050565b600060208201905081810360008301526146b181614675565b9050919050565b7f4f7264657220686173206e6f74206265656e20736869707065642e0000000000600082015250565b60006146ee601b836145a9565b91506146f9826146b8565b602082019050919050565b6000602082019050818103600083015261471d816146e1565b9050919050565b7f4e487b7100000000000000000000000000000000000000000000000000000000600052602260045260246000fd5b6000600282049050600182168061476b57607f821691505b60208210810361477e5761477d614724565b5b50919050565b60008190508160005260206000209050919050565b60006020601f8301049050919050565b600082821b905092915050565b6000600883026147e67fffffffffffffffffffffffffffffffffffffffffffffffffffffffffffffffff826147a9565b6147f086836147a9565b95508019841693508086168417925050509392505050565b600061482361481e6148198461341b565b613b5f565b61341b565b9050919050565b6000819050919050565b61483d83614808565b6148516148498261482a565b8484546147b6565b825550505050565b600090565b614866614859565b614871818484614834565b505050565b5b818110156148955761488a60008261485e565b600181019050614877565b5050565b601f8211156148da576148ab81614784565b6148b484614799565b810160208510156148c3578190505b6148d76148cf85614799565b830182614876565b50505b505050565b600082821c905092915050565b60006148fd600019846008026148df565b1980831691505092915050565b600061491683836148ec565b9150826002028217905092915050565b61492f82613739565b67ffffffffffffffff811115614948576149476134e4565b5b6149528254614753565b61495d828285614899565b600060209050601f831160018114614990576000841561497e578287015190505b614988858261490a565b8655506149f0565b601f19841661499e86614784565b60005b828110156149c6578489015182556001820191506020850194506020810190506149a1565b868310156149e357848901516149df601f8916826148ec565b8355505b6001600288020188555050505b505050505050565b7f53746f726520646f6573206e6f742065786973742e0000000000000000000000600082015250565b6000614a2e6015836145a9565b9150614a39826149f8565b602082019050919050565b60006020820190508181036000830152614a5d81614a21565b9050919050565b600081549050614a7381614753565b9050919050565b60008190508160005260206000209050919050565b818103614a9d575050614b75565b614aa682614a64565b67ffffffffffffffff811115614abf57614abe6134e4565b5b614ac98254614753565b614ad4828285614899565b6000601f831160018114614b035760008415614af1578287015490505b614afb858261490a565b865550614b6e565b601f198416614b1187614a7a565b9650614b1c86614784565b60005b82811015614b4457848901548255600182019150600185019450602081019050614b1f565b86831015614b615784890154614b5d601f8916826148ec565b8355505b6001600288020188555050505b5050505050505b565b7f496e73756666696369656e74207061796d656e742e0000000000000000000000600082015250565b6000614bad6015836145a9565b9150614bb882614b77565b602082019050919050565b60006020820190508181036000830152614bdc81614ba0565b9050919050565b7f5061796d656e742068617320616c7265616479206265656e206d6164652e0000600082015250565b6000614c19601e836145a9565b9150614c2482614be3565b602082019050919050565b60006020820190508181036000830152614c4881614c0c565b9050919050565b7f50726f64756374206973206e6f7420617661696c61626c652e00000000000000600082015250565b6000614c856019836145a9565b9150614c9082614c4f565b602082019050919050565b60006020820190508181036000830152614cb481614c78565b9050919050565b614cc481613900565b82525050565b6000606082019050614cdf6000830186614cbb565b614cec602083018561410f565b614cf960408301846140b8565b949350505050565b7f4e487b7100000000000000000000000000000000000000000000000000000000600052601160045260246000fd5b6000614d3b8261341b565b91507fffffffffffffffffffffffffffffffffffffffffffffffffffffffffffffffff8203614d6d57614d6c614d01565b5b600182019050919050565b6000614d8382613b8b565b9050919050565b614d9381614d78565b82525050565b6000608082019050614dae60008301876140b8565b614dbb602083018661410f565b614dc86040830185614d8a565b614dd560608301846140b8565b95945050505050565b600081549050614ded81614753565b9050919050565b818103614e02575050614eda565b614e0b82614dde565b67ffffffffffffffff811115614e2457614e236134e4565b5b614e2e8254614753565b614e39828285614899565b6000601f831160018114614e685760008415614e56578287015490505b614e60858261490a565b865550614ed3565b601f198416614e7687614784565b9650614e8186614784565b60005b82811015614ea957848901548255600182019150600185019450602081019050614e84565b86831015614ec65784890154614ec2601f8916826148ec565b8355505b6001600288020188555050505b5050505050505b565b7f4f6e6c792074686520636f6e7472616374206f776e65722063616e2063616c6c60008201527f20746869732066756e6374696f6e2e0000000000000000000000000000000000602082015250565b6000614f38602f836145a9565b9150614f4382614edc565b604082019050919050565b60006020820190508181036000830152614f6781614f2b565b9050919050565b7f496e76616c69642073656e64657220616464726573732e000000000000000000600082015250565b6000614fa46017836145a9565b9150614faf82614f6e565b602082019050919050565b60006020820190508181036000830152614fd381614f97565b9050919050565b7f4f6e6c79207468652073656c6c65722063616e2063616c6c207468697320667560008201527f6e6374696f6e2e00000000000000000000000000000000000000000000000000602082015250565b60006150366027836145a9565b915061504182614fda565b604082019050919050565b6000602082019050818103600083015261506581615029565b9050919050565b7f4f726465722068617320616c7265616479206265656e2066756c66696c6c656460008201527f2e00000000000000000000000000000000000000000000000000000000000000602082015250565b60006150c86021836145a9565b91506150d38261506c565b604082019050919050565b600060208201905081810360008301526150f7816150bb565b905091905056fe608060405234801561001057600080fd5b50611304806100206000396000f3fe6080604052600436106100a75760003560e01c8063a035b1fe11610064578063a035b1fe1461019f578063d0e30db0146101ca578063e8a61cc8146101d4578063ed11d7a8146101eb578063fa0af12a14610202578063fe25e00a1461022b576100a7565b806308551a53146100ac5780631794bb3c146100d7578063209ebc08146100f35780636f9fb98a1461011e5780637150d8ae14610149578063765f744c14610174575b600080fd5b3480156100b857600080fd5b506100c1610256565b6040516100ce9190610d29565b60405180910390f35b6100f160048036038101906100ec9190610de9565b61027c565b005b3480156100ff57600080fd5b5061010861038d565b6040516101159190610e57565b60405180910390f35b34801561012a57600080fd5b506101336103a0565b6040516101409190610e81565b60405180910390f35b34801561015557600080fd5b5061015e6103a8565b60405161016b9190610d29565b60405180910390f35b34801561018057600080fd5b506101896103cc565b6040516101969190610e57565b60405180910390f35b3480156101ab57600080fd5b506101b46103df565b6040516101c19190610e81565b60405180910390f35b6101d26103e5565b005b3480156101e057600080fd5b506101e9610584565b005b3480156101f757600080fd5b506102006107e5565b005b34801561020e57600080fd5b5061022960048036038101906102249190610ec8565b6109a8565b005b34801561023757600080fd5b50610240610cc2565b60405161024d9190610d29565b60405180910390f35b600160009054906101000a900473ffffffffffffffffffffffffffffffffffffffff1681565b6000341161028957600080fd5b336000806101000a81548173ffffffffffffffffffffffffffffffffffffffff021916908373ffffffffffffffffffffffffffffffffffffffff16021790555082600160006101000a81548173ffffffffffffffffffffffffffffffffffffffff021916908373ffffffffffffffffffffffffffffffffffffffff16021790555081600260006101000a81548173ffffffffffffffffffffffffffffffffffffffff021916908373ffffffffffffffffffffffffffffffffffffffff160217905550806003819055506000600460006101000a81548160ff0219169083151502179055506000600460016101000a81548160ff021916908315150217905550505050565b600460009054906101000a900460ff1681565b600047905090565b60008054906101000a900473ffffffffffffffffffffffffffffffffffffffff1681565b600460019054906101000a900460ff1681565b60035481565b60008054906101000a900473ffffffffffffffffffffffffffffffffffffffff1673ffffffffffffffffffffffffffffffffffffffff163373ffffffffffffffffffffffffffffffffffffffff1614610473576040517f08c379a000000000000000000000000000000000000000000000000000000000815260040161046a90610f78565b60405180910390fd5b600460009054906101000a900460ff1615801561049d5750600460019054906101000a900460ff16155b6104dc576040517f08c379a00000000000000000000000000000000000000000000000000000000081526004016104d390610fe4565b60405180910390fd5b6003543414610520576040517f08c379a000000000000000000000000000000000000000000000000000000000815260040161051790611050565b60405180910390fd5b3073ffffffffffffffffffffffffffffffffffffffff166108fc349081150290604051600060405180830381858888f19350505050158015610566573d6000803e3d6000fd5b506001600460006101000a81548160ff021916908315150217905550565b60008054906101000a900473ffffffffffffffffffffffffffffffffffffffff1673ffffffffffffffffffffffffffffffffffffffff163373ffffffffffffffffffffffffffffffffffffffff1614610612576040517f08c379a000000000000000000000000000000000000000000000000000000000815260040161060990610f78565b60405180910390fd5b600460009054906101000a900460ff16610661576040517f08c379a0000000000000000000000000000000000000000000000000000000008152600401610658906110bc565b60405180910390fd5b600460019054906101000a900460ff16156106b1576040517f08c379a00000000000000000000000000000000000000000000000000000000081526004016106a890611128565b60405180910390fd5b60008054906101000a900473ffffffffffffffffffffffffffffffffffffffff1673ffffffffffffffffffffffffffffffffffffffff166108fc6003549081150290604051600060405180830381858888f19350505050158015610719573d6000803e3d6000fd5b507fdf20fd1e76bc69d672e4814fafb2c449bba3a5369d8359adf9e05e6fde87b05660008054906101000a900473ffffffffffffffffffffffffffffffffffffffff1660035460405161076d9291906111a7565b60405180910390a16000600460006101000a81548160ff0219169083151502179055506001600460016101000a81548160ff0219169083151502179055507f03445cb5f8dea2a1372e8ac1ea53d21c0c5fbb0cc7dfe8af6d56a5414827179d60006040516107db9190610e57565b60405180910390a1565b600260009054906101000a900473ffffffffffffffffffffffffffffffffffffffff1673ffffffffffffffffffffffffffffffffffffffff163373ffffffffffffffffffffffffffffffffffffffff1614610875576040517f08c379a000000000000000000000000000000000000000000000000000000000815260040161086c90611242565b60405180910390fd5b600460009054906101000a900460ff16801561089d5750600460019054906101000a900460ff165b6108dc576040517f08c379a00000000000000000000000000000000000000000000000000000000081526004016108d3906112ae565b60405180910390fd5b6000479050600260009054906101000a900473ffffffffffffffffffffffffffffffffffffffff1673ffffffffffffffffffffffffffffffffffffffff166108fc829081150290604051600060405180830381858888f19350505050158015610949573d6000803e3d6000fd5b507fdf20fd1e76bc69d672e4814fafb2c449bba3a5369d8359adf9e05e6fde87b056600260009054906101000a900473ffffffffffffffffffffffffffffffffffffffff168260405161099d9291906111a7565b60405180910390a150565b60008054906101000a900473ffffffffffffffffffffffffffffffffffffffff1673ffffffffffffffffffffffffffffffffffffffff163373ffffffffffffffffffffffffffffffffffffffff1614610a36576040517f08c379a0000000000000000000000000000000000000000000000000000000008152600401610a2d90610f78565b60405180910390fd5b600460009054906101000a900460ff16610a85576040517f08c379a0000000000000000000000000000000000000000000000000000000008152600401610a7c906110bc565b60405180910390fd5b600460019054906101000a900460ff1615610ad5576040517f08c379a0000000000000000000000000000000000000000000000000000000008152600401610acc90611128565b60405180910390fd5b8015610ba857600160009054906101000a900473ffffffffffffffffffffffffffffffffffffffff1673ffffffffffffffffffffffffffffffffffffffff166108fc6003549081150290604051600060405180830381858888f19350505050158015610b45573d6000803e3d6000fd5b507fdf20fd1e76bc69d672e4814fafb2c449bba3a5369d8359adf9e05e6fde87b056600160009054906101000a900473ffffffffffffffffffffffffffffffffffffffff16600354604051610b9b9291906111a7565b60405180910390a1610c6d565b60008054906101000a900473ffffffffffffffffffffffffffffffffffffffff1673ffffffffffffffffffffffffffffffffffffffff166108fc6003549081150290604051600060405180830381858888f19350505050158015610c10573d6000803e3d6000fd5b507fdf20fd1e76bc69d672e4814fafb2c449bba3a5369d8359adf9e05e6fde87b05660008054906101000a900473ffffffffffffffffffffffffffffffffffffffff16600354604051610c649291906111a7565b60405180910390a15b6001600460016101000a81548160ff0219169083151502179055507f03445cb5f8dea2a1372e8ac1ea53d21c0c5fbb0cc7dfe8af6d56a5414827179d81604051610cb79190610e57565b60405180910390a150565b600260009054906101000a900473ffffffffffffffffffffffffffffffffffffffff1681565b600073ffffffffffffffffffffffffffffffffffffffff82169050919050565b6000610d1382610ce8565b9050919050565b610d2381610d08565b82525050565b6000602082019050610d3e6000830184610d1a565b92915050565b600080fd5b610d5281610d08565b8114610d5d57600080fd5b50565b600081359050610d6f81610d49565b92915050565b6000610d8082610ce8565b9050919050565b610d9081610d75565b8114610d9b57600080fd5b50565b600081359050610dad81610d87565b92915050565b6000819050919050565b610dc681610db3565b8114610dd157600080fd5b50565b600081359050610de381610dbd565b92915050565b600080600060608486031215610e0257610e01610d44565b5b6000610e1086828701610d60565b9350506020610e2186828701610d9e565b9250506040610e3286828701610dd4565b9150509250925092565b60008115159050919050565b610e5181610e3c565b82525050565b6000602082019050610e6c6000830184610e48565b92915050565b610e7b81610db3565b82525050565b6000602082019050610e966000830184610e72565b92915050565b610ea581610e3c565b8114610eb057600080fd5b50565b600081359050610ec281610e9c565b92915050565b600060208284031215610ede57610edd610d44565b5b6000610eec84828501610eb3565b91505092915050565b600082825260208201905092915050565b7f4f6e6c792062757965722063616e2063616c6c20746869732066756e6374696f60008201527f6e2e000000000000000000000000000000000000000000000000000000000000602082015250565b6000610f62602283610ef5565b9150610f6d82610f06565b604082019050919050565b60006020820190508181036000830152610f9181610f55565b9050919050565b7f457363726f7720697320616c726561647920636f6d706c657465642e00000000600082015250565b6000610fce601c83610ef5565b9150610fd982610f98565b602082019050919050565b60006020820190508181036000830152610ffd81610fc1565b9050919050565b7f496e636f7272656374206465706f73697420616d6f756e742e00000000000000600082015250565b600061103a601983610ef5565b915061104582611004565b602082019050919050565b600060208201905081810360008301526110698161102d565b9050919050565b7f5061796d656e7420686173206e6f74206265656e206d6164652e000000000000600082015250565b60006110a6601a83610ef5565b91506110b182611070565b602082019050919050565b600060208201905081810360008301526110d581611099565b9050919050565b7f44656c697665727920697320616c726561647920636f6e6669726d65642e0000600082015250565b6000611112601e83610ef5565b915061111d826110dc565b602082019050919050565b6000602082019050818103600083015261114181611105565b9050919050565b6000819050919050565b600061116d61116861116384610ce8565b611148565b610ce8565b9050919050565b600061117f82611152565b9050919050565b600061119182611174565b9050919050565b6111a181611186565b82525050565b60006040820190506111bc6000830185611198565b6111c96020830184610e72565b9392505050565b7f4f6e6c7920617262697465722063616e2063616c6c20746869732066756e637460008201527f696f6e2e00000000000000000000000000000000000000000000000000000000602082015250565b600061122c602483610ef5565b9150611237826111d0565b604082019050919050565b6000602082019050818103600083015261125b8161121f565b9050919050565b7f457363726f77206973206e6f7420636f6d706c65746564207965742e00000000600082015250565b6000611298601c83610ef5565b91506112a382611262565b602082019050919050565b600060208201905081810360008301526112c78161128b565b905091905056fea2646970667358221220fe961fe03635b32a2407ba288b2bd1cbfcf6d7706f151d9aaf134203356f023564736f6c63430008120033a264697066735822122076ea2b60937eeb97e1d68462c9bf8c5c8315a264e6c02634a6649194094d53b864736f6c63430008120033",
  "linkReferences": {},
  "deployedLinkReferences": {}
}