{
  "_format": "hh-sol-artifact-1",
  "contractName": "Products",
  "sourceName": "contracts/Products.sol",
  "abi": [
    {
      "anonymous": false,
      "inputs": [
        {
          "indexed": false,
          "internalType": "uint256",
          "name": "orderId",
          "type": "uint256"
        },
        {
          "indexed": false,
          "internalType": "address",
          "name": "buyer",
          "type": "address"
        },
        {
          "indexed": false,
          "internalType": "address",
          "name": "seller",
          "type": "address"
        },
        {
          "indexed": false,
          "internalType": "uint256",
          "name": "price",
          "type": "uint256"
        }
      ],
      "name": "OrderCreated",
      "type": "event"
    },
    {
      "anonymous": false,
      "inputs": [
        {
          "indexed": false,
          "internalType": "uint256",
          "name": "orderId",
          "type": "uint256"
        }
      ],
      "name": "OrderDelivered",
      "type": "event"
    },
    {
      "anonymous": false,
      "inputs": [
        {
          "indexed": false,
          "internalType": "uint256",
          "name": "orderId",
          "type": "uint256"
        }
      ],
      "name": "OrderRefunded",
      "type": "event"
    },
    {
      "inputs": [
        {
          "internalType": "string",
          "name": "_name",
          "type": "string"
        },
        {
          "internalType": "string",
          "name": "_category",
          "type": "string"
        },
        {
          "internalType": "string",
          "name": "_imageLink",
          "type": "string"
        },
        {
          "internalType": "string",
          "name": "_descLink",
          "type": "string"
        },
        {
          "internalType": "uint256",
          "name": "_price",
          "type": "uint256"
        },
        {
          "internalType": "string",
          "name": "_location",
          "type": "string"
        },
        {
          "internalType": "uint256",
          "name": "_maxQuantity",
          "type": "uint256"
        },
        {
          "internalType": "uint256",
          "name": "_refundTimeLimit",
          "type": "uint256"
        }
      ],
      "name": "addProduct",
      "outputs": [
        {
          "internalType": "uint256",
          "name": "",
          "type": "uint256"
        }
      ],
      "stateMutability": "nonpayable",
      "type": "function"
    },
    {
      "inputs": [
        {
          "internalType": "address",
          "name": "",
          "type": "address"
        }
      ],
      "name": "arbiters",
      "outputs": [
        {
          "internalType": "bool",
          "name": "",
          "type": "bool"
        }
      ],
      "stateMutability": "view",
      "type": "function"
    },
    {
      "inputs": [
        {
          "internalType": "uint256",
          "name": "_id",
          "type": "uint256"
        }
      ],
      "name": "cancelLive",
      "outputs": [
        {
          "internalType": "bool",
          "name": "",
          "type": "bool"
        }
      ],
      "stateMutability": "nonpayable",
      "type": "function"
    },
    {
      "inputs": [
        {
          "internalType": "address",
          "name": "pubkey",
          "type": "address"
        }
      ],
      "name": "checkUserExists",
      "outputs": [
        {
          "internalType": "bool",
          "name": "",
          "type": "bool"
        }
      ],
      "stateMutability": "view",
      "type": "function"
    },
    {
      "inputs": [
        {
          "internalType": "uint256",
          "name": "_orderId",
          "type": "uint256"
        },
        {
          "internalType": "bool",
          "name": "_success",
          "type": "bool"
        }
      ],
      "name": "confirmDelivery",
      "outputs": [],
      "stateMutability": "nonpayable",
      "type": "function"
    },
    {
      "inputs": [
        {
          "internalType": "string",
          "name": "_storeName",
          "type": "string"
        },
        {
          "internalType": "string",
          "name": "_category",
          "type": "string"
        },
        {
          "internalType": "string",
          "name": "_name",
          "type": "string"
        },
        {
          "internalType": "string",
          "name": "_lastName",
          "type": "string"
        },
        {
          "internalType": "string",
          "name": "_description",
          "type": "string"
        },
        {
          "internalType": "string",
          "name": "_location",
          "type": "string"
        }
      ],
      "name": "createAStore",
      "outputs": [],
      "stateMutability": "nonpayable",
      "type": "function"
    },
    {
      "inputs": [],
      "name": "getAllOrder",
      "outputs": [
        {
          "components": [
            {
              "internalType": "uint256",
              "name": "orderId",
              "type": "uint256"
            },
            {
              "internalType": "address",
              "name": "buyer",
              "type": "address"
            },
            {
              "internalType": "address",
              "name": "seller",
              "type": "address"
            },
            {
              "internalType": "uint256",
              "name": "price",
              "type": "uint256"
            },
            {
              "internalType": "enum Products.OrderStatus",
              "name": "status",
              "type": "uint8"
            },
            {
              "internalType": "bool",
              "name": "isPaid",
              "type": "bool"
            },
            {
              "internalType": "bool",
              "name": "isFulfilled",
              "type": "bool"
            },
            {
              "internalType": "bool",
              "name": "isRefunded",
              "type": "bool"
            },
            {
              "internalType": "contract Escrow",
              "name": "escrow",
              "type": "address"
            }
          ],
          "internalType": "struct Products.Order[]",
          "name": "",
          "type": "tuple[]"
        }
      ],
      "stateMutability": "view",
      "type": "function"
    },
    {
      "inputs": [],
      "name": "getLiveDetail",
      "outputs": [
        {
          "components": [
            {
              "internalType": "string",
              "name": "callId",
              "type": "string"
            },
            {
              "internalType": "string",
              "name": "storeName",
              "type": "string"
            },
            {
              "internalType": "address[]",
              "name": "participant",
              "type": "address[]"
            }
          ],
          "internalType": "struct Products.Live[]",
          "name": "",
          "type": "tuple[]"
        }
      ],
      "stateMutability": "view",
      "type": "function"
    },
    {
      "inputs": [
        {
          "internalType": "address",
          "name": "_owner",
          "type": "address"
        }
      ],
      "name": "getProductByAddress",
      "outputs": [
        {
          "components": [
            {
              "internalType": "string",
              "name": "name",
              "type": "string"
            },
            {
              "internalType": "string",
              "name": "category",
              "type": "string"
            },
            {
              "internalType": "string",
              "name": "imageLink",
              "type": "string"
            },
            {
              "internalType": "string",
              "name": "descLink",
              "type": "string"
            },
            {
              "internalType": "uint256",
              "name": "price",
              "type": "uint256"
            },
            {
              "internalType": "uint256",
              "name": "index",
              "type": "uint256"
            },
            {
              "internalType": "enum Products.OrderStatus",
              "name": "status",
              "type": "uint8"
            },
            {
              "internalType": "uint256",
              "name": "quantity",
              "type": "uint256"
            },
            {
              "internalType": "string",
              "name": "location",
              "type": "string"
            },
            {
              "internalType": "uint256",
              "name": "maxQuantity",
              "type": "uint256"
            },
            {
              "internalType": "address payable",
              "name": "owner",
              "type": "address"
            },
            {
              "internalType": "uint256",
              "name": "refundTimeLimit",
              "type": "uint256"
            }
          ],
          "internalType": "struct Products.Product[]",
          "name": "",
          "type": "tuple[]"
        }
      ],
      "stateMutability": "view",
      "type": "function"
    },
    {
      "inputs": [],
      "name": "getProductDetails",
      "outputs": [
        {
          "components": [
            {
              "internalType": "string",
              "name": "name",
              "type": "string"
            },
            {
              "internalType": "string",
              "name": "category",
              "type": "string"
            },
            {
              "internalType": "string",
              "name": "imageLink",
              "type": "string"
            },
            {
              "internalType": "string",
              "name": "descLink",
              "type": "string"
            },
            {
              "internalType": "uint256",
              "name": "price",
              "type": "uint256"
            },
            {
              "internalType": "uint256",
              "name": "index",
              "type": "uint256"
            },
            {
              "internalType": "enum Products.OrderStatus",
              "name": "status",
              "type": "uint8"
            },
            {
              "internalType": "uint256",
              "name": "quantity",
              "type": "uint256"
            },
            {
              "internalType": "string",
              "name": "location",
              "type": "string"
            },
            {
              "internalType": "uint256",
              "name": "maxQuantity",
              "type": "uint256"
            },
            {
              "internalType": "address payable",
              "name": "owner",
              "type": "address"
            },
            {
              "internalType": "uint256",
              "name": "refundTimeLimit",
              "type": "uint256"
            }
          ],
          "internalType": "struct Products.Product[]",
          "name": "",
          "type": "tuple[]"
        }
      ],
      "stateMutability": "view",
      "type": "function"
    },
    {
      "inputs": [],
      "name": "getStoreDetails",
      "outputs": [
        {
          "components": [
            {
              "internalType": "address",
              "name": "owner",
              "type": "address"
            },
            {
              "internalType": "string",
              "name": "storeName",
              "type": "string"
            },
            {
              "internalType": "bool",
              "name": "isSellerActive",
              "type": "bool"
            },
            {
              "internalType": "string",
              "name": "category",
              "type": "string"
            },
            {
              "internalType": "string",
              "name": "name",
              "type": "string"
            },
            {
              "internalType": "string",
              "name": "lastName",
              "type": "string"
            },
            {
              "internalType": "address[]",
              "name": "customer",
              "type": "address[]"
            },
            {
              "internalType": "string",
              "name": "description",
              "type": "string"
            },
            {
              "internalType": "string",
              "name": "meetingId",
              "type": "string"
            },
            {
              "internalType": "string",
              "name": "location",
              "type": "string"
            }
          ],
          "internalType": "struct Products.Store[]",
          "name": "",
          "type": "tuple[]"
        }
      ],
      "stateMutability": "view",
      "type": "function"
    },
    {
      "inputs": [],
      "name": "orderIdCounter",
      "outputs": [
        {
          "internalType": "uint256",
          "name": "",
          "type": "uint256"
        }
      ],
      "stateMutability": "view",
      "type": "function"
    },
    {
      "inputs": [
        {
          "internalType": "uint256",
          "name": "",
          "type": "uint256"
        }
      ],
      "name": "orders",
      "outputs": [
        {
          "internalType": "uint256",
          "name": "orderId",
          "type": "uint256"
        },
        {
          "internalType": "address",
          "name": "buyer",
          "type": "address"
        },
        {
          "internalType": "address",
          "name": "seller",
          "type": "address"
        },
        {
          "internalType": "uint256",
          "name": "price",
          "type": "uint256"
        },
        {
          "internalType": "enum Products.OrderStatus",
          "name": "status",
          "type": "uint8"
        },
        {
          "internalType": "bool",
          "name": "isPaid",
          "type": "bool"
        },
        {
          "internalType": "bool",
          "name": "isFulfilled",
          "type": "bool"
        },
        {
          "internalType": "bool",
          "name": "isRefunded",
          "type": "bool"
        },
        {
          "internalType": "contract Escrow",
          "name": "escrow",
          "type": "address"
        }
      ],
      "stateMutability": "view",
      "type": "function"
    },
    {
      "inputs": [
        {
          "internalType": "uint256",
          "name": "id",
          "type": "uint256"
        },
        {
          "internalType": "uint256",
          "name": "_price",
          "type": "uint256"
        },
        {
          "internalType": "address payable",
          "name": "_arbiter",
          "type": "address"
        }
      ],
      "name": "placeOrder",
      "outputs": [],
      "stateMutability": "payable",
      "type": "function"
    },
    {
      "inputs": [
        {
          "internalType": "uint256",
          "name": "_orderId",
          "type": "uint256"
        }
      ],
      "name": "refundOrder",
      "outputs": [],
      "stateMutability": "nonpayable",
      "type": "function"
    },
    {
      "inputs": [
        {
          "internalType": "string",
          "name": "_callId",
          "type": "string"
        }
      ],
      "name": "startStream",
      "outputs": [
        {
          "internalType": "bool",
          "name": "",
          "type": "bool"
        }
      ],
      "stateMutability": "nonpayable",
      "type": "function"
    }
  ],
  "bytecode": "0x608060405234801561001057600080fd5b50615d56806100206000396000f3fe6080604052600436106100f35760003560e01c806393cd5a1f1161008a578063e35f968011610059578063e35f968014610349578063e57e4a9414610386578063f56a589d146103b1578063fe04eb2d146103ee576100f3565b806393cd5a1f14610287578063a85c38ef146102b0578063be374423146102f5578063c018c45714610320576100f3565b80633dfbbad4116100c65780633dfbbad4146101a55780635d39c071146101d05780635f0d382a1461020d5780637bf2bb101461024a576100f3565b806304ef0781146100f8578063133f50f51461012157806323bc839b1461015e57806335e4365f14610189575b600080fd5b34801561010457600080fd5b5061011f600480360381019061011a9190612f0c565b610419565b005b34801561012d57600080fd5b5061014860048036038101906101439190612faa565b61070a565b6040516101559190612fe6565b60405180910390f35b34801561016a57600080fd5b50610173610764565b604051610180919061331a565b60405180910390f35b6101a3600480360381019061019e9190613368565b610b61565b005b3480156101b157600080fd5b506101ba6112bb565b6040516101c7919061359f565b60405180910390f35b3480156101dc57600080fd5b506101f760048036038101906101f291906136f6565b6114bd565b6040516102049190612fe6565b60405180910390f35b34801561021957600080fd5b50610234600480360381019061022f9190612faa565b611688565b604051610241919061331a565b60405180910390f35b34801561025657600080fd5b50610271600480360381019061026c9190612faa565b611ac4565b60405161027e9190612fe6565b60405180910390f35b34801561029357600080fd5b506102ae60048036038101906102a9919061373f565b611ae4565b005b3480156102bc57600080fd5b506102d760048036038101906102d29190613874565b611d68565b6040516102ec999897969594939291906138dd565b60405180910390f35b34801561030157600080fd5b5061030a611e4a565b604051610317919061396a565b60405180910390f35b34801561032c57600080fd5b5061034760048036038101906103429190613874565b611e50565b005b34801561035557600080fd5b50610370600480360381019061036b9190613874565b612112565b60405161037d9190612fe6565b60405180910390f35b34801561039257600080fd5b5061039b61220c565b6040516103a89190613b54565b60405180910390f35b3480156103bd57600080fd5b506103d860048036038101906103d39190613b76565b61241d565b6040516103e5919061396a565b60405180910390f35b3480156103fa57600080fd5b50610403612850565b6040516104109190613e85565b60405180910390f35b816003600082815260200190815260200160002060010160009054906101000a900473ffffffffffffffffffffffffffffffffffffffff1673ffffffffffffffffffffffffffffffffffffffff163373ffffffffffffffffffffffffffffffffffffffff16146104be576040517f08c379a00000000000000000000000000000000000000000000000000000000081526004016104b590613f2a565b60405180910390fd5b60006003600085815260200190815260200160002090508060040160019054906101000a900460ff16610526576040517f08c379a000000000000000000000000000000000000000000000000000000000815260040161051d90613f96565b60405180910390fd5b6002600481111561053a576105396130cc565b5b8160040160009054906101000a900460ff16600481111561055e5761055d6130cc565b5b1461059e576040517f08c379a000000000000000000000000000000000000000000000000000000000815260040161059590614002565b60405180910390fd5b8060040160049054906101000a900473ffffffffffffffffffffffffffffffffffffffff1673ffffffffffffffffffffffffffffffffffffffff1663fa0af12a846040518263ffffffff1660e01b81526004016105fb9190612fe6565b600060405180830381600087803b15801561061557600080fd5b505af1158015610629573d6000803e3d6000fd5b5050505082156106655760038160040160006101000a81548160ff0219169083600481111561065b5761065a6130cc565b5b02179055506106b0565b60048160040160006101000a81548160ff0219169083600481111561068d5761068c6130cc565b5b021790555060018160040160036101000a81548160ff0219169083151502179055505b60018160040160026101000a81548160ff0219169083151502179055507fe21fe02c1589242b30be2057f54fd54b7ddc463695d19ffdb54f9ebb0584f24a846040516106fc919061396a565b60405180910390a150505050565b600080600760008473ffffffffffffffffffffffffffffffffffffffff1673ffffffffffffffffffffffffffffffffffffffff168152602001908152602001600020600101805461075a90614051565b9050119050919050565b6060600a805480602002602001604051908101604052809291908181526020016000905b82821015610b5857838290600052602060002090600c0201604051806101800160405290816000820180546107bc90614051565b80601f01602080910402602001604051908101604052809291908181526020018280546107e890614051565b80156108355780601f1061080a57610100808354040283529160200191610835565b820191906000526020600020905b81548152906001019060200180831161081857829003601f168201915b5050505050815260200160018201805461084e90614051565b80601f016020809104026020016040519081016040528092919081815260200182805461087a90614051565b80156108c75780601f1061089c576101008083540402835291602001916108c7565b820191906000526020600020905b8154815290600101906020018083116108aa57829003601f168201915b505050505081526020016002820180546108e090614051565b80601f016020809104026020016040519081016040528092919081815260200182805461090c90614051565b80156109595780601f1061092e57610100808354040283529160200191610959565b820191906000526020600020905b81548152906001019060200180831161093c57829003601f168201915b5050505050815260200160038201805461097290614051565b80601f016020809104026020016040519081016040528092919081815260200182805461099e90614051565b80156109eb5780601f106109c0576101008083540402835291602001916109eb565b820191906000526020600020905b8154815290600101906020018083116109ce57829003601f168201915b5050505050815260200160048201548152602001600582015481526020016006820160009054906101000a900460ff166004811115610a2d57610a2c6130cc565b5b6004811115610a3f57610a3e6130cc565b5b815260200160078201548152602001600882018054610a5d90614051565b80601f0160208091040260200160405190810160405280929190818152602001828054610a8990614051565b8015610ad65780601f10610aab57610100808354040283529160200191610ad6565b820191906000526020600020905b815481529060010190602001808311610ab957829003601f168201915b5050505050815260200160098201548152602001600a820160009054906101000a900473ffffffffffffffffffffffffffffffffffffffff1673ffffffffffffffffffffffffffffffffffffffff1673ffffffffffffffffffffffffffffffffffffffff168152602001600b8201548152505081526020019060010190610788565b50505050905090565b600060036000600154815260200190815260200160002090506005600085815260200190815260200160002060040154341015610bd3576040517f08c379a0000000000000000000000000000000000000000000000000000000008152600401610bca906140ce565b60405180910390fd5b8060040160019054906101000a900460ff1615610c25576040517f08c379a0000000000000000000000000000000000000000000000000000000008152600401610c1c9061413a565b60405180910390fd5b60006004811115610c3957610c386130cc565b5b6005600086815260200190815260200160002060060160009054906101000a900460ff166004811115610c6f57610c6e6130cc565b5b14610caf576040517f08c379a0000000000000000000000000000000000000000000000000000000008152600401610ca6906141a6565b60405180910390fd5b600060056000868152602001908152602001600020600a0160009054906101000a900473ffffffffffffffffffffffffffffffffffffffff1690506000604051610cf890612dad565b604051809103906000f080158015610d14573d6000803e3d6000fd5b5090508073ffffffffffffffffffffffffffffffffffffffff16631794bb3c8386886040518463ffffffff1660e01b8152600401610d54939291906141f6565b600060405180830381600087803b158015610d6e57600080fd5b505af1158015610d82573d6000803e3d6000fd5b505050508073ffffffffffffffffffffffffffffffffffffffff1663d0e30db0346040518263ffffffff1660e01b81526004016000604051808303818588803b158015610dce57600080fd5b505af1158015610de2573d6000803e3d6000fd5b505050505060016000815480929190610dfa9061425c565b91905055506001548360000181905550338360010160006101000a81548173ffffffffffffffffffffffffffffffffffffffff021916908373ffffffffffffffffffffffffffffffffffffffff160217905550818360020160006101000a81548173ffffffffffffffffffffffffffffffffffffffff021916908373ffffffffffffffffffffffffffffffffffffffff16021790555084836003018190555060018360040160006101000a81548160ff02191690836004811115610ec157610ec06130cc565b5b021790555060008360040160016101000a81548160ff02191690831515021790555060008360040160026101000a81548160ff02191690831515021790555060008360040160036101000a81548160ff021916908315150217905550808360040160046101000a81548173ffffffffffffffffffffffffffffffffffffffff021916908373ffffffffffffffffffffffffffffffffffffffff160217905550600d839080600181540180825580915050600190039060005260206000209060050201600090919091909150600082015481600001556001820160009054906101000a900473ffffffffffffffffffffffffffffffffffffffff168160010160006101000a81548173ffffffffffffffffffffffffffffffffffffffff021916908373ffffffffffffffffffffffffffffffffffffffff1602179055506002820160009054906101000a900473ffffffffffffffffffffffffffffffffffffffff168160020160006101000a81548173ffffffffffffffffffffffffffffffffffffffff021916908373ffffffffffffffffffffffffffffffffffffffff160217905550600382015481600301556004820160009054906101000a900460ff168160040160006101000a81548160ff021916908360048111156110a6576110a56130cc565b5b02179055506004820160019054906101000a900460ff168160040160016101000a81548160ff0219169083151502179055506004820160029054906101000a900460ff168160040160026101000a81548160ff0219169083151502179055506004820160039054906101000a900460ff168160040160036101000a81548160ff0219169083151502179055506004820160049054906101000a900473ffffffffffffffffffffffffffffffffffffffff168160040160046101000a81548173ffffffffffffffffffffffffffffffffffffffff021916908373ffffffffffffffffffffffffffffffffffffffff16021790555050506007600060056000898152602001908152602001600020600a0160009054906101000a900473ffffffffffffffffffffffffffffffffffffffff1673ffffffffffffffffffffffffffffffffffffffff1673ffffffffffffffffffffffffffffffffffffffff168152602001908152602001600020600601339080600181540180825580915050600190039060005260206000200160009091909190916101000a81548173ffffffffffffffffffffffffffffffffffffffff021916908373ffffffffffffffffffffffffffffffffffffffff1602179055507ff9e17940e547201709f9aaacdec8ab3566601c60d8f5affb54f74b79b0b50b136001543384886040516112ab94939291906142a4565b60405180910390a1505050505050565b6060600d805480602002602001604051908101604052809291908181526020016000905b828210156114b4578382906000526020600020906005020160405180610120016040529081600082015481526020016001820160009054906101000a900473ffffffffffffffffffffffffffffffffffffffff1673ffffffffffffffffffffffffffffffffffffffff1673ffffffffffffffffffffffffffffffffffffffff1681526020016002820160009054906101000a900473ffffffffffffffffffffffffffffffffffffffff1673ffffffffffffffffffffffffffffffffffffffff1673ffffffffffffffffffffffffffffffffffffffff168152602001600382015481526020016004820160009054906101000a900460ff1660048111156113e8576113e76130cc565b5b60048111156113fa576113f96130cc565b5b81526020016004820160019054906101000a900460ff161515151581526020016004820160029054906101000a900460ff161515151581526020016004820160039054906101000a900460ff161515151581526020016004820160049054906101000a900473ffffffffffffffffffffffffffffffffffffffff1673ffffffffffffffffffffffffffffffffffffffff1673ffffffffffffffffffffffffffffffffffffffff1681525050815260200190600101906112df565b50505050905090565b60006114c83361070a565b611507576040517f08c379a00000000000000000000000000000000000000000000000000000000081526004016114fe90614335565b60405180910390fd5b600060026000600954815260200190815260200160002090508281600001908161153191906144f7565b50600760003373ffffffffffffffffffffffffffffffffffffffff1673ffffffffffffffffffffffffffffffffffffffff16815260200190815260200160002060010181600101908161158491906145f4565b506001600760003373ffffffffffffffffffffffffffffffffffffffff1673ffffffffffffffffffffffffffffffffffffffff16815260200190815260200160002060020160006101000a81548160ff02191690831515021790555082600760003373ffffffffffffffffffffffffffffffffffffffff1673ffffffffffffffffffffffffffffffffffffffff168152602001908152602001600020600801908161162f91906144f7565b50600760003373ffffffffffffffffffffffffffffffffffffffff1673ffffffffffffffffffffffffffffffffffffffff16815260200190815260200160002060020160009054906101000a900460ff16915050919050565b6060600660008373ffffffffffffffffffffffffffffffffffffffff1673ffffffffffffffffffffffffffffffffffffffff168152602001908152602001600020805480602002602001604051908101604052809291908181526020016000905b82821015611ab957838290600052602060002090600c02016040518061018001604052908160008201805461171d90614051565b80601f016020809104026020016040519081016040528092919081815260200182805461174990614051565b80156117965780601f1061176b57610100808354040283529160200191611796565b820191906000526020600020905b81548152906001019060200180831161177957829003601f168201915b505050505081526020016001820180546117af90614051565b80601f01602080910402602001604051908101604052809291908181526020018280546117db90614051565b80156118285780601f106117fd57610100808354040283529160200191611828565b820191906000526020600020905b81548152906001019060200180831161180b57829003601f168201915b5050505050815260200160028201805461184190614051565b80601f016020809104026020016040519081016040528092919081815260200182805461186d90614051565b80156118ba5780601f1061188f576101008083540402835291602001916118ba565b820191906000526020600020905b81548152906001019060200180831161189d57829003601f168201915b505050505081526020016003820180546118d390614051565b80601f01602080910402602001604051908101604052809291908181526020018280546118ff90614051565b801561194c5780601f106119215761010080835404028352916020019161194c565b820191906000526020600020905b81548152906001019060200180831161192f57829003601f168201915b5050505050815260200160048201548152602001600582015481526020016006820160009054906101000a900460ff16600481111561198e5761198d6130cc565b5b60048111156119a05761199f6130cc565b5b8152602001600782015481526020016008820180546119be90614051565b80601f01602080910402602001604051908101604052809291908181526020018280546119ea90614051565b8015611a375780601f10611a0c57610100808354040283529160200191611a37565b820191906000526020600020905b815481529060010190602001808311611a1a57829003601f168201915b5050505050815260200160098201548152602001600a820160009054906101000a900473ffffffffffffffffffffffffffffffffffffffff1673ffffffffffffffffffffffffffffffffffffffff1673ffffffffffffffffffffffffffffffffffffffff168152602001600b82015481525050815260200190600101906116e9565b505050509050919050565b60046020528060005260406000206000915054906101000a900460ff1681565b6000600760003373ffffffffffffffffffffffffffffffffffffffff1673ffffffffffffffffffffffffffffffffffffffff168152602001908152602001600020905086816001019081611b3891906144f7565b50338160000160006101000a81548173ffffffffffffffffffffffffffffffffffffffff021916908373ffffffffffffffffffffffffffffffffffffffff16021790555084816004019081611b8d91906144f7565b5085816003019081611b9f91906144f7565b5083816005019081611bb191906144f7565b5082816007019081611bc391906144f7565b5060008160020160006101000a81548160ff02191690831515021790555081816009019081611bf291906144f7565b50600b8190806001815401808255809150506001900390600052602060002090600a02016000909190919091506000820160009054906101000a900473ffffffffffffffffffffffffffffffffffffffff168160000160006101000a81548173ffffffffffffffffffffffffffffffffffffffff021916908373ffffffffffffffffffffffffffffffffffffffff16021790555060018201816001019081611c9a91906146f2565b506002820160009054906101000a900460ff168160020160006101000a81548160ff02191690831515021790555060038201816003019081611cdc91906146f2565b5060048201816004019081611cf191906146f2565b5060058201816005019081611d0691906146f2565b506006820181600601908054611d1d929190612dba565b5060078201816007019081611d3291906146f2565b5060088201816008019081611d4791906146f2565b5060098201816009019081611d5c91906146f2565b50505050505050505050565b60036020528060005260406000206000915090508060000154908060010160009054906101000a900473ffffffffffffffffffffffffffffffffffffffff16908060020160009054906101000a900473ffffffffffffffffffffffffffffffffffffffff16908060030154908060040160009054906101000a900460ff16908060040160019054906101000a900460ff16908060040160029054906101000a900460ff16908060040160039054906101000a900460ff16908060040160049054906101000a900473ffffffffffffffffffffffffffffffffffffffff16905089565b60015481565b806003600082815260200190815260200160002060010160009054906101000a900473ffffffffffffffffffffffffffffffffffffffff1673ffffffffffffffffffffffffffffffffffffffff163373ffffffffffffffffffffffffffffffffffffffff1614611ef5576040517f08c379a0000000000000000000000000000000000000000000000000000000008152600401611eec90613f2a565b60405180910390fd5b60006003600084815260200190815260200160002090508060040160019054906101000a900460ff16611f5d576040517f08c379a0000000000000000000000000000000000000000000000000000000008152600401611f5490613f96565b60405180910390fd5b8060040160029054906101000a900460ff1615611faf576040517f08c379a0000000000000000000000000000000000000000000000000000000008152600401611fa69061484c565b60405180910390fd5b60056000848152602001908152602001600020600b0154421015612008576040517f08c379a0000000000000000000000000000000000000000000000000000000008152600401611fff906148de565b60405180910390fd5b8060040160049054906101000a900473ffffffffffffffffffffffffffffffffffffffff1673ffffffffffffffffffffffffffffffffffffffff1663e8a61cc86040518163ffffffff1660e01b8152600401600060405180830381600087803b15801561207457600080fd5b505af1158015612088573d6000803e3d6000fd5b5050505060048160040160006101000a81548160ff021916908360048111156120b4576120b36130cc565b5b021790555060018160040160036101000a81548160ff0219169083151502179055507f303a31648d19f17852cf82657162c4bdd4a06ab3f36f1e7ae1118f4ca6473e1183604051612105919061396a565b60405180910390a1505050565b600060026000838152602001908152602001600020600080820160006121389190612e0c565b6001820160006121489190612e0c565b6002820160006121589190612e4c565b50506000600760003373ffffffffffffffffffffffffffffffffffffffff1673ffffffffffffffffffffffffffffffffffffffff16815260200190815260200160002060020160006101000a81548160ff021916908315150217905550600760003373ffffffffffffffffffffffffffffffffffffffff1673ffffffffffffffffffffffffffffffffffffffff16815260200190815260200160002060020160009054906101000a900460ff169050919050565b6060600c805480602002602001604051908101604052809291908181526020016000905b82821015612414578382906000526020600020906003020160405180606001604052908160008201805461226390614051565b80601f016020809104026020016040519081016040528092919081815260200182805461228f90614051565b80156122dc5780601f106122b1576101008083540402835291602001916122dc565b820191906000526020600020905b8154815290600101906020018083116122bf57829003601f168201915b505050505081526020016001820180546122f590614051565b80601f016020809104026020016040519081016040528092919081815260200182805461232190614051565b801561236e5780601f106123435761010080835404028352916020019161236e565b820191906000526020600020905b81548152906001019060200180831161235157829003601f168201915b50505050508152602001600282018054806020026020016040519081016040528092919081815260200182805480156123fc57602002820191906000526020600020905b8160009054906101000a900473ffffffffffffffffffffffffffffffffffffffff1673ffffffffffffffffffffffffffffffffffffffff16815260200190600101908083116123b2575b50505050508152505081526020019060010190612230565b50505050905090565b6000600760003373ffffffffffffffffffffffffffffffffffffffff1673ffffffffffffffffffffffffffffffffffffffff16815260200190815260200160002060000160009054906101000a900473ffffffffffffffffffffffffffffffffffffffff1673ffffffffffffffffffffffffffffffffffffffff163373ffffffffffffffffffffffffffffffffffffffff16146124ef576040517f08c379a00000000000000000000000000000000000000000000000000000000081526004016124e690614970565b60405180910390fd5b6124f83361070a565b612537576040517f08c379a000000000000000000000000000000000000000000000000000000000815260040161252e90614335565b60405180910390fd5b600073ffffffffffffffffffffffffffffffffffffffff163373ffffffffffffffffffffffffffffffffffffffff16036125a6576040517f08c379a000000000000000000000000000000000000000000000000000000000815260040161259d906149dc565b60405180910390fd5b600860008154809291906125b99061425c565b919050555060006005600060085481526020019081526020016000209050898160000190816125e891906144f7565b503381600a0160006101000a81548173ffffffffffffffffffffffffffffffffffffffff021916908373ffffffffffffffffffffffffffffffffffffffff1602179055508881600101908161263d91906144f7565b508681600301908161264f91906144f7565b508781600201908161266191906144f7565b5060085481600501819055508481600801908161267e91906144f7565b508381600901819055508581600401819055506000816007018190555060008160060160006101000a81548160ff021916908360048111156126c3576126c26130cc565b5b02179055508281600b0181905550600a8190806001815401808255809150506001900390600052602060002090600c02016000909190919091506000820181600001908161271191906146f2565b506001820181600101908161272691906146f2565b506002820181600201908161273b91906146f2565b506003820181600301908161275091906146f2565b5060048201548160040155600582015481600501556006820160009054906101000a900460ff168160060160006101000a81548160ff0219169083600481111561279d5761279c6130cc565b5b021790555060078201548160070155600882018160080190816127c091906146f2565b5060098201548160090155600a820160009054906101000a900473ffffffffffffffffffffffffffffffffffffffff1681600a0160006101000a81548173ffffffffffffffffffffffffffffffffffffffff021916908373ffffffffffffffffffffffffffffffffffffffff160217905550600b82015481600b0155505060085491505098975050505050505050565b6060600b805480602002602001604051908101604052809291908181526020016000905b82821015612da457838290600052602060002090600a0201604051806101400160405290816000820160009054906101000a900473ffffffffffffffffffffffffffffffffffffffff1673ffffffffffffffffffffffffffffffffffffffff1673ffffffffffffffffffffffffffffffffffffffff1681526020016001820180546128fe90614051565b80601f016020809104026020016040519081016040528092919081815260200182805461292a90614051565b80156129775780601f1061294c57610100808354040283529160200191612977565b820191906000526020600020905b81548152906001019060200180831161295a57829003601f168201915b505050505081526020016002820160009054906101000a900460ff161515151581526020016003820180546129ab90614051565b80601f01602080910402602001604051908101604052809291908181526020018280546129d790614051565b8015612a245780601f106129f957610100808354040283529160200191612a24565b820191906000526020600020905b815481529060010190602001808311612a0757829003601f168201915b50505050508152602001600482018054612a3d90614051565b80601f0160208091040260200160405190810160405280929190818152602001828054612a6990614051565b8015612ab65780601f10612a8b57610100808354040283529160200191612ab6565b820191906000526020600020905b815481529060010190602001808311612a9957829003601f168201915b50505050508152602001600582018054612acf90614051565b80601f0160208091040260200160405190810160405280929190818152602001828054612afb90614051565b8015612b485780601f10612b1d57610100808354040283529160200191612b48565b820191906000526020600020905b815481529060010190602001808311612b2b57829003601f168201915b5050505050815260200160068201805480602002602001604051908101604052809291908181526020018280548015612bd657602002820191906000526020600020905b8160009054906101000a900473ffffffffffffffffffffffffffffffffffffffff1673ffffffffffffffffffffffffffffffffffffffff1681526020019060010190808311612b8c575b50505050508152602001600782018054612bef90614051565b80601f0160208091040260200160405190810160405280929190818152602001828054612c1b90614051565b8015612c685780601f10612c3d57610100808354040283529160200191612c68565b820191906000526020600020905b815481529060010190602001808311612c4b57829003601f168201915b50505050508152602001600882018054612c8190614051565b80601f0160208091040260200160405190810160405280929190818152602001828054612cad90614051565b8015612cfa5780601f10612ccf57610100808354040283529160200191612cfa565b820191906000526020600020905b815481529060010190602001808311612cdd57829003601f168201915b50505050508152602001600982018054612d1390614051565b80601f0160208091040260200160405190810160405280929190818152602001828054612d3f90614051565b8015612d8c5780601f10612d6157610100808354040283529160200191612d8c565b820191906000526020600020905b815481529060010190602001808311612d6f57829003601f168201915b50505050508152505081526020019060010190612874565b50505050905090565b611324806149fd83390190565b828054828255906000526020600020908101928215612dfb5760005260206000209182015b82811115612dfa578254825591600101919060010190612ddf565b5b509050612e089190612e6d565b5090565b508054612e1890614051565b6000825580601f10612e2a5750612e49565b601f016020900490600052602060002090810190612e489190612e6d565b5b50565b5080546000825590600052602060002090810190612e6a9190612e6d565b50565b5b80821115612e86576000816000905550600101612e6e565b5090565b6000604051905090565b600080fd5b600080fd5b6000819050919050565b612eb181612e9e565b8114612ebc57600080fd5b50565b600081359050612ece81612ea8565b92915050565b60008115159050919050565b612ee981612ed4565b8114612ef457600080fd5b50565b600081359050612f0681612ee0565b92915050565b60008060408385031215612f2357612f22612e94565b5b6000612f3185828601612ebf565b9250506020612f4285828601612ef7565b9150509250929050565b600073ffffffffffffffffffffffffffffffffffffffff82169050919050565b6000612f7782612f4c565b9050919050565b612f8781612f6c565b8114612f9257600080fd5b50565b600081359050612fa481612f7e565b92915050565b600060208284031215612fc057612fbf612e94565b5b6000612fce84828501612f95565b91505092915050565b612fe081612ed4565b82525050565b6000602082019050612ffb6000830184612fd7565b92915050565b600081519050919050565b600082825260208201905092915050565b6000819050602082019050919050565b600081519050919050565b600082825260208201905092915050565b60005b8381101561306757808201518184015260208101905061304c565b60008484015250505050565b6000601f19601f8301169050919050565b600061308f8261302d565b6130998185613038565b93506130a9818560208601613049565b6130b281613073565b840191505092915050565b6130c681612e9e565b82525050565b7f4e487b7100000000000000000000000000000000000000000000000000000000600052602160045260246000fd5b6005811061310c5761310b6130cc565b5b50565b600081905061311d826130fb565b919050565b600061312d8261310f565b9050919050565b61313d81613122565b82525050565b600061314e82612f4c565b9050919050565b61315e81613143565b82525050565b60006101808301600083015184820360008601526131828282613084565b9150506020830151848203602086015261319c8282613084565b915050604083015184820360408601526131b68282613084565b915050606083015184820360608601526131d08282613084565b91505060808301516131e560808601826130bd565b5060a08301516131f860a08601826130bd565b5060c083015161320b60c0860182613134565b5060e083015161321e60e08601826130bd565b506101008301518482036101008601526132388282613084565b91505061012083015161324f6101208601826130bd565b50610140830151613264610140860182613155565b506101608301516132796101608601826130bd565b508091505092915050565b60006132908383613164565b905092915050565b6000602082019050919050565b60006132b082613001565b6132ba818561300c565b9350836020820285016132cc8561301d565b8060005b8581101561330857848403895281516132e98582613284565b94506132f483613298565b925060208a019950506001810190506132d0565b50829750879550505050505092915050565b6000602082019050818103600083015261333481846132a5565b905092915050565b61334581613143565b811461335057600080fd5b50565b6000813590506133628161333c565b92915050565b60008060006060848603121561338157613380612e94565b5b600061338f86828701612ebf565b93505060206133a086828701612ebf565b92505060406133b186828701613353565b9150509250925092565b600081519050919050565b600082825260208201905092915050565b6000819050602082019050919050565b6133f081612f6c565b82525050565b6133ff81612ed4565b82525050565b6000819050919050565b600061342a61342561342084612f4c565b613405565b612f4c565b9050919050565b600061343c8261340f565b9050919050565b600061344e82613431565b9050919050565b61345e81613443565b82525050565b6101208201600082015161347b60008501826130bd565b50602082015161348e60208501826133e7565b5060408201516134a160408501826133e7565b5060608201516134b460608501826130bd565b5060808201516134c76080850182613134565b5060a08201516134da60a08501826133f6565b5060c08201516134ed60c08501826133f6565b5060e082015161350060e08501826133f6565b50610100820151613515610100850182613455565b50505050565b60006135278383613464565b6101208301905092915050565b6000602082019050919050565b600061354c826133bb565b61355681856133c6565b9350613561836133d7565b8060005b83811015613592578151613579888261351b565b975061358483613534565b925050600181019050613565565b5085935050505092915050565b600060208201905081810360008301526135b98184613541565b905092915050565b600080fd5b600080fd5b7f4e487b7100000000000000000000000000000000000000000000000000000000600052604160045260246000fd5b61360382613073565b810181811067ffffffffffffffff82111715613622576136216135cb565b5b80604052505050565b6000613635612e8a565b905061364182826135fa565b919050565b600067ffffffffffffffff821115613661576136606135cb565b5b61366a82613073565b9050602081019050919050565b82818337600083830152505050565b600061369961369484613646565b61362b565b9050828152602081018484840111156136b5576136b46135c6565b5b6136c0848285613677565b509392505050565b600082601f8301126136dd576136dc6135c1565b5b81356136ed848260208601613686565b91505092915050565b60006020828403121561370c5761370b612e94565b5b600082013567ffffffffffffffff81111561372a57613729612e99565b5b613736848285016136c8565b91505092915050565b60008060008060008060c0878903121561375c5761375b612e94565b5b600087013567ffffffffffffffff81111561377a57613779612e99565b5b61378689828a016136c8565b965050602087013567ffffffffffffffff8111156137a7576137a6612e99565b5b6137b389828a016136c8565b955050604087013567ffffffffffffffff8111156137d4576137d3612e99565b5b6137e089828a016136c8565b945050606087013567ffffffffffffffff81111561380157613800612e99565b5b61380d89828a016136c8565b935050608087013567ffffffffffffffff81111561382e5761382d612e99565b5b61383a89828a016136c8565b92505060a087013567ffffffffffffffff81111561385b5761385a612e99565b5b61386789828a016136c8565b9150509295509295509295565b60006020828403121561388a57613889612e94565b5b600061389884828501612ebf565b91505092915050565b6138aa81612e9e565b82525050565b6138b981612f6c565b82525050565b6138c881613122565b82525050565b6138d781613443565b82525050565b6000610120820190506138f3600083018c6138a1565b613900602083018b6138b0565b61390d604083018a6138b0565b61391a60608301896138a1565b61392760808301886138bf565b61393460a0830187612fd7565b61394160c0830186612fd7565b61394e60e0830185612fd7565b61395c6101008301846138ce565b9a9950505050505050505050565b600060208201905061397f60008301846138a1565b92915050565b600081519050919050565b600082825260208201905092915050565b6000819050602082019050919050565b600081519050919050565b600082825260208201905092915050565b6000819050602082019050919050565b60006139e983836133e7565b60208301905092915050565b6000602082019050919050565b6000613a0d826139b1565b613a1781856139bc565b9350613a22836139cd565b8060005b83811015613a53578151613a3a88826139dd565b9750613a45836139f5565b925050600181019050613a26565b5085935050505092915050565b60006060830160008301518482036000860152613a7d8282613084565b91505060208301518482036020860152613a978282613084565b91505060408301518482036040860152613ab18282613a02565b9150508091505092915050565b6000613aca8383613a60565b905092915050565b6000602082019050919050565b6000613aea82613985565b613af48185613990565b935083602082028501613b06856139a1565b8060005b85811015613b425784840389528151613b238582613abe565b9450613b2e83613ad2565b925060208a01995050600181019050613b0a565b50829750879550505050505092915050565b60006020820190508181036000830152613b6e8184613adf565b905092915050565b600080600080600080600080610100898b031215613b9757613b96612e94565b5b600089013567ffffffffffffffff811115613bb557613bb4612e99565b5b613bc18b828c016136c8565b985050602089013567ffffffffffffffff811115613be257613be1612e99565b5b613bee8b828c016136c8565b975050604089013567ffffffffffffffff811115613c0f57613c0e612e99565b5b613c1b8b828c016136c8565b965050606089013567ffffffffffffffff811115613c3c57613c3b612e99565b5b613c488b828c016136c8565b9550506080613c598b828c01612ebf565b94505060a089013567ffffffffffffffff811115613c7a57613c79612e99565b5b613c868b828c016136c8565b93505060c0613c978b828c01612ebf565b92505060e0613ca88b828c01612ebf565b9150509295985092959890939650565b600081519050919050565b600082825260208201905092915050565b6000819050602082019050919050565b600061014083016000830151613cfd60008601826133e7565b5060208301518482036020860152613d158282613084565b9150506040830151613d2a60408601826133f6565b5060608301518482036060860152613d428282613084565b91505060808301518482036080860152613d5c8282613084565b91505060a083015184820360a0860152613d768282613084565b91505060c083015184820360c0860152613d908282613a02565b91505060e083015184820360e0860152613daa8282613084565b915050610100830151848203610100860152613dc68282613084565b915050610120830151848203610120860152613de28282613084565b9150508091505092915050565b6000613dfb8383613ce4565b905092915050565b6000602082019050919050565b6000613e1b82613cb8565b613e258185613cc3565b935083602082028501613e3785613cd4565b8060005b85811015613e735784840389528151613e548582613def565b9450613e5f83613e03565b925060208a01995050600181019050613e3b565b50829750879550505050505092915050565b60006020820190508181036000830152613e9f8184613e10565b905092915050565b600082825260208201905092915050565b7f4f6e6c79207468652062757965722063616e2063616c6c20746869732066756e60008201527f6374696f6e2e0000000000000000000000000000000000000000000000000000602082015250565b6000613f14602683613ea7565b9150613f1f82613eb8565b604082019050919050565b60006020820190508181036000830152613f4381613f07565b9050919050565b7f5061796d656e7420686173206e6f74206265656e206d6164652e000000000000600082015250565b6000613f80601a83613ea7565b9150613f8b82613f4a565b602082019050919050565b60006020820190508181036000830152613faf81613f73565b9050919050565b7f4f7264657220686173206e6f74206265656e20736869707065642e0000000000600082015250565b6000613fec601b83613ea7565b9150613ff782613fb6565b602082019050919050565b6000602082019050818103600083015261401b81613fdf565b9050919050565b7f4e487b7100000000000000000000000000000000000000000000000000000000600052602260045260246000fd5b6000600282049050600182168061406957607f821691505b60208210810361407c5761407b614022565b5b50919050565b7f496e73756666696369656e74207061796d656e742e0000000000000000000000600082015250565b60006140b8601583613ea7565b91506140c382614082565b602082019050919050565b600060208201905081810360008301526140e7816140ab565b9050919050565b7f5061796d656e742068617320616c7265616479206265656e206d6164652e0000600082015250565b6000614124601e83613ea7565b915061412f826140ee565b602082019050919050565b6000602082019050818103600083015261415381614117565b9050919050565b7f50726f64756374206973206e6f7420617661696c61626c652e00000000000000600082015250565b6000614190601983613ea7565b915061419b8261415a565b602082019050919050565b600060208201905081810360008301526141bf81614183565b9050919050565b6141cf81613143565b82525050565b60006141e082613431565b9050919050565b6141f0816141d5565b82525050565b600060608201905061420b60008301866141c6565b61421860208301856141e7565b61422560408301846138a1565b949350505050565b7f4e487b7100000000000000000000000000000000000000000000000000000000600052601160045260246000fd5b600061426782612e9e565b91507fffffffffffffffffffffffffffffffffffffffffffffffffffffffffffffffff82036142995761429861422d565b5b600182019050919050565b60006080820190506142b960008301876138a1565b6142c660208301866138b0565b6142d360408301856141e7565b6142e060608301846138a1565b95945050505050565b7f53746f726520646f6573206e6f742065786973742e0000000000000000000000600082015250565b600061431f601583613ea7565b915061432a826142e9565b602082019050919050565b6000602082019050818103600083015261434e81614312565b9050919050565b60008190508160005260206000209050919050565b60006020601f8301049050919050565b600082821b905092915050565b6000600883026143b77fffffffffffffffffffffffffffffffffffffffffffffffffffffffffffffffff8261437a565b6143c1868361437a565b95508019841693508086168417925050509392505050565b60006143f46143ef6143ea84612e9e565b613405565b612e9e565b9050919050565b6000819050919050565b61440e836143d9565b61442261441a826143fb565b848454614387565b825550505050565b600090565b61443761442a565b614442818484614405565b505050565b5b818110156144665761445b60008261442f565b600181019050614448565b5050565b601f8211156144ab5761447c81614355565b6144858461436a565b81016020851015614494578190505b6144a86144a08561436a565b830182614447565b50505b505050565b600082821c905092915050565b60006144ce600019846008026144b0565b1980831691505092915050565b60006144e783836144bd565b9150826002028217905092915050565b6145008261302d565b67ffffffffffffffff811115614519576145186135cb565b5b6145238254614051565b61452e82828561446a565b600060209050601f831160018114614561576000841561454f578287015190505b61455985826144db565b8655506145c1565b601f19841661456f86614355565b60005b8281101561459757848901518255600182019150602085019450602081019050614572565b868310156145b457848901516145b0601f8916826144bd565b8355505b6001600288020188555050505b505050505050565b6000815490506145d881614051565b9050919050565b60008190508160005260206000209050919050565b8181036146025750506146da565b61460b826145c9565b67ffffffffffffffff811115614624576146236135cb565b5b61462e8254614051565b61463982828561446a565b6000601f8311600181146146685760008415614656578287015490505b61466085826144db565b8655506146d3565b601f198416614676876145df565b965061468186614355565b60005b828110156146a957848901548255600182019150600185019450602081019050614684565b868310156146c657848901546146c2601f8916826144bd565b8355505b6001600288020188555050505b5050505050505b565b6000815490506146eb81614051565b9050919050565b8181036147005750506147d8565b614709826146dc565b67ffffffffffffffff811115614722576147216135cb565b5b61472c8254614051565b61473782828561446a565b6000601f8311600181146147665760008415614754578287015490505b61475e85826144db565b8655506147d1565b601f19841661477487614355565b965061477f86614355565b60005b828110156147a757848901548255600182019150600185019450602081019050614782565b868310156147c457848901546147c0601f8916826144bd565b8355505b6001600288020188555050505b5050505050505b565b7f4f726465722068617320616c7265616479206265656e2066756c66696c6c656460008201527f2e00000000000000000000000000000000000000000000000000000000000000602082015250565b6000614836602183613ea7565b9150614841826147da565b604082019050919050565b6000602082019050818103600083015261486581614829565b9050919050565b7f526566756e642074696d65206c696d697420686173206e6f74206265656e207260008201527f6561636865642e00000000000000000000000000000000000000000000000000602082015250565b60006148c8602783613ea7565b91506148d38261486c565b604082019050919050565b600060208201905081810360008301526148f7816148bb565b9050919050565b7f4f6e6c792074686520636f6e7472616374206f776e65722063616e2063616c6c60008201527f20746869732066756e6374696f6e2e0000000000000000000000000000000000602082015250565b600061495a602f83613ea7565b9150614965826148fe565b604082019050919050565b600060208201905081810360008301526149898161494d565b9050919050565b7f496e76616c69642073656e64657220616464726573732e000000000000000000600082015250565b60006149c6601783613ea7565b91506149d182614990565b602082019050919050565b600060208201905081810360008301526149f5816149b9565b905091905056fe608060405234801561001057600080fd5b50611304806100206000396000f3fe6080604052600436106100a75760003560e01c8063a035b1fe11610064578063a035b1fe1461019f578063d0e30db0146101ca578063e8a61cc8146101d4578063ed11d7a8146101eb578063fa0af12a14610202578063fe25e00a1461022b576100a7565b806308551a53146100ac5780631794bb3c146100d7578063209ebc08146100f35780636f9fb98a1461011e5780637150d8ae14610149578063765f744c14610174575b600080fd5b3480156100b857600080fd5b506100c1610256565b6040516100ce9190610d29565b60405180910390f35b6100f160048036038101906100ec9190610de9565b61027c565b005b3480156100ff57600080fd5b5061010861038d565b6040516101159190610e57565b60405180910390f35b34801561012a57600080fd5b506101336103a0565b6040516101409190610e81565b60405180910390f35b34801561015557600080fd5b5061015e6103a8565b60405161016b9190610d29565b60405180910390f35b34801561018057600080fd5b506101896103cc565b6040516101969190610e57565b60405180910390f35b3480156101ab57600080fd5b506101b46103df565b6040516101c19190610e81565b60405180910390f35b6101d26103e5565b005b3480156101e057600080fd5b506101e9610584565b005b3480156101f757600080fd5b506102006107e5565b005b34801561020e57600080fd5b5061022960048036038101906102249190610ec8565b6109a8565b005b34801561023757600080fd5b50610240610cc2565b60405161024d9190610d29565b60405180910390f35b600160009054906101000a900473ffffffffffffffffffffffffffffffffffffffff1681565b6000341161028957600080fd5b336000806101000a81548173ffffffffffffffffffffffffffffffffffffffff021916908373ffffffffffffffffffffffffffffffffffffffff16021790555082600160006101000a81548173ffffffffffffffffffffffffffffffffffffffff021916908373ffffffffffffffffffffffffffffffffffffffff16021790555081600260006101000a81548173ffffffffffffffffffffffffffffffffffffffff021916908373ffffffffffffffffffffffffffffffffffffffff160217905550806003819055506000600460006101000a81548160ff0219169083151502179055506000600460016101000a81548160ff021916908315150217905550505050565b600460009054906101000a900460ff1681565b600047905090565b60008054906101000a900473ffffffffffffffffffffffffffffffffffffffff1681565b600460019054906101000a900460ff1681565b60035481565b60008054906101000a900473ffffffffffffffffffffffffffffffffffffffff1673ffffffffffffffffffffffffffffffffffffffff163373ffffffffffffffffffffffffffffffffffffffff1614610473576040517f08c379a000000000000000000000000000000000000000000000000000000000815260040161046a90610f78565b60405180910390fd5b600460009054906101000a900460ff1615801561049d5750600460019054906101000a900460ff16155b6104dc576040517f08c379a00000000000000000000000000000000000000000000000000000000081526004016104d390610fe4565b60405180910390fd5b6003543414610520576040517f08c379a000000000000000000000000000000000000000000000000000000000815260040161051790611050565b60405180910390fd5b3073ffffffffffffffffffffffffffffffffffffffff166108fc349081150290604051600060405180830381858888f19350505050158015610566573d6000803e3d6000fd5b506001600460006101000a81548160ff021916908315150217905550565b60008054906101000a900473ffffffffffffffffffffffffffffffffffffffff1673ffffffffffffffffffffffffffffffffffffffff163373ffffffffffffffffffffffffffffffffffffffff1614610612576040517f08c379a000000000000000000000000000000000000000000000000000000000815260040161060990610f78565b60405180910390fd5b600460009054906101000a900460ff16610661576040517f08c379a0000000000000000000000000000000000000000000000000000000008152600401610658906110bc565b60405180910390fd5b600460019054906101000a900460ff16156106b1576040517f08c379a00000000000000000000000000000000000000000000000000000000081526004016106a890611128565b60405180910390fd5b60008054906101000a900473ffffffffffffffffffffffffffffffffffffffff1673ffffffffffffffffffffffffffffffffffffffff166108fc6003549081150290604051600060405180830381858888f19350505050158015610719573d6000803e3d6000fd5b507fdf20fd1e76bc69d672e4814fafb2c449bba3a5369d8359adf9e05e6fde87b05660008054906101000a900473ffffffffffffffffffffffffffffffffffffffff1660035460405161076d9291906111a7565b60405180910390a16000600460006101000a81548160ff0219169083151502179055506001600460016101000a81548160ff0219169083151502179055507f03445cb5f8dea2a1372e8ac1ea53d21c0c5fbb0cc7dfe8af6d56a5414827179d60006040516107db9190610e57565b60405180910390a1565b600260009054906101000a900473ffffffffffffffffffffffffffffffffffffffff1673ffffffffffffffffffffffffffffffffffffffff163373ffffffffffffffffffffffffffffffffffffffff1614610875576040517f08c379a000000000000000000000000000000000000000000000000000000000815260040161086c90611242565b60405180910390fd5b600460009054906101000a900460ff16801561089d5750600460019054906101000a900460ff165b6108dc576040517f08c379a00000000000000000000000000000000000000000000000000000000081526004016108d3906112ae565b60405180910390fd5b6000479050600260009054906101000a900473ffffffffffffffffffffffffffffffffffffffff1673ffffffffffffffffffffffffffffffffffffffff166108fc829081150290604051600060405180830381858888f19350505050158015610949573d6000803e3d6000fd5b507fdf20fd1e76bc69d672e4814fafb2c449bba3a5369d8359adf9e05e6fde87b056600260009054906101000a900473ffffffffffffffffffffffffffffffffffffffff168260405161099d9291906111a7565b60405180910390a150565b60008054906101000a900473ffffffffffffffffffffffffffffffffffffffff1673ffffffffffffffffffffffffffffffffffffffff163373ffffffffffffffffffffffffffffffffffffffff1614610a36576040517f08c379a0000000000000000000000000000000000000000000000000000000008152600401610a2d90610f78565b60405180910390fd5b600460009054906101000a900460ff16610a85576040517f08c379a0000000000000000000000000000000000000000000000000000000008152600401610a7c906110bc565b60405180910390fd5b600460019054906101000a900460ff1615610ad5576040517f08c379a0000000000000000000000000000000000000000000000000000000008152600401610acc90611128565b60405180910390fd5b8015610ba857600160009054906101000a900473ffffffffffffffffffffffffffffffffffffffff1673ffffffffffffffffffffffffffffffffffffffff166108fc6003549081150290604051600060405180830381858888f19350505050158015610b45573d6000803e3d6000fd5b507fdf20fd1e76bc69d672e4814fafb2c449bba3a5369d8359adf9e05e6fde87b056600160009054906101000a900473ffffffffffffffffffffffffffffffffffffffff16600354604051610b9b9291906111a7565b60405180910390a1610c6d565b60008054906101000a900473ffffffffffffffffffffffffffffffffffffffff1673ffffffffffffffffffffffffffffffffffffffff166108fc6003549081150290604051600060405180830381858888f19350505050158015610c10573d6000803e3d6000fd5b507fdf20fd1e76bc69d672e4814fafb2c449bba3a5369d8359adf9e05e6fde87b05660008054906101000a900473ffffffffffffffffffffffffffffffffffffffff16600354604051610c649291906111a7565b60405180910390a15b6001600460016101000a81548160ff0219169083151502179055507f03445cb5f8dea2a1372e8ac1ea53d21c0c5fbb0cc7dfe8af6d56a5414827179d81604051610cb79190610e57565b60405180910390a150565b600260009054906101000a900473ffffffffffffffffffffffffffffffffffffffff1681565b600073ffffffffffffffffffffffffffffffffffffffff82169050919050565b6000610d1382610ce8565b9050919050565b610d2381610d08565b82525050565b6000602082019050610d3e6000830184610d1a565b92915050565b600080fd5b610d5281610d08565b8114610d5d57600080fd5b50565b600081359050610d6f81610d49565b92915050565b6000610d8082610ce8565b9050919050565b610d9081610d75565b8114610d9b57600080fd5b50565b600081359050610dad81610d87565b92915050565b6000819050919050565b610dc681610db3565b8114610dd157600080fd5b50565b600081359050610de381610dbd565b92915050565b600080600060608486031215610e0257610e01610d44565b5b6000610e1086828701610d60565b9350506020610e2186828701610d9e565b9250506040610e3286828701610dd4565b9150509250925092565b60008115159050919050565b610e5181610e3c565b82525050565b6000602082019050610e6c6000830184610e48565b92915050565b610e7b81610db3565b82525050565b6000602082019050610e966000830184610e72565b92915050565b610ea581610e3c565b8114610eb057600080fd5b50565b600081359050610ec281610e9c565b92915050565b600060208284031215610ede57610edd610d44565b5b6000610eec84828501610eb3565b91505092915050565b600082825260208201905092915050565b7f4f6e6c792062757965722063616e2063616c6c20746869732066756e6374696f60008201527f6e2e000000000000000000000000000000000000000000000000000000000000602082015250565b6000610f62602283610ef5565b9150610f6d82610f06565b604082019050919050565b60006020820190508181036000830152610f9181610f55565b9050919050565b7f457363726f7720697320616c726561647920636f6d706c657465642e00000000600082015250565b6000610fce601c83610ef5565b9150610fd982610f98565b602082019050919050565b60006020820190508181036000830152610ffd81610fc1565b9050919050565b7f496e636f7272656374206465706f73697420616d6f756e742e00000000000000600082015250565b600061103a601983610ef5565b915061104582611004565b602082019050919050565b600060208201905081810360008301526110698161102d565b9050919050565b7f5061796d656e7420686173206e6f74206265656e206d6164652e000000000000600082015250565b60006110a6601a83610ef5565b91506110b182611070565b602082019050919050565b600060208201905081810360008301526110d581611099565b9050919050565b7f44656c697665727920697320616c726561647920636f6e6669726d65642e0000600082015250565b6000611112601e83610ef5565b915061111d826110dc565b602082019050919050565b6000602082019050818103600083015261114181611105565b9050919050565b6000819050919050565b600061116d61116861116384610ce8565b611148565b610ce8565b9050919050565b600061117f82611152565b9050919050565b600061119182611174565b9050919050565b6111a181611186565b82525050565b60006040820190506111bc6000830185611198565b6111c96020830184610e72565b9392505050565b7f4f6e6c7920617262697465722063616e2063616c6c20746869732066756e637460008201527f696f6e2e00000000000000000000000000000000000000000000000000000000602082015250565b600061122c602483610ef5565b9150611237826111d0565b604082019050919050565b6000602082019050818103600083015261125b8161121f565b9050919050565b7f457363726f77206973206e6f7420636f6d706c65746564207965742e00000000600082015250565b6000611298601c83610ef5565b91506112a382611262565b602082019050919050565b600060208201905081810360008301526112c78161128b565b905091905056fea26469706673582212208d9e5ded7ca13dc7cc4f1349fb2e0b53571fc95023bc9eef94f984c08699618564736f6c63430008120033a2646970667358221220832593925be2a7d1640da8cc9a53f0d08907a45545aecb378283ce3b86cc65d764736f6c63430008120033",
  "linkReferences": {},
  "deployedLinkReferences": {}
}