{
  "_format": "hh-sol-artifact-1",
  "contractName": "Products",
  "sourceName": "contracts/Products.sol",
  "abi": [
    {
      "anonymous": false,
      "inputs": [
        {
          "indexed": false,
          "internalType": "uint256",
          "name": "orderId",
          "type": "uint256"
        },
        {
          "indexed": false,
          "internalType": "address",
          "name": "buyer",
          "type": "address"
        },
        {
          "indexed": false,
          "internalType": "address",
          "name": "seller",
          "type": "address"
        },
        {
          "indexed": false,
          "internalType": "uint256",
          "name": "price",
          "type": "uint256"
        }
      ],
      "name": "OrderCreated",
      "type": "event"
    },
    {
      "anonymous": false,
      "inputs": [
        {
          "indexed": false,
          "internalType": "uint256",
          "name": "orderId",
          "type": "uint256"
        }
      ],
      "name": "OrderDelivered",
      "type": "event"
    },
    {
      "anonymous": false,
      "inputs": [
        {
          "indexed": false,
          "internalType": "uint256",
          "name": "orderId",
          "type": "uint256"
        }
      ],
      "name": "OrderRefunded",
      "type": "event"
    },
    {
      "inputs": [
        {
          "internalType": "string",
          "name": "_name",
          "type": "string"
        },
        {
          "internalType": "string",
          "name": "_category",
          "type": "string"
        },
        {
          "internalType": "string[]",
          "name": "_imageLink",
          "type": "string[]"
        },
        {
          "internalType": "string",
          "name": "_descLink",
          "type": "string"
        },
        {
          "internalType": "uint256",
          "name": "_price",
          "type": "uint256"
        },
        {
          "internalType": "string",
          "name": "_location",
          "type": "string"
        },
        {
          "internalType": "uint256",
          "name": "_maxQuantity",
          "type": "uint256"
        },
        {
          "internalType": "uint256",
          "name": "_refundTimeLimit",
          "type": "uint256"
        }
      ],
      "name": "addProduct",
      "outputs": [
        {
          "internalType": "uint256",
          "name": "",
          "type": "uint256"
        }
      ],
      "stateMutability": "nonpayable",
      "type": "function"
    },
    {
      "inputs": [
        {
          "internalType": "address",
          "name": "",
          "type": "address"
        }
      ],
      "name": "arbiters",
      "outputs": [
        {
          "internalType": "bool",
          "name": "",
          "type": "bool"
        }
      ],
      "stateMutability": "view",
      "type": "function"
    },
    {
      "inputs": [
        {
          "internalType": "uint256",
          "name": "_id",
          "type": "uint256"
        }
      ],
      "name": "cancelLive",
      "outputs": [
        {
          "internalType": "bool",
          "name": "",
          "type": "bool"
        }
      ],
      "stateMutability": "nonpayable",
      "type": "function"
    },
    {
      "inputs": [
        {
          "internalType": "address",
          "name": "pubkey",
          "type": "address"
        }
      ],
      "name": "checkUserExists",
      "outputs": [
        {
          "internalType": "bool",
          "name": "",
          "type": "bool"
        }
      ],
      "stateMutability": "view",
      "type": "function"
    },
    {
      "inputs": [
        {
          "internalType": "uint256",
          "name": "_orderId",
          "type": "uint256"
        },
        {
          "internalType": "bool",
          "name": "_success",
          "type": "bool"
        }
      ],
      "name": "confirmDelivery",
      "outputs": [],
      "stateMutability": "nonpayable",
      "type": "function"
    },
    {
      "inputs": [
        {
          "internalType": "string",
          "name": "_storeName",
          "type": "string"
        },
        {
          "internalType": "string",
          "name": "_category",
          "type": "string"
        },
        {
          "internalType": "string",
          "name": "_name",
          "type": "string"
        },
        {
          "internalType": "string",
          "name": "_lastName",
          "type": "string"
        },
        {
          "internalType": "string",
          "name": "_description",
          "type": "string"
        },
        {
          "internalType": "string",
          "name": "_location",
          "type": "string"
        }
      ],
      "name": "createAStore",
      "outputs": [],
      "stateMutability": "nonpayable",
      "type": "function"
    },
    {
      "inputs": [],
      "name": "getAllOrder",
      "outputs": [
        {
          "components": [
            {
              "internalType": "uint256",
              "name": "orderId",
              "type": "uint256"
            },
            {
              "internalType": "address",
              "name": "buyer",
              "type": "address"
            },
            {
              "internalType": "address",
              "name": "seller",
              "type": "address"
            },
            {
              "internalType": "uint256",
              "name": "price",
              "type": "uint256"
            },
            {
              "internalType": "enum Products.OrderStatus",
              "name": "status",
              "type": "uint8"
            },
            {
              "internalType": "bool",
              "name": "isPaid",
              "type": "bool"
            },
            {
              "internalType": "bool",
              "name": "isFulfilled",
              "type": "bool"
            },
            {
              "internalType": "bool",
              "name": "isRefunded",
              "type": "bool"
            },
            {
              "internalType": "contract Escrow",
              "name": "escrow",
              "type": "address"
            }
          ],
          "internalType": "struct Products.Order[]",
          "name": "",
          "type": "tuple[]"
        }
      ],
      "stateMutability": "view",
      "type": "function"
    },
    {
      "inputs": [],
      "name": "getLiveDetail",
      "outputs": [
        {
          "components": [
            {
              "internalType": "string",
              "name": "callId",
              "type": "string"
            },
            {
              "internalType": "string",
              "name": "storeName",
              "type": "string"
            },
            {
              "internalType": "address[]",
              "name": "participant",
              "type": "address[]"
            }
          ],
          "internalType": "struct Products.Live[]",
          "name": "",
          "type": "tuple[]"
        }
      ],
      "stateMutability": "view",
      "type": "function"
    },
    {
      "inputs": [
        {
          "internalType": "address",
          "name": "_owner",
          "type": "address"
        }
      ],
      "name": "getProductByAddress",
      "outputs": [
        {
          "components": [
            {
              "internalType": "string",
              "name": "name",
              "type": "string"
            },
            {
              "internalType": "string",
              "name": "category",
              "type": "string"
            },
            {
              "internalType": "string[]",
              "name": "imageLink",
              "type": "string[]"
            },
            {
              "internalType": "string",
              "name": "descLink",
              "type": "string"
            },
            {
              "internalType": "uint256",
              "name": "price",
              "type": "uint256"
            },
            {
              "internalType": "uint256",
              "name": "index",
              "type": "uint256"
            },
            {
              "internalType": "enum Products.OrderStatus",
              "name": "status",
              "type": "uint8"
            },
            {
              "internalType": "uint256",
              "name": "quantity",
              "type": "uint256"
            },
            {
              "internalType": "string",
              "name": "location",
              "type": "string"
            },
            {
              "internalType": "uint256",
              "name": "maxQuantity",
              "type": "uint256"
            },
            {
              "internalType": "address payable",
              "name": "owner",
              "type": "address"
            },
            {
              "internalType": "uint256",
              "name": "refundTimeLimit",
              "type": "uint256"
            }
          ],
          "internalType": "struct Products.Product[]",
          "name": "",
          "type": "tuple[]"
        }
      ],
      "stateMutability": "view",
      "type": "function"
    },
    {
      "inputs": [],
      "name": "getProductDetails",
      "outputs": [
        {
          "components": [
            {
              "internalType": "string",
              "name": "name",
              "type": "string"
            },
            {
              "internalType": "string",
              "name": "category",
              "type": "string"
            },
            {
              "internalType": "string[]",
              "name": "imageLink",
              "type": "string[]"
            },
            {
              "internalType": "string",
              "name": "descLink",
              "type": "string"
            },
            {
              "internalType": "uint256",
              "name": "price",
              "type": "uint256"
            },
            {
              "internalType": "uint256",
              "name": "index",
              "type": "uint256"
            },
            {
              "internalType": "enum Products.OrderStatus",
              "name": "status",
              "type": "uint8"
            },
            {
              "internalType": "uint256",
              "name": "quantity",
              "type": "uint256"
            },
            {
              "internalType": "string",
              "name": "location",
              "type": "string"
            },
            {
              "internalType": "uint256",
              "name": "maxQuantity",
              "type": "uint256"
            },
            {
              "internalType": "address payable",
              "name": "owner",
              "type": "address"
            },
            {
              "internalType": "uint256",
              "name": "refundTimeLimit",
              "type": "uint256"
            }
          ],
          "internalType": "struct Products.Product[]",
          "name": "",
          "type": "tuple[]"
        }
      ],
      "stateMutability": "view",
      "type": "function"
    },
    {
      "inputs": [],
      "name": "getStoreDetails",
      "outputs": [
        {
          "components": [
            {
              "internalType": "address",
              "name": "owner",
              "type": "address"
            },
            {
              "internalType": "string",
              "name": "storeName",
              "type": "string"
            },
            {
              "internalType": "bool",
              "name": "isSellerActive",
              "type": "bool"
            },
            {
              "internalType": "string",
              "name": "category",
              "type": "string"
            },
            {
              "internalType": "string",
              "name": "name",
              "type": "string"
            },
            {
              "internalType": "string",
              "name": "lastName",
              "type": "string"
            },
            {
              "internalType": "address[]",
              "name": "customer",
              "type": "address[]"
            },
            {
              "internalType": "string",
              "name": "description",
              "type": "string"
            },
            {
              "internalType": "string",
              "name": "meetingId",
              "type": "string"
            },
            {
              "internalType": "string",
              "name": "location",
              "type": "string"
            }
          ],
          "internalType": "struct Products.Store[]",
          "name": "",
          "type": "tuple[]"
        }
      ],
      "stateMutability": "view",
      "type": "function"
    },
    {
      "inputs": [],
      "name": "orderIdCounter",
      "outputs": [
        {
          "internalType": "uint256",
          "name": "",
          "type": "uint256"
        }
      ],
      "stateMutability": "view",
      "type": "function"
    },
    {
      "inputs": [
        {
          "internalType": "uint256",
          "name": "",
          "type": "uint256"
        }
      ],
      "name": "orders",
      "outputs": [
        {
          "internalType": "uint256",
          "name": "orderId",
          "type": "uint256"
        },
        {
          "internalType": "address",
          "name": "buyer",
          "type": "address"
        },
        {
          "internalType": "address",
          "name": "seller",
          "type": "address"
        },
        {
          "internalType": "uint256",
          "name": "price",
          "type": "uint256"
        },
        {
          "internalType": "enum Products.OrderStatus",
          "name": "status",
          "type": "uint8"
        },
        {
          "internalType": "bool",
          "name": "isPaid",
          "type": "bool"
        },
        {
          "internalType": "bool",
          "name": "isFulfilled",
          "type": "bool"
        },
        {
          "internalType": "bool",
          "name": "isRefunded",
          "type": "bool"
        },
        {
          "internalType": "contract Escrow",
          "name": "escrow",
          "type": "address"
        }
      ],
      "stateMutability": "view",
      "type": "function"
    },
    {
      "inputs": [
        {
          "internalType": "uint256",
          "name": "id",
          "type": "uint256"
        },
        {
          "internalType": "uint256",
          "name": "_price",
          "type": "uint256"
        },
        {
          "internalType": "address payable",
          "name": "_arbiter",
          "type": "address"
        }
      ],
      "name": "placeOrder",
      "outputs": [],
      "stateMutability": "payable",
      "type": "function"
    },
    {
      "inputs": [
        {
          "internalType": "uint256",
          "name": "_orderId",
          "type": "uint256"
        }
      ],
      "name": "refundOrder",
      "outputs": [],
      "stateMutability": "nonpayable",
      "type": "function"
    },
    {
      "inputs": [
        {
          "internalType": "string",
          "name": "_callId",
          "type": "string"
        }
      ],
      "name": "startStream",
      "outputs": [
        {
          "internalType": "bool",
          "name": "",
          "type": "bool"
        }
      ],
      "stateMutability": "nonpayable",
      "type": "function"
    }
  ],
  "bytecode": "0x608060405234801561001057600080fd5b5061606f806100206000396000f3fe6080604052600436106100f35760003560e01c806393cd5a1f1161008a578063c018c45711610059578063c018c4571461035d578063e35f968014610386578063e57e4a94146103c3578063fe04eb2d146103ee576100f3565b806393cd5a1f14610287578063a3fa140e146102b0578063a85c38ef146102ed578063be37442314610332576100f3565b80633dfbbad4116100c65780633dfbbad4146101a55780635d39c071146101d05780635f0d382a1461020d5780637bf2bb101461024a576100f3565b806304ef0781146100f8578063133f50f51461012157806323bc839b1461015e57806335e4365f14610189575b600080fd5b34801561010457600080fd5b5061011f600480360381019061011a919061307d565b610419565b005b34801561012d57600080fd5b506101486004803603810190610143919061311b565b61070a565b6040516101559190613157565b60405180910390f35b34801561016a57600080fd5b50610173610764565b604051610180919061354d565b60405180910390f35b6101a3600480360381019061019e919061359b565b610ba8565b005b3480156101b157600080fd5b506101ba611302565b6040516101c791906137d2565b60405180910390f35b3480156101dc57600080fd5b506101f760048036038101906101f29190613929565b611504565b6040516102049190613157565b60405180910390f35b34801561021957600080fd5b50610234600480360381019061022f919061311b565b6116cf565b604051610241919061354d565b60405180910390f35b34801561025657600080fd5b50610271600480360381019061026c919061311b565b611b52565b60405161027e9190613157565b60405180910390f35b34801561029357600080fd5b506102ae60048036038101906102a99190613972565b611b72565b005b3480156102bc57600080fd5b506102d760048036038101906102d29190613b8d565b611df6565b6040516102e49190613cde565b60405180910390f35b3480156102f957600080fd5b50610314600480360381019061030f9190613cf9565b612232565b60405161032999989796959493929190613d53565b60405180910390f35b34801561033e57600080fd5b50610347612314565b6040516103549190613cde565b60405180910390f35b34801561036957600080fd5b50610384600480360381019061037f9190613cf9565b61231a565b005b34801561039257600080fd5b506103ad60048036038101906103a89190613cf9565b6125dc565b6040516103ba9190613157565b60405180910390f35b3480156103cf57600080fd5b506103d86126d6565b6040516103e59190613faf565b60405180910390f35b3480156103fa57600080fd5b506104036128e7565b604051610410919061419e565b60405180910390f35b816003600082815260200190815260200160002060010160009054906101000a900473ffffffffffffffffffffffffffffffffffffffff1673ffffffffffffffffffffffffffffffffffffffff163373ffffffffffffffffffffffffffffffffffffffff16146104be576040517f08c379a00000000000000000000000000000000000000000000000000000000081526004016104b590614243565b60405180910390fd5b60006003600085815260200190815260200160002090508060040160019054906101000a900460ff16610526576040517f08c379a000000000000000000000000000000000000000000000000000000000815260040161051d906142af565b60405180910390fd5b6002600481111561053a576105396132ff565b5b8160040160009054906101000a900460ff16600481111561055e5761055d6132ff565b5b1461059e576040517f08c379a00000000000000000000000000000000000000000000000000000000081526004016105959061431b565b60405180910390fd5b8060040160049054906101000a900473ffffffffffffffffffffffffffffffffffffffff1673ffffffffffffffffffffffffffffffffffffffff1663fa0af12a846040518263ffffffff1660e01b81526004016105fb9190613157565b600060405180830381600087803b15801561061557600080fd5b505af1158015610629573d6000803e3d6000fd5b5050505082156106655760038160040160006101000a81548160ff0219169083600481111561065b5761065a6132ff565b5b02179055506106b0565b60048160040160006101000a81548160ff0219169083600481111561068d5761068c6132ff565b5b021790555060018160040160036101000a81548160ff0219169083151502179055505b60018160040160026101000a81548160ff0219169083151502179055507fe21fe02c1589242b30be2057f54fd54b7ddc463695d19ffdb54f9ebb0584f24a846040516106fc9190613cde565b60405180910390a150505050565b600080600760008473ffffffffffffffffffffffffffffffffffffffff1673ffffffffffffffffffffffffffffffffffffffff168152602001908152602001600020600101805461075a9061436a565b9050119050919050565b6060600a805480602002602001604051908101604052809291908181526020016000905b82821015610b9f57838290600052602060002090600c0201604051806101800160405290816000820180546107bc9061436a565b80601f01602080910402602001604051908101604052809291908181526020018280546107e89061436a565b80156108355780601f1061080a57610100808354040283529160200191610835565b820191906000526020600020905b81548152906001019060200180831161081857829003601f168201915b5050505050815260200160018201805461084e9061436a565b80601f016020809104026020016040519081016040528092919081815260200182805461087a9061436a565b80156108c75780601f1061089c576101008083540402835291602001916108c7565b820191906000526020600020905b8154815290600101906020018083116108aa57829003601f168201915b5050505050815260200160028201805480602002602001604051908101604052809291908181526020016000905b828210156109a15783829060005260206000200180546109149061436a565b80601f01602080910402602001604051908101604052809291908181526020018280546109409061436a565b801561098d5780601f106109625761010080835404028352916020019161098d565b820191906000526020600020905b81548152906001019060200180831161097057829003601f168201915b5050505050815260200190600101906108f5565b5050505081526020016003820180546109b99061436a565b80601f01602080910402602001604051908101604052809291908181526020018280546109e59061436a565b8015610a325780601f10610a0757610100808354040283529160200191610a32565b820191906000526020600020905b815481529060010190602001808311610a1557829003601f168201915b5050505050815260200160048201548152602001600582015481526020016006820160009054906101000a900460ff166004811115610a7457610a736132ff565b5b6004811115610a8657610a856132ff565b5b815260200160078201548152602001600882018054610aa49061436a565b80601f0160208091040260200160405190810160405280929190818152602001828054610ad09061436a565b8015610b1d5780601f10610af257610100808354040283529160200191610b1d565b820191906000526020600020905b815481529060010190602001808311610b0057829003601f168201915b5050505050815260200160098201548152602001600a820160009054906101000a900473ffffffffffffffffffffffffffffffffffffffff1673ffffffffffffffffffffffffffffffffffffffff1673ffffffffffffffffffffffffffffffffffffffff168152602001600b8201548152505081526020019060010190610788565b50505050905090565b600060036000600154815260200190815260200160002090506005600085815260200190815260200160002060040154341015610c1a576040517f08c379a0000000000000000000000000000000000000000000000000000000008152600401610c11906143e7565b60405180910390fd5b8060040160019054906101000a900460ff1615610c6c576040517f08c379a0000000000000000000000000000000000000000000000000000000008152600401610c6390614453565b60405180910390fd5b60006004811115610c8057610c7f6132ff565b5b6005600086815260200190815260200160002060060160009054906101000a900460ff166004811115610cb657610cb56132ff565b5b14610cf6576040517f08c379a0000000000000000000000000000000000000000000000000000000008152600401610ced906144bf565b60405180910390fd5b600060056000868152602001908152602001600020600a0160009054906101000a900473ffffffffffffffffffffffffffffffffffffffff1690506000604051610d3f90612e44565b604051809103906000f080158015610d5b573d6000803e3d6000fd5b5090508073ffffffffffffffffffffffffffffffffffffffff16631794bb3c8386886040518463ffffffff1660e01b8152600401610d9b9392919061450f565b600060405180830381600087803b158015610db557600080fd5b505af1158015610dc9573d6000803e3d6000fd5b505050508073ffffffffffffffffffffffffffffffffffffffff1663d0e30db0346040518263ffffffff1660e01b81526004016000604051808303818588803b158015610e1557600080fd5b505af1158015610e29573d6000803e3d6000fd5b505050505060016000815480929190610e4190614575565b91905055506001548360000181905550338360010160006101000a81548173ffffffffffffffffffffffffffffffffffffffff021916908373ffffffffffffffffffffffffffffffffffffffff160217905550818360020160006101000a81548173ffffffffffffffffffffffffffffffffffffffff021916908373ffffffffffffffffffffffffffffffffffffffff16021790555084836003018190555060018360040160006101000a81548160ff02191690836004811115610f0857610f076132ff565b5b021790555060008360040160016101000a81548160ff02191690831515021790555060008360040160026101000a81548160ff02191690831515021790555060008360040160036101000a81548160ff021916908315150217905550808360040160046101000a81548173ffffffffffffffffffffffffffffffffffffffff021916908373ffffffffffffffffffffffffffffffffffffffff160217905550600d839080600181540180825580915050600190039060005260206000209060050201600090919091909150600082015481600001556001820160009054906101000a900473ffffffffffffffffffffffffffffffffffffffff168160010160006101000a81548173ffffffffffffffffffffffffffffffffffffffff021916908373ffffffffffffffffffffffffffffffffffffffff1602179055506002820160009054906101000a900473ffffffffffffffffffffffffffffffffffffffff168160020160006101000a81548173ffffffffffffffffffffffffffffffffffffffff021916908373ffffffffffffffffffffffffffffffffffffffff160217905550600382015481600301556004820160009054906101000a900460ff168160040160006101000a81548160ff021916908360048111156110ed576110ec6132ff565b5b02179055506004820160019054906101000a900460ff168160040160016101000a81548160ff0219169083151502179055506004820160029054906101000a900460ff168160040160026101000a81548160ff0219169083151502179055506004820160039054906101000a900460ff168160040160036101000a81548160ff0219169083151502179055506004820160049054906101000a900473ffffffffffffffffffffffffffffffffffffffff168160040160046101000a81548173ffffffffffffffffffffffffffffffffffffffff021916908373ffffffffffffffffffffffffffffffffffffffff16021790555050506007600060056000898152602001908152602001600020600a0160009054906101000a900473ffffffffffffffffffffffffffffffffffffffff1673ffffffffffffffffffffffffffffffffffffffff1673ffffffffffffffffffffffffffffffffffffffff168152602001908152602001600020600601339080600181540180825580915050600190039060005260206000200160009091909190916101000a81548173ffffffffffffffffffffffffffffffffffffffff021916908373ffffffffffffffffffffffffffffffffffffffff1602179055507ff9e17940e547201709f9aaacdec8ab3566601c60d8f5affb54f74b79b0b50b136001543384886040516112f294939291906145bd565b60405180910390a1505050505050565b6060600d805480602002602001604051908101604052809291908181526020016000905b828210156114fb578382906000526020600020906005020160405180610120016040529081600082015481526020016001820160009054906101000a900473ffffffffffffffffffffffffffffffffffffffff1673ffffffffffffffffffffffffffffffffffffffff1673ffffffffffffffffffffffffffffffffffffffff1681526020016002820160009054906101000a900473ffffffffffffffffffffffffffffffffffffffff1673ffffffffffffffffffffffffffffffffffffffff1673ffffffffffffffffffffffffffffffffffffffff168152602001600382015481526020016004820160009054906101000a900460ff16600481111561142f5761142e6132ff565b5b6004811115611441576114406132ff565b5b81526020016004820160019054906101000a900460ff161515151581526020016004820160029054906101000a900460ff161515151581526020016004820160039054906101000a900460ff161515151581526020016004820160049054906101000a900473ffffffffffffffffffffffffffffffffffffffff1673ffffffffffffffffffffffffffffffffffffffff1673ffffffffffffffffffffffffffffffffffffffff168152505081526020019060010190611326565b50505050905090565b600061150f3361070a565b61154e576040517f08c379a00000000000000000000000000000000000000000000000000000000081526004016115459061464e565b60405180910390fd5b60006002600060095481526020019081526020016000209050828160000190816115789190614810565b50600760003373ffffffffffffffffffffffffffffffffffffffff1673ffffffffffffffffffffffffffffffffffffffff1681526020019081526020016000206001018160010190816115cb919061490d565b506001600760003373ffffffffffffffffffffffffffffffffffffffff1673ffffffffffffffffffffffffffffffffffffffff16815260200190815260200160002060020160006101000a81548160ff02191690831515021790555082600760003373ffffffffffffffffffffffffffffffffffffffff1673ffffffffffffffffffffffffffffffffffffffff16815260200190815260200160002060080190816116769190614810565b50600760003373ffffffffffffffffffffffffffffffffffffffff1673ffffffffffffffffffffffffffffffffffffffff16815260200190815260200160002060020160009054906101000a900460ff16915050919050565b6060600660008373ffffffffffffffffffffffffffffffffffffffff1673ffffffffffffffffffffffffffffffffffffffff168152602001908152602001600020805480602002602001604051908101604052809291908181526020016000905b82821015611b4757838290600052602060002090600c0201604051806101800160405290816000820180546117649061436a565b80601f01602080910402602001604051908101604052809291908181526020018280546117909061436a565b80156117dd5780601f106117b2576101008083540402835291602001916117dd565b820191906000526020600020905b8154815290600101906020018083116117c057829003601f168201915b505050505081526020016001820180546117f69061436a565b80601f01602080910402602001604051908101604052809291908181526020018280546118229061436a565b801561186f5780601f106118445761010080835404028352916020019161186f565b820191906000526020600020905b81548152906001019060200180831161185257829003601f168201915b5050505050815260200160028201805480602002602001604051908101604052809291908181526020016000905b828210156119495783829060005260206000200180546118bc9061436a565b80601f01602080910402602001604051908101604052809291908181526020018280546118e89061436a565b80156119355780601f1061190a57610100808354040283529160200191611935565b820191906000526020600020905b81548152906001019060200180831161191857829003601f168201915b50505050508152602001906001019061189d565b5050505081526020016003820180546119619061436a565b80601f016020809104026020016040519081016040528092919081815260200182805461198d9061436a565b80156119da5780601f106119af576101008083540402835291602001916119da565b820191906000526020600020905b8154815290600101906020018083116119bd57829003601f168201915b5050505050815260200160048201548152602001600582015481526020016006820160009054906101000a900460ff166004811115611a1c57611a1b6132ff565b5b6004811115611a2e57611a2d6132ff565b5b815260200160078201548152602001600882018054611a4c9061436a565b80601f0160208091040260200160405190810160405280929190818152602001828054611a789061436a565b8015611ac55780601f10611a9a57610100808354040283529160200191611ac5565b820191906000526020600020905b815481529060010190602001808311611aa857829003601f168201915b5050505050815260200160098201548152602001600a820160009054906101000a900473ffffffffffffffffffffffffffffffffffffffff1673ffffffffffffffffffffffffffffffffffffffff1673ffffffffffffffffffffffffffffffffffffffff168152602001600b8201548152505081526020019060010190611730565b505050509050919050565b60046020528060005260406000206000915054906101000a900460ff1681565b6000600760003373ffffffffffffffffffffffffffffffffffffffff1673ffffffffffffffffffffffffffffffffffffffff168152602001908152602001600020905086816001019081611bc69190614810565b50338160000160006101000a81548173ffffffffffffffffffffffffffffffffffffffff021916908373ffffffffffffffffffffffffffffffffffffffff16021790555084816004019081611c1b9190614810565b5085816003019081611c2d9190614810565b5083816005019081611c3f9190614810565b5082816007019081611c519190614810565b5060008160020160006101000a81548160ff02191690831515021790555081816009019081611c809190614810565b50600b8190806001815401808255809150506001900390600052602060002090600a02016000909190919091506000820160009054906101000a900473ffffffffffffffffffffffffffffffffffffffff168160000160006101000a81548173ffffffffffffffffffffffffffffffffffffffff021916908373ffffffffffffffffffffffffffffffffffffffff16021790555060018201816001019081611d289190614a0b565b506002820160009054906101000a900460ff168160020160006101000a81548160ff02191690831515021790555060038201816003019081611d6a9190614a0b565b5060048201816004019081611d7f9190614a0b565b5060058201816005019081611d949190614a0b565b506006820181600601908054611dab929190612e51565b5060078201816007019081611dc09190614a0b565b5060088201816008019081611dd59190614a0b565b5060098201816009019081611dea9190614a0b565b50505050505050505050565b6000600760003373ffffffffffffffffffffffffffffffffffffffff1673ffffffffffffffffffffffffffffffffffffffff16815260200190815260200160002060000160009054906101000a900473ffffffffffffffffffffffffffffffffffffffff1673ffffffffffffffffffffffffffffffffffffffff163373ffffffffffffffffffffffffffffffffffffffff1614611ec8576040517f08c379a0000000000000000000000000000000000000000000000000000000008152600401611ebf90614b65565b60405180910390fd5b611ed13361070a565b611f10576040517f08c379a0000000000000000000000000000000000000000000000000000000008152600401611f079061464e565b60405180910390fd5b600073ffffffffffffffffffffffffffffffffffffffff163373ffffffffffffffffffffffffffffffffffffffff1603611f7f576040517f08c379a0000000000000000000000000000000000000000000000000000000008152600401611f7690614bd1565b60405180910390fd5b60086000815480929190611f9290614575565b91905055506000600560006008548152602001908152602001600020905089816000019081611fc19190614810565b503381600a0160006101000a81548173ffffffffffffffffffffffffffffffffffffffff021916908373ffffffffffffffffffffffffffffffffffffffff160217905550888160010190816120169190614810565b50868160030190816120289190614810565b5087816002019080519060200190612041929190612ea3565b5060085481600501819055508481600801908161205e9190614810565b508381600901819055508581600401819055506000816007018190555060008160060160006101000a81548160ff021916908360048111156120a3576120a26132ff565b5b02179055508281600b0181905550600a8190806001815401808255809150506001900390600052602060002090600c0201600090919091909150600082018160000190816120f19190614a0b565b50600182018160010190816121069190614a0b565b50600282018160020190805461211d929190612efc565b50600382018160030190816121329190614a0b565b5060048201548160040155600582015481600501556006820160009054906101000a900460ff168160060160006101000a81548160ff0219169083600481111561217f5761217e6132ff565b5b021790555060078201548160070155600882018160080190816121a29190614a0b565b5060098201548160090155600a820160009054906101000a900473ffffffffffffffffffffffffffffffffffffffff1681600a0160006101000a81548173ffffffffffffffffffffffffffffffffffffffff021916908373ffffffffffffffffffffffffffffffffffffffff160217905550600b82015481600b0155505060085491505098975050505050505050565b60036020528060005260406000206000915090508060000154908060010160009054906101000a900473ffffffffffffffffffffffffffffffffffffffff16908060020160009054906101000a900473ffffffffffffffffffffffffffffffffffffffff16908060030154908060040160009054906101000a900460ff16908060040160019054906101000a900460ff16908060040160029054906101000a900460ff16908060040160039054906101000a900460ff16908060040160049054906101000a900473ffffffffffffffffffffffffffffffffffffffff16905089565b60015481565b806003600082815260200190815260200160002060010160009054906101000a900473ffffffffffffffffffffffffffffffffffffffff1673ffffffffffffffffffffffffffffffffffffffff163373ffffffffffffffffffffffffffffffffffffffff16146123bf576040517f08c379a00000000000000000000000000000000000000000000000000000000081526004016123b690614243565b60405180910390fd5b60006003600084815260200190815260200160002090508060040160019054906101000a900460ff16612427576040517f08c379a000000000000000000000000000000000000000000000000000000000815260040161241e906142af565b60405180910390fd5b8060040160029054906101000a900460ff1615612479576040517f08c379a000000000000000000000000000000000000000000000000000000000815260040161247090614c63565b60405180910390fd5b60056000848152602001908152602001600020600b01544210156124d2576040517f08c379a00000000000000000000000000000000000000000000000000000000081526004016124c990614cf5565b60405180910390fd5b8060040160049054906101000a900473ffffffffffffffffffffffffffffffffffffffff1673ffffffffffffffffffffffffffffffffffffffff1663e8a61cc86040518163ffffffff1660e01b8152600401600060405180830381600087803b15801561253e57600080fd5b505af1158015612552573d6000803e3d6000fd5b5050505060048160040160006101000a81548160ff0219169083600481111561257e5761257d6132ff565b5b021790555060018160040160036101000a81548160ff0219169083151502179055507f303a31648d19f17852cf82657162c4bdd4a06ab3f36f1e7ae1118f4ca6473e11836040516125cf9190613cde565b60405180910390a1505050565b600060026000838152602001908152602001600020600080820160006126029190612f59565b6001820160006126129190612f59565b6002820160006126229190612f99565b50506000600760003373ffffffffffffffffffffffffffffffffffffffff1673ffffffffffffffffffffffffffffffffffffffff16815260200190815260200160002060020160006101000a81548160ff021916908315150217905550600760003373ffffffffffffffffffffffffffffffffffffffff1673ffffffffffffffffffffffffffffffffffffffff16815260200190815260200160002060020160009054906101000a900460ff169050919050565b6060600c805480602002602001604051908101604052809291908181526020016000905b828210156128de578382906000526020600020906003020160405180606001604052908160008201805461272d9061436a565b80601f01602080910402602001604051908101604052809291908181526020018280546127599061436a565b80156127a65780601f1061277b576101008083540402835291602001916127a6565b820191906000526020600020905b81548152906001019060200180831161278957829003601f168201915b505050505081526020016001820180546127bf9061436a565b80601f01602080910402602001604051908101604052809291908181526020018280546127eb9061436a565b80156128385780601f1061280d57610100808354040283529160200191612838565b820191906000526020600020905b81548152906001019060200180831161281b57829003601f168201915b50505050508152602001600282018054806020026020016040519081016040528092919081815260200182805480156128c657602002820191906000526020600020905b8160009054906101000a900473ffffffffffffffffffffffffffffffffffffffff1673ffffffffffffffffffffffffffffffffffffffff168152602001906001019080831161287c575b505050505081525050815260200190600101906126fa565b50505050905090565b6060600b805480602002602001604051908101604052809291908181526020016000905b82821015612e3b57838290600052602060002090600a0201604051806101400160405290816000820160009054906101000a900473ffffffffffffffffffffffffffffffffffffffff1673ffffffffffffffffffffffffffffffffffffffff1673ffffffffffffffffffffffffffffffffffffffff1681526020016001820180546129959061436a565b80601f01602080910402602001604051908101604052809291908181526020018280546129c19061436a565b8015612a0e5780601f106129e357610100808354040283529160200191612a0e565b820191906000526020600020905b8154815290600101906020018083116129f157829003601f168201915b505050505081526020016002820160009054906101000a900460ff16151515158152602001600382018054612a429061436a565b80601f0160208091040260200160405190810160405280929190818152602001828054612a6e9061436a565b8015612abb5780601f10612a9057610100808354040283529160200191612abb565b820191906000526020600020905b815481529060010190602001808311612a9e57829003601f168201915b50505050508152602001600482018054612ad49061436a565b80601f0160208091040260200160405190810160405280929190818152602001828054612b009061436a565b8015612b4d5780601f10612b2257610100808354040283529160200191612b4d565b820191906000526020600020905b815481529060010190602001808311612b3057829003601f168201915b50505050508152602001600582018054612b669061436a565b80601f0160208091040260200160405190810160405280929190818152602001828054612b929061436a565b8015612bdf5780601f10612bb457610100808354040283529160200191612bdf565b820191906000526020600020905b815481529060010190602001808311612bc257829003601f168201915b5050505050815260200160068201805480602002602001604051908101604052809291908181526020018280548015612c6d57602002820191906000526020600020905b8160009054906101000a900473ffffffffffffffffffffffffffffffffffffffff1673ffffffffffffffffffffffffffffffffffffffff1681526020019060010190808311612c23575b50505050508152602001600782018054612c869061436a565b80601f0160208091040260200160405190810160405280929190818152602001828054612cb29061436a565b8015612cff5780601f10612cd457610100808354040283529160200191612cff565b820191906000526020600020905b815481529060010190602001808311612ce257829003601f168201915b50505050508152602001600882018054612d189061436a565b80601f0160208091040260200160405190810160405280929190818152602001828054612d449061436a565b8015612d915780601f10612d6657610100808354040283529160200191612d91565b820191906000526020600020905b815481529060010190602001808311612d7457829003601f168201915b50505050508152602001600982018054612daa9061436a565b80601f0160208091040260200160405190810160405280929190818152602001828054612dd69061436a565b8015612e235780601f10612df857610100808354040283529160200191612e23565b820191906000526020600020905b815481529060010190602001808311612e0657829003601f168201915b5050505050815250508152602001906001019061290b565b50505050905090565b61132480614d1683390190565b828054828255906000526020600020908101928215612e925760005260206000209182015b82811115612e91578254825591600101919060010190612e76565b5b509050612e9f9190612fba565b5090565b828054828255906000526020600020908101928215612eeb579160200282015b82811115612eea578251829081612eda9190614810565b5091602001919060010190612ec3565b5b509050612ef89190612fd7565b5090565b828054828255906000526020600020908101928215612f485760005260206000209182015b82811115612f475782829081612f379190614a0b565b5091600101919060010190612f21565b5b509050612f559190612fd7565b5090565b508054612f659061436a565b6000825580601f10612f775750612f96565b601f016020900490600052602060002090810190612f959190612fba565b5b50565b5080546000825590600052602060002090810190612fb79190612fba565b50565b5b80821115612fd3576000816000905550600101612fbb565b5090565b5b80821115612ff75760008181612fee9190612f59565b50600101612fd8565b5090565b6000604051905090565b600080fd5b600080fd5b6000819050919050565b6130228161300f565b811461302d57600080fd5b50565b60008135905061303f81613019565b92915050565b60008115159050919050565b61305a81613045565b811461306557600080fd5b50565b60008135905061307781613051565b92915050565b6000806040838503121561309457613093613005565b5b60006130a285828601613030565b92505060206130b385828601613068565b9150509250929050565b600073ffffffffffffffffffffffffffffffffffffffff82169050919050565b60006130e8826130bd565b9050919050565b6130f8816130dd565b811461310357600080fd5b50565b600081359050613115816130ef565b92915050565b60006020828403121561313157613130613005565b5b600061313f84828501613106565b91505092915050565b61315181613045565b82525050565b600060208201905061316c6000830184613148565b92915050565b600081519050919050565b600082825260208201905092915050565b6000819050602082019050919050565b600081519050919050565b600082825260208201905092915050565b60005b838110156131d85780820151818401526020810190506131bd565b60008484015250505050565b6000601f19601f8301169050919050565b60006132008261319e565b61320a81856131a9565b935061321a8185602086016131ba565b613223816131e4565b840191505092915050565b600081519050919050565b600082825260208201905092915050565b6000819050602082019050919050565b600061326683836131f5565b905092915050565b6000602082019050919050565b60006132868261322e565b6132908185613239565b9350836020820285016132a28561324a565b8060005b858110156132de57848403895281516132bf858261325a565b94506132ca8361326e565b925060208a019950506001810190506132a6565b50829750879550505050505092915050565b6132f98161300f565b82525050565b7f4e487b7100000000000000000000000000000000000000000000000000000000600052602160045260246000fd5b6005811061333f5761333e6132ff565b5b50565b60008190506133508261332e565b919050565b600061336082613342565b9050919050565b61337081613355565b82525050565b6000613381826130bd565b9050919050565b61339181613376565b82525050565b60006101808301600083015184820360008601526133b582826131f5565b915050602083015184820360208601526133cf82826131f5565b915050604083015184820360408601526133e9828261327b565b9150506060830151848203606086015261340382826131f5565b915050608083015161341860808601826132f0565b5060a083015161342b60a08601826132f0565b5060c083015161343e60c0860182613367565b5060e083015161345160e08601826132f0565b5061010083015184820361010086015261346b82826131f5565b9150506101208301516134826101208601826132f0565b50610140830151613497610140860182613388565b506101608301516134ac6101608601826132f0565b508091505092915050565b60006134c38383613397565b905092915050565b6000602082019050919050565b60006134e382613172565b6134ed818561317d565b9350836020820285016134ff8561318e565b8060005b8581101561353b578484038952815161351c85826134b7565b9450613527836134cb565b925060208a01995050600181019050613503565b50829750879550505050505092915050565b6000602082019050818103600083015261356781846134d8565b905092915050565b61357881613376565b811461358357600080fd5b50565b6000813590506135958161356f565b92915050565b6000806000606084860312156135b4576135b3613005565b5b60006135c286828701613030565b93505060206135d386828701613030565b92505060406135e486828701613586565b9150509250925092565b600081519050919050565b600082825260208201905092915050565b6000819050602082019050919050565b613623816130dd565b82525050565b61363281613045565b82525050565b6000819050919050565b600061365d613658613653846130bd565b613638565b6130bd565b9050919050565b600061366f82613642565b9050919050565b600061368182613664565b9050919050565b61369181613676565b82525050565b610120820160008201516136ae60008501826132f0565b5060208201516136c1602085018261361a565b5060408201516136d4604085018261361a565b5060608201516136e760608501826132f0565b5060808201516136fa6080850182613367565b5060a082015161370d60a0850182613629565b5060c082015161372060c0850182613629565b5060e082015161373360e0850182613629565b50610100820151613748610100850182613688565b50505050565b600061375a8383613697565b6101208301905092915050565b6000602082019050919050565b600061377f826135ee565b61378981856135f9565b93506137948361360a565b8060005b838110156137c55781516137ac888261374e565b97506137b783613767565b925050600181019050613798565b5085935050505092915050565b600060208201905081810360008301526137ec8184613774565b905092915050565b600080fd5b600080fd5b7f4e487b7100000000000000000000000000000000000000000000000000000000600052604160045260246000fd5b613836826131e4565b810181811067ffffffffffffffff82111715613855576138546137fe565b5b80604052505050565b6000613868612ffb565b9050613874828261382d565b919050565b600067ffffffffffffffff821115613894576138936137fe565b5b61389d826131e4565b9050602081019050919050565b82818337600083830152505050565b60006138cc6138c784613879565b61385e565b9050828152602081018484840111156138e8576138e76137f9565b5b6138f38482856138aa565b509392505050565b600082601f8301126139105761390f6137f4565b5b81356139208482602086016138b9565b91505092915050565b60006020828403121561393f5761393e613005565b5b600082013567ffffffffffffffff81111561395d5761395c61300a565b5b613969848285016138fb565b91505092915050565b60008060008060008060c0878903121561398f5761398e613005565b5b600087013567ffffffffffffffff8111156139ad576139ac61300a565b5b6139b989828a016138fb565b965050602087013567ffffffffffffffff8111156139da576139d961300a565b5b6139e689828a016138fb565b955050604087013567ffffffffffffffff811115613a0757613a0661300a565b5b613a1389828a016138fb565b945050606087013567ffffffffffffffff811115613a3457613a3361300a565b5b613a4089828a016138fb565b935050608087013567ffffffffffffffff811115613a6157613a6061300a565b5b613a6d89828a016138fb565b92505060a087013567ffffffffffffffff811115613a8e57613a8d61300a565b5b613a9a89828a016138fb565b9150509295509295509295565b600067ffffffffffffffff821115613ac257613ac16137fe565b5b602082029050602081019050919050565b600080fd5b6000613aeb613ae684613aa7565b61385e565b90508083825260208201905060208402830185811115613b0e57613b0d613ad3565b5b835b81811015613b5557803567ffffffffffffffff811115613b3357613b326137f4565b5b808601613b4089826138fb565b85526020850194505050602081019050613b10565b5050509392505050565b600082601f830112613b7457613b736137f4565b5b8135613b84848260208601613ad8565b91505092915050565b600080600080600080600080610100898b031215613bae57613bad613005565b5b600089013567ffffffffffffffff811115613bcc57613bcb61300a565b5b613bd88b828c016138fb565b985050602089013567ffffffffffffffff811115613bf957613bf861300a565b5b613c058b828c016138fb565b975050604089013567ffffffffffffffff811115613c2657613c2561300a565b5b613c328b828c01613b5f565b965050606089013567ffffffffffffffff811115613c5357613c5261300a565b5b613c5f8b828c016138fb565b9550506080613c708b828c01613030565b94505060a089013567ffffffffffffffff811115613c9157613c9061300a565b5b613c9d8b828c016138fb565b93505060c0613cae8b828c01613030565b92505060e0613cbf8b828c01613030565b9150509295985092959890939650565b613cd88161300f565b82525050565b6000602082019050613cf36000830184613ccf565b92915050565b600060208284031215613d0f57613d0e613005565b5b6000613d1d84828501613030565b91505092915050565b613d2f816130dd565b82525050565b613d3e81613355565b82525050565b613d4d81613676565b82525050565b600061012082019050613d69600083018c613ccf565b613d76602083018b613d26565b613d83604083018a613d26565b613d906060830189613ccf565b613d9d6080830188613d35565b613daa60a0830187613148565b613db760c0830186613148565b613dc460e0830185613148565b613dd2610100830184613d44565b9a9950505050505050505050565b600081519050919050565b600082825260208201905092915050565b6000819050602082019050919050565b600081519050919050565b600082825260208201905092915050565b6000819050602082019050919050565b6000613e44838361361a565b60208301905092915050565b6000602082019050919050565b6000613e6882613e0c565b613e728185613e17565b9350613e7d83613e28565b8060005b83811015613eae578151613e958882613e38565b9750613ea083613e50565b925050600181019050613e81565b5085935050505092915050565b60006060830160008301518482036000860152613ed882826131f5565b91505060208301518482036020860152613ef282826131f5565b91505060408301518482036040860152613f0c8282613e5d565b9150508091505092915050565b6000613f258383613ebb565b905092915050565b6000602082019050919050565b6000613f4582613de0565b613f4f8185613deb565b935083602082028501613f6185613dfc565b8060005b85811015613f9d5784840389528151613f7e8582613f19565b9450613f8983613f2d565b925060208a01995050600181019050613f65565b50829750879550505050505092915050565b60006020820190508181036000830152613fc98184613f3a565b905092915050565b600081519050919050565b600082825260208201905092915050565b6000819050602082019050919050565b600061014083016000830151614016600086018261361a565b506020830151848203602086015261402e82826131f5565b91505060408301516140436040860182613629565b506060830151848203606086015261405b82826131f5565b9150506080830151848203608086015261407582826131f5565b91505060a083015184820360a086015261408f82826131f5565b91505060c083015184820360c08601526140a98282613e5d565b91505060e083015184820360e08601526140c382826131f5565b9150506101008301518482036101008601526140df82826131f5565b9150506101208301518482036101208601526140fb82826131f5565b9150508091505092915050565b60006141148383613ffd565b905092915050565b6000602082019050919050565b600061413482613fd1565b61413e8185613fdc565b93508360208202850161415085613fed565b8060005b8581101561418c578484038952815161416d8582614108565b94506141788361411c565b925060208a01995050600181019050614154565b50829750879550505050505092915050565b600060208201905081810360008301526141b88184614129565b905092915050565b600082825260208201905092915050565b7f4f6e6c79207468652062757965722063616e2063616c6c20746869732066756e60008201527f6374696f6e2e0000000000000000000000000000000000000000000000000000602082015250565b600061422d6026836141c0565b9150614238826141d1565b604082019050919050565b6000602082019050818103600083015261425c81614220565b9050919050565b7f5061796d656e7420686173206e6f74206265656e206d6164652e000000000000600082015250565b6000614299601a836141c0565b91506142a482614263565b602082019050919050565b600060208201905081810360008301526142c88161428c565b9050919050565b7f4f7264657220686173206e6f74206265656e20736869707065642e0000000000600082015250565b6000614305601b836141c0565b9150614310826142cf565b602082019050919050565b60006020820190508181036000830152614334816142f8565b9050919050565b7f4e487b7100000000000000000000000000000000000000000000000000000000600052602260045260246000fd5b6000600282049050600182168061438257607f821691505b6020821081036143955761439461433b565b5b50919050565b7f496e73756666696369656e74207061796d656e742e0000000000000000000000600082015250565b60006143d16015836141c0565b91506143dc8261439b565b602082019050919050565b60006020820190508181036000830152614400816143c4565b9050919050565b7f5061796d656e742068617320616c7265616479206265656e206d6164652e0000600082015250565b600061443d601e836141c0565b915061444882614407565b602082019050919050565b6000602082019050818103600083015261446c81614430565b9050919050565b7f50726f64756374206973206e6f7420617661696c61626c652e00000000000000600082015250565b60006144a96019836141c0565b91506144b482614473565b602082019050919050565b600060208201905081810360008301526144d88161449c565b9050919050565b6144e881613376565b82525050565b60006144f982613664565b9050919050565b614509816144ee565b82525050565b600060608201905061452460008301866144df565b6145316020830185614500565b61453e6040830184613ccf565b949350505050565b7f4e487b7100000000000000000000000000000000000000000000000000000000600052601160045260246000fd5b60006145808261300f565b91507fffffffffffffffffffffffffffffffffffffffffffffffffffffffffffffffff82036145b2576145b1614546565b5b600182019050919050565b60006080820190506145d26000830187613ccf565b6145df6020830186613d26565b6145ec6040830185614500565b6145f96060830184613ccf565b95945050505050565b7f53746f726520646f6573206e6f742065786973742e0000000000000000000000600082015250565b60006146386015836141c0565b915061464382614602565b602082019050919050565b600060208201905081810360008301526146678161462b565b9050919050565b60008190508160005260206000209050919050565b60006020601f8301049050919050565b600082821b905092915050565b6000600883026146d07fffffffffffffffffffffffffffffffffffffffffffffffffffffffffffffffff82614693565b6146da8683614693565b95508019841693508086168417925050509392505050565b600061470d6147086147038461300f565b613638565b61300f565b9050919050565b6000819050919050565b614727836146f2565b61473b61473382614714565b8484546146a0565b825550505050565b600090565b614750614743565b61475b81848461471e565b505050565b5b8181101561477f57614774600082614748565b600181019050614761565b5050565b601f8211156147c4576147958161466e565b61479e84614683565b810160208510156147ad578190505b6147c16147b985614683565b830182614760565b50505b505050565b600082821c905092915050565b60006147e7600019846008026147c9565b1980831691505092915050565b600061480083836147d6565b9150826002028217905092915050565b6148198261319e565b67ffffffffffffffff811115614832576148316137fe565b5b61483c825461436a565b614847828285614783565b600060209050601f83116001811461487a5760008415614868578287015190505b61487285826147f4565b8655506148da565b601f1984166148888661466e565b60005b828110156148b05784890151825560018201915060208501945060208101905061488b565b868310156148cd57848901516148c9601f8916826147d6565b8355505b6001600288020188555050505b505050505050565b6000815490506148f18161436a565b9050919050565b60008190508160005260206000209050919050565b81810361491b5750506149f3565b614924826148e2565b67ffffffffffffffff81111561493d5761493c6137fe565b5b614947825461436a565b614952828285614783565b6000601f831160018114614981576000841561496f578287015490505b61497985826147f4565b8655506149ec565b601f19841661498f876148f8565b965061499a8661466e565b60005b828110156149c25784890154825560018201915060018501945060208101905061499d565b868310156149df57848901546149db601f8916826147d6565b8355505b6001600288020188555050505b5050505050505b565b600081549050614a048161436a565b9050919050565b818103614a19575050614af1565b614a22826149f5565b67ffffffffffffffff811115614a3b57614a3a6137fe565b5b614a45825461436a565b614a50828285614783565b6000601f831160018114614a7f5760008415614a6d578287015490505b614a7785826147f4565b865550614aea565b601f198416614a8d8761466e565b9650614a988661466e565b60005b82811015614ac057848901548255600182019150600185019450602081019050614a9b565b86831015614add5784890154614ad9601f8916826147d6565b8355505b6001600288020188555050505b5050505050505b565b7f4f6e6c792074686520636f6e7472616374206f776e65722063616e2063616c6c60008201527f20746869732066756e6374696f6e2e0000000000000000000000000000000000602082015250565b6000614b4f602f836141c0565b9150614b5a82614af3565b604082019050919050565b60006020820190508181036000830152614b7e81614b42565b9050919050565b7f496e76616c69642073656e64657220616464726573732e000000000000000000600082015250565b6000614bbb6017836141c0565b9150614bc682614b85565b602082019050919050565b60006020820190508181036000830152614bea81614bae565b9050919050565b7f4f726465722068617320616c7265616479206265656e2066756c66696c6c656460008201527f2e00000000000000000000000000000000000000000000000000000000000000602082015250565b6000614c4d6021836141c0565b9150614c5882614bf1565b604082019050919050565b60006020820190508181036000830152614c7c81614c40565b9050919050565b7f526566756e642074696d65206c696d697420686173206e6f74206265656e207260008201527f6561636865642e00000000000000000000000000000000000000000000000000602082015250565b6000614cdf6027836141c0565b9150614cea82614c83565b604082019050919050565b60006020820190508181036000830152614d0e81614cd2565b905091905056fe608060405234801561001057600080fd5b50611304806100206000396000f3fe6080604052600436106100a75760003560e01c8063a035b1fe11610064578063a035b1fe1461019f578063d0e30db0146101ca578063e8a61cc8146101d4578063ed11d7a8146101eb578063fa0af12a14610202578063fe25e00a1461022b576100a7565b806308551a53146100ac5780631794bb3c146100d7578063209ebc08146100f35780636f9fb98a1461011e5780637150d8ae14610149578063765f744c14610174575b600080fd5b3480156100b857600080fd5b506100c1610256565b6040516100ce9190610d29565b60405180910390f35b6100f160048036038101906100ec9190610de9565b61027c565b005b3480156100ff57600080fd5b5061010861038d565b6040516101159190610e57565b60405180910390f35b34801561012a57600080fd5b506101336103a0565b6040516101409190610e81565b60405180910390f35b34801561015557600080fd5b5061015e6103a8565b60405161016b9190610d29565b60405180910390f35b34801561018057600080fd5b506101896103cc565b6040516101969190610e57565b60405180910390f35b3480156101ab57600080fd5b506101b46103df565b6040516101c19190610e81565b60405180910390f35b6101d26103e5565b005b3480156101e057600080fd5b506101e9610584565b005b3480156101f757600080fd5b506102006107e5565b005b34801561020e57600080fd5b5061022960048036038101906102249190610ec8565b6109a8565b005b34801561023757600080fd5b50610240610cc2565b60405161024d9190610d29565b60405180910390f35b600160009054906101000a900473ffffffffffffffffffffffffffffffffffffffff1681565b6000341161028957600080fd5b336000806101000a81548173ffffffffffffffffffffffffffffffffffffffff021916908373ffffffffffffffffffffffffffffffffffffffff16021790555082600160006101000a81548173ffffffffffffffffffffffffffffffffffffffff021916908373ffffffffffffffffffffffffffffffffffffffff16021790555081600260006101000a81548173ffffffffffffffffffffffffffffffffffffffff021916908373ffffffffffffffffffffffffffffffffffffffff160217905550806003819055506000600460006101000a81548160ff0219169083151502179055506000600460016101000a81548160ff021916908315150217905550505050565b600460009054906101000a900460ff1681565b600047905090565b60008054906101000a900473ffffffffffffffffffffffffffffffffffffffff1681565b600460019054906101000a900460ff1681565b60035481565b60008054906101000a900473ffffffffffffffffffffffffffffffffffffffff1673ffffffffffffffffffffffffffffffffffffffff163373ffffffffffffffffffffffffffffffffffffffff1614610473576040517f08c379a000000000000000000000000000000000000000000000000000000000815260040161046a90610f78565b60405180910390fd5b600460009054906101000a900460ff1615801561049d5750600460019054906101000a900460ff16155b6104dc576040517f08c379a00000000000000000000000000000000000000000000000000000000081526004016104d390610fe4565b60405180910390fd5b6003543414610520576040517f08c379a000000000000000000000000000000000000000000000000000000000815260040161051790611050565b60405180910390fd5b3073ffffffffffffffffffffffffffffffffffffffff166108fc349081150290604051600060405180830381858888f19350505050158015610566573d6000803e3d6000fd5b506001600460006101000a81548160ff021916908315150217905550565b60008054906101000a900473ffffffffffffffffffffffffffffffffffffffff1673ffffffffffffffffffffffffffffffffffffffff163373ffffffffffffffffffffffffffffffffffffffff1614610612576040517f08c379a000000000000000000000000000000000000000000000000000000000815260040161060990610f78565b60405180910390fd5b600460009054906101000a900460ff16610661576040517f08c379a0000000000000000000000000000000000000000000000000000000008152600401610658906110bc565b60405180910390fd5b600460019054906101000a900460ff16156106b1576040517f08c379a00000000000000000000000000000000000000000000000000000000081526004016106a890611128565b60405180910390fd5b60008054906101000a900473ffffffffffffffffffffffffffffffffffffffff1673ffffffffffffffffffffffffffffffffffffffff166108fc6003549081150290604051600060405180830381858888f19350505050158015610719573d6000803e3d6000fd5b507fdf20fd1e76bc69d672e4814fafb2c449bba3a5369d8359adf9e05e6fde87b05660008054906101000a900473ffffffffffffffffffffffffffffffffffffffff1660035460405161076d9291906111a7565b60405180910390a16000600460006101000a81548160ff0219169083151502179055506001600460016101000a81548160ff0219169083151502179055507f03445cb5f8dea2a1372e8ac1ea53d21c0c5fbb0cc7dfe8af6d56a5414827179d60006040516107db9190610e57565b60405180910390a1565b600260009054906101000a900473ffffffffffffffffffffffffffffffffffffffff1673ffffffffffffffffffffffffffffffffffffffff163373ffffffffffffffffffffffffffffffffffffffff1614610875576040517f08c379a000000000000000000000000000000000000000000000000000000000815260040161086c90611242565b60405180910390fd5b600460009054906101000a900460ff16801561089d5750600460019054906101000a900460ff165b6108dc576040517f08c379a00000000000000000000000000000000000000000000000000000000081526004016108d3906112ae565b60405180910390fd5b6000479050600260009054906101000a900473ffffffffffffffffffffffffffffffffffffffff1673ffffffffffffffffffffffffffffffffffffffff166108fc829081150290604051600060405180830381858888f19350505050158015610949573d6000803e3d6000fd5b507fdf20fd1e76bc69d672e4814fafb2c449bba3a5369d8359adf9e05e6fde87b056600260009054906101000a900473ffffffffffffffffffffffffffffffffffffffff168260405161099d9291906111a7565b60405180910390a150565b60008054906101000a900473ffffffffffffffffffffffffffffffffffffffff1673ffffffffffffffffffffffffffffffffffffffff163373ffffffffffffffffffffffffffffffffffffffff1614610a36576040517f08c379a0000000000000000000000000000000000000000000000000000000008152600401610a2d90610f78565b60405180910390fd5b600460009054906101000a900460ff16610a85576040517f08c379a0000000000000000000000000000000000000000000000000000000008152600401610a7c906110bc565b60405180910390fd5b600460019054906101000a900460ff1615610ad5576040517f08c379a0000000000000000000000000000000000000000000000000000000008152600401610acc90611128565b60405180910390fd5b8015610ba857600160009054906101000a900473ffffffffffffffffffffffffffffffffffffffff1673ffffffffffffffffffffffffffffffffffffffff166108fc6003549081150290604051600060405180830381858888f19350505050158015610b45573d6000803e3d6000fd5b507fdf20fd1e76bc69d672e4814fafb2c449bba3a5369d8359adf9e05e6fde87b056600160009054906101000a900473ffffffffffffffffffffffffffffffffffffffff16600354604051610b9b9291906111a7565b60405180910390a1610c6d565b60008054906101000a900473ffffffffffffffffffffffffffffffffffffffff1673ffffffffffffffffffffffffffffffffffffffff166108fc6003549081150290604051600060405180830381858888f19350505050158015610c10573d6000803e3d6000fd5b507fdf20fd1e76bc69d672e4814fafb2c449bba3a5369d8359adf9e05e6fde87b05660008054906101000a900473ffffffffffffffffffffffffffffffffffffffff16600354604051610c649291906111a7565b60405180910390a15b6001600460016101000a81548160ff0219169083151502179055507f03445cb5f8dea2a1372e8ac1ea53d21c0c5fbb0cc7dfe8af6d56a5414827179d81604051610cb79190610e57565b60405180910390a150565b600260009054906101000a900473ffffffffffffffffffffffffffffffffffffffff1681565b600073ffffffffffffffffffffffffffffffffffffffff82169050919050565b6000610d1382610ce8565b9050919050565b610d2381610d08565b82525050565b6000602082019050610d3e6000830184610d1a565b92915050565b600080fd5b610d5281610d08565b8114610d5d57600080fd5b50565b600081359050610d6f81610d49565b92915050565b6000610d8082610ce8565b9050919050565b610d9081610d75565b8114610d9b57600080fd5b50565b600081359050610dad81610d87565b92915050565b6000819050919050565b610dc681610db3565b8114610dd157600080fd5b50565b600081359050610de381610dbd565b92915050565b600080600060608486031215610e0257610e01610d44565b5b6000610e1086828701610d60565b9350506020610e2186828701610d9e565b9250506040610e3286828701610dd4565b9150509250925092565b60008115159050919050565b610e5181610e3c565b82525050565b6000602082019050610e6c6000830184610e48565b92915050565b610e7b81610db3565b82525050565b6000602082019050610e966000830184610e72565b92915050565b610ea581610e3c565b8114610eb057600080fd5b50565b600081359050610ec281610e9c565b92915050565b600060208284031215610ede57610edd610d44565b5b6000610eec84828501610eb3565b91505092915050565b600082825260208201905092915050565b7f4f6e6c792062757965722063616e2063616c6c20746869732066756e6374696f60008201527f6e2e000000000000000000000000000000000000000000000000000000000000602082015250565b6000610f62602283610ef5565b9150610f6d82610f06565b604082019050919050565b60006020820190508181036000830152610f9181610f55565b9050919050565b7f457363726f7720697320616c726561647920636f6d706c657465642e00000000600082015250565b6000610fce601c83610ef5565b9150610fd982610f98565b602082019050919050565b60006020820190508181036000830152610ffd81610fc1565b9050919050565b7f496e636f7272656374206465706f73697420616d6f756e742e00000000000000600082015250565b600061103a601983610ef5565b915061104582611004565b602082019050919050565b600060208201905081810360008301526110698161102d565b9050919050565b7f5061796d656e7420686173206e6f74206265656e206d6164652e000000000000600082015250565b60006110a6601a83610ef5565b91506110b182611070565b602082019050919050565b600060208201905081810360008301526110d581611099565b9050919050565b7f44656c697665727920697320616c726561647920636f6e6669726d65642e0000600082015250565b6000611112601e83610ef5565b915061111d826110dc565b602082019050919050565b6000602082019050818103600083015261114181611105565b9050919050565b6000819050919050565b600061116d61116861116384610ce8565b611148565b610ce8565b9050919050565b600061117f82611152565b9050919050565b600061119182611174565b9050919050565b6111a181611186565b82525050565b60006040820190506111bc6000830185611198565b6111c96020830184610e72565b9392505050565b7f4f6e6c7920617262697465722063616e2063616c6c20746869732066756e637460008201527f696f6e2e00000000000000000000000000000000000000000000000000000000602082015250565b600061122c602483610ef5565b9150611237826111d0565b604082019050919050565b6000602082019050818103600083015261125b8161121f565b9050919050565b7f457363726f77206973206e6f7420636f6d706c65746564207965742e00000000600082015250565b6000611298601c83610ef5565b91506112a382611262565b602082019050919050565b600060208201905081810360008301526112c78161128b565b905091905056fea2646970667358221220b7403d89d642ab15671c65b3728ecad613028c5c0df06d24aa4dd1617a7e1ec064736f6c63430008120033a264697066735822122062a36902023d8bdc65575181d6b3be66ee9616b85cf153112632b79351ea12d564736f6c63430008120033",
  "linkReferences": {},
  "deployedLinkReferences": {}
}