{
  "_format": "hh-sol-artifact-1",
  "contractName": "Products",
  "sourceName": "contracts/Products.sol",
  "abi": [
    {
      "anonymous": false,
      "inputs": [
        {
          "indexed": false,
          "internalType": "uint256",
          "name": "orderId",
          "type": "uint256"
        },
        {
          "indexed": false,
          "internalType": "address",
          "name": "buyer",
          "type": "address"
        },
        {
          "indexed": false,
          "internalType": "address",
          "name": "seller",
          "type": "address"
        },
        {
          "indexed": false,
          "internalType": "uint256",
          "name": "price",
          "type": "uint256"
        }
      ],
      "name": "OrderCreated",
      "type": "event"
    },
    {
      "anonymous": false,
      "inputs": [
        {
          "indexed": false,
          "internalType": "uint256",
          "name": "orderId",
          "type": "uint256"
        }
      ],
      "name": "OrderDelivered",
      "type": "event"
    },
    {
      "anonymous": false,
      "inputs": [
        {
          "indexed": false,
          "internalType": "uint256",
          "name": "orderId",
          "type": "uint256"
        }
      ],
      "name": "OrderRefunded",
      "type": "event"
    },
    {
      "inputs": [
        {
          "internalType": "string",
          "name": "_profile",
          "type": "string"
        }
      ],
      "name": "addCoverImage",
      "outputs": [],
      "stateMutability": "nonpayable",
      "type": "function"
    },
    {
      "inputs": [
        {
          "internalType": "string",
          "name": "_name",
          "type": "string"
        },
        {
          "internalType": "string",
          "name": "_category",
          "type": "string"
        },
        {
          "internalType": "string[]",
          "name": "_imageLink",
          "type": "string[]"
        },
        {
          "internalType": "string",
          "name": "_descLink",
          "type": "string"
        },
        {
          "internalType": "uint256",
          "name": "_price",
          "type": "uint256"
        },
        {
          "internalType": "string",
          "name": "_location",
          "type": "string"
        },
        {
          "internalType": "uint256",
          "name": "_maxQuantity",
          "type": "uint256"
        },
        {
          "internalType": "uint256",
          "name": "_refundTimeLimit",
          "type": "uint256"
        }
      ],
      "name": "addProduct",
      "outputs": [
        {
          "internalType": "uint256",
          "name": "",
          "type": "uint256"
        }
      ],
      "stateMutability": "nonpayable",
      "type": "function"
    },
    {
      "inputs": [
        {
          "internalType": "string",
          "name": "_profile",
          "type": "string"
        }
      ],
      "name": "addProfile",
      "outputs": [],
      "stateMutability": "nonpayable",
      "type": "function"
    },
    {
      "inputs": [
        {
          "internalType": "address",
          "name": "",
          "type": "address"
        }
      ],
      "name": "arbiters",
      "outputs": [
        {
          "internalType": "bool",
          "name": "",
          "type": "bool"
        }
      ],
      "stateMutability": "view",
      "type": "function"
    },
    {
      "inputs": [
        {
          "internalType": "uint256",
          "name": "_id",
          "type": "uint256"
        }
      ],
      "name": "cancelLive",
      "outputs": [
        {
          "internalType": "bool",
          "name": "",
          "type": "bool"
        }
      ],
      "stateMutability": "nonpayable",
      "type": "function"
    },
    {
      "inputs": [
        {
          "internalType": "address",
          "name": "pubkey",
          "type": "address"
        }
      ],
      "name": "checkUserExists",
      "outputs": [
        {
          "internalType": "bool",
          "name": "",
          "type": "bool"
        }
      ],
      "stateMutability": "view",
      "type": "function"
    },
    {
      "inputs": [
        {
          "internalType": "uint256",
          "name": "_orderId",
          "type": "uint256"
        },
        {
          "internalType": "bool",
          "name": "_success",
          "type": "bool"
        }
      ],
      "name": "confirmDelivery",
      "outputs": [],
      "stateMutability": "nonpayable",
      "type": "function"
    },
    {
      "inputs": [
        {
          "internalType": "string",
          "name": "_storeName",
          "type": "string"
        },
        {
          "internalType": "string",
          "name": "_category",
          "type": "string"
        },
        {
          "internalType": "string",
          "name": "_name",
          "type": "string"
        },
        {
          "internalType": "string",
          "name": "_lastName",
          "type": "string"
        },
        {
          "internalType": "string",
          "name": "_description",
          "type": "string"
        },
        {
          "internalType": "string",
          "name": "_location",
          "type": "string"
        }
      ],
      "name": "createAStore",
      "outputs": [],
      "stateMutability": "nonpayable",
      "type": "function"
    },
    {
      "inputs": [],
      "name": "getAllOrder",
      "outputs": [
        {
          "components": [
            {
              "internalType": "uint256",
              "name": "orderId",
              "type": "uint256"
            },
            {
              "internalType": "address",
              "name": "buyer",
              "type": "address"
            },
            {
              "internalType": "address",
              "name": "seller",
              "type": "address"
            },
            {
              "internalType": "uint256",
              "name": "price",
              "type": "uint256"
            },
            {
              "internalType": "enum Products.OrderStatus",
              "name": "status",
              "type": "uint8"
            },
            {
              "internalType": "bool",
              "name": "isPaid",
              "type": "bool"
            },
            {
              "internalType": "bool",
              "name": "isFulfilled",
              "type": "bool"
            },
            {
              "internalType": "bool",
              "name": "isRefunded",
              "type": "bool"
            },
            {
              "internalType": "contract Escrow",
              "name": "escrow",
              "type": "address"
            }
          ],
          "internalType": "struct Products.Order[]",
          "name": "",
          "type": "tuple[]"
        }
      ],
      "stateMutability": "view",
      "type": "function"
    },
    {
      "inputs": [],
      "name": "getLiveDetail",
      "outputs": [
        {
          "components": [
            {
              "internalType": "string",
              "name": "callId",
              "type": "string"
            },
            {
              "internalType": "string",
              "name": "storeName",
              "type": "string"
            },
            {
              "internalType": "address[]",
              "name": "participant",
              "type": "address[]"
            }
          ],
          "internalType": "struct Products.Live[]",
          "name": "",
          "type": "tuple[]"
        }
      ],
      "stateMutability": "view",
      "type": "function"
    },
    {
      "inputs": [
        {
          "internalType": "address",
          "name": "_owner",
          "type": "address"
        }
      ],
      "name": "getProductByAddress",
      "outputs": [
        {
          "components": [
            {
              "internalType": "string",
              "name": "name",
              "type": "string"
            },
            {
              "internalType": "string",
              "name": "category",
              "type": "string"
            },
            {
              "internalType": "string[]",
              "name": "imageLink",
              "type": "string[]"
            },
            {
              "internalType": "string",
              "name": "descLink",
              "type": "string"
            },
            {
              "internalType": "uint256",
              "name": "price",
              "type": "uint256"
            },
            {
              "internalType": "uint256",
              "name": "index",
              "type": "uint256"
            },
            {
              "internalType": "enum Products.OrderStatus",
              "name": "status",
              "type": "uint8"
            },
            {
              "internalType": "string",
              "name": "location",
              "type": "string"
            },
            {
              "internalType": "uint256",
              "name": "maxQuantity",
              "type": "uint256"
            },
            {
              "internalType": "address payable",
              "name": "owner",
              "type": "address"
            },
            {
              "internalType": "uint256",
              "name": "shippingFee",
              "type": "uint256"
            }
          ],
          "internalType": "struct Products.Product[]",
          "name": "",
          "type": "tuple[]"
        }
      ],
      "stateMutability": "view",
      "type": "function"
    },
    {
      "inputs": [],
      "name": "getProductDetails",
      "outputs": [
        {
          "components": [
            {
              "internalType": "string",
              "name": "name",
              "type": "string"
            },
            {
              "internalType": "string",
              "name": "category",
              "type": "string"
            },
            {
              "internalType": "string[]",
              "name": "imageLink",
              "type": "string[]"
            },
            {
              "internalType": "string",
              "name": "descLink",
              "type": "string"
            },
            {
              "internalType": "uint256",
              "name": "price",
              "type": "uint256"
            },
            {
              "internalType": "uint256",
              "name": "index",
              "type": "uint256"
            },
            {
              "internalType": "enum Products.OrderStatus",
              "name": "status",
              "type": "uint8"
            },
            {
              "internalType": "string",
              "name": "location",
              "type": "string"
            },
            {
              "internalType": "uint256",
              "name": "maxQuantity",
              "type": "uint256"
            },
            {
              "internalType": "address payable",
              "name": "owner",
              "type": "address"
            },
            {
              "internalType": "uint256",
              "name": "shippingFee",
              "type": "uint256"
            }
          ],
          "internalType": "struct Products.Product[]",
          "name": "",
          "type": "tuple[]"
        }
      ],
      "stateMutability": "view",
      "type": "function"
    },
    {
      "inputs": [],
      "name": "getStoreDetails",
      "outputs": [
        {
          "components": [
            {
              "internalType": "address",
              "name": "owner",
              "type": "address"
            },
            {
              "internalType": "string",
              "name": "storeName",
              "type": "string"
            },
            {
              "internalType": "bool",
              "name": "isSellerActive",
              "type": "bool"
            },
            {
              "internalType": "string",
              "name": "category",
              "type": "string"
            },
            {
              "internalType": "string",
              "name": "name",
              "type": "string"
            },
            {
              "internalType": "string",
              "name": "lastName",
              "type": "string"
            },
            {
              "internalType": "address[]",
              "name": "customer",
              "type": "address[]"
            },
            {
              "internalType": "string",
              "name": "description",
              "type": "string"
            },
            {
              "internalType": "string",
              "name": "meetingId",
              "type": "string"
            },
            {
              "internalType": "string",
              "name": "location",
              "type": "string"
            }
          ],
          "internalType": "struct Products.Store[]",
          "name": "",
          "type": "tuple[]"
        }
      ],
      "stateMutability": "view",
      "type": "function"
    },
    {
      "inputs": [
        {
          "internalType": "address",
          "name": "_owner",
          "type": "address"
        }
      ],
      "name": "isSellerActive",
      "outputs": [
        {
          "internalType": "bool",
          "name": "",
          "type": "bool"
        }
      ],
      "stateMutability": "view",
      "type": "function"
    },
    {
      "inputs": [],
      "name": "orderIdCounter",
      "outputs": [
        {
          "internalType": "uint256",
          "name": "",
          "type": "uint256"
        }
      ],
      "stateMutability": "view",
      "type": "function"
    },
    {
      "inputs": [
        {
          "internalType": "uint256",
          "name": "",
          "type": "uint256"
        }
      ],
      "name": "orders",
      "outputs": [
        {
          "internalType": "uint256",
          "name": "orderId",
          "type": "uint256"
        },
        {
          "internalType": "address",
          "name": "buyer",
          "type": "address"
        },
        {
          "internalType": "address",
          "name": "seller",
          "type": "address"
        },
        {
          "internalType": "uint256",
          "name": "price",
          "type": "uint256"
        },
        {
          "internalType": "enum Products.OrderStatus",
          "name": "status",
          "type": "uint8"
        },
        {
          "internalType": "bool",
          "name": "isPaid",
          "type": "bool"
        },
        {
          "internalType": "bool",
          "name": "isFulfilled",
          "type": "bool"
        },
        {
          "internalType": "bool",
          "name": "isRefunded",
          "type": "bool"
        },
        {
          "internalType": "contract Escrow",
          "name": "escrow",
          "type": "address"
        }
      ],
      "stateMutability": "view",
      "type": "function"
    },
    {
      "inputs": [
        {
          "internalType": "uint256",
          "name": "id",
          "type": "uint256"
        },
        {
          "internalType": "uint256",
          "name": "_price",
          "type": "uint256"
        }
      ],
      "name": "placeOrder",
      "outputs": [],
      "stateMutability": "payable",
      "type": "function"
    },
    {
      "inputs": [
        {
          "internalType": "uint256",
          "name": "_orderId",
          "type": "uint256"
        }
      ],
      "name": "refundOrder",
      "outputs": [],
      "stateMutability": "nonpayable",
      "type": "function"
    },
    {
      "inputs": [
        {
          "internalType": "string",
          "name": "_callId",
          "type": "string"
        }
      ],
      "name": "startStream",
      "outputs": [
        {
          "internalType": "bool",
          "name": "",
          "type": "bool"
        }
      ],
      "stateMutability": "nonpayable",
      "type": "function"
    }
  ],
  "bytecode": "0x608060405234801561001057600080fd5b50616168806100206000396000f3fe6080604052600436106101145760003560e01c8063843f61e2116100a0578063be37442311610064578063be374423146103e2578063c018c4571461040d578063e35f968014610436578063e57e4a9414610473578063fe04eb2d1461049e57610114565b8063843f61e2146102f2578063870c2fcb1461030e57806393cd5a1f14610337578063a3fa140e14610360578063a85c38ef1461039d57610114565b806323bc839b116100e757806323bc839b146101e55780633dfbbad4146102105780635d39c0711461023b5780635f0d382a146102785780637bf2bb10146102b557610114565b806304ef0781146101195780630c717b9e146101425780630c7d1b391461016b578063133f50f5146101a8575b600080fd5b34801561012557600080fd5b50610140600480360381019061013b91906131ca565b6104c9565b005b34801561014e57600080fd5b5061016960048036038101906101649190613350565b6107ba565b005b34801561017757600080fd5b50610192600480360381019061018d91906133f7565b610813565b60405161019f9190613433565b60405180910390f35b3480156101b457600080fd5b506101cf60048036038101906101ca91906133f7565b61086c565b6040516101dc9190613433565b60405180910390f35b3480156101f157600080fd5b506101fa6108c6565b6040516102079190613803565b60405180910390f35b34801561021c57600080fd5b50610225610d00565b6040516102329190613a09565b60405180910390f35b34801561024757600080fd5b50610262600480360381019061025d9190613350565b610f02565b60405161026f9190613433565b60405180910390f35b34801561028457600080fd5b5061029f600480360381019061029a91906133f7565b6110cd565b6040516102ac9190613803565b60405180910390f35b3480156102c157600080fd5b506102dc60048036038101906102d791906133f7565b611546565b6040516102e99190613433565b60405180910390f35b61030c60048036038101906103079190613a2b565b611566565b005b34801561031a57600080fd5b5061033560048036038101906103309190613350565b611cd3565b005b34801561034357600080fd5b5061035e60048036038101906103599190613a6b565b611d2c565b005b34801561036c57600080fd5b5061038760048036038101906103829190613c86565b611fb0565b6040516103949190613dd7565b60405180910390f35b3480156103a957600080fd5b506103c460048036038101906103bf9190613df2565b6123d8565b6040516103d999989796959493929190613e4c565b60405180910390f35b3480156103ee57600080fd5b506103f76124ba565b6040516104049190613dd7565b60405180910390f35b34801561041957600080fd5b50610434600480360381019061042f9190613df2565b6124c0565b005b34801561044257600080fd5b5061045d60048036038101906104589190613df2565b612729565b60405161046a9190613433565b60405180910390f35b34801561047f57600080fd5b50610488612823565b60405161049591906140a8565b60405180910390f35b3480156104aa57600080fd5b506104b3612a34565b6040516104c09190614297565b60405180910390f35b816004600082815260200190815260200160002060010160009054906101000a900473ffffffffffffffffffffffffffffffffffffffff1673ffffffffffffffffffffffffffffffffffffffff163373ffffffffffffffffffffffffffffffffffffffff161461056e576040517f08c379a00000000000000000000000000000000000000000000000000000000081526004016105659061433c565b60405180910390fd5b60006004600085815260200190815260200160002090508060040160019054906101000a900460ff166105d6576040517f08c379a00000000000000000000000000000000000000000000000000000000081526004016105cd906143a8565b60405180910390fd5b600260048111156105ea576105e96135ca565b5b8160040160009054906101000a900460ff16600481111561060e5761060d6135ca565b5b1461064e576040517f08c379a000000000000000000000000000000000000000000000000000000000815260040161064590614414565b60405180910390fd5b8060040160049054906101000a900473ffffffffffffffffffffffffffffffffffffffff1673ffffffffffffffffffffffffffffffffffffffff1663fa0af12a846040518263ffffffff1660e01b81526004016106ab9190613433565b600060405180830381600087803b1580156106c557600080fd5b505af11580156106d9573d6000803e3d6000fd5b5050505082156107155760038160040160006101000a81548160ff0219169083600481111561070b5761070a6135ca565b5b0217905550610760565b60048160040160006101000a81548160ff0219169083600481111561073d5761073c6135ca565b5b021790555060018160040160036101000a81548160ff0219169083151502179055505b60018160040160026101000a81548160ff0219169083151502179055507fe21fe02c1589242b30be2057f54fd54b7ddc463695d19ffdb54f9ebb0584f24a846040516107ac9190613dd7565b60405180910390a150505050565b6000600260003373ffffffffffffffffffffffffffffffffffffffff1673ffffffffffffffffffffffffffffffffffffffff16815260200190815260200160002090508181600001908161080e9190614636565b505050565b6000600860008373ffffffffffffffffffffffffffffffffffffffff1673ffffffffffffffffffffffffffffffffffffffff16815260200190815260200160002060020160009054906101000a900460ff169050919050565b600080600860008473ffffffffffffffffffffffffffffffffffffffff1673ffffffffffffffffffffffffffffffffffffffff16815260200190815260200160002060010180546108bc90614463565b9050119050919050565b6060600b805480602002602001604051908101604052809291908181526020016000905b82821015610cf757838290600052602060002090600b02016040518061016001604052908160008201805461091e90614463565b80601f016020809104026020016040519081016040528092919081815260200182805461094a90614463565b80156109975780601f1061096c57610100808354040283529160200191610997565b820191906000526020600020905b81548152906001019060200180831161097a57829003601f168201915b505050505081526020016001820180546109b090614463565b80601f01602080910402602001604051908101604052809291908181526020018280546109dc90614463565b8015610a295780601f106109fe57610100808354040283529160200191610a29565b820191906000526020600020905b815481529060010190602001808311610a0c57829003601f168201915b5050505050815260200160028201805480602002602001604051908101604052809291908181526020016000905b82821015610b03578382906000526020600020018054610a7690614463565b80601f0160208091040260200160405190810160405280929190818152602001828054610aa290614463565b8015610aef5780601f10610ac457610100808354040283529160200191610aef565b820191906000526020600020905b815481529060010190602001808311610ad257829003601f168201915b505050505081526020019060010190610a57565b505050508152602001600382018054610b1b90614463565b80601f0160208091040260200160405190810160405280929190818152602001828054610b4790614463565b8015610b945780601f10610b6957610100808354040283529160200191610b94565b820191906000526020600020905b815481529060010190602001808311610b7757829003601f168201915b5050505050815260200160048201548152602001600582015481526020016006820160009054906101000a900460ff166004811115610bd657610bd56135ca565b5b6004811115610be857610be76135ca565b5b8152602001600782018054610bfc90614463565b80601f0160208091040260200160405190810160405280929190818152602001828054610c2890614463565b8015610c755780601f10610c4a57610100808354040283529160200191610c75565b820191906000526020600020905b815481529060010190602001808311610c5857829003601f168201915b50505050508152602001600882015481526020016009820160009054906101000a900473ffffffffffffffffffffffffffffffffffffffff1673ffffffffffffffffffffffffffffffffffffffff1673ffffffffffffffffffffffffffffffffffffffff168152602001600a82015481525050815260200190600101906108ea565b50505050905090565b6060600e805480602002602001604051908101604052809291908181526020016000905b82821015610ef9578382906000526020600020906005020160405180610120016040529081600082015481526020016001820160009054906101000a900473ffffffffffffffffffffffffffffffffffffffff1673ffffffffffffffffffffffffffffffffffffffff1673ffffffffffffffffffffffffffffffffffffffff1681526020016002820160009054906101000a900473ffffffffffffffffffffffffffffffffffffffff1673ffffffffffffffffffffffffffffffffffffffff1673ffffffffffffffffffffffffffffffffffffffff168152602001600382015481526020016004820160009054906101000a900460ff166004811115610e2d57610e2c6135ca565b5b6004811115610e3f57610e3e6135ca565b5b81526020016004820160019054906101000a900460ff161515151581526020016004820160029054906101000a900460ff161515151581526020016004820160039054906101000a900460ff161515151581526020016004820160049054906101000a900473ffffffffffffffffffffffffffffffffffffffff1673ffffffffffffffffffffffffffffffffffffffff1673ffffffffffffffffffffffffffffffffffffffff168152505081526020019060010190610d24565b50505050905090565b6000610f0d3361086c565b610f4c576040517f08c379a0000000000000000000000000000000000000000000000000000000008152600401610f4390614754565b60405180910390fd5b600060036000600a548152602001908152602001600020905082816000019081610f769190614636565b50600860003373ffffffffffffffffffffffffffffffffffffffff1673ffffffffffffffffffffffffffffffffffffffff168152602001908152602001600020600101816001019081610fc9919061479f565b506001600860003373ffffffffffffffffffffffffffffffffffffffff1673ffffffffffffffffffffffffffffffffffffffff16815260200190815260200160002060020160006101000a81548160ff02191690831515021790555082600860003373ffffffffffffffffffffffffffffffffffffffff1673ffffffffffffffffffffffffffffffffffffffff16815260200190815260200160002060080190816110749190614636565b50600860003373ffffffffffffffffffffffffffffffffffffffff1673ffffffffffffffffffffffffffffffffffffffff16815260200190815260200160002060020160009054906101000a900460ff16915050919050565b6060600760008373ffffffffffffffffffffffffffffffffffffffff1673ffffffffffffffffffffffffffffffffffffffff168152602001908152602001600020805480602002602001604051908101604052809291908181526020016000905b8282101561153b57838290600052602060002090600b02016040518061016001604052908160008201805461116290614463565b80601f016020809104026020016040519081016040528092919081815260200182805461118e90614463565b80156111db5780601f106111b0576101008083540402835291602001916111db565b820191906000526020600020905b8154815290600101906020018083116111be57829003601f168201915b505050505081526020016001820180546111f490614463565b80601f016020809104026020016040519081016040528092919081815260200182805461122090614463565b801561126d5780601f106112425761010080835404028352916020019161126d565b820191906000526020600020905b81548152906001019060200180831161125057829003601f168201915b5050505050815260200160028201805480602002602001604051908101604052809291908181526020016000905b828210156113475783829060005260206000200180546112ba90614463565b80601f01602080910402602001604051908101604052809291908181526020018280546112e690614463565b80156113335780601f1061130857610100808354040283529160200191611333565b820191906000526020600020905b81548152906001019060200180831161131657829003601f168201915b50505050508152602001906001019061129b565b50505050815260200160038201805461135f90614463565b80601f016020809104026020016040519081016040528092919081815260200182805461138b90614463565b80156113d85780601f106113ad576101008083540402835291602001916113d8565b820191906000526020600020905b8154815290600101906020018083116113bb57829003601f168201915b5050505050815260200160048201548152602001600582015481526020016006820160009054906101000a900460ff16600481111561141a576114196135ca565b5b600481111561142c5761142b6135ca565b5b815260200160078201805461144090614463565b80601f016020809104026020016040519081016040528092919081815260200182805461146c90614463565b80156114b95780601f1061148e576101008083540402835291602001916114b9565b820191906000526020600020905b81548152906001019060200180831161149c57829003601f168201915b50505050508152602001600882015481526020016009820160009054906101000a900473ffffffffffffffffffffffffffffffffffffffff1673ffffffffffffffffffffffffffffffffffffffff1673ffffffffffffffffffffffffffffffffffffffff168152602001600a820154815250508152602001906001019061112e565b505050509050919050565b60056020528060005260406000206000915054906101000a900460ff1681565b6000600460006001548152602001908152602001600020905060066000848152602001908152602001600020600401543410156115d8576040517f08c379a00000000000000000000000000000000000000000000000000000000081526004016115cf906148d3565b60405180910390fd5b8060040160019054906101000a900460ff161561162a576040517f08c379a00000000000000000000000000000000000000000000000000000000081526004016116219061493f565b60405180910390fd5b6000600481111561163e5761163d6135ca565b5b6006600085815260200190815260200160002060060160009054906101000a900460ff166004811115611674576116736135ca565b5b146116b4576040517f08c379a00000000000000000000000000000000000000000000000000000000081526004016116ab906149ab565b60405180910390fd5b60006006600085815260200190815260200160002060090160009054906101000a900473ffffffffffffffffffffffffffffffffffffffff16905060006040516116fd90612f91565b604051809103906000f080158015611719573d6000803e3d6000fd5b5090508073ffffffffffffffffffffffffffffffffffffffff16631794bb3c83738d45ea72697c5f395ee1509cb39067cb977d9cb6876040518463ffffffff1660e01b815260040161176d939291906149da565b600060405180830381600087803b15801561178757600080fd5b505af115801561179b573d6000803e3d6000fd5b505050508073ffffffffffffffffffffffffffffffffffffffff1663d0e30db0346040518263ffffffff1660e01b81526004016000604051808303818588803b1580156117e757600080fd5b505af11580156117fb573d6000803e3d6000fd5b50505050506001600081548092919061181390614a40565b91905055506001548360000181905550338360010160006101000a81548173ffffffffffffffffffffffffffffffffffffffff021916908373ffffffffffffffffffffffffffffffffffffffff160217905550818360020160006101000a81548173ffffffffffffffffffffffffffffffffffffffff021916908373ffffffffffffffffffffffffffffffffffffffff16021790555083836003018190555060018360040160006101000a81548160ff021916908360048111156118da576118d96135ca565b5b021790555060008360040160016101000a81548160ff02191690831515021790555060008360040160026101000a81548160ff02191690831515021790555060008360040160036101000a81548160ff021916908315150217905550808360040160046101000a81548173ffffffffffffffffffffffffffffffffffffffff021916908373ffffffffffffffffffffffffffffffffffffffff160217905550600e839080600181540180825580915050600190039060005260206000209060050201600090919091909150600082015481600001556001820160009054906101000a900473ffffffffffffffffffffffffffffffffffffffff168160010160006101000a81548173ffffffffffffffffffffffffffffffffffffffff021916908373ffffffffffffffffffffffffffffffffffffffff1602179055506002820160009054906101000a900473ffffffffffffffffffffffffffffffffffffffff168160020160006101000a81548173ffffffffffffffffffffffffffffffffffffffff021916908373ffffffffffffffffffffffffffffffffffffffff160217905550600382015481600301556004820160009054906101000a900460ff168160040160006101000a81548160ff02191690836004811115611abf57611abe6135ca565b5b02179055506004820160019054906101000a900460ff168160040160016101000a81548160ff0219169083151502179055506004820160029054906101000a900460ff168160040160026101000a81548160ff0219169083151502179055506004820160039054906101000a900460ff168160040160036101000a81548160ff0219169083151502179055506004820160049054906101000a900473ffffffffffffffffffffffffffffffffffffffff168160040160046101000a81548173ffffffffffffffffffffffffffffffffffffffff021916908373ffffffffffffffffffffffffffffffffffffffff1602179055505050600860006006600088815260200190815260200160002060090160009054906101000a900473ffffffffffffffffffffffffffffffffffffffff1673ffffffffffffffffffffffffffffffffffffffff1673ffffffffffffffffffffffffffffffffffffffff168152602001908152602001600020600601339080600181540180825580915050600190039060005260206000200160009091909190916101000a81548173ffffffffffffffffffffffffffffffffffffffff021916908373ffffffffffffffffffffffffffffffffffffffff1602179055507ff9e17940e547201709f9aaacdec8ab3566601c60d8f5affb54f74b79b0b50b13600154338487604051611cc49493929190614aa9565b60405180910390a15050505050565b6000600260003373ffffffffffffffffffffffffffffffffffffffff1673ffffffffffffffffffffffffffffffffffffffff168152602001908152602001600020905081816000019081611d279190614636565b505050565b6000600860003373ffffffffffffffffffffffffffffffffffffffff1673ffffffffffffffffffffffffffffffffffffffff168152602001908152602001600020905086816001019081611d809190614636565b50338160000160006101000a81548173ffffffffffffffffffffffffffffffffffffffff021916908373ffffffffffffffffffffffffffffffffffffffff16021790555084816004019081611dd59190614636565b5085816003019081611de79190614636565b5083816005019081611df99190614636565b5082816007019081611e0b9190614636565b5060008160020160006101000a81548160ff02191690831515021790555081816009019081611e3a9190614636565b50600c8190806001815401808255809150506001900390600052602060002090600a02016000909190919091506000820160009054906101000a900473ffffffffffffffffffffffffffffffffffffffff168160000160006101000a81548173ffffffffffffffffffffffffffffffffffffffff021916908373ffffffffffffffffffffffffffffffffffffffff16021790555060018201816001019081611ee29190614b04565b506002820160009054906101000a900460ff168160020160006101000a81548160ff02191690831515021790555060038201816003019081611f249190614b04565b5060048201816004019081611f399190614b04565b5060058201816005019081611f4e9190614b04565b506006820181600601908054611f65929190612f9e565b5060078201816007019081611f7a9190614b04565b5060088201816008019081611f8f9190614b04565b5060098201816009019081611fa49190614b04565b50505050505050505050565b6000600860003373ffffffffffffffffffffffffffffffffffffffff1673ffffffffffffffffffffffffffffffffffffffff16815260200190815260200160002060000160009054906101000a900473ffffffffffffffffffffffffffffffffffffffff1673ffffffffffffffffffffffffffffffffffffffff163373ffffffffffffffffffffffffffffffffffffffff1614612082576040517f08c379a000000000000000000000000000000000000000000000000000000000815260040161207990614c5e565b60405180910390fd5b61208b3361086c565b6120ca576040517f08c379a00000000000000000000000000000000000000000000000000000000081526004016120c190614754565b60405180910390fd5b600073ffffffffffffffffffffffffffffffffffffffff163373ffffffffffffffffffffffffffffffffffffffff1603612139576040517f08c379a000000000000000000000000000000000000000000000000000000000815260040161213090614cca565b60405180910390fd5b6009600081548092919061214c90614a40565b9190505550600060066000600954815260200190815260200160002090508981600001908161217b9190614636565b50338160090160006101000a81548173ffffffffffffffffffffffffffffffffffffffff021916908373ffffffffffffffffffffffffffffffffffffffff160217905550888160010190816121d09190614636565b50868160030190816121e29190614636565b50878160020190805190602001906121fb929190612ff0565b506009548160050181905550848160070190816122189190614636565b5083816008018190555085816004018190555060008160060160006101000a81548160ff02191690836004811115612253576122526135ca565b5b02179055508281600a0181905550600b8190806001815401808255809150506001900390600052602060002090600b0201600090919091909150600082018160000190816122a19190614b04565b50600182018160010190816122b69190614b04565b5060028201816002019080546122cd929190613049565b50600382018160030190816122e29190614b04565b5060048201548160040155600582015481600501556006820160009054906101000a900460ff168160060160006101000a81548160ff0219169083600481111561232f5761232e6135ca565b5b0217905550600782018160070190816123489190614b04565b50600882015481600801556009820160009054906101000a900473ffffffffffffffffffffffffffffffffffffffff168160090160006101000a81548173ffffffffffffffffffffffffffffffffffffffff021916908373ffffffffffffffffffffffffffffffffffffffff160217905550600a82015481600a0155505060095491505098975050505050505050565b60046020528060005260406000206000915090508060000154908060010160009054906101000a900473ffffffffffffffffffffffffffffffffffffffff16908060020160009054906101000a900473ffffffffffffffffffffffffffffffffffffffff16908060030154908060040160009054906101000a900460ff16908060040160019054906101000a900460ff16908060040160029054906101000a900460ff16908060040160039054906101000a900460ff16908060040160049054906101000a900473ffffffffffffffffffffffffffffffffffffffff16905089565b60015481565b806004600082815260200190815260200160002060020160009054906101000a900473ffffffffffffffffffffffffffffffffffffffff1673ffffffffffffffffffffffffffffffffffffffff163373ffffffffffffffffffffffffffffffffffffffff1614612565576040517f08c379a000000000000000000000000000000000000000000000000000000000815260040161255c90614d5c565b60405180910390fd5b60006004600084815260200190815260200160002090508060040160019054906101000a900460ff166125cd576040517f08c379a00000000000000000000000000000000000000000000000000000000081526004016125c4906143a8565b60405180910390fd5b8060040160029054906101000a900460ff161561261f576040517f08c379a000000000000000000000000000000000000000000000000000000000815260040161261690614dee565b60405180910390fd5b8060040160049054906101000a900473ffffffffffffffffffffffffffffffffffffffff1673ffffffffffffffffffffffffffffffffffffffff1663e8a61cc86040518163ffffffff1660e01b8152600401600060405180830381600087803b15801561268b57600080fd5b505af115801561269f573d6000803e3d6000fd5b5050505060048160040160006101000a81548160ff021916908360048111156126cb576126ca6135ca565b5b021790555060018160040160036101000a81548160ff0219169083151502179055507f303a31648d19f17852cf82657162c4bdd4a06ab3f36f1e7ae1118f4ca6473e118360405161271c9190613dd7565b60405180910390a1505050565b6000600360008381526020019081526020016000206000808201600061274f91906130a6565b60018201600061275f91906130a6565b60028201600061276f91906130e6565b50506000600860003373ffffffffffffffffffffffffffffffffffffffff1673ffffffffffffffffffffffffffffffffffffffff16815260200190815260200160002060020160006101000a81548160ff021916908315150217905550600860003373ffffffffffffffffffffffffffffffffffffffff1673ffffffffffffffffffffffffffffffffffffffff16815260200190815260200160002060020160009054906101000a900460ff169050919050565b6060600d805480602002602001604051908101604052809291908181526020016000905b82821015612a2b578382906000526020600020906003020160405180606001604052908160008201805461287a90614463565b80601f01602080910402602001604051908101604052809291908181526020018280546128a690614463565b80156128f35780601f106128c8576101008083540402835291602001916128f3565b820191906000526020600020905b8154815290600101906020018083116128d657829003601f168201915b5050505050815260200160018201805461290c90614463565b80601f016020809104026020016040519081016040528092919081815260200182805461293890614463565b80156129855780601f1061295a57610100808354040283529160200191612985565b820191906000526020600020905b81548152906001019060200180831161296857829003601f168201915b5050505050815260200160028201805480602002602001604051908101604052809291908181526020018280548015612a1357602002820191906000526020600020905b8160009054906101000a900473ffffffffffffffffffffffffffffffffffffffff1673ffffffffffffffffffffffffffffffffffffffff16815260200190600101908083116129c9575b50505050508152505081526020019060010190612847565b50505050905090565b6060600c805480602002602001604051908101604052809291908181526020016000905b82821015612f8857838290600052602060002090600a0201604051806101400160405290816000820160009054906101000a900473ffffffffffffffffffffffffffffffffffffffff1673ffffffffffffffffffffffffffffffffffffffff1673ffffffffffffffffffffffffffffffffffffffff168152602001600182018054612ae290614463565b80601f0160208091040260200160405190810160405280929190818152602001828054612b0e90614463565b8015612b5b5780601f10612b3057610100808354040283529160200191612b5b565b820191906000526020600020905b815481529060010190602001808311612b3e57829003601f168201915b505050505081526020016002820160009054906101000a900460ff16151515158152602001600382018054612b8f90614463565b80601f0160208091040260200160405190810160405280929190818152602001828054612bbb90614463565b8015612c085780601f10612bdd57610100808354040283529160200191612c08565b820191906000526020600020905b815481529060010190602001808311612beb57829003601f168201915b50505050508152602001600482018054612c2190614463565b80601f0160208091040260200160405190810160405280929190818152602001828054612c4d90614463565b8015612c9a5780601f10612c6f57610100808354040283529160200191612c9a565b820191906000526020600020905b815481529060010190602001808311612c7d57829003601f168201915b50505050508152602001600582018054612cb390614463565b80601f0160208091040260200160405190810160405280929190818152602001828054612cdf90614463565b8015612d2c5780601f10612d0157610100808354040283529160200191612d2c565b820191906000526020600020905b815481529060010190602001808311612d0f57829003601f168201915b5050505050815260200160068201805480602002602001604051908101604052809291908181526020018280548015612dba57602002820191906000526020600020905b8160009054906101000a900473ffffffffffffffffffffffffffffffffffffffff1673ffffffffffffffffffffffffffffffffffffffff1681526020019060010190808311612d70575b50505050508152602001600782018054612dd390614463565b80601f0160208091040260200160405190810160405280929190818152602001828054612dff90614463565b8015612e4c5780601f10612e2157610100808354040283529160200191612e4c565b820191906000526020600020905b815481529060010190602001808311612e2f57829003601f168201915b50505050508152602001600882018054612e6590614463565b80601f0160208091040260200160405190810160405280929190818152602001828054612e9190614463565b8015612ede5780601f10612eb357610100808354040283529160200191612ede565b820191906000526020600020905b815481529060010190602001808311612ec157829003601f168201915b50505050508152602001600982018054612ef790614463565b80601f0160208091040260200160405190810160405280929190818152602001828054612f2390614463565b8015612f705780601f10612f4557610100808354040283529160200191612f70565b820191906000526020600020905b815481529060010190602001808311612f5357829003601f168201915b50505050508152505081526020019060010190612a58565b50505050905090565b61132480614e0f83390190565b828054828255906000526020600020908101928215612fdf5760005260206000209182015b82811115612fde578254825591600101919060010190612fc3565b5b509050612fec9190613107565b5090565b828054828255906000526020600020908101928215613038579160200282015b828111156130375782518290816130279190614636565b5091602001919060010190613010565b5b5090506130459190613124565b5090565b8280548282559060005260206000209081019282156130955760005260206000209182015b8281111561309457828290816130849190614b04565b509160010191906001019061306e565b5b5090506130a29190613124565b5090565b5080546130b290614463565b6000825580601f106130c457506130e3565b601f0160209004906000526020600020908101906130e29190613107565b5b50565b50805460008255906000526020600020908101906131049190613107565b50565b5b80821115613120576000816000905550600101613108565b5090565b5b80821115613144576000818161313b91906130a6565b50600101613125565b5090565b6000604051905090565b600080fd5b600080fd5b6000819050919050565b61316f8161315c565b811461317a57600080fd5b50565b60008135905061318c81613166565b92915050565b60008115159050919050565b6131a781613192565b81146131b257600080fd5b50565b6000813590506131c48161319e565b92915050565b600080604083850312156131e1576131e0613152565b5b60006131ef8582860161317d565b9250506020613200858286016131b5565b9150509250929050565b600080fd5b600080fd5b6000601f19601f8301169050919050565b7f4e487b7100000000000000000000000000000000000000000000000000000000600052604160045260246000fd5b61325d82613214565b810181811067ffffffffffffffff8211171561327c5761327b613225565b5b80604052505050565b600061328f613148565b905061329b8282613254565b919050565b600067ffffffffffffffff8211156132bb576132ba613225565b5b6132c482613214565b9050602081019050919050565b82818337600083830152505050565b60006132f36132ee846132a0565b613285565b90508281526020810184848401111561330f5761330e61320f565b5b61331a8482856132d1565b509392505050565b600082601f8301126133375761333661320a565b5b81356133478482602086016132e0565b91505092915050565b60006020828403121561336657613365613152565b5b600082013567ffffffffffffffff81111561338457613383613157565b5b61339084828501613322565b91505092915050565b600073ffffffffffffffffffffffffffffffffffffffff82169050919050565b60006133c482613399565b9050919050565b6133d4816133b9565b81146133df57600080fd5b50565b6000813590506133f1816133cb565b92915050565b60006020828403121561340d5761340c613152565b5b600061341b848285016133e2565b91505092915050565b61342d81613192565b82525050565b60006020820190506134486000830184613424565b92915050565b600081519050919050565b600082825260208201905092915050565b6000819050602082019050919050565b600081519050919050565b600082825260208201905092915050565b60005b838110156134b4578082015181840152602081019050613499565b60008484015250505050565b60006134cb8261347a565b6134d58185613485565b93506134e5818560208601613496565b6134ee81613214565b840191505092915050565b600081519050919050565b600082825260208201905092915050565b6000819050602082019050919050565b600061353183836134c0565b905092915050565b6000602082019050919050565b6000613551826134f9565b61355b8185613504565b93508360208202850161356d85613515565b8060005b858110156135a9578484038952815161358a8582613525565b945061359583613539565b925060208a01995050600181019050613571565b50829750879550505050505092915050565b6135c48161315c565b82525050565b7f4e487b7100000000000000000000000000000000000000000000000000000000600052602160045260246000fd5b6005811061360a576136096135ca565b5b50565b600081905061361b826135f9565b919050565b600061362b8261360d565b9050919050565b61363b81613620565b82525050565b600061364c82613399565b9050919050565b61365c81613641565b82525050565b600061016083016000830151848203600086015261368082826134c0565b9150506020830151848203602086015261369a82826134c0565b915050604083015184820360408601526136b48282613546565b915050606083015184820360608601526136ce82826134c0565b91505060808301516136e360808601826135bb565b5060a08301516136f660a08601826135bb565b5060c083015161370960c0860182613632565b5060e083015184820360e086015261372182826134c0565b9150506101008301516137386101008601826135bb565b5061012083015161374d610120860182613653565b506101408301516137626101408601826135bb565b508091505092915050565b60006137798383613662565b905092915050565b6000602082019050919050565b60006137998261344e565b6137a38185613459565b9350836020820285016137b58561346a565b8060005b858110156137f157848403895281516137d2858261376d565b94506137dd83613781565b925060208a019950506001810190506137b9565b50829750879550505050505092915050565b6000602082019050818103600083015261381d818461378e565b905092915050565b600081519050919050565b600082825260208201905092915050565b6000819050602082019050919050565b61385a816133b9565b82525050565b61386981613192565b82525050565b6000819050919050565b600061389461388f61388a84613399565b61386f565b613399565b9050919050565b60006138a682613879565b9050919050565b60006138b88261389b565b9050919050565b6138c8816138ad565b82525050565b610120820160008201516138e560008501826135bb565b5060208201516138f86020850182613851565b50604082015161390b6040850182613851565b50606082015161391e60608501826135bb565b5060808201516139316080850182613632565b5060a082015161394460a0850182613860565b5060c082015161395760c0850182613860565b5060e082015161396a60e0850182613860565b5061010082015161397f6101008501826138bf565b50505050565b600061399183836138ce565b6101208301905092915050565b6000602082019050919050565b60006139b682613825565b6139c08185613830565b93506139cb83613841565b8060005b838110156139fc5781516139e38882613985565b97506139ee8361399e565b9250506001810190506139cf565b5085935050505092915050565b60006020820190508181036000830152613a2381846139ab565b905092915050565b60008060408385031215613a4257613a41613152565b5b6000613a508582860161317d565b9250506020613a618582860161317d565b9150509250929050565b60008060008060008060c08789031215613a8857613a87613152565b5b600087013567ffffffffffffffff811115613aa657613aa5613157565b5b613ab289828a01613322565b965050602087013567ffffffffffffffff811115613ad357613ad2613157565b5b613adf89828a01613322565b955050604087013567ffffffffffffffff811115613b0057613aff613157565b5b613b0c89828a01613322565b945050606087013567ffffffffffffffff811115613b2d57613b2c613157565b5b613b3989828a01613322565b935050608087013567ffffffffffffffff811115613b5a57613b59613157565b5b613b6689828a01613322565b92505060a087013567ffffffffffffffff811115613b8757613b86613157565b5b613b9389828a01613322565b9150509295509295509295565b600067ffffffffffffffff821115613bbb57613bba613225565b5b602082029050602081019050919050565b600080fd5b6000613be4613bdf84613ba0565b613285565b90508083825260208201905060208402830185811115613c0757613c06613bcc565b5b835b81811015613c4e57803567ffffffffffffffff811115613c2c57613c2b61320a565b5b808601613c398982613322565b85526020850194505050602081019050613c09565b5050509392505050565b600082601f830112613c6d57613c6c61320a565b5b8135613c7d848260208601613bd1565b91505092915050565b600080600080600080600080610100898b031215613ca757613ca6613152565b5b600089013567ffffffffffffffff811115613cc557613cc4613157565b5b613cd18b828c01613322565b985050602089013567ffffffffffffffff811115613cf257613cf1613157565b5b613cfe8b828c01613322565b975050604089013567ffffffffffffffff811115613d1f57613d1e613157565b5b613d2b8b828c01613c58565b965050606089013567ffffffffffffffff811115613d4c57613d4b613157565b5b613d588b828c01613322565b9550506080613d698b828c0161317d565b94505060a089013567ffffffffffffffff811115613d8a57613d89613157565b5b613d968b828c01613322565b93505060c0613da78b828c0161317d565b92505060e0613db88b828c0161317d565b9150509295985092959890939650565b613dd18161315c565b82525050565b6000602082019050613dec6000830184613dc8565b92915050565b600060208284031215613e0857613e07613152565b5b6000613e168482850161317d565b91505092915050565b613e28816133b9565b82525050565b613e3781613620565b82525050565b613e46816138ad565b82525050565b600061012082019050613e62600083018c613dc8565b613e6f602083018b613e1f565b613e7c604083018a613e1f565b613e896060830189613dc8565b613e966080830188613e2e565b613ea360a0830187613424565b613eb060c0830186613424565b613ebd60e0830185613424565b613ecb610100830184613e3d565b9a9950505050505050505050565b600081519050919050565b600082825260208201905092915050565b6000819050602082019050919050565b600081519050919050565b600082825260208201905092915050565b6000819050602082019050919050565b6000613f3d8383613851565b60208301905092915050565b6000602082019050919050565b6000613f6182613f05565b613f6b8185613f10565b9350613f7683613f21565b8060005b83811015613fa7578151613f8e8882613f31565b9750613f9983613f49565b925050600181019050613f7a565b5085935050505092915050565b60006060830160008301518482036000860152613fd182826134c0565b91505060208301518482036020860152613feb82826134c0565b915050604083015184820360408601526140058282613f56565b9150508091505092915050565b600061401e8383613fb4565b905092915050565b6000602082019050919050565b600061403e82613ed9565b6140488185613ee4565b93508360208202850161405a85613ef5565b8060005b8581101561409657848403895281516140778582614012565b945061408283614026565b925060208a0199505060018101905061405e565b50829750879550505050505092915050565b600060208201905081810360008301526140c28184614033565b905092915050565b600081519050919050565b600082825260208201905092915050565b6000819050602082019050919050565b60006101408301600083015161410f6000860182613851565b506020830151848203602086015261412782826134c0565b915050604083015161413c6040860182613860565b506060830151848203606086015261415482826134c0565b9150506080830151848203608086015261416e82826134c0565b91505060a083015184820360a086015261418882826134c0565b91505060c083015184820360c08601526141a28282613f56565b91505060e083015184820360e08601526141bc82826134c0565b9150506101008301518482036101008601526141d882826134c0565b9150506101208301518482036101208601526141f482826134c0565b9150508091505092915050565b600061420d83836140f6565b905092915050565b6000602082019050919050565b600061422d826140ca565b61423781856140d5565b935083602082028501614249856140e6565b8060005b8581101561428557848403895281516142668582614201565b945061427183614215565b925060208a0199505060018101905061424d565b50829750879550505050505092915050565b600060208201905081810360008301526142b18184614222565b905092915050565b600082825260208201905092915050565b7f4f6e6c79207468652062757965722063616e2063616c6c20746869732066756e60008201527f6374696f6e2e0000000000000000000000000000000000000000000000000000602082015250565b60006143266026836142b9565b9150614331826142ca565b604082019050919050565b6000602082019050818103600083015261435581614319565b9050919050565b7f5061796d656e7420686173206e6f74206265656e206d6164652e000000000000600082015250565b6000614392601a836142b9565b915061439d8261435c565b602082019050919050565b600060208201905081810360008301526143c181614385565b9050919050565b7f4f7264657220686173206e6f74206265656e20736869707065642e0000000000600082015250565b60006143fe601b836142b9565b9150614409826143c8565b602082019050919050565b6000602082019050818103600083015261442d816143f1565b9050919050565b7f4e487b7100000000000000000000000000000000000000000000000000000000600052602260045260246000fd5b6000600282049050600182168061447b57607f821691505b60208210810361448e5761448d614434565b5b50919050565b60008190508160005260206000209050919050565b60006020601f8301049050919050565b600082821b905092915050565b6000600883026144f67fffffffffffffffffffffffffffffffffffffffffffffffffffffffffffffffff826144b9565b61450086836144b9565b95508019841693508086168417925050509392505050565b600061453361452e6145298461315c565b61386f565b61315c565b9050919050565b6000819050919050565b61454d83614518565b6145616145598261453a565b8484546144c6565b825550505050565b600090565b614576614569565b614581818484614544565b505050565b5b818110156145a55761459a60008261456e565b600181019050614587565b5050565b601f8211156145ea576145bb81614494565b6145c4846144a9565b810160208510156145d3578190505b6145e76145df856144a9565b830182614586565b50505b505050565b600082821c905092915050565b600061460d600019846008026145ef565b1980831691505092915050565b600061462683836145fc565b9150826002028217905092915050565b61463f8261347a565b67ffffffffffffffff81111561465857614657613225565b5b6146628254614463565b61466d8282856145a9565b600060209050601f8311600181146146a0576000841561468e578287015190505b614698858261461a565b865550614700565b601f1984166146ae86614494565b60005b828110156146d6578489015182556001820191506020850194506020810190506146b1565b868310156146f357848901516146ef601f8916826145fc565b8355505b6001600288020188555050505b505050505050565b7f53746f726520646f6573206e6f742065786973742e0000000000000000000000600082015250565b600061473e6015836142b9565b915061474982614708565b602082019050919050565b6000602082019050818103600083015261476d81614731565b9050919050565b60008154905061478381614463565b9050919050565b60008190508160005260206000209050919050565b8181036147ad575050614885565b6147b682614774565b67ffffffffffffffff8111156147cf576147ce613225565b5b6147d98254614463565b6147e48282856145a9565b6000601f8311600181146148135760008415614801578287015490505b61480b858261461a565b86555061487e565b601f1984166148218761478a565b965061482c86614494565b60005b828110156148545784890154825560018201915060018501945060208101905061482f565b86831015614871578489015461486d601f8916826145fc565b8355505b6001600288020188555050505b5050505050505b565b7f496e73756666696369656e74207061796d656e742e0000000000000000000000600082015250565b60006148bd6015836142b9565b91506148c882614887565b602082019050919050565b600060208201905081810360008301526148ec816148b0565b9050919050565b7f5061796d656e742068617320616c7265616479206265656e206d6164652e0000600082015250565b6000614929601e836142b9565b9150614934826148f3565b602082019050919050565b600060208201905081810360008301526149588161491c565b9050919050565b7f50726f64756374206973206e6f7420617661696c61626c652e00000000000000600082015250565b60006149956019836142b9565b91506149a08261495f565b602082019050919050565b600060208201905081810360008301526149c481614988565b9050919050565b6149d481613641565b82525050565b60006060820190506149ef60008301866149cb565b6149fc6020830185613e1f565b614a096040830184613dc8565b949350505050565b7f4e487b7100000000000000000000000000000000000000000000000000000000600052601160045260246000fd5b6000614a4b8261315c565b91507fffffffffffffffffffffffffffffffffffffffffffffffffffffffffffffffff8203614a7d57614a7c614a11565b5b600182019050919050565b6000614a938261389b565b9050919050565b614aa381614a88565b82525050565b6000608082019050614abe6000830187613dc8565b614acb6020830186613e1f565b614ad86040830185614a9a565b614ae56060830184613dc8565b95945050505050565b600081549050614afd81614463565b9050919050565b818103614b12575050614bea565b614b1b82614aee565b67ffffffffffffffff811115614b3457614b33613225565b5b614b3e8254614463565b614b498282856145a9565b6000601f831160018114614b785760008415614b66578287015490505b614b70858261461a565b865550614be3565b601f198416614b8687614494565b9650614b9186614494565b60005b82811015614bb957848901548255600182019150600185019450602081019050614b94565b86831015614bd65784890154614bd2601f8916826145fc565b8355505b6001600288020188555050505b5050505050505b565b7f4f6e6c792074686520636f6e7472616374206f776e65722063616e2063616c6c60008201527f20746869732066756e6374696f6e2e0000000000000000000000000000000000602082015250565b6000614c48602f836142b9565b9150614c5382614bec565b604082019050919050565b60006020820190508181036000830152614c7781614c3b565b9050919050565b7f496e76616c69642073656e64657220616464726573732e000000000000000000600082015250565b6000614cb46017836142b9565b9150614cbf82614c7e565b602082019050919050565b60006020820190508181036000830152614ce381614ca7565b9050919050565b7f4f6e6c79207468652073656c6c65722063616e2063616c6c207468697320667560008201527f6e6374696f6e2e00000000000000000000000000000000000000000000000000602082015250565b6000614d466027836142b9565b9150614d5182614cea565b604082019050919050565b60006020820190508181036000830152614d7581614d39565b9050919050565b7f4f726465722068617320616c7265616479206265656e2066756c66696c6c656460008201527f2e00000000000000000000000000000000000000000000000000000000000000602082015250565b6000614dd86021836142b9565b9150614de382614d7c565b604082019050919050565b60006020820190508181036000830152614e0781614dcb565b905091905056fe608060405234801561001057600080fd5b50611304806100206000396000f3fe6080604052600436106100a75760003560e01c8063a035b1fe11610064578063a035b1fe1461019f578063d0e30db0146101ca578063e8a61cc8146101d4578063ed11d7a8146101eb578063fa0af12a14610202578063fe25e00a1461022b576100a7565b806308551a53146100ac5780631794bb3c146100d7578063209ebc08146100f35780636f9fb98a1461011e5780637150d8ae14610149578063765f744c14610174575b600080fd5b3480156100b857600080fd5b506100c1610256565b6040516100ce9190610d29565b60405180910390f35b6100f160048036038101906100ec9190610de9565b61027c565b005b3480156100ff57600080fd5b5061010861038d565b6040516101159190610e57565b60405180910390f35b34801561012a57600080fd5b506101336103a0565b6040516101409190610e81565b60405180910390f35b34801561015557600080fd5b5061015e6103a8565b60405161016b9190610d29565b60405180910390f35b34801561018057600080fd5b506101896103cc565b6040516101969190610e57565b60405180910390f35b3480156101ab57600080fd5b506101b46103df565b6040516101c19190610e81565b60405180910390f35b6101d26103e5565b005b3480156101e057600080fd5b506101e9610584565b005b3480156101f757600080fd5b506102006107e5565b005b34801561020e57600080fd5b5061022960048036038101906102249190610ec8565b6109a8565b005b34801561023757600080fd5b50610240610cc2565b60405161024d9190610d29565b60405180910390f35b600160009054906101000a900473ffffffffffffffffffffffffffffffffffffffff1681565b6000341161028957600080fd5b336000806101000a81548173ffffffffffffffffffffffffffffffffffffffff021916908373ffffffffffffffffffffffffffffffffffffffff16021790555082600160006101000a81548173ffffffffffffffffffffffffffffffffffffffff021916908373ffffffffffffffffffffffffffffffffffffffff16021790555081600260006101000a81548173ffffffffffffffffffffffffffffffffffffffff021916908373ffffffffffffffffffffffffffffffffffffffff160217905550806003819055506000600460006101000a81548160ff0219169083151502179055506000600460016101000a81548160ff021916908315150217905550505050565b600460009054906101000a900460ff1681565b600047905090565b60008054906101000a900473ffffffffffffffffffffffffffffffffffffffff1681565b600460019054906101000a900460ff1681565b60035481565b60008054906101000a900473ffffffffffffffffffffffffffffffffffffffff1673ffffffffffffffffffffffffffffffffffffffff163373ffffffffffffffffffffffffffffffffffffffff1614610473576040517f08c379a000000000000000000000000000000000000000000000000000000000815260040161046a90610f78565b60405180910390fd5b600460009054906101000a900460ff1615801561049d5750600460019054906101000a900460ff16155b6104dc576040517f08c379a00000000000000000000000000000000000000000000000000000000081526004016104d390610fe4565b60405180910390fd5b6003543414610520576040517f08c379a000000000000000000000000000000000000000000000000000000000815260040161051790611050565b60405180910390fd5b3073ffffffffffffffffffffffffffffffffffffffff166108fc349081150290604051600060405180830381858888f19350505050158015610566573d6000803e3d6000fd5b506001600460006101000a81548160ff021916908315150217905550565b60008054906101000a900473ffffffffffffffffffffffffffffffffffffffff1673ffffffffffffffffffffffffffffffffffffffff163373ffffffffffffffffffffffffffffffffffffffff1614610612576040517f08c379a000000000000000000000000000000000000000000000000000000000815260040161060990610f78565b60405180910390fd5b600460009054906101000a900460ff16610661576040517f08c379a0000000000000000000000000000000000000000000000000000000008152600401610658906110bc565b60405180910390fd5b600460019054906101000a900460ff16156106b1576040517f08c379a00000000000000000000000000000000000000000000000000000000081526004016106a890611128565b60405180910390fd5b60008054906101000a900473ffffffffffffffffffffffffffffffffffffffff1673ffffffffffffffffffffffffffffffffffffffff166108fc6003549081150290604051600060405180830381858888f19350505050158015610719573d6000803e3d6000fd5b507fdf20fd1e76bc69d672e4814fafb2c449bba3a5369d8359adf9e05e6fde87b05660008054906101000a900473ffffffffffffffffffffffffffffffffffffffff1660035460405161076d9291906111a7565b60405180910390a16000600460006101000a81548160ff0219169083151502179055506001600460016101000a81548160ff0219169083151502179055507f03445cb5f8dea2a1372e8ac1ea53d21c0c5fbb0cc7dfe8af6d56a5414827179d60006040516107db9190610e57565b60405180910390a1565b600260009054906101000a900473ffffffffffffffffffffffffffffffffffffffff1673ffffffffffffffffffffffffffffffffffffffff163373ffffffffffffffffffffffffffffffffffffffff1614610875576040517f08c379a000000000000000000000000000000000000000000000000000000000815260040161086c90611242565b60405180910390fd5b600460009054906101000a900460ff16801561089d5750600460019054906101000a900460ff165b6108dc576040517f08c379a00000000000000000000000000000000000000000000000000000000081526004016108d3906112ae565b60405180910390fd5b6000479050600260009054906101000a900473ffffffffffffffffffffffffffffffffffffffff1673ffffffffffffffffffffffffffffffffffffffff166108fc829081150290604051600060405180830381858888f19350505050158015610949573d6000803e3d6000fd5b507fdf20fd1e76bc69d672e4814fafb2c449bba3a5369d8359adf9e05e6fde87b056600260009054906101000a900473ffffffffffffffffffffffffffffffffffffffff168260405161099d9291906111a7565b60405180910390a150565b60008054906101000a900473ffffffffffffffffffffffffffffffffffffffff1673ffffffffffffffffffffffffffffffffffffffff163373ffffffffffffffffffffffffffffffffffffffff1614610a36576040517f08c379a0000000000000000000000000000000000000000000000000000000008152600401610a2d90610f78565b60405180910390fd5b600460009054906101000a900460ff16610a85576040517f08c379a0000000000000000000000000000000000000000000000000000000008152600401610a7c906110bc565b60405180910390fd5b600460019054906101000a900460ff1615610ad5576040517f08c379a0000000000000000000000000000000000000000000000000000000008152600401610acc90611128565b60405180910390fd5b8015610ba857600160009054906101000a900473ffffffffffffffffffffffffffffffffffffffff1673ffffffffffffffffffffffffffffffffffffffff166108fc6003549081150290604051600060405180830381858888f19350505050158015610b45573d6000803e3d6000fd5b507fdf20fd1e76bc69d672e4814fafb2c449bba3a5369d8359adf9e05e6fde87b056600160009054906101000a900473ffffffffffffffffffffffffffffffffffffffff16600354604051610b9b9291906111a7565b60405180910390a1610c6d565b60008054906101000a900473ffffffffffffffffffffffffffffffffffffffff1673ffffffffffffffffffffffffffffffffffffffff166108fc6003549081150290604051600060405180830381858888f19350505050158015610c10573d6000803e3d6000fd5b507fdf20fd1e76bc69d672e4814fafb2c449bba3a5369d8359adf9e05e6fde87b05660008054906101000a900473ffffffffffffffffffffffffffffffffffffffff16600354604051610c649291906111a7565b60405180910390a15b6001600460016101000a81548160ff0219169083151502179055507f03445cb5f8dea2a1372e8ac1ea53d21c0c5fbb0cc7dfe8af6d56a5414827179d81604051610cb79190610e57565b60405180910390a150565b600260009054906101000a900473ffffffffffffffffffffffffffffffffffffffff1681565b600073ffffffffffffffffffffffffffffffffffffffff82169050919050565b6000610d1382610ce8565b9050919050565b610d2381610d08565b82525050565b6000602082019050610d3e6000830184610d1a565b92915050565b600080fd5b610d5281610d08565b8114610d5d57600080fd5b50565b600081359050610d6f81610d49565b92915050565b6000610d8082610ce8565b9050919050565b610d9081610d75565b8114610d9b57600080fd5b50565b600081359050610dad81610d87565b92915050565b6000819050919050565b610dc681610db3565b8114610dd157600080fd5b50565b600081359050610de381610dbd565b92915050565b600080600060608486031215610e0257610e01610d44565b5b6000610e1086828701610d60565b9350506020610e2186828701610d9e565b9250506040610e3286828701610dd4565b9150509250925092565b60008115159050919050565b610e5181610e3c565b82525050565b6000602082019050610e6c6000830184610e48565b92915050565b610e7b81610db3565b82525050565b6000602082019050610e966000830184610e72565b92915050565b610ea581610e3c565b8114610eb057600080fd5b50565b600081359050610ec281610e9c565b92915050565b600060208284031215610ede57610edd610d44565b5b6000610eec84828501610eb3565b91505092915050565b600082825260208201905092915050565b7f4f6e6c792062757965722063616e2063616c6c20746869732066756e6374696f60008201527f6e2e000000000000000000000000000000000000000000000000000000000000602082015250565b6000610f62602283610ef5565b9150610f6d82610f06565b604082019050919050565b60006020820190508181036000830152610f9181610f55565b9050919050565b7f457363726f7720697320616c726561647920636f6d706c657465642e00000000600082015250565b6000610fce601c83610ef5565b9150610fd982610f98565b602082019050919050565b60006020820190508181036000830152610ffd81610fc1565b9050919050565b7f496e636f7272656374206465706f73697420616d6f756e742e00000000000000600082015250565b600061103a601983610ef5565b915061104582611004565b602082019050919050565b600060208201905081810360008301526110698161102d565b9050919050565b7f5061796d656e7420686173206e6f74206265656e206d6164652e000000000000600082015250565b60006110a6601a83610ef5565b91506110b182611070565b602082019050919050565b600060208201905081810360008301526110d581611099565b9050919050565b7f44656c697665727920697320616c726561647920636f6e6669726d65642e0000600082015250565b6000611112601e83610ef5565b915061111d826110dc565b602082019050919050565b6000602082019050818103600083015261114181611105565b9050919050565b6000819050919050565b600061116d61116861116384610ce8565b611148565b610ce8565b9050919050565b600061117f82611152565b9050919050565b600061119182611174565b9050919050565b6111a181611186565b82525050565b60006040820190506111bc6000830185611198565b6111c96020830184610e72565b9392505050565b7f4f6e6c7920617262697465722063616e2063616c6c20746869732066756e637460008201527f696f6e2e00000000000000000000000000000000000000000000000000000000602082015250565b600061122c602483610ef5565b9150611237826111d0565b604082019050919050565b6000602082019050818103600083015261125b8161121f565b9050919050565b7f457363726f77206973206e6f7420636f6d706c65746564207965742e00000000600082015250565b6000611298601c83610ef5565b91506112a382611262565b602082019050919050565b600060208201905081810360008301526112c78161128b565b905091905056fea2646970667358221220ff2e5d90cbcf1bd45da50090207dccf2448a8c22c442b379e3be78a830786efe64736f6c63430008120033a264697066735822122084ea86defd7e34c3e84981ae86b0d3af7bc607b425b103a47a8a0f68b27360c064736f6c63430008120033",
  "linkReferences": {},
  "deployedLinkReferences": {}
}